{
  "_format": "hh-sol-artifact-1",
  "contractName": "LinkdropEscrow",
  "sourceName": "contracts/LinkdropEscrow.sol",
  "abi": [
    {
      "inputs": [
        {
          "internalType": "address",
          "name": "feeReceiver_",
          "type": "address"
        },
        {
          "internalType": "address",
          "name": "relayer_",
          "type": "address"
        },
        {
          "internalType": "uint128",
          "name": "claimFee_",
          "type": "uint128"
        },
        {
          "internalType": "uint128",
          "name": "depositFee_",
          "type": "uint128"
        },
        {
          "internalType": "contract IERC20",
          "name": "usdc_",
          "type": "address"
        }
      ],
      "stateMutability": "nonpayable",
      "type": "constructor"
    },
    {
      "anonymous": false,
      "inputs": [
        {
          "indexed": true,
          "internalType": "address",
          "name": "sender",
          "type": "address"
        },
        {
          "indexed": true,
          "internalType": "uint256",
          "name": "transferId",
          "type": "uint256"
        },
        {
          "indexed": false,
          "internalType": "uint128",
          "name": "amount",
          "type": "uint128"
        }
      ],
      "name": "Cancel",
      "type": "event"
    },
    {
      "anonymous": false,
      "inputs": [
        {
          "indexed": true,
          "internalType": "address",
          "name": "sender",
          "type": "address"
        },
        {
          "indexed": false,
          "internalType": "uint256",
          "name": "transferId",
          "type": "uint256"
        },
        {
          "indexed": false,
          "internalType": "uint128",
          "name": "amount",
          "type": "uint128"
        },
        {
          "indexed": false,
          "internalType": "uint128",
          "name": "fee",
          "type": "uint128"
        },
        {
          "indexed": false,
          "internalType": "uint128",
          "name": "expiration",
          "type": "uint128"
        }
      ],
      "name": "Deposit",
      "type": "event"
    },
    {
      "anonymous": false,
      "inputs": [
        {
          "indexed": true,
          "internalType": "address",
          "name": "previousOwner",
          "type": "address"
        },
        {
          "indexed": true,
          "internalType": "address",
          "name": "newOwner",
          "type": "address"
        }
      ],
      "name": "OwnershipTransferred",
      "type": "event"
    },
    {
      "anonymous": false,
      "inputs": [
        {
          "indexed": true,
          "internalType": "address",
          "name": "sender",
          "type": "address"
        },
        {
          "indexed": true,
          "internalType": "address",
          "name": "receiver",
          "type": "address"
        },
        {
          "indexed": false,
          "internalType": "uint256",
          "name": "transferId",
          "type": "uint256"
        },
        {
          "indexed": false,
          "internalType": "uint128",
          "name": "amount",
          "type": "uint128"
        }
      ],
      "name": "Redeem",
      "type": "event"
    },
    {
      "anonymous": false,
      "inputs": [
        {
          "indexed": true,
          "internalType": "address",
          "name": "sender",
          "type": "address"
        },
        {
          "indexed": true,
          "internalType": "uint256",
          "name": "transferId",
          "type": "uint256"
        },
        {
          "indexed": false,
          "internalType": "uint128",
          "name": "amount",
          "type": "uint128"
        }
      ],
      "name": "Refund",
      "type": "event"
    },
    {
      "anonymous": false,
      "inputs": [
        {
          "indexed": false,
          "internalType": "address",
          "name": "feeReceiver",
          "type": "address"
        }
      ],
      "name": "UpdateFeeReceiver",
      "type": "event"
    },
    {
      "anonymous": false,
      "inputs": [
        {
          "indexed": false,
          "internalType": "uint128",
          "name": "claimFee",
          "type": "uint128"
        },
        {
          "indexed": false,
          "internalType": "uint128",
          "name": "depositFee",
          "type": "uint128"
        }
      ],
      "name": "UpdateFees",
      "type": "event"
    },
    {
      "anonymous": false,
      "inputs": [
        {
          "indexed": false,
          "internalType": "address",
          "name": "relayer",
          "type": "address"
        },
        {
          "indexed": false,
          "internalType": "bool",
          "name": "active",
          "type": "bool"
        }
      ],
      "name": "UpdateRelayer",
      "type": "event"
    },
    {
      "inputs": [],
      "name": "EIP712_DOMAIN_TYPEHASH",
      "outputs": [
        {
          "internalType": "bytes32",
          "name": "",
          "type": "bytes32"
        }
      ],
      "stateMutability": "view",
      "type": "function"
    },
    {
      "inputs": [],
      "name": "_DOMAIN_SEPARATOR",
      "outputs": [
        {
          "internalType": "bytes32",
          "name": "",
          "type": "bytes32"
        }
      ],
      "stateMutability": "view",
      "type": "function"
    },
    {
      "inputs": [],
      "name": "_TRANSFER_TYPE_HASH",
      "outputs": [
        {
          "internalType": "bytes32",
          "name": "",
          "type": "bytes32"
        }
      ],
      "stateMutability": "view",
      "type": "function"
    },
    {
      "inputs": [
        {
          "internalType": "uint256",
          "name": "transferId_",
          "type": "uint256"
        }
      ],
      "name": "cancel",
      "outputs": [],
      "stateMutability": "nonpayable",
      "type": "function"
    },
    {
      "inputs": [],
      "name": "claimFee",
      "outputs": [
        {
          "internalType": "uint128",
          "name": "",
          "type": "uint128"
        }
      ],
      "stateMutability": "view",
      "type": "function"
    },
    {
      "inputs": [
        {
          "internalType": "uint256",
          "name": "transferId_",
          "type": "uint256"
        },
        {
          "internalType": "uint128",
          "name": "amount_",
          "type": "uint128"
        },
        {
          "internalType": "uint128",
          "name": "expiration_",
          "type": "uint128"
        }
      ],
      "name": "deposit",
      "outputs": [],
      "stateMutability": "nonpayable",
      "type": "function"
    },
    {
      "inputs": [],
      "name": "depositFee",
      "outputs": [
        {
          "internalType": "uint128",
          "name": "",
          "type": "uint128"
        }
      ],
      "stateMutability": "view",
      "type": "function"
    },
    {
      "inputs": [
        {
          "internalType": "uint256",
          "name": "transferId_",
          "type": "uint256"
        },
        {
          "internalType": "uint128",
          "name": "expiration_",
          "type": "uint128"
        },
        {
          "internalType": "bool",
          "name": "sponsored_",
          "type": "bool"
        },
        {
          "internalType": "bytes",
          "name": "receiveAuthorization_",
          "type": "bytes"
        }
      ],
      "name": "depositWithAuthorization",
      "outputs": [],
      "stateMutability": "nonpayable",
      "type": "function"
    },
    {
      "inputs": [
        {
          "internalType": "address",
          "name": "",
          "type": "address"
        },
        {
          "internalType": "uint256",
          "name": "",
          "type": "uint256"
        }
      ],
      "name": "deposits",
      "outputs": [
        {
          "internalType": "uint128",
          "name": "amount",
          "type": "uint128"
        },
        {
          "internalType": "uint128",
          "name": "expiration",
          "type": "uint128"
        }
      ],
      "stateMutability": "view",
      "type": "function"
    },
    {
      "inputs": [],
      "name": "domain",
      "outputs": [
        {
          "internalType": "string",
          "name": "name",
          "type": "string"
        },
        {
          "internalType": "string",
          "name": "version",
          "type": "string"
        },
        {
          "internalType": "uint256",
          "name": "chainId",
          "type": "uint256"
        },
        {
          "internalType": "address",
          "name": "verifyingContract",
          "type": "address"
        }
      ],
      "stateMutability": "view",
      "type": "function"
    },
    {
      "inputs": [],
      "name": "feeReceiver",
      "outputs": [
        {
          "internalType": "address",
          "name": "",
          "type": "address"
        }
      ],
      "stateMutability": "view",
      "type": "function"
    },
    {
      "inputs": [
        {
          "internalType": "address",
          "name": "sender_",
          "type": "address"
        },
        {
          "internalType": "uint256",
          "name": "transferId_",
          "type": "uint256"
        }
      ],
      "name": "getDeposit",
      "outputs": [
        {
          "internalType": "address",
          "name": "tokenAddress",
          "type": "address"
        },
        {
          "internalType": "uint128",
          "name": "amount",
          "type": "uint128"
        },
        {
          "internalType": "uint128",
          "name": "expiration",
          "type": "uint128"
        }
      ],
      "stateMutability": "view",
      "type": "function"
    },
    {
      "inputs": [],
      "name": "getFees",
      "outputs": [
        {
          "internalType": "uint128",
          "name": "",
          "type": "uint128"
        },
        {
          "internalType": "uint128",
          "name": "",
          "type": "uint128"
        },
        {
          "internalType": "uint128",
          "name": "",
          "type": "uint128"
        }
      ],
      "stateMutability": "view",
      "type": "function"
    },
    {
      "inputs": [],
      "name": "owner",
      "outputs": [
        {
          "internalType": "address",
          "name": "",
          "type": "address"
        }
      ],
      "stateMutability": "view",
      "type": "function"
    },
    {
      "inputs": [
        {
          "internalType": "address",
          "name": "receiver_",
          "type": "address"
        },
        {
          "internalType": "bytes",
          "name": "receiverSig_",
          "type": "bytes"
        }
      ],
      "name": "recoverLinkKeyId",
      "outputs": [
        {
          "internalType": "address",
          "name": "linkKeyId",
          "type": "address"
        }
      ],
      "stateMutability": "pure",
      "type": "function"
    },
    {
      "inputs": [
        {
          "internalType": "address",
          "name": "linkKeyId_",
          "type": "address"
        },
        {
          "internalType": "uint256",
          "name": "transferId_",
          "type": "uint256"
        },
        {
          "internalType": "bytes",
          "name": "senderSig_",
          "type": "bytes"
        }
      ],
      "name": "recoverSender",
      "outputs": [
        {
          "internalType": "address",
          "name": "sender",
          "type": "address"
        }
      ],
      "stateMutability": "view",
      "type": "function"
    },
    {
      "inputs": [
        {
          "internalType": "address",
          "name": "receiver_",
          "type": "address"
        },
        {
          "internalType": "uint256",
          "name": "transferId_",
          "type": "uint256"
        },
        {
          "internalType": "bytes",
          "name": "receiverSig_",
          "type": "bytes"
        },
        {
          "internalType": "bytes",
          "name": "senderSig_",
          "type": "bytes"
        }
      ],
      "name": "redeem",
      "outputs": [],
      "stateMutability": "nonpayable",
      "type": "function"
    },
    {
      "inputs": [
        {
          "internalType": "address",
          "name": "sender_",
          "type": "address"
        },
        {
          "internalType": "uint256",
          "name": "transferId_",
          "type": "uint256"
        }
      ],
      "name": "refund",
      "outputs": [],
      "stateMutability": "nonpayable",
      "type": "function"
    },
    {
      "inputs": [
        {
          "internalType": "address",
          "name": "",
          "type": "address"
        }
      ],
      "name": "relayers",
      "outputs": [
        {
          "internalType": "bool",
          "name": "",
          "type": "bool"
        }
      ],
      "stateMutability": "view",
      "type": "function"
    },
    {
      "inputs": [],
      "name": "renounceOwnership",
      "outputs": [],
      "stateMutability": "nonpayable",
      "type": "function"
    },
    {
      "inputs": [
        {
          "internalType": "address",
          "name": "feeReceiver_",
          "type": "address"
        }
      ],
      "name": "setFeeReceiver",
      "outputs": [],
      "stateMutability": "nonpayable",
      "type": "function"
    },
    {
      "inputs": [
        {
          "internalType": "uint128",
          "name": "claimFee_",
          "type": "uint128"
        },
        {
          "internalType": "uint128",
          "name": "depositFee_",
          "type": "uint128"
        }
      ],
      "name": "setFees",
      "outputs": [],
      "stateMutability": "nonpayable",
      "type": "function"
    },
    {
      "inputs": [
        {
          "internalType": "address",
          "name": "relayer_",
          "type": "address"
        },
        {
          "internalType": "bool",
          "name": "active_",
          "type": "bool"
        }
      ],
      "name": "setRelayer",
      "outputs": [],
      "stateMutability": "nonpayable",
      "type": "function"
    },
    {
      "inputs": [],
      "name": "token",
      "outputs": [
        {
          "internalType": "contract IERC20",
          "name": "",
          "type": "address"
        }
      ],
      "stateMutability": "view",
      "type": "function"
    },
    {
      "inputs": [
        {
          "internalType": "address",
          "name": "newOwner",
          "type": "address"
        }
      ],
      "name": "transferOwnership",
      "outputs": [],
      "stateMutability": "nonpayable",
      "type": "function"
    }
  ],
  "bytecode": "0x60c06040523480156200001157600080fd5b50604051620048a6380380620048a6833981810160405281019062000037919062000590565b620000576200004b620003c860201b60201c565b620003d060201b60201c565b600046905060405180608001604052806040518060400160405280600e81526020017f4c696e6b64726f70457363726f7700000000000000000000000000000000000081525081526020016040518060400160405280600181526020017f310000000000000000000000000000000000000000000000000000000000000081525081526020018281526020013073ffffffffffffffffffffffffffffffffffffffff168152506001600082015181600001908162000116919062000892565b5060208201518160010190816200012e919062000892565b506040820151816002015560608201518160030160006101000a81548173ffffffffffffffffffffffffffffffffffffffff021916908373ffffffffffffffffffffffffffffffffffffffff1602179055509050507f8b73c3c69bb8fe3d512ecc4cf759cc79239f7b179b0ffacaa9a75d522b39400f6001600001604051620001b8919062000a28565b604051809103902060018001604051620001d3919062000a28565b604051809103902060016002015430604051602001620001f895949392919062000a7e565b60405160208183030381529060405280519060200120608081815250507f9b18bc06d5328d5d5bebd4ac448e2311930b26245b52c1dd5c65c534feaba0648060001b146200027d576040517f08c379a0000000000000000000000000000000000000000000000000000000008152600401620002749062000b3c565b60405180910390fd5b5084600760006101000a81548173ffffffffffffffffffffffffffffffffffffffff021916908373ffffffffffffffffffffffffffffffffffffffff1602179055506001600860008673ffffffffffffffffffffffffffffffffffffffff1673ffffffffffffffffffffffffffffffffffffffff16815260200190815260200160002060006101000a81548160ff02191690831515021790555082600660006101000a8154816fffffffffffffffffffffffffffffffff02191690836fffffffffffffffffffffffffffffffff16021790555081600660106101000a8154816fffffffffffffffffffffffffffffffff02191690836fffffffffffffffffffffffffffffffff1602179055508073ffffffffffffffffffffffffffffffffffffffff1660a08173ffffffffffffffffffffffffffffffffffffffff1681525050505050505062000b5e565b600033905090565b60008060009054906101000a900473ffffffffffffffffffffffffffffffffffffffff169050816000806101000a81548173ffffffffffffffffffffffffffffffffffffffff021916908373ffffffffffffffffffffffffffffffffffffffff1602179055508173ffffffffffffffffffffffffffffffffffffffff168173ffffffffffffffffffffffffffffffffffffffff167f8be0079c531659141344cd1fd0a4f28419497f9722a3daafe3b4186f6b6457e060405160405180910390a35050565b600080fd5b600073ffffffffffffffffffffffffffffffffffffffff82169050919050565b6000620004c68262000499565b9050919050565b620004d881620004b9565b8114620004e457600080fd5b50565b600081519050620004f881620004cd565b92915050565b60006fffffffffffffffffffffffffffffffff82169050919050565b6200052581620004fe565b81146200053157600080fd5b50565b60008151905062000545816200051a565b92915050565b60006200055882620004b9565b9050919050565b6200056a816200054b565b81146200057657600080fd5b50565b6000815190506200058a816200055f565b92915050565b600080600080600060a08688031215620005af57620005ae62000494565b5b6000620005bf88828901620004e7565b9550506020620005d288828901620004e7565b9450506040620005e58882890162000534565b9350506060620005f88882890162000534565b92505060806200060b8882890162000579565b9150509295509295909350565b600081519050919050565b7f4e487b7100000000000000000000000000000000000000000000000000000000600052604160045260246000fd5b7f4e487b7100000000000000000000000000000000000000000000000000000000600052602260045260246000fd5b600060028204905060018216806200069a57607f821691505b602082108103620006b057620006af62000652565b5b50919050565b60008190508160005260206000209050919050565b60006020601f8301049050919050565b600082821b905092915050565b6000600883026200071a7fffffffffffffffffffffffffffffffffffffffffffffffffffffffffffffffff82620006db565b620007268683620006db565b95508019841693508086168417925050509392505050565b6000819050919050565b6000819050919050565b6000620007736200076d62000767846200073e565b62000748565b6200073e565b9050919050565b6000819050919050565b6200078f8362000752565b620007a76200079e826200077a565b848454620006e8565b825550505050565b600090565b620007be620007af565b620007cb81848462000784565b505050565b5b81811015620007f357620007e7600082620007b4565b600181019050620007d1565b5050565b601f82111562000842576200080c81620006b6565b6200081784620006cb565b8101602085101562000827578190505b6200083f6200083685620006cb565b830182620007d0565b50505b505050565b600082821c905092915050565b6000620008676000198460080262000847565b1980831691505092915050565b600062000882838362000854565b9150826002028217905092915050565b6200089d8262000618565b67ffffffffffffffff811115620008b957620008b862000623565b5b620008c5825462000681565b620008d2828285620007f7565b600060209050601f8311600181146200090a5760008415620008f5578287015190505b62000901858262000874565b86555062000971565b601f1984166200091a86620006b6565b60005b8281101562000944578489015182556001820191506020850194506020810190506200091d565b8683101562000964578489015162000960601f89168262000854565b8355505b6001600288020188555050505b505050505050565b600081905092915050565b60008190508160005260206000209050919050565b60008154620009a88162000681565b620009b4818662000979565b94506001821660008114620009d25760018114620009e85762000a1f565b60ff198316865281151582028601935062000a1f565b620009f38562000984565b60005b8381101562000a1757815481890152600182019150602081019050620009f6565b838801955050505b50505092915050565b600062000a36828462000999565b915081905092915050565b6000819050919050565b62000a568162000a41565b82525050565b62000a67816200073e565b82525050565b62000a7881620004b9565b82525050565b600060a08201905062000a95600083018862000a4b565b62000aa4602083018762000a4b565b62000ab3604083018662000a4b565b62000ac2606083018562000a5c565b62000ad1608083018462000a6d565b9695505050505050565b600082825260208201905092915050565b7f4549503731323a20696e76616c69642074797065206861736800000000000000600082015250565b600062000b2460198362000adb565b915062000b318262000aec565b602082019050919050565b6000602082019050818103600083015262000b578162000b15565b9050919050565b60805160a051613cea62000bbc600039600081816104a4015281816107350152818161089b01528181610c35015281816110080152818161143d01528181611a440152611d8001526000818161187e01526120d60152613cea6000f3fe608060405234801561001057600080fd5b50600436106101735760003560e01c80638da5cb5b116100de578063db8d55f111610097578063efdcd97411610071578063efdcd9741461041c578063f2fde38b14610438578063fc0c546a14610454578063ff8d4abe1461047257610173565b8063db8d55f1146103c2578063dc0c81b5146103e2578063ecd8dc3a1461040057610173565b80638da5cb5b146102f857806399d32fc414610316578063b3f0067414610334578063c2fb26a614610352578063c7977be714610373578063d6d681771461039157610173565b8063410085df11610130578063410085df1461024a5780635300f8411461026657806367a52793146102965780636ea10b6d146102b4578063715018a6146102d057806371d68372146102da57610173565b80631b4376141461017857806321a39b2b146101945780632726b506146101b057806332760c7a146101e25780633d6e85e6146101fe57806340e58ee51461022e575b600080fd5b610192600480360381019061018d919061244f565b6104a2565b005b6101ae60048036038101906101a9919061253f565b610585565b005b6101ca60048036038101906101c59190612625565b610894565b6040516101d993929190612683565b60405180910390f35b6101fc60048036038101906101f791906126ba565b6109a7565b005b610218600480360381019061021391906126fa565b610a9a565b604051610225919061275a565b60405180910390f35b61024860048036038101906102439190612775565b610b26565b005b610264600480360381019061025f9190612625565b610d37565b005b610280600480360381019061027b91906127a2565b61110c565b60405161028d91906127de565b60405180910390f35b61029e61112c565b6040516102ab91906127f9565b60405180910390f35b6102ce60048036038101906102c99190612814565b61114e565b005b6102d861155f565b005b6102e2611573565b6040516102ef91906128d4565b60405180910390f35b61030061159a565b60405161030d919061275a565b60405180910390f35b61031e6115c3565b60405161032b91906127f9565b60405180910390f35b61033c6115e5565b604051610349919061275a565b60405180910390f35b61035a61160b565b60405161036a949392919061298e565b60405180910390f35b61037b611759565b60405161038891906128d4565b60405180910390f35b6103ab60048036038101906103a69190612625565b61177d565b6040516103b99291906129e1565b60405180910390f35b6103ca6117e6565b6040516103d993929190612a0a565b60405180910390f35b6103ea61187c565b6040516103f791906128d4565b60405180910390f35b61041a60048036038101906104159190612a41565b6118a0565b005b610436600480360381019061043191906127a2565b61193c565b005b610452600480360381019061044d91906127a2565b6119bf565b005b61045c611a42565b6040516104699190612ae0565b60405180910390f35b61048c60048036038101906104879190612afb565b611a66565b604051610499919061275a565b60405180910390f35b7f000000000000000000000000000000000000000000000000000000000000000073ffffffffffffffffffffffffffffffffffffffff166323b872dd3330856fffffffffffffffffffffffffffffffff166040518463ffffffff1660e01b815260040161051193929190612b6f565b6020604051808303816000875af1158015610530573d6000803e3d6000fd5b505050506040513d601f19601f820116820180604052508101906105549190612bbb565b50610580338484600660009054906101000a90046fffffffffffffffffffffffffffffffff1685611ace565b505050565b600860003373ffffffffffffffffffffffffffffffffffffffff1673ffffffffffffffffffffffffffffffffffffffff16815260200190815260200160002060009054906101000a900460ff16610611576040517f08c379a000000000000000000000000000000000000000000000000000000000815260040161060890612c5a565b60405180910390fd5b600080600080600080878760009060c09261062e93929190612c84565b81019061063b9190612d29565b809850819650829750839950849a50859b5050505050505050503073ffffffffffffffffffffffffffffffffffffffff168373ffffffffffffffffffffffffffffffffffffffff16146106c3576040517f08c379a00000000000000000000000000000000000000000000000000000000081526004016106ba90612e4e565b60405180910390fd5b80848a848b6040516020016106db9493929190612f0d565b6040516020818303038152906040528051906020012014610731576040517f08c379a000000000000000000000000000000000000000000000000000000000815260040161072890612ff3565b60405180910390fd5b60007f000000000000000000000000000000000000000000000000000000000000000073ffffffffffffffffffffffffffffffffffffffff1663e3ee160e60e01b88886040516020016107869392919061309f565b6040516020818303038152906040526040516107a29190613105565b6000604051808303816000865af19150503d80600081146107df576040519150601f19603f3d011682016040523d82523d6000602084013e6107e4565b606091505b5050905080610828576040517f08c379a000000000000000000000000000000000000000000000000000000000815260040161081f90613168565b60405180910390fd5b60008861087a57600660009054906101000a90046fffffffffffffffffffffffffffffffff16600660109054906101000a90046fffffffffffffffffffffffffffffffff1661087791906131b7565b90505b610887868c86848e611ace565b5050505050505050505050565b60008060007f0000000000000000000000000000000000000000000000000000000000000000600560008773ffffffffffffffffffffffffffffffffffffffff1673ffffffffffffffffffffffffffffffffffffffff168152602001908152602001600020600086815260200190815260200160002060000160009054906101000a90046fffffffffffffffffffffffffffffffff16600560008873ffffffffffffffffffffffffffffffffffffffff1673ffffffffffffffffffffffffffffffffffffffff168152602001908152602001600020600087815260200190815260200160002060000160109054906101000a90046fffffffffffffffffffffffffffffffff169250925092509250925092565b6109af611ee8565b81600660006101000a8154816fffffffffffffffffffffffffffffffff02191690836fffffffffffffffffffffffffffffffff16021790555080600660106101000a8154816fffffffffffffffffffffffffffffffff02191690836fffffffffffffffffffffffffffffffff1602179055507f011eba83806634de7f6e4bd39154e636355e53ba508fe5e17f4b58c22b868255600660009054906101000a90046fffffffffffffffffffffffffffffffff16600660109054906101000a90046fffffffffffffffffffffffffffffffff16604051610a8e9291906129e1565b60405180910390a15050565b600080610acc85604051602001610ab191906131fb565b60405160208183030381529060405280519060200120611f66565b9050610b1c8185858080601f016020809104026020016040519081016040528093929190818152602001838380828437600081840152601f19601f82011690508083019250505050505050611f96565b9150509392505050565b6000600560003373ffffffffffffffffffffffffffffffffffffffff1673ffffffffffffffffffffffffffffffffffffffff168152602001908152602001600020600083815260200190815260200160002060000160009054906101000a90046fffffffffffffffffffffffffffffffff169050600560003373ffffffffffffffffffffffffffffffffffffffff1673ffffffffffffffffffffffffffffffffffffffff1681526020019081526020016000206000838152602001908152602001600020600080820160006101000a8154906fffffffffffffffffffffffffffffffff02191690556000820160106101000a8154906fffffffffffffffffffffffffffffffff021916905550507f000000000000000000000000000000000000000000000000000000000000000073ffffffffffffffffffffffffffffffffffffffff1663a9059cbb33836fffffffffffffffffffffffffffffffff166040518363ffffffff1660e01b8152600401610ca0929190613216565b6020604051808303816000875af1158015610cbf573d6000803e3d6000fd5b505050506040513d601f19601f82011682018060405250810190610ce39190612bbb565b50813373ffffffffffffffffffffffffffffffffffffffff167f67825c65c1f5f7cb9c87149820a47b82fe818e73343a77afbc064101c926563f83604051610d2b91906127f9565b60405180910390a35050565b600860003373ffffffffffffffffffffffffffffffffffffffff1673ffffffffffffffffffffffffffffffffffffffff16815260200190815260200160002060009054906101000a900460ff16610dc3576040517f08c379a0000000000000000000000000000000000000000000000000000000008152600401610dba90612c5a565b60405180910390fd5b6000600560008473ffffffffffffffffffffffffffffffffffffffff1673ffffffffffffffffffffffffffffffffffffffff16815260200190815260200160002060008381526020019081526020016000206040518060400160405290816000820160009054906101000a90046fffffffffffffffffffffffffffffffff166fffffffffffffffffffffffffffffffff166fffffffffffffffffffffffffffffffff1681526020016000820160109054906101000a90046fffffffffffffffffffffffffffffffff166fffffffffffffffffffffffffffffffff166fffffffffffffffffffffffffffffffff168152505090506000816000015190506000816fffffffffffffffffffffffffffffffff1611610f14576040517f08c379a0000000000000000000000000000000000000000000000000000000008152600401610f0b906132b1565b60405180910390fd5b81602001516fffffffffffffffffffffffffffffffff16421015610f6d576040517f08c379a0000000000000000000000000000000000000000000000000000000008152600401610f6490613343565b60405180910390fd5b600560008573ffffffffffffffffffffffffffffffffffffffff1673ffffffffffffffffffffffffffffffffffffffff1681526020019081526020016000206000848152602001908152602001600020600080820160006101000a8154906fffffffffffffffffffffffffffffffff02191690556000820160106101000a8154906fffffffffffffffffffffffffffffffff021916905550507f000000000000000000000000000000000000000000000000000000000000000073ffffffffffffffffffffffffffffffffffffffff1663a9059cbb85836fffffffffffffffffffffffffffffffff166040518363ffffffff1660e01b8152600401611073929190613216565b6020604051808303816000875af1158015611092573d6000803e3d6000fd5b505050506040513d601f19601f820116820180604052508101906110b69190612bbb565b50828473ffffffffffffffffffffffffffffffffffffffff167ff4a2591700291254119c1fd2083bc9f5ecab99aa0a1466dbec7458f717f0789f836040516110fe91906127f9565b60405180910390a350505050565b60086020528060005260406000206000915054906101000a900460ff1681565b600660109054906101000a90046fffffffffffffffffffffffffffffffff1681565b600860003373ffffffffffffffffffffffffffffffffffffffff1673ffffffffffffffffffffffffffffffffffffffff16815260200190815260200160002060009054906101000a900460ff166111da576040517f08c379a00000000000000000000000000000000000000000000000000000000081526004016111d190612c5a565b60405180910390fd5b60006111e7878686610a9a565b905060006111f782888686611a66565b90506000600560008373ffffffffffffffffffffffffffffffffffffffff1673ffffffffffffffffffffffffffffffffffffffff16815260200190815260200160002060008981526020019081526020016000206040518060400160405290816000820160009054906101000a90046fffffffffffffffffffffffffffffffff166fffffffffffffffffffffffffffffffff166fffffffffffffffffffffffffffffffff1681526020016000820160109054906101000a90046fffffffffffffffffffffffffffffffff166fffffffffffffffffffffffffffffffff166fffffffffffffffffffffffffffffffff1681525050905060008160000151905081602001516fffffffffffffffffffffffffffffffff16421061134d576040517f08c379a0000000000000000000000000000000000000000000000000000000008152600401611344906133d5565b60405180910390fd5b6000816fffffffffffffffffffffffffffffffff16116113a2576040517f08c379a000000000000000000000000000000000000000000000000000000000815260040161139990613467565b60405180910390fd5b600560008473ffffffffffffffffffffffffffffffffffffffff1673ffffffffffffffffffffffffffffffffffffffff16815260200190815260200160002060008a8152602001908152602001600020600080820160006101000a8154906fffffffffffffffffffffffffffffffff02191690556000820160106101000a8154906fffffffffffffffffffffffffffffffff021916905550507f000000000000000000000000000000000000000000000000000000000000000073ffffffffffffffffffffffffffffffffffffffff1663a9059cbb8b836fffffffffffffffffffffffffffffffff166040518363ffffffff1660e01b81526004016114a8929190613216565b6020604051808303816000875af11580156114c7573d6000803e3d6000fd5b505050506040513d601f19601f820116820180604052508101906114eb9190612bbb565b508973ffffffffffffffffffffffffffffffffffffffff168373ffffffffffffffffffffffffffffffffffffffff167fac3762223fc5a98a67c887e994086e4a2a074ac9e83a6e7b78e48b677be6d51b8b8460405161154b929190613487565b60405180910390a350505050505050505050565b611567611ee8565b6115716000611fbd565b565b7f9b18bc06d5328d5d5bebd4ac448e2311930b26245b52c1dd5c65c534feaba06460001b81565b60008060009054906101000a900473ffffffffffffffffffffffffffffffffffffffff16905090565b600660009054906101000a90046fffffffffffffffffffffffffffffffff1681565b600760009054906101000a900473ffffffffffffffffffffffffffffffffffffffff1681565b600180600001805461161c906134df565b80601f0160208091040260200160405190810160405280929190818152602001828054611648906134df565b80156116955780601f1061166a57610100808354040283529160200191611695565b820191906000526020600020905b81548152906001019060200180831161167857829003601f168201915b5050505050908060010180546116aa906134df565b80601f01602080910402602001604051908101604052809291908181526020018280546116d6906134df565b80156117235780601f106116f857610100808354040283529160200191611723565b820191906000526020600020905b81548152906001019060200180831161170657829003601f168201915b5050505050908060020154908060030160009054906101000a900473ffffffffffffffffffffffffffffffffffffffff16905084565b7f8b73c3c69bb8fe3d512ecc4cf759cc79239f7b179b0ffacaa9a75d522b39400f81565b6005602052816000526040600020602052806000526040600020600091509150508060000160009054906101000a90046fffffffffffffffffffffffffffffffff16908060000160109054906101000a90046fffffffffffffffffffffffffffffffff16905082565b6000806000600660109054906101000a90046fffffffffffffffffffffffffffffffff16600660009054906101000a90046fffffffffffffffffffffffffffffffff16600660009054906101000a90046fffffffffffffffffffffffffffffffff16600660109054906101000a90046fffffffffffffffffffffffffffffffff1661187191906131b7565b925092509250909192565b7f000000000000000000000000000000000000000000000000000000000000000081565b6118a8611ee8565b80600860008473ffffffffffffffffffffffffffffffffffffffff1673ffffffffffffffffffffffffffffffffffffffff16815260200190815260200160002060006101000a81548160ff0219169083151502179055507f34e1cf41794bd5b78c6251cacf103835b835d3ad103d8471ae5f3df532ff31128282604051611930929190613510565b60405180910390a15050565b611944611ee8565b80600760006101000a81548173ffffffffffffffffffffffffffffffffffffffff021916908373ffffffffffffffffffffffffffffffffffffffff1602179055507f4bb81b7a72320cae559f4f06a34e4374d452afe73aaf92627313e5384a4cd6b6816040516119b4919061275a565b60405180910390a150565b6119c7611ee8565b600073ffffffffffffffffffffffffffffffffffffffff168173ffffffffffffffffffffffffffffffffffffffff1603611a36576040517f08c379a0000000000000000000000000000000000000000000000000000000008152600401611a2d906135ab565b60405180910390fd5b611a3f81611fbd565b50565b7f000000000000000000000000000000000000000000000000000000000000000081565b600080611a738686612081565b9050611ac38185858080601f016020809104026020016040519081016040528093929190818152602001838380828437600081840152601f19601f82011690508083019250505050505050611f96565b915050949350505050565b6000600560008773ffffffffffffffffffffffffffffffffffffffff1673ffffffffffffffffffffffffffffffffffffffff168152602001908152602001600020600086815260200190815260200160002060000160009054906101000a90046fffffffffffffffffffffffffffffffff166fffffffffffffffffffffffffffffffff1614611b92576040517f08c379a0000000000000000000000000000000000000000000000000000000008152600401611b899061363d565b60405180910390fd5b816fffffffffffffffffffffffffffffffff16836fffffffffffffffffffffffffffffffff1611611bf8576040517f08c379a0000000000000000000000000000000000000000000000000000000008152600401611bef906136cf565b60405180910390fd5b42816fffffffffffffffffffffffffffffffff1611611c4c576040517f08c379a0000000000000000000000000000000000000000000000000000000008152600401611c4390613761565b60405180910390fd5b60405180604001604052808385611c639190613781565b6fffffffffffffffffffffffffffffffff168152602001826fffffffffffffffffffffffffffffffff16815250600560008773ffffffffffffffffffffffffffffffffffffffff1673ffffffffffffffffffffffffffffffffffffffff168152602001908152602001600020600086815260200190815260200160002060008201518160000160006101000a8154816fffffffffffffffffffffffffffffffff02191690836fffffffffffffffffffffffffffffffff16021790555060208201518160000160106101000a8154816fffffffffffffffffffffffffffffffff02191690836fffffffffffffffffffffffffffffffff1602179055509050506000826fffffffffffffffffffffffffffffffff161115611e825760007f000000000000000000000000000000000000000000000000000000000000000073ffffffffffffffffffffffffffffffffffffffff1663a9059cbb600760009054906101000a900473ffffffffffffffffffffffffffffffffffffffff16856040518363ffffffff1660e01b8152600401611dfb9291906137f6565b6020604051808303816000875af1158015611e1a573d6000803e3d6000fd5b505050506040513d601f19601f82011682018060405250810190611e3e9190612bbb565b905080611e80576040517f08c379a0000000000000000000000000000000000000000000000000000000008152600401611e7790613891565b60405180910390fd5b505b8473ffffffffffffffffffffffffffffffffffffffff167f1d27ad0c03a70b183a13817b43b094c2140f982ecfba809c5f5af324a88c3d78858486611ec79190613781565b8585604051611ed994939291906138b1565b60405180910390a25050505050565b611ef0612126565b73ffffffffffffffffffffffffffffffffffffffff16611f0e61159a565b73ffffffffffffffffffffffffffffffffffffffff1614611f64576040517f08c379a0000000000000000000000000000000000000000000000000000000008152600401611f5b90613942565b60405180910390fd5b565b600081604051602001611f7991906139da565b604051602081830303815290604052805190602001209050919050565b6000806000611fa5858561212e565b91509150611fb28161217f565b819250505092915050565b60008060009054906101000a900473ffffffffffffffffffffffffffffffffffffffff169050816000806101000a81548173ffffffffffffffffffffffffffffffffffffffff021916908373ffffffffffffffffffffffffffffffffffffffff1602179055508173ffffffffffffffffffffffffffffffffffffffff168173ffffffffffffffffffffffffffffffffffffffff167f8be0079c531659141344cd1fd0a4f28419497f9722a3daafe3b4186f6b6457e060405160405180910390a35050565b6000807f9b18bc06d5328d5d5bebd4ac448e2311930b26245b52c1dd5c65c534feaba06460001b84846040516020016120bc93929190613a00565b6040516020818303038152906040528051906020012090507f000000000000000000000000000000000000000000000000000000000000000081604051602001612107929190613a83565b6040516020818303038152906040528051906020012091505092915050565b600033905090565b600080604183510361216f5760008060006020860151925060408601519150606086015160001a9050612163878285856122e5565b94509450505050612178565b60006002915091505b9250929050565b6000600481111561219357612192613aba565b5b8160048111156121a6576121a5613aba565b5b03156122e257600160048111156121c0576121bf613aba565b5b8160048111156121d3576121d2613aba565b5b03612213576040517f08c379a000000000000000000000000000000000000000000000000000000000815260040161220a90613b35565b60405180910390fd5b6002600481111561222757612226613aba565b5b81600481111561223a57612239613aba565b5b0361227a576040517f08c379a000000000000000000000000000000000000000000000000000000000815260040161227190613ba1565b60405180910390fd5b6003600481111561228e5761228d613aba565b5b8160048111156122a1576122a0613aba565b5b036122e1576040517f08c379a00000000000000000000000000000000000000000000000000000000081526004016122d890613c33565b60405180910390fd5b5b50565b6000807f7fffffffffffffffffffffffffffffff5d576e7357a4501ddfe92f46681b20a08360001c11156123205760006003915091506123be565b6000600187878787604051600081526020016040526040516123459493929190613c6f565b6020604051602081039080840390855afa158015612367573d6000803e3d6000fd5b505050602060405103519050600073ffffffffffffffffffffffffffffffffffffffff168173ffffffffffffffffffffffffffffffffffffffff16036123b5576000600192509250506123be565b80600092509250505b94509492505050565b600080fd5b600080fd5b6000819050919050565b6123e4816123d1565b81146123ef57600080fd5b50565b600081359050612401816123db565b92915050565b60006fffffffffffffffffffffffffffffffff82169050919050565b61242c81612407565b811461243757600080fd5b50565b60008135905061244981612423565b92915050565b600080600060608486031215612468576124676123c7565b5b6000612476868287016123f2565b93505060206124878682870161243a565b92505060406124988682870161243a565b9150509250925092565b60008115159050919050565b6124b7816124a2565b81146124c257600080fd5b50565b6000813590506124d4816124ae565b92915050565b600080fd5b600080fd5b600080fd5b60008083601f8401126124ff576124fe6124da565b5b8235905067ffffffffffffffff81111561251c5761251b6124df565b5b602083019150836001820283011115612538576125376124e4565b5b9250929050565b60008060008060006080868803121561255b5761255a6123c7565b5b6000612569888289016123f2565b955050602061257a8882890161243a565b945050604061258b888289016124c5565b935050606086013567ffffffffffffffff8111156125ac576125ab6123cc565b5b6125b8888289016124e9565b92509250509295509295909350565b600073ffffffffffffffffffffffffffffffffffffffff82169050919050565b60006125f2826125c7565b9050919050565b612602816125e7565b811461260d57600080fd5b50565b60008135905061261f816125f9565b92915050565b6000806040838503121561263c5761263b6123c7565b5b600061264a85828601612610565b925050602061265b858286016123f2565b9150509250929050565b61266e816125e7565b82525050565b61267d81612407565b82525050565b60006060820190506126986000830186612665565b6126a56020830185612674565b6126b26040830184612674565b949350505050565b600080604083850312156126d1576126d06123c7565b5b60006126df8582860161243a565b92505060206126f08582860161243a565b9150509250929050565b600080600060408486031215612713576127126123c7565b5b600061272186828701612610565b935050602084013567ffffffffffffffff811115612742576127416123cc565b5b61274e868287016124e9565b92509250509250925092565b600060208201905061276f6000830184612665565b92915050565b60006020828403121561278b5761278a6123c7565b5b6000612799848285016123f2565b91505092915050565b6000602082840312156127b8576127b76123c7565b5b60006127c684828501612610565b91505092915050565b6127d8816124a2565b82525050565b60006020820190506127f360008301846127cf565b92915050565b600060208201905061280e6000830184612674565b92915050565b60008060008060008060808789031215612831576128306123c7565b5b600061283f89828a01612610565b965050602061285089828a016123f2565b955050604087013567ffffffffffffffff811115612871576128706123cc565b5b61287d89828a016124e9565b9450945050606087013567ffffffffffffffff8111156128a05761289f6123cc565b5b6128ac89828a016124e9565b92509250509295509295509295565b6000819050919050565b6128ce816128bb565b82525050565b60006020820190506128e960008301846128c5565b92915050565b600081519050919050565b600082825260208201905092915050565b60005b8381101561292957808201518184015260208101905061290e565b60008484015250505050565b6000601f19601f8301169050919050565b6000612951826128ef565b61295b81856128fa565b935061296b81856020860161290b565b61297481612935565b840191505092915050565b612988816123d1565b82525050565b600060808201905081810360008301526129a88187612946565b905081810360208301526129bc8186612946565b90506129cb604083018561297f565b6129d86060830184612665565b95945050505050565b60006040820190506129f66000830185612674565b612a036020830184612674565b9392505050565b6000606082019050612a1f6000830186612674565b612a2c6020830185612674565b612a396040830184612674565b949350505050565b60008060408385031215612a5857612a576123c7565b5b6000612a6685828601612610565b9250506020612a77858286016124c5565b9150509250929050565b6000819050919050565b6000612aa6612aa1612a9c846125c7565b612a81565b6125c7565b9050919050565b6000612ab882612a8b565b9050919050565b6000612aca82612aad565b9050919050565b612ada81612abf565b82525050565b6000602082019050612af56000830184612ad1565b92915050565b60008060008060608587031215612b1557612b146123c7565b5b6000612b2387828801612610565b9450506020612b34878288016123f2565b935050604085013567ffffffffffffffff811115612b5557612b546123cc565b5b612b61878288016124e9565b925092505092959194509250565b6000606082019050612b846000830186612665565b612b916020830185612665565b612b9e604083018461297f565b949350505050565b600081519050612bb5816124ae565b92915050565b600060208284031215612bd157612bd06123c7565b5b6000612bdf84828501612ba6565b91505092915050565b7f4c696e6b64726f70457363726f773a206d73672e73656e646572206973206e6f60008201527f742072656c617965722e00000000000000000000000000000000000000000000602082015250565b6000612c44602a836128fa565b9150612c4f82612be8565b604082019050919050565b60006020820190508181036000830152612c7381612c37565b9050919050565b600080fd5b600080fd5b60008085851115612c9857612c97612c7a565b5b83861115612ca957612ca8612c7f565b5b6001850283019150848603905094509492505050565b6000612cca826125c7565b9050919050565b612cda81612cbf565b8114612ce557600080fd5b50565b600081359050612cf781612cd1565b92915050565b612d06816128bb565b8114612d1157600080fd5b50565b600081359050612d2381612cfd565b92915050565b60008060008060008060c08789031215612d4657612d456123c7565b5b6000612d5489828a01612ce8565b9650506020612d6589828a01612ce8565b9550506040612d7689828a016123f2565b9450506060612d8789828a016123f2565b9350506080612d9889828a016123f2565b92505060a0612da989828a01612d14565b9150509295509295509295565b7f4c696e6b64726f70457363726f773a2072656365697665417574686f72697a6160008201527f74696f6e5f206465636f6465206661696c2e20526563697069656e742069732060208201527f6e6f74207468697320636f6e74726163742e0000000000000000000000000000604082015250565b6000612e386052836128fa565b9150612e4382612db6565b606082019050919050565b60006020820190508181036000830152612e6781612e2b565b9050919050565b60008160601b9050919050565b6000612e8682612e6e565b9050919050565b6000612e9882612e7b565b9050919050565b612eb0612eab826125e7565b612e8d565b82525050565b6000819050919050565b612ed1612ecc826123d1565b612eb6565b82525050565b60008160801b9050919050565b6000612eef82612ed7565b9050919050565b612f07612f0282612407565b612ee4565b82525050565b6000612f198287612e9f565b601482019150612f298286612ec0565b602082019150612f398285612ec0565b602082019150612f498284612ef6565b60108201915081905095945050505050565b7f4c696e6b64726f70457363726f773a2072656365697665417574686f72697a6160008201527f74696f6e5f206465636f6465206661696c2e20496e76616c6964206e6f6e636560208201527f2e00000000000000000000000000000000000000000000000000000000000000604082015250565b6000612fdd6041836128fa565b9150612fe882612f5b565b606082019050919050565b6000602082019050818103600083015261300c81612fd0565b9050919050565b60007fffffffff0000000000000000000000000000000000000000000000000000000082169050919050565b6000819050919050565b61305a61305582613013565b61303f565b82525050565b600081905092915050565b82818337600083830152505050565b60006130868385613060565b935061309383858461306b565b82840190509392505050565b60006130ab8286613049565b6004820191506130bc82848661307a565b9150819050949350505050565b600081519050919050565b60006130df826130c9565b6130e98185613060565b93506130f981856020860161290b565b80840191505092915050565b600061311182846130d4565b915081905092915050565b7f4c696e6b64726f70457363726f773a206465706f736974206661696c65642e00600082015250565b6000613152601f836128fa565b915061315d8261311c565b602082019050919050565b6000602082019050818103600083015261318181613145565b9050919050565b7f4e487b7100000000000000000000000000000000000000000000000000000000600052601160045260246000fd5b60006131c282612407565b91506131cd83612407565b925082820190506fffffffffffffffffffffffffffffffff8111156131f5576131f4613188565b5b92915050565b60006132078284612e9f565b60148201915081905092915050565b600060408201905061322b6000830185612665565b613238602083018461297f565b9392505050565b7f4c696e6b64726f70457363726f773a20696e76616c6964207472616e7366657260008201527f2049440000000000000000000000000000000000000000000000000000000000602082015250565b600061329b6023836128fa565b91506132a68261323f565b604082019050919050565b600060208201905081810360008301526132ca8161328e565b9050919050565b7f4c696e6b64726f70457363726f773a207472616e73666572206e6f742065787060008201527f69726564207965742e0000000000000000000000000000000000000000000000602082015250565b600061332d6029836128fa565b9150613338826132d1565b604082019050919050565b6000602082019050818103600083015261335c81613320565b9050919050565b7f4c696e6b64726f70457363726f773a207472616e73666572206578706972656460008201527f2e00000000000000000000000000000000000000000000000000000000000000602082015250565b60006133bf6021836128fa565b91506133ca82613363565b604082019050919050565b600060208201905081810360008301526133ee816133b2565b9050919050565b7f4c696e6b64726f70457363726f773a20696e76616c69642072656465656d207060008201527f6172616d73000000000000000000000000000000000000000000000000000000602082015250565b60006134516025836128fa565b915061345c826133f5565b604082019050919050565b6000602082019050818103600083015261348081613444565b9050919050565b600060408201905061349c600083018561297f565b6134a96020830184612674565b9392505050565b7f4e487b7100000000000000000000000000000000000000000000000000000000600052602260045260246000fd5b600060028204905060018216806134f757607f821691505b60208210810361350a576135096134b0565b5b50919050565b60006040820190506135256000830185612665565b61353260208301846127cf565b9392505050565b7f4f776e61626c653a206e6577206f776e657220697320746865207a65726f206160008201527f6464726573730000000000000000000000000000000000000000000000000000602082015250565b60006135956026836128fa565b91506135a082613539565b604082019050919050565b600060208201905081810360008301526135c481613588565b9050919050565b7f4c696e6b64726f70457363726f773a207472616e73666572496420697320696e60008201527f207573652e000000000000000000000000000000000000000000000000000000602082015250565b60006136276025836128fa565b9150613632826135cb565b604082019050919050565b600060208201905081810360008301526136568161361a565b9050919050565b7f4c696e6b64726f70457363726f773a20616d6f756e74206973206c657373207460008201527f68616e206465706f7369744665652e0000000000000000000000000000000000602082015250565b60006136b9602f836128fa565b91506136c48261365d565b604082019050919050565b600060208201905081810360008301526136e8816136ac565b9050919050565b7f4c696e6b64726f70457363726f773a206465706f736974696e6720776974682060008201527f696e76616c69642065787069726174696f6e2e00000000000000000000000000602082015250565b600061374b6033836128fa565b9150613756826136ef565b604082019050919050565b6000602082019050818103600083015261377a8161373e565b9050919050565b600061378c82612407565b915061379783612407565b925082820390506fffffffffffffffffffffffffffffffff8111156137bf576137be613188565b5b92915050565b60006137e06137db6137d684612407565b612a81565b6123d1565b9050919050565b6137f0816137c5565b82525050565b600060408201905061380b6000830185612665565b61381860208301846137e7565b9392505050565b7f4c696e6b64726f70457363726f773a20666565207472616e736665722066616960008201527f6c65642e00000000000000000000000000000000000000000000000000000000602082015250565b600061387b6024836128fa565b91506138868261381f565b604082019050919050565b600060208201905081810360008301526138aa8161386e565b9050919050565b60006080820190506138c6600083018761297f565b6138d36020830186612674565b6138e06040830185612674565b6138ed6060830184612674565b95945050505050565b7f4f776e61626c653a2063616c6c6572206973206e6f7420746865206f776e6572600082015250565b600061392c6020836128fa565b9150613937826138f6565b602082019050919050565b6000602082019050818103600083015261395b8161391f565b9050919050565b600081905092915050565b7f19457468657265756d205369676e6564204d6573736167653a0a333200000000600082015250565b60006139a3601c83613962565b91506139ae8261396d565b601c82019050919050565b6000819050919050565b6139d46139cf826128bb565b6139b9565b82525050565b60006139e582613996565b91506139f182846139c3565b60208201915081905092915050565b6000606082019050613a1560008301866128c5565b613a226020830185612665565b613a2f604083018461297f565b949350505050565b7f1901000000000000000000000000000000000000000000000000000000000000600082015250565b6000613a6d600283613962565b9150613a7882613a37565b600282019050919050565b6000613a8e82613a60565b9150613a9a82856139c3565b602082019150613aaa82846139c3565b6020820191508190509392505050565b7f4e487b7100000000000000000000000000000000000000000000000000000000600052602160045260246000fd5b7f45434453413a20696e76616c6964207369676e61747572650000000000000000600082015250565b6000613b1f6018836128fa565b9150613b2a82613ae9565b602082019050919050565b60006020820190508181036000830152613b4e81613b12565b9050919050565b7f45434453413a20696e76616c6964207369676e6174757265206c656e67746800600082015250565b6000613b8b601f836128fa565b9150613b9682613b55565b602082019050919050565b60006020820190508181036000830152613bba81613b7e565b9050919050565b7f45434453413a20696e76616c6964207369676e6174757265202773272076616c60008201527f7565000000000000000000000000000000000000000000000000000000000000602082015250565b6000613c1d6022836128fa565b9150613c2882613bc1565b604082019050919050565b60006020820190508181036000830152613c4c81613c10565b9050919050565b600060ff82169050919050565b613c6981613c53565b82525050565b6000608082019050613c8460008301876128c5565b613c916020830186613c60565b613c9e60408301856128c5565b613cab60608301846128c5565b9594505050505056fea2646970667358221220892d967dfcfa8daa4ac73a5c7bb99b91f1b8c7e26ef54e6706023b6531e92b9e64736f6c63430008110033",
  "linkReferences": {},
  "deployedLinkReferences": {}
}