{
  "_format": "hh-sol-artifact-1",
  "contractName": "LinkdropEscrow",
  "sourceName": "contracts/LinkdropEscrow.sol",
  "abi": [
    {
      "inputs": [
        {
          "internalType": "address",
          "name": "relayer_",
          "type": "address"
        }
      ],
      "stateMutability": "nonpayable",
      "type": "constructor"
    },
    {
      "anonymous": false,
      "inputs": [
        {
          "indexed": true,
          "internalType": "address",
          "name": "sender",
          "type": "address"
        },
        {
          "indexed": true,
          "internalType": "address",
          "name": "token",
          "type": "address"
        },
        {
          "indexed": false,
          "internalType": "address",
          "name": "transferId",
          "type": "address"
        },
        {
          "indexed": false,
          "internalType": "uint8",
          "name": "tokenType",
          "type": "uint8"
        },
        {
          "indexed": false,
          "internalType": "uint256",
          "name": "tokenId",
          "type": "uint256"
        },
        {
          "indexed": false,
          "internalType": "uint128",
          "name": "amount",
          "type": "uint128"
        }
      ],
      "name": "Cancel",
      "type": "event"
    },
    {
      "anonymous": false,
      "inputs": [
        {
          "indexed": true,
          "internalType": "address",
          "name": "sender",
          "type": "address"
        },
        {
          "indexed": true,
          "internalType": "address",
          "name": "token",
          "type": "address"
        },
        {
          "indexed": false,
          "internalType": "address",
          "name": "transferId",
          "type": "address"
        },
        {
          "indexed": false,
          "internalType": "uint120",
          "name": "expiration",
          "type": "uint120"
        },
        {
          "indexed": false,
          "internalType": "uint8",
          "name": "tokenType",
          "type": "uint8"
        },
        {
          "indexed": false,
          "internalType": "uint256",
          "name": "tokenId",
          "type": "uint256"
        },
        {
          "indexed": false,
          "internalType": "uint128",
          "name": "amount",
          "type": "uint128"
        },
        {
          "indexed": false,
          "internalType": "address",
          "name": "feeToken",
          "type": "address"
        },
        {
          "indexed": false,
          "internalType": "uint128",
          "name": "fee",
          "type": "uint128"
        }
      ],
      "name": "Deposit",
      "type": "event"
    },
    {
      "anonymous": false,
      "inputs": [
        {
          "indexed": true,
          "internalType": "address",
          "name": "previousOwner",
          "type": "address"
        },
        {
          "indexed": true,
          "internalType": "address",
          "name": "newOwner",
          "type": "address"
        }
      ],
      "name": "OwnershipTransferred",
      "type": "event"
    },
    {
      "anonymous": false,
      "inputs": [
        {
          "indexed": true,
          "internalType": "address",
          "name": "sender",
          "type": "address"
        },
        {
          "indexed": true,
          "internalType": "address",
          "name": "token",
          "type": "address"
        },
        {
          "indexed": true,
          "internalType": "address",
          "name": "receiver",
          "type": "address"
        },
        {
          "indexed": false,
          "internalType": "address",
          "name": "transferId",
          "type": "address"
        },
        {
          "indexed": false,
          "internalType": "uint8",
          "name": "tokenType",
          "type": "uint8"
        },
        {
          "indexed": false,
          "internalType": "uint256",
          "name": "tokenId",
          "type": "uint256"
        },
        {
          "indexed": false,
          "internalType": "uint128",
          "name": "amount",
          "type": "uint128"
        }
      ],
      "name": "Redeem",
      "type": "event"
    },
    {
      "anonymous": false,
      "inputs": [
        {
          "indexed": true,
          "internalType": "address",
          "name": "sender",
          "type": "address"
        },
        {
          "indexed": true,
          "internalType": "address",
          "name": "token",
          "type": "address"
        },
        {
          "indexed": false,
          "internalType": "address",
          "name": "transferId",
          "type": "address"
        },
        {
          "indexed": false,
          "internalType": "uint8",
          "name": "tokenType",
          "type": "uint8"
        },
        {
          "indexed": false,
          "internalType": "uint256",
          "name": "tokenId",
          "type": "uint256"
        },
        {
          "indexed": false,
          "internalType": "uint128",
          "name": "amount",
          "type": "uint128"
        }
      ],
      "name": "Refund",
      "type": "event"
    },
    {
      "anonymous": false,
      "inputs": [
        {
          "indexed": false,
          "internalType": "uint128",
          "name": "claimFee",
          "type": "uint128"
        },
        {
          "indexed": false,
          "internalType": "uint128",
          "name": "depositFee",
          "type": "uint128"
        }
      ],
      "name": "UpdateFees",
      "type": "event"
    },
    {
      "anonymous": false,
      "inputs": [
        {
          "indexed": false,
          "internalType": "address",
          "name": "relayer",
          "type": "address"
        },
        {
          "indexed": false,
          "internalType": "bool",
          "name": "active",
          "type": "bool"
        }
      ],
      "name": "UpdateRelayer",
      "type": "event"
    },
    {
      "anonymous": false,
      "inputs": [
        {
          "indexed": false,
          "internalType": "address",
          "name": "feeReceiver",
          "type": "address"
        },
        {
          "indexed": false,
          "internalType": "address",
          "name": "token_",
          "type": "address"
        },
        {
          "indexed": false,
          "internalType": "uint256",
          "name": "amount",
          "type": "uint256"
        }
      ],
      "name": "WithdrawFees",
      "type": "event"
    },
    {
      "inputs": [],
      "name": "EIP712_DOMAIN_TYPEHASH",
      "outputs": [
        {
          "internalType": "bytes32",
          "name": "",
          "type": "bytes32"
        }
      ],
      "stateMutability": "view",
      "type": "function"
    },
    {
      "inputs": [],
      "name": "_DOMAIN_SEPARATOR",
      "outputs": [
        {
          "internalType": "bytes32",
          "name": "",
          "type": "bytes32"
        }
      ],
      "stateMutability": "view",
      "type": "function"
    },
    {
      "inputs": [],
      "name": "_TRANSFER_TYPE_HASH",
      "outputs": [
        {
          "internalType": "bytes32",
          "name": "",
          "type": "bytes32"
        }
      ],
      "stateMutability": "view",
      "type": "function"
    },
    {
      "inputs": [
        {
          "internalType": "address",
          "name": "",
          "type": "address"
        }
      ],
      "name": "accruedFees",
      "outputs": [
        {
          "internalType": "uint256",
          "name": "",
          "type": "uint256"
        }
      ],
      "stateMutability": "view",
      "type": "function"
    },
    {
      "inputs": [
        {
          "internalType": "address",
          "name": "token_",
          "type": "address"
        },
        {
          "internalType": "address",
          "name": "transferId_",
          "type": "address"
        }
      ],
      "name": "cancel",
      "outputs": [],
      "stateMutability": "nonpayable",
      "type": "function"
    },
    {
      "inputs": [
        {
          "internalType": "address",
          "name": "token_",
          "type": "address"
        },
        {
          "internalType": "address",
          "name": "transferId_",
          "type": "address"
        },
        {
          "internalType": "uint128",
          "name": "amount_",
          "type": "uint128"
        },
        {
          "internalType": "uint120",
          "name": "expiration_",
          "type": "uint120"
        },
        {
          "internalType": "address",
          "name": "feeToken_",
          "type": "address"
        },
        {
          "internalType": "uint128",
          "name": "feeAmount_",
          "type": "uint128"
        },
        {
          "internalType": "bytes",
          "name": "feeAuthorization_",
          "type": "bytes"
        }
      ],
      "name": "deposit",
      "outputs": [],
      "stateMutability": "payable",
      "type": "function"
    },
    {
      "inputs": [
        {
          "internalType": "address",
          "name": "transferId_",
          "type": "address"
        },
        {
          "internalType": "uint128",
          "name": "amount_",
          "type": "uint128"
        },
        {
          "internalType": "uint120",
          "name": "expiration_",
          "type": "uint120"
        },
        {
          "internalType": "uint128",
          "name": "feeAmount_",
          "type": "uint128"
        },
        {
          "internalType": "bytes",
          "name": "feeAuthorization_",
          "type": "bytes"
        }
      ],
      "name": "depositETH",
      "outputs": [],
      "stateMutability": "payable",
      "type": "function"
    },
    {
      "inputs": [
        {
          "internalType": "address",
          "name": "token_",
          "type": "address"
        },
        {
          "internalType": "address",
          "name": "transferId_",
          "type": "address"
        },
        {
          "internalType": "uint120",
          "name": "expiration_",
          "type": "uint120"
        },
        {
          "internalType": "bytes4",
          "name": "authorizationSelector_",
          "type": "bytes4"
        },
        {
          "internalType": "uint128",
          "name": "fee_",
          "type": "uint128"
        },
        {
          "internalType": "bytes",
          "name": "receiveAuthorization_",
          "type": "bytes"
        }
      ],
      "name": "depositWithAuthorization",
      "outputs": [],
      "stateMutability": "nonpayable",
      "type": "function"
    },
    {
      "inputs": [
        {
          "internalType": "address",
          "name": "",
          "type": "address"
        },
        {
          "internalType": "address",
          "name": "",
          "type": "address"
        },
        {
          "internalType": "address",
          "name": "",
          "type": "address"
        }
      ],
      "name": "deposits",
      "outputs": [
        {
          "internalType": "uint256",
          "name": "tokenId",
          "type": "uint256"
        },
        {
          "internalType": "uint128",
          "name": "amount",
          "type": "uint128"
        },
        {
          "internalType": "uint120",
          "name": "expiration",
          "type": "uint120"
        },
        {
          "internalType": "uint8",
          "name": "tokenType",
          "type": "uint8"
        }
      ],
      "stateMutability": "view",
      "type": "function"
    },
    {
      "inputs": [],
      "name": "domain",
      "outputs": [
        {
          "internalType": "string",
          "name": "name",
          "type": "string"
        },
        {
          "internalType": "string",
          "name": "version",
          "type": "string"
        },
        {
          "internalType": "uint256",
          "name": "chainId",
          "type": "uint256"
        },
        {
          "internalType": "address",
          "name": "verifyingContract",
          "type": "address"
        }
      ],
      "stateMutability": "view",
      "type": "function"
    },
    {
      "inputs": [
        {
          "internalType": "address",
          "name": "token_",
          "type": "address"
        },
        {
          "internalType": "address",
          "name": "sender_",
          "type": "address"
        },
        {
          "internalType": "address",
          "name": "transferId_",
          "type": "address"
        }
      ],
      "name": "getDeposit",
      "outputs": [
        {
          "internalType": "address",
          "name": "token",
          "type": "address"
        },
        {
          "internalType": "uint8",
          "name": "tokenType",
          "type": "uint8"
        },
        {
          "internalType": "uint256",
          "name": "tokenId",
          "type": "uint256"
        },
        {
          "internalType": "uint128",
          "name": "amount",
          "type": "uint128"
        },
        {
          "internalType": "uint120",
          "name": "expiration",
          "type": "uint120"
        }
      ],
      "stateMutability": "view",
      "type": "function"
    },
    {
      "inputs": [],
      "name": "owner",
      "outputs": [
        {
          "internalType": "address",
          "name": "",
          "type": "address"
        }
      ],
      "stateMutability": "view",
      "type": "function"
    },
    {
      "inputs": [
        {
          "internalType": "address",
          "name": "receiver_",
          "type": "address"
        },
        {
          "internalType": "bytes",
          "name": "receiverSig_",
          "type": "bytes"
        }
      ],
      "name": "recoverLinkKeyId",
      "outputs": [
        {
          "internalType": "address",
          "name": "linkKeyId",
          "type": "address"
        }
      ],
      "stateMutability": "pure",
      "type": "function"
    },
    {
      "inputs": [
        {
          "internalType": "address",
          "name": "linkKeyId_",
          "type": "address"
        },
        {
          "internalType": "address",
          "name": "transferId_",
          "type": "address"
        },
        {
          "internalType": "bytes",
          "name": "senderSig_",
          "type": "bytes"
        }
      ],
      "name": "recoverSender",
      "outputs": [
        {
          "internalType": "address",
          "name": "sender",
          "type": "address"
        }
      ],
      "stateMutability": "view",
      "type": "function"
    },
    {
      "inputs": [
        {
          "internalType": "address",
          "name": "receiver_",
          "type": "address"
        },
        {
          "internalType": "address",
          "name": "sender_",
          "type": "address"
        },
        {
          "internalType": "address",
          "name": "token_",
          "type": "address"
        },
        {
          "internalType": "bytes",
          "name": "receiverSig_",
          "type": "bytes"
        }
      ],
      "name": "redeem",
      "outputs": [],
      "stateMutability": "nonpayable",
      "type": "function"
    },
    {
      "inputs": [
        {
          "internalType": "address",
          "name": "receiver_",
          "type": "address"
        },
        {
          "internalType": "address",
          "name": "token_",
          "type": "address"
        },
        {
          "internalType": "address",
          "name": "transferId_",
          "type": "address"
        },
        {
          "internalType": "bytes",
          "name": "receiverSig_",
          "type": "bytes"
        },
        {
          "internalType": "bytes",
          "name": "senderSig_",
          "type": "bytes"
        }
      ],
      "name": "redeemRecovered",
      "outputs": [],
      "stateMutability": "nonpayable",
      "type": "function"
    },
    {
      "inputs": [
        {
          "internalType": "address",
          "name": "sender_",
          "type": "address"
        },
        {
          "internalType": "address",
          "name": "token_",
          "type": "address"
        },
        {
          "internalType": "address",
          "name": "transferId_",
          "type": "address"
        }
      ],
      "name": "refund",
      "outputs": [],
      "stateMutability": "nonpayable",
      "type": "function"
    },
    {
      "inputs": [
        {
          "internalType": "address",
          "name": "",
          "type": "address"
        }
      ],
      "name": "relayers",
      "outputs": [
        {
          "internalType": "bool",
          "name": "",
          "type": "bool"
        }
      ],
      "stateMutability": "view",
      "type": "function"
    },
    {
      "inputs": [],
      "name": "renounceOwnership",
      "outputs": [],
      "stateMutability": "nonpayable",
      "type": "function"
    },
    {
      "inputs": [
        {
          "internalType": "address",
          "name": "relayer_",
          "type": "address"
        },
        {
          "internalType": "bool",
          "name": "active_",
          "type": "bool"
        }
      ],
      "name": "setRelayer",
      "outputs": [],
      "stateMutability": "nonpayable",
      "type": "function"
    },
    {
      "inputs": [
        {
          "internalType": "address",
          "name": "newOwner",
          "type": "address"
        }
      ],
      "name": "transferOwnership",
      "outputs": [],
      "stateMutability": "nonpayable",
      "type": "function"
    },
    {
      "inputs": [
        {
          "internalType": "address",
          "name": "sender_",
          "type": "address"
        },
        {
          "internalType": "address",
          "name": "token_",
          "type": "address"
        },
        {
          "internalType": "address",
          "name": "transferId_",
          "type": "address"
        },
        {
          "internalType": "uint256",
          "name": "tokenId_",
          "type": "uint256"
        },
        {
          "internalType": "uint128",
          "name": "amount_",
          "type": "uint128"
        },
        {
          "internalType": "uint120",
          "name": "expiration_",
          "type": "uint120"
        },
        {
          "internalType": "address",
          "name": "feeToken_",
          "type": "address"
        },
        {
          "internalType": "uint128",
          "name": "feeAmount_",
          "type": "uint128"
        },
        {
          "internalType": "bytes",
          "name": "feeAuthorization_",
          "type": "bytes"
        }
      ],
      "name": "verifyFeeAuthorization",
      "outputs": [
        {
          "internalType": "bool",
          "name": "isValid",
          "type": "bool"
        }
      ],
      "stateMutability": "view",
      "type": "function"
    },
    {
      "inputs": [
        {
          "internalType": "address",
          "name": "token_",
          "type": "address"
        }
      ],
      "name": "withdrawAccruedFees",
      "outputs": [],
      "stateMutability": "nonpayable",
      "type": "function"
    }
  ],
  "bytecode": "0x60a06040523480156200001157600080fd5b50604051620063e9380380620063e9833981810160405281019062000037919062000419565b600046905060405180608001604052806040518060400160405280600e81526020017f4c696e6b64726f70457363726f7700000000000000000000000000000000000081525081526020016040518060400160405280600181526020017f330000000000000000000000000000000000000000000000000000000000000081525081526020018281526020013073ffffffffffffffffffffffffffffffffffffffff16815250600080820151816000019081620000f59190620006c5565b5060208201518160010190816200010d9190620006c5565b506040820151816002015560608201518160030160006101000a81548173ffffffffffffffffffffffffffffffffffffffff021916908373ffffffffffffffffffffffffffffffffffffffff1602179055509050507f8b73c3c69bb8fe3d512ecc4cf759cc79239f7b179b0ffacaa9a75d522b39400f600080016040516200019691906200085b565b60405180910390206000600101604051620001b291906200085b565b604051809103902060006002015430604051602001620001d7959493929190620008b1565b60405160208183030381529060405280519060200120608081815250507fda3241d4d2732e32f76e33e29a986bf90890ff6cb9b8506b1059fc1f197a34e6801462000259576040517f08c379a000000000000000000000000000000000000000000000000000000000815260040162000250906200096f565b60405180910390fd5b506200027a6200026e620002e160201b60201c565b620002e960201b60201c565b60016007819055506001600660008373ffffffffffffffffffffffffffffffffffffffff1673ffffffffffffffffffffffffffffffffffffffff16815260200190815260200160002060006101000a81548160ff0219169083151502179055505062000991565b600033905090565b6000600460009054906101000a900473ffffffffffffffffffffffffffffffffffffffff16905081600460006101000a81548173ffffffffffffffffffffffffffffffffffffffff021916908373ffffffffffffffffffffffffffffffffffffffff1602179055508173ffffffffffffffffffffffffffffffffffffffff168173ffffffffffffffffffffffffffffffffffffffff167f8be0079c531659141344cd1fd0a4f28419497f9722a3daafe3b4186f6b6457e060405160405180910390a35050565b600080fd5b600073ffffffffffffffffffffffffffffffffffffffff82169050919050565b6000620003e182620003b4565b9050919050565b620003f381620003d4565b8114620003ff57600080fd5b50565b6000815190506200041381620003e8565b92915050565b600060208284031215620004325762000431620003af565b5b6000620004428482850162000402565b91505092915050565b600081519050919050565b7f4e487b7100000000000000000000000000000000000000000000000000000000600052604160045260246000fd5b7f4e487b7100000000000000000000000000000000000000000000000000000000600052602260045260246000fd5b60006002820490506001821680620004cd57607f821691505b602082108103620004e357620004e262000485565b5b50919050565b60008190508160005260206000209050919050565b60006020601f8301049050919050565b600082821b905092915050565b6000600883026200054d7fffffffffffffffffffffffffffffffffffffffffffffffffffffffffffffffff826200050e565b6200055986836200050e565b95508019841693508086168417925050509392505050565b6000819050919050565b6000819050919050565b6000620005a6620005a06200059a8462000571565b6200057b565b62000571565b9050919050565b6000819050919050565b620005c28362000585565b620005da620005d182620005ad565b8484546200051b565b825550505050565b600090565b620005f1620005e2565b620005fe818484620005b7565b505050565b5b8181101562000626576200061a600082620005e7565b60018101905062000604565b5050565b601f82111562000675576200063f81620004e9565b6200064a84620004fe565b810160208510156200065a578190505b620006726200066985620004fe565b83018262000603565b50505b505050565b600082821c905092915050565b60006200069a600019846008026200067a565b1980831691505092915050565b6000620006b5838362000687565b9150826002028217905092915050565b620006d0826200044b565b67ffffffffffffffff811115620006ec57620006eb62000456565b5b620006f88254620004b4565b620007058282856200062a565b600060209050601f8311600181146200073d576000841562000728578287015190505b620007348582620006a7565b865550620007a4565b601f1984166200074d86620004e9565b60005b82811015620007775784890151825560018201915060208501945060208101905062000750565b8683101562000797578489015162000793601f89168262000687565b8355505b6001600288020188555050505b505050505050565b600081905092915050565b60008190508160005260206000209050919050565b60008154620007db81620004b4565b620007e78186620007ac565b945060018216600081146200080557600181146200081b5762000852565b60ff198316865281151582028601935062000852565b6200082685620007b7565b60005b838110156200084a5781548189015260018201915060208101905062000829565b838801955050505b50505092915050565b6000620008698284620007cc565b915081905092915050565b6000819050919050565b620008898162000874565b82525050565b6200089a8162000571565b82525050565b620008ab81620003d4565b82525050565b600060a082019050620008c860008301886200087e565b620008d760208301876200087e565b620008e660408301866200087e565b620008f560608301856200088f565b620009046080830184620008a0565b9695505050505050565b600082825260208201905092915050565b7f4549503731323a20696e76616c69642074797065206861736800000000000000600082015250565b6000620009576019836200090e565b915062000964826200091f565b602082019050919050565b600060208201905081810360008301526200098a8162000948565b9050919050565b608051615a35620009b460003960008181611bf00152612af80152615a356000f3fe6080604052600436106101405760003560e01c8063824c1db5116100b6578063d6e69a001161006f578063d6e69a0014610445578063dc0c81b514610482578063ecd8dc3a146104ad578063ee2578ab146104d6578063f08204ad14610516578063f2fde38b1461053f57610140565b8063824c1db51461032e57806386fc05ba146103575780638da5cb5b14610398578063c2fb26a6146103c3578063c7977be7146103f1578063ce0ea5971461041c57610140565b80633e0dd0d9116101085780633e0dd0d91461022d5780635300f8411461026a57806357815a68146102a75780636b2ac46d146102d0578063715018a6146102ec57806371d683721461030357610140565b806307311283146101455780632cfdcc741461018257806336d5026c146101ab5780633d6e85e6146101c75780633e05dc4c14610204575b600080fd5b34801561015157600080fd5b5061016c600480360381019061016791906135da565b610568565b6040516101799190613620565b60405180910390f35b34801561018e57600080fd5b506101a960048036038101906101a49190613787565b610580565b005b6101c560048036038101906101c09190613836565b6108ed565b005b3480156101d357600080fd5b506101ee60048036038101906101e991906138f8565b610a44565b6040516101fb9190613967565b60405180910390f35b34801561021057600080fd5b5061022b60048036038101906102269190613982565b610ad0565b005b34801561023957600080fd5b50610254600480360381019061024f9190613a0a565b610b7f565b6040516102619190613967565b60405180910390f35b34801561027657600080fd5b50610291600480360381019061028c91906135da565b610be7565b60405161029e9190613a99565b60405180910390f35b3480156102b357600080fd5b506102ce60048036038101906102c99190613ab4565b610c07565b005b6102ea60048036038101906102e59190613b07565b611033565b005b3480156102f857600080fd5b50610301611304565b005b34801561030f57600080fd5b50610318611318565b6040516103259190613bba565b60405180910390f35b34801561033a57600080fd5b5061035560048036038101906103509190613bd5565b61133c565b005b34801561036357600080fd5b5061037e60048036038101906103799190613ab4565b6116eb565b60405161038f959493929190613c4f565b60405180910390f35b3480156103a457600080fd5b506103ad61189d565b6040516103ba9190613967565b60405180910390f35b3480156103cf57600080fd5b506103d86118c7565b6040516103e89493929190613d32565b60405180910390f35b3480156103fd57600080fd5b50610406611a15565b6040516104139190613bba565b60405180910390f35b34801561042857600080fd5b50610443600480360381019061043e9190613d85565b611a39565b005b34801561045157600080fd5b5061046c60048036038101906104679190613e6d565b611afb565b6040516104799190613a99565b60405180910390f35b34801561048e57600080fd5b50610497611bee565b6040516104a49190613bba565b60405180910390f35b3480156104b957600080fd5b506104d460048036038101906104cf9190613f84565b611c12565b005b3480156104e257600080fd5b506104fd60048036038101906104f89190613ab4565b611cae565b60405161050d9493929190613fc4565b60405180910390f35b34801561052257600080fd5b5061053d600480360381019061053891906135da565b611d3c565b005b34801561054b57600080fd5b50610566600480360381019061056191906135da565b611e55565b005b60056020528060005260406000206000915090505481565b600660003373ffffffffffffffffffffffffffffffffffffffff1673ffffffffffffffffffffffffffffffffffffffff16815260200190815260200160002060009054906101000a900460ff1661060c576040517f08c379a00000000000000000000000000000000000000000000000000000000081526004016106039061407b565b60405180910390fd5b63e1560fd360e01b847bffffffffffffffffffffffffffffffffffffffffffffffffffffffff19161480610665575063ef55bec660e01b847bffffffffffffffffffffffffffffffffffffffffffffffffffffffff1916145b6106a4576040517f08c379a000000000000000000000000000000000000000000000000000000000815260040161069b906140e7565b60405180910390fd5b600080600080600080878760009060c0926106c193929190614111565b8101906106ce91906141b6565b809650819750829850839950849a50859b505050505050503073ffffffffffffffffffffffffffffffffffffffff168573ffffffffffffffffffffffffffffffffffffffff1614610754576040517f08c379a000000000000000000000000000000000000000000000000000000000815260040161074b906142db565b60405180910390fd5b80868d868e8d60405160200161076e9594939291906143d0565b60405160208183030381529060405280519060200120146107c4576040517f08c379a00000000000000000000000000000000000000000000000000000000081526004016107bb906144c7565b60405180910390fd5b60008d73ffffffffffffffffffffffffffffffffffffffff168b8a8a6040516020016107f293929190614547565b60405160208183030381529060405260405161080e91906145ad565b6000604051808303816000865af19150503d806000811461084b576040519150601f19603f3d011682016040523d82523d6000602084013e610850565b606091505b5050905080610894576040517f08c379a000000000000000000000000000000000000000000000000000000000815260040161088b90614610565b60405180910390fd5b5050505063e1560fd360e01b877bffffffffffffffffffffffffffffffffffffffffffffffffffffffff1916036108d2576108d18a843084611ed8565b5b6108e1838b8b848c8f8c612030565b50505050505050505050565b6108f561231b565b600061090a338a8a60008b8b8b8b8b8b611afb565b90508061094c576040517f08c379a0000000000000000000000000000000000000000000000000000000008152600401610943906146a2565b60405180910390fd5b600073ffffffffffffffffffffffffffffffffffffffff168973ffffffffffffffffffffffffffffffffffffffff16036109bb576040517f08c379a00000000000000000000000000000000000000000000000000000000081526004016109b290614734565b60405180910390fd5b6109d98933308a6fffffffffffffffffffffffffffffffff16611ed8565b8873ffffffffffffffffffffffffffffffffffffffff168573ffffffffffffffffffffffffffffffffffffffff1603610a2157610a1b338a8a8a8a8a8a612030565b50610a32565b610a30338a8a8a8a8a8a61236a565b505b610a3a612636565b5050505050505050565b600080610a7685604051602001610a5b9190614754565b60405160208183030381529060405280519060200120612640565b9050610ac68185858080601f016020809104026020016040519081016040528093929190818152602001838380828437600081840152601f19601f82011690508083019250505050505050612670565b9150509392505050565b600660003373ffffffffffffffffffffffffffffffffffffffff1673ffffffffffffffffffffffffffffffffffffffff16815260200190815260200160002060009054906101000a900460ff16610b5c576040517f08c379a0000000000000000000000000000000000000000000000000000000008152600401610b539061407b565b60405180910390fd5b6000610b69868484610a44565b9050610b7785858389612697565b505050505050565b600080610b8c8686612aa6565b9050610bdc8185858080601f016020809104026020016040519081016040528093929190818152602001838380828437600081840152601f19601f82011690508083019250505050505050612670565b915050949350505050565b60066020528060005260406000206000915054906101000a900460ff1681565b600660003373ffffffffffffffffffffffffffffffffffffffff1673ffffffffffffffffffffffffffffffffffffffff16815260200190815260200160002060009054906101000a900460ff16610c93576040517f08c379a0000000000000000000000000000000000000000000000000000000008152600401610c8a9061407b565b60405180910390fd5b6000600860008573ffffffffffffffffffffffffffffffffffffffff1673ffffffffffffffffffffffffffffffffffffffff16815260200190815260200160002060008473ffffffffffffffffffffffffffffffffffffffff1673ffffffffffffffffffffffffffffffffffffffff16815260200190815260200160002060008373ffffffffffffffffffffffffffffffffffffffff1673ffffffffffffffffffffffffffffffffffffffff168152602001908152602001600020604051806080016040529081600082015481526020016001820160009054906101000a90046fffffffffffffffffffffffffffffffff166fffffffffffffffffffffffffffffffff166fffffffffffffffffffffffffffffffff1681526020016001820160109054906101000a90046effffffffffffffffffffffffffffff166effffffffffffffffffffffffffffff166effffffffffffffffffffffffffffff16815260200160018201601f9054906101000a900460ff1660ff1660ff168152505090506000816020015190506000826060015190506000836000015190506000836fffffffffffffffffffffffffffffffff1611610e83576040517f08c379a0000000000000000000000000000000000000000000000000000000008152600401610e7a906147e1565b60405180910390fd5b600860008873ffffffffffffffffffffffffffffffffffffffff1673ffffffffffffffffffffffffffffffffffffffff16815260200190815260200160002060008773ffffffffffffffffffffffffffffffffffffffff1673ffffffffffffffffffffffffffffffffffffffff16815260200190815260200160002060008673ffffffffffffffffffffffffffffffffffffffff1673ffffffffffffffffffffffffffffffffffffffff1681526020019081526020016000206000808201600090556001820160006101000a8154906fffffffffffffffffffffffffffffffff02191690556001820160106101000a8154906effffffffffffffffffffffffffffff021916905560018201601f6101000a81549060ff02191690555050610fbf86888484876fffffffffffffffffffffffffffffffff16612b48565b8573ffffffffffffffffffffffffffffffffffffffff168773ffffffffffffffffffffffffffffffffffffffff167f5938a86ca33c66cb817f2fdc8d5cd4073bfe03e3f6c846c3c91e7d3f6beaae9f878585886040516110229493929190614801565b60405180910390a350505050505050565b61103b61231b565b60008060008061105633858c8560ff168d8d898e8e8e611afb565b905080611098576040517f08c379a000000000000000000000000000000000000000000000000000000000815260040161108f90614892565b60405180910390fd5b6000600860003373ffffffffffffffffffffffffffffffffffffffff1673ffffffffffffffffffffffffffffffffffffffff16815260200190815260200160002060008673ffffffffffffffffffffffffffffffffffffffff1673ffffffffffffffffffffffffffffffffffffffff16815260200190815260200160002060008c73ffffffffffffffffffffffffffffffffffffffff1673ffffffffffffffffffffffffffffffffffffffff16815260200190815260200160002060010160009054906101000a90046fffffffffffffffffffffffffffffffff166fffffffffffffffffffffffffffffffff16146111c5576040517f08c379a00000000000000000000000000000000000000000000000000000000081526004016111bc90614924565b60405180910390fd5b42886effffffffffffffffffffffffffffff1611611218576040517f08c379a000000000000000000000000000000000000000000000000000000000815260040161120f906149b6565b60405180910390fd5b886fffffffffffffffffffffffffffffffff16341461126c576040517f08c379a000000000000000000000000000000000000000000000000000000000815260040161126390614a48565b60405180910390fd5b866fffffffffffffffffffffffffffffffff16896fffffffffffffffffffffffffffffffff16116112d2576040517f08c379a00000000000000000000000000000000000000000000000000000000081526004016112c990614ada565b60405180910390fd5b86896112de9190614b29565b98506112f033858c8c8c87898e612ca9565b505050506112fc612636565b505050505050565b61130c612f38565b6113166000612fb6565b565b7fda3241d4d2732e32f76e33e29a986bf90890ff6cb9b8506b1059fc1f197a34e681565b61134461231b565b6000600860003373ffffffffffffffffffffffffffffffffffffffff1673ffffffffffffffffffffffffffffffffffffffff16815260200190815260200160002060008473ffffffffffffffffffffffffffffffffffffffff1673ffffffffffffffffffffffffffffffffffffffff16815260200190815260200160002060008373ffffffffffffffffffffffffffffffffffffffff1673ffffffffffffffffffffffffffffffffffffffff168152602001908152602001600020604051806080016040529081600082015481526020016001820160009054906101000a90046fffffffffffffffffffffffffffffffff166fffffffffffffffffffffffffffffffff166fffffffffffffffffffffffffffffffff1681526020016001820160109054906101000a90046effffffffffffffffffffffffffffff166effffffffffffffffffffffffffffff166effffffffffffffffffffffffffffff16815260200160018201601f9054906101000a900460ff1660ff1660ff168152505090506000816020015190506000826060015190506000836000015190506000836fffffffffffffffffffffffffffffffff1611611534576040517f08c379a000000000000000000000000000000000000000000000000000000000815260040161152b90614bdf565b60405180910390fd5b600860003373ffffffffffffffffffffffffffffffffffffffff1673ffffffffffffffffffffffffffffffffffffffff16815260200190815260200160002060008773ffffffffffffffffffffffffffffffffffffffff1673ffffffffffffffffffffffffffffffffffffffff16815260200190815260200160002060008673ffffffffffffffffffffffffffffffffffffffff1673ffffffffffffffffffffffffffffffffffffffff1681526020019081526020016000206000808201600090556001820160006101000a8154906fffffffffffffffffffffffffffffffff02191690556001820160106101000a8154906effffffffffffffffffffffffffffff021916905560018201601f6101000a81549060ff0219169055505061167086338484876fffffffffffffffffffffffffffffffff16612b48565b8573ffffffffffffffffffffffffffffffffffffffff163373ffffffffffffffffffffffffffffffffffffffff167fab3691e99d7a7c44b5bbf42b6113806f3fa641468fdf21dd778892ea680d0486878585886040516116d39493929190614801565b60405180910390a3505050506116e7612636565b5050565b600080600080600080600860008973ffffffffffffffffffffffffffffffffffffffff1673ffffffffffffffffffffffffffffffffffffffff16815260200190815260200160002060008a73ffffffffffffffffffffffffffffffffffffffff1673ffffffffffffffffffffffffffffffffffffffff16815260200190815260200160002060008873ffffffffffffffffffffffffffffffffffffffff1673ffffffffffffffffffffffffffffffffffffffff168152602001908152602001600020604051806080016040529081600082015481526020016001820160009054906101000a90046fffffffffffffffffffffffffffffffff166fffffffffffffffffffffffffffffffff166fffffffffffffffffffffffffffffffff1681526020016001820160109054906101000a90046effffffffffffffffffffffffffffff166effffffffffffffffffffffffffffff166effffffffffffffffffffffffffffff16815260200160018201601f9054906101000a900460ff1660ff1660ff168152505090508881606001518260000151836020015184604001519550955095509550955050939792965093509350565b6000600460009054906101000a900473ffffffffffffffffffffffffffffffffffffffff16905090565b60008060000180546118d890614c2e565b80601f016020809104026020016040519081016040528092919081815260200182805461190490614c2e565b80156119515780601f1061192657610100808354040283529160200191611951565b820191906000526020600020905b81548152906001019060200180831161193457829003601f168201915b50505050509080600101805461196690614c2e565b80601f016020809104026020016040519081016040528092919081815260200182805461199290614c2e565b80156119df5780601f106119b4576101008083540402835291602001916119df565b820191906000526020600020905b8154815290600101906020018083116119c257829003601f168201915b5050505050908060020154908060030160009054906101000a900473ffffffffffffffffffffffffffffffffffffffff16905084565b7f8b73c3c69bb8fe3d512ecc4cf759cc79239f7b179b0ffacaa9a75d522b39400f81565b600660003373ffffffffffffffffffffffffffffffffffffffff1673ffffffffffffffffffffffffffffffffffffffff16815260200190815260200160002060009054906101000a900460ff16611ac5576040517f08c379a0000000000000000000000000000000000000000000000000000000008152600401611abc9061407b565b60405180910390fd5b6000611ad2888686610a44565b90506000611ae282888686610b7f565b9050611af08189898c612697565b505050505050505050565b600080611b3b8c8c8c8c8c8c8c8c604051602001611b20989796959493929190614c5f565b60405160208183030381529060405280519060200120612640565b90506000611b8d8286868080601f016020809104026020016040519081016040528093929190818152602001838380828437600081840152601f19601f82011690508083019250505050505050612670565b9050600660008273ffffffffffffffffffffffffffffffffffffffff1673ffffffffffffffffffffffffffffffffffffffff16815260200190815260200160002060009054906101000a900460ff16925050509a9950505050505050505050565b7f000000000000000000000000000000000000000000000000000000000000000081565b611c1a612f38565b80600660008473ffffffffffffffffffffffffffffffffffffffff1673ffffffffffffffffffffffffffffffffffffffff16815260200190815260200160002060006101000a81548160ff0219169083151502179055507f34e1cf41794bd5b78c6251cacf103835b835d3ad103d8471ae5f3df532ff31128282604051611ca2929190614cf1565b60405180910390a15050565b600860205282600052604060002060205281600052604060002060205280600052604060002060009250925050508060000154908060010160009054906101000a90046fffffffffffffffffffffffffffffffff16908060010160109054906101000a90046effffffffffffffffffffffffffffff169080600101601f9054906101000a900460ff16905084565b611d44612f38565b6000600560008373ffffffffffffffffffffffffffffffffffffffff1673ffffffffffffffffffffffffffffffffffffffff1681526020019081526020016000205490506000600560008473ffffffffffffffffffffffffffffffffffffffff1673ffffffffffffffffffffffffffffffffffffffff1681526020019081526020016000208190555060008073ffffffffffffffffffffffffffffffffffffffff168373ffffffffffffffffffffffffffffffffffffffff1614611e0757600190505b611e15833383600086612b48565b7f4f1b51dd7a2fcb861aa2670f668be66835c4ee12b4bbbf037e4d0018f39819e4338484604051611e4893929190614d1a565b60405180910390a1505050565b611e5d612f38565b600073ffffffffffffffffffffffffffffffffffffffff168173ffffffffffffffffffffffffffffffffffffffff1603611ecc576040517f08c379a0000000000000000000000000000000000000000000000000000000008152600401611ec390614dc3565b60405180910390fd5b611ed581612fb6565b50565b6000808573ffffffffffffffffffffffffffffffffffffffff166323b872dd60e01b868686604051602401611f0f93929190614d1a565b604051602081830303815290604052907bffffffffffffffffffffffffffffffffffffffffffffffffffffffff19166020820180517bffffffffffffffffffffffffffffffffffffffffffffffffffffffff8381831617835250505050604051611f7991906145ad565b6000604051808303816000865af19150503d8060008114611fb6576040519150601f19603f3d011682016040523d82523d6000602084013e611fbb565b606091505b5091509150818015611fe95750600081511480611fe8575080806020019051810190611fe79190614df8565b5b5b612028576040517f08c379a000000000000000000000000000000000000000000000000000000000815260040161201f90614e71565b60405180910390fd5b505050505050565b6000600860008973ffffffffffffffffffffffffffffffffffffffff1673ffffffffffffffffffffffffffffffffffffffff16815260200190815260200160002060008873ffffffffffffffffffffffffffffffffffffffff1673ffffffffffffffffffffffffffffffffffffffff16815260200190815260200160002060008773ffffffffffffffffffffffffffffffffffffffff1673ffffffffffffffffffffffffffffffffffffffff16815260200190815260200160002060010160009054906101000a90046fffffffffffffffffffffffffffffffff166fffffffffffffffffffffffffffffffff161461215d576040517f08c379a000000000000000000000000000000000000000000000000000000000815260040161215490614924565b60405180910390fd5b42836effffffffffffffffffffffffffffff16116121b0576040517f08c379a00000000000000000000000000000000000000000000000000000000081526004016121a7906149b6565b60405180910390fd5b8573ffffffffffffffffffffffffffffffffffffffff168273ffffffffffffffffffffffffffffffffffffffff161461221e576040517f08c379a000000000000000000000000000000000000000000000000000000000815260040161221590614f29565b60405180910390fd5b600073ffffffffffffffffffffffffffffffffffffffff168673ffffffffffffffffffffffffffffffffffffffff160361228d576040517f08c379a000000000000000000000000000000000000000000000000000000000815260040161228490614fbb565b60405180910390fd5b806fffffffffffffffffffffffffffffffff16846fffffffffffffffffffffffffffffffff16116122f3576040517f08c379a00000000000000000000000000000000000000000000000000000000081526004016122ea90614ada565b60405180910390fd5b80846122ff9190614b29565b9350612312878787878760018888612ca9565b50505050505050565b600260075403612360576040517f08c379a000000000000000000000000000000000000000000000000000000000815260040161235790615027565b60405180910390fd5b6002600781905550565b6000600860008973ffffffffffffffffffffffffffffffffffffffff1673ffffffffffffffffffffffffffffffffffffffff16815260200190815260200160002060008873ffffffffffffffffffffffffffffffffffffffff1673ffffffffffffffffffffffffffffffffffffffff16815260200190815260200160002060008773ffffffffffffffffffffffffffffffffffffffff1673ffffffffffffffffffffffffffffffffffffffff16815260200190815260200160002060010160009054906101000a90046fffffffffffffffffffffffffffffffff166fffffffffffffffffffffffffffffffff1614612497576040517f08c379a000000000000000000000000000000000000000000000000000000000815260040161248e90614924565b60405180910390fd5b42836effffffffffffffffffffffffffffff16116124ea576040517f08c379a00000000000000000000000000000000000000000000000000000000081526004016124e1906149b6565b60405180910390fd5b600073ffffffffffffffffffffffffffffffffffffffff168273ffffffffffffffffffffffffffffffffffffffff1614612559576040517f08c379a0000000000000000000000000000000000000000000000000000000008152600401612550906150df565b60405180910390fd5b600073ffffffffffffffffffffffffffffffffffffffff168673ffffffffffffffffffffffffffffffffffffffff16036125c8576040517f08c379a00000000000000000000000000000000000000000000000000000000081526004016125bf90614fbb565b60405180910390fd5b806fffffffffffffffffffffffffffffffff16341461261c576040517f08c379a00000000000000000000000000000000000000000000000000000000081526004016126139061514b565b60405180910390fd5b61262d878787878760018888612ca9565b50505050505050565b6001600781905550565b60008160405160200161265391906151e3565b604051602081830303815290604052805190602001209050919050565b600080600061267f858561307c565b9150915061268c816130cd565b819250505092915050565b6000600860008673ffffffffffffffffffffffffffffffffffffffff1673ffffffffffffffffffffffffffffffffffffffff16815260200190815260200160002060008573ffffffffffffffffffffffffffffffffffffffff1673ffffffffffffffffffffffffffffffffffffffff16815260200190815260200160002060008473ffffffffffffffffffffffffffffffffffffffff1673ffffffffffffffffffffffffffffffffffffffff168152602001908152602001600020604051806080016040529081600082015481526020016001820160009054906101000a90046fffffffffffffffffffffffffffffffff166fffffffffffffffffffffffffffffffff166fffffffffffffffffffffffffffffffff1681526020016001820160109054906101000a90046effffffffffffffffffffffffffffff166effffffffffffffffffffffffffffff166effffffffffffffffffffffffffffff16815260200160018201601f9054906101000a900460ff1660ff1660ff168152505090506000816020015190506000826060015190506000836000015190506000836fffffffffffffffffffffffffffffffff1611612887576040517f08c379a000000000000000000000000000000000000000000000000000000000815260040161287e9061527b565b60405180910390fd5b83604001516effffffffffffffffffffffffffffff1642106128de576040517f08c379a00000000000000000000000000000000000000000000000000000000081526004016128d59061530d565b60405180910390fd5b600860008973ffffffffffffffffffffffffffffffffffffffff1673ffffffffffffffffffffffffffffffffffffffff16815260200190815260200160002060008873ffffffffffffffffffffffffffffffffffffffff1673ffffffffffffffffffffffffffffffffffffffff16815260200190815260200160002060008773ffffffffffffffffffffffffffffffffffffffff1673ffffffffffffffffffffffffffffffffffffffff1681526020019081526020016000206000808201600090556001820160006101000a8154906fffffffffffffffffffffffffffffffff02191690556001820160106101000a8154906effffffffffffffffffffffffffffff021916905560018201601f6101000a81549060ff02191690555050612a1a87868484876fffffffffffffffffffffffffffffffff16612b48565b8473ffffffffffffffffffffffffffffffffffffffff168773ffffffffffffffffffffffffffffffffffffffff168973ffffffffffffffffffffffffffffffffffffffff167ff81d021f277085e9e959eecea61062bd1eff62d82edad55732d811abb5e5496989868689604051612a949493929190614801565b60405180910390a45050505050505050565b6000807fda3241d4d2732e32f76e33e29a986bf90890ff6cb9b8506b1059fc1f197a34e68484604051602001612ade9392919061532d565b6040516020818303038152906040528051906020012090507f000000000000000000000000000000000000000000000000000000000000000081604051602001612b299291906153b0565b6040516020818303038152906040528051906020012091505092915050565b60028360ff1610612b8e576040517f08c379a0000000000000000000000000000000000000000000000000000000008152600401612b8590615459565b60405180910390fd5b60008360ff1603612c1757600073ffffffffffffffffffffffffffffffffffffffff168573ffffffffffffffffffffffffffffffffffffffff1614612c08576040517f08c379a0000000000000000000000000000000000000000000000000000000008152600401612bff906154eb565b60405180910390fd5b612c128482613233565b612ca2565b600073ffffffffffffffffffffffffffffffffffffffff168573ffffffffffffffffffffffffffffffffffffffff1603612c86576040517f08c379a0000000000000000000000000000000000000000000000000000000008152600401612c7d9061557d565b60405180910390fd5b60018360ff1603612ca157612c9c858583613333565b612ca2565b5b5050505050565b604051806080016040528060008152602001866fffffffffffffffffffffffffffffffff168152602001856effffffffffffffffffffffffffffff1681526020018460ff16815250600860008a73ffffffffffffffffffffffffffffffffffffffff1673ffffffffffffffffffffffffffffffffffffffff16815260200190815260200160002060008973ffffffffffffffffffffffffffffffffffffffff1673ffffffffffffffffffffffffffffffffffffffff16815260200190815260200160002060008873ffffffffffffffffffffffffffffffffffffffff1673ffffffffffffffffffffffffffffffffffffffff1681526020019081526020016000206000820151816000015560208201518160010160006101000a8154816fffffffffffffffffffffffffffffffff02191690836fffffffffffffffffffffffffffffffff16021790555060408201518160010160106101000a8154816effffffffffffffffffffffffffffff02191690836effffffffffffffffffffffffffffff160217905550606082015181600101601f6101000a81548160ff021916908360ff160217905550905050806fffffffffffffffffffffffffffffffff16600560008473ffffffffffffffffffffffffffffffffffffffff1673ffffffffffffffffffffffffffffffffffffffff1681526020019081526020016000206000828254612eb5919061559d565b925050819055508673ffffffffffffffffffffffffffffffffffffffff168873ffffffffffffffffffffffffffffffffffffffff167f1d48f3ec0544fd684c5a9331f70963c5401a4fb089b9475628f52911dce6936e88878760008b8989604051612f269796959493929190615616565b60405180910390a35050505050505050565b612f40613488565b73ffffffffffffffffffffffffffffffffffffffff16612f5e61189d565b73ffffffffffffffffffffffffffffffffffffffff1614612fb4576040517f08c379a0000000000000000000000000000000000000000000000000000000008152600401612fab906156d1565b60405180910390fd5b565b6000600460009054906101000a900473ffffffffffffffffffffffffffffffffffffffff16905081600460006101000a81548173ffffffffffffffffffffffffffffffffffffffff021916908373ffffffffffffffffffffffffffffffffffffffff1602179055508173ffffffffffffffffffffffffffffffffffffffff168173ffffffffffffffffffffffffffffffffffffffff167f8be0079c531659141344cd1fd0a4f28419497f9722a3daafe3b4186f6b6457e060405160405180910390a35050565b60008060418351036130bd5760008060006020860151925060408601519150606086015160001a90506130b187828585613490565b945094505050506130c6565b60006002915091505b9250929050565b600060048111156130e1576130e06156f1565b5b8160048111156130f4576130f36156f1565b5b0315613230576001600481111561310e5761310d6156f1565b5b816004811115613121576131206156f1565b5b03613161576040517f08c379a00000000000000000000000000000000000000000000000000000000081526004016131589061576c565b60405180910390fd5b60026004811115613175576131746156f1565b5b816004811115613188576131876156f1565b5b036131c8576040517f08c379a00000000000000000000000000000000000000000000000000000000081526004016131bf906157d8565b60405180910390fd5b600360048111156131dc576131db6156f1565b5b8160048111156131ef576131ee6156f1565b5b0361322f576040517f08c379a00000000000000000000000000000000000000000000000000000000081526004016132269061586a565b60405180910390fd5b5b50565b60008273ffffffffffffffffffffffffffffffffffffffff1682600067ffffffffffffffff8111156132685761326761588a565b5b6040519080825280601f01601f19166020018201604052801561329a5781602001600182028036833780820191505090505b506040516132a891906145ad565b60006040518083038185875af1925050503d80600081146132e5576040519150601f19603f3d011682016040523d82523d6000602084013e6132ea565b606091505b505090508061332e576040517f08c379a000000000000000000000000000000000000000000000000000000000815260040161332590615905565b60405180910390fd5b505050565b6000808473ffffffffffffffffffffffffffffffffffffffff1663a9059cbb60e01b8585604051602401613368929190615925565b604051602081830303815290604052907bffffffffffffffffffffffffffffffffffffffffffffffffffffffff19166020820180517bffffffffffffffffffffffffffffffffffffffffffffffffffffffff83818316178352505050506040516133d291906145ad565b6000604051808303816000865af19150503d806000811461340f576040519150601f19603f3d011682016040523d82523d6000602084013e613414565b606091505b509150915081801561344257506000815114806134415750808060200190518101906134409190614df8565b5b5b613481576040517f08c379a00000000000000000000000000000000000000000000000000000000081526004016134789061599a565b60405180910390fd5b5050505050565b600033905090565b6000807f7fffffffffffffffffffffffffffffff5d576e7357a4501ddfe92f46681b20a08360001c11156134cb576000600391509150613569565b6000600187878787604051600081526020016040526040516134f094939291906159ba565b6020604051602081039080840390855afa158015613512573d6000803e3d6000fd5b505050602060405103519050600073ffffffffffffffffffffffffffffffffffffffff168173ffffffffffffffffffffffffffffffffffffffff160361356057600060019250925050613569565b80600092509250505b94509492505050565b600080fd5b600080fd5b600073ffffffffffffffffffffffffffffffffffffffff82169050919050565b60006135a78261357c565b9050919050565b6135b78161359c565b81146135c257600080fd5b50565b6000813590506135d4816135ae565b92915050565b6000602082840312156135f0576135ef613572565b5b60006135fe848285016135c5565b91505092915050565b6000819050919050565b61361a81613607565b82525050565b60006020820190506136356000830184613611565b92915050565b60006effffffffffffffffffffffffffffff82169050919050565b61365f8161363b565b811461366a57600080fd5b50565b60008135905061367c81613656565b92915050565b60007fffffffff0000000000000000000000000000000000000000000000000000000082169050919050565b6136b781613682565b81146136c257600080fd5b50565b6000813590506136d4816136ae565b92915050565b60006fffffffffffffffffffffffffffffffff82169050919050565b6136ff816136da565b811461370a57600080fd5b50565b60008135905061371c816136f6565b92915050565b600080fd5b600080fd5b600080fd5b60008083601f84011261374757613746613722565b5b8235905067ffffffffffffffff81111561376457613763613727565b5b6020830191508360018202830111156137805761377f61372c565b5b9250929050565b600080600080600080600060c0888a0312156137a6576137a5613572565b5b60006137b48a828b016135c5565b97505060206137c58a828b016135c5565b96505060406137d68a828b0161366d565b95505060606137e78a828b016136c5565b94505060806137f88a828b0161370d565b93505060a088013567ffffffffffffffff81111561381957613818613577565b5b6138258a828b01613731565b925092505092959891949750929550565b60008060008060008060008060e0898b03121561385657613855613572565b5b60006138648b828c016135c5565b98505060206138758b828c016135c5565b97505060406138868b828c0161370d565b96505060606138978b828c0161366d565b95505060806138a88b828c016135c5565b94505060a06138b98b828c0161370d565b93505060c089013567ffffffffffffffff8111156138da576138d9613577565b5b6138e68b828c01613731565b92509250509295985092959890939650565b60008060006040848603121561391157613910613572565b5b600061391f868287016135c5565b935050602084013567ffffffffffffffff8111156139405761393f613577565b5b61394c86828701613731565b92509250509250925092565b6139618161359c565b82525050565b600060208201905061397c6000830184613958565b92915050565b60008060008060006080868803121561399e5761399d613572565b5b60006139ac888289016135c5565b95505060206139bd888289016135c5565b94505060406139ce888289016135c5565b935050606086013567ffffffffffffffff8111156139ef576139ee613577565b5b6139fb88828901613731565b92509250509295509295909350565b60008060008060608587031215613a2457613a23613572565b5b6000613a32878288016135c5565b9450506020613a43878288016135c5565b935050604085013567ffffffffffffffff811115613a6457613a63613577565b5b613a7087828801613731565b925092505092959194509250565b60008115159050919050565b613a9381613a7e565b82525050565b6000602082019050613aae6000830184613a8a565b92915050565b600080600060608486031215613acd57613acc613572565b5b6000613adb868287016135c5565b9350506020613aec868287016135c5565b9250506040613afd868287016135c5565b9150509250925092565b60008060008060008060a08789031215613b2457613b23613572565b5b6000613b3289828a016135c5565b9650506020613b4389828a0161370d565b9550506040613b5489828a0161366d565b9450506060613b6589828a0161370d565b935050608087013567ffffffffffffffff811115613b8657613b85613577565b5b613b9289828a01613731565b92509250509295509295509295565b6000819050919050565b613bb481613ba1565b82525050565b6000602082019050613bcf6000830184613bab565b92915050565b60008060408385031215613bec57613beb613572565b5b6000613bfa858286016135c5565b9250506020613c0b858286016135c5565b9150509250929050565b600060ff82169050919050565b613c2b81613c15565b82525050565b613c3a816136da565b82525050565b613c498161363b565b82525050565b600060a082019050613c646000830188613958565b613c716020830187613c22565b613c7e6040830186613611565b613c8b6060830185613c31565b613c986080830184613c40565b9695505050505050565b600081519050919050565b600082825260208201905092915050565b60005b83811015613cdc578082015181840152602081019050613cc1565b60008484015250505050565b6000601f19601f8301169050919050565b6000613d0482613ca2565b613d0e8185613cad565b9350613d1e818560208601613cbe565b613d2781613ce8565b840191505092915050565b60006080820190508181036000830152613d4c8187613cf9565b90508181036020830152613d608186613cf9565b9050613d6f6040830185613611565b613d7c6060830184613958565b95945050505050565b600080600080600080600060a0888a031215613da457613da3613572565b5b6000613db28a828b016135c5565b9750506020613dc38a828b016135c5565b9650506040613dd48a828b016135c5565b955050606088013567ffffffffffffffff811115613df557613df4613577565b5b613e018a828b01613731565b9450945050608088013567ffffffffffffffff811115613e2457613e23613577565b5b613e308a828b01613731565b925092505092959891949750929550565b613e4a81613607565b8114613e5557600080fd5b50565b600081359050613e6781613e41565b92915050565b6000806000806000806000806000806101208b8d031215613e9157613e90613572565b5b6000613e9f8d828e016135c5565b9a50506020613eb08d828e016135c5565b9950506040613ec18d828e016135c5565b9850506060613ed28d828e01613e58565b9750506080613ee38d828e0161370d565b96505060a0613ef48d828e0161366d565b95505060c0613f058d828e016135c5565b94505060e0613f168d828e0161370d565b9350506101008b013567ffffffffffffffff811115613f3857613f37613577565b5b613f448d828e01613731565b92509250509295989b9194979a5092959850565b613f6181613a7e565b8114613f6c57600080fd5b50565b600081359050613f7e81613f58565b92915050565b60008060408385031215613f9b57613f9a613572565b5b6000613fa9858286016135c5565b9250506020613fba85828601613f6f565b9150509250929050565b6000608082019050613fd96000830187613611565b613fe66020830186613c31565b613ff36040830185613c40565b6140006060830184613c22565b95945050505050565b7f4c696e6b64726f70457363726f773a206d73672e73656e646572206973206e6f60008201527f742072656c617965722e00000000000000000000000000000000000000000000602082015250565b6000614065602a83613cad565b915061407082614009565b604082019050919050565b6000602082019050818103600083015261409481614058565b9050919050565b7f4c696e6b64726f70457363726f773a20696e76616c69642073656c6563746f72600082015250565b60006140d1602083613cad565b91506140dc8261409b565b602082019050919050565b60006020820190508181036000830152614100816140c4565b9050919050565b600080fd5b600080fd5b6000808585111561412557614124614107565b5b838611156141365761413561410c565b5b6001850283019150848603905094509492505050565b60006141578261357c565b9050919050565b6141678161414c565b811461417257600080fd5b50565b6000813590506141848161415e565b92915050565b61419381613ba1565b811461419e57600080fd5b50565b6000813590506141b08161418a565b92915050565b60008060008060008060c087890312156141d3576141d2613572565b5b60006141e189828a01614175565b96505060206141f289828a01614175565b955050604061420389828a01613e58565b945050606061421489828a01613e58565b935050608061422589828a01613e58565b92505060a061423689828a016141a1565b9150509295509295509295565b7f4c696e6b64726f70457363726f773a2072656365697665417574686f72697a6160008201527f74696f6e5f206465636f6465206661696c2e20526563697069656e742069732060208201527f6e6f74207468697320636f6e74726163742e0000000000000000000000000000604082015250565b60006142c5605283613cad565b91506142d082614243565b606082019050919050565b600060208201905081810360008301526142f4816142b8565b9050919050565b60008160601b9050919050565b6000614313826142fb565b9050919050565b600061432582614308565b9050919050565b61433d6143388261359c565b61431a565b82525050565b6000819050919050565b61435e61435982613607565b614343565b82525050565b60008160881b9050919050565b600061437c82614364565b9050919050565b61439461438f8261363b565b614371565b82525050565b60008160801b9050919050565b60006143b28261439a565b9050919050565b6143ca6143c5826136da565b6143a7565b82525050565b60006143dc828861432c565b6014820191506143ec828761432c565b6014820191506143fc828661434d565b60208201915061440c8285614383565b600f8201915061441c82846143b9565b6010820191508190509695505050505050565b7f4c696e6b64726f70457363726f773a2072656365697665417574686f72697a6160008201527f74696f6e5f206465636f6465206661696c2e20496e76616c6964206e6f6e636560208201527f2e00000000000000000000000000000000000000000000000000000000000000604082015250565b60006144b1604183613cad565b91506144bc8261442f565b606082019050919050565b600060208201905081810360008301526144e0816144a4565b9050919050565b6000819050919050565b6145026144fd82613682565b6144e7565b82525050565b600081905092915050565b82818337600083830152505050565b600061452e8385614508565b935061453b838584614513565b82840190509392505050565b600061455382866144f1565b600482019150614564828486614522565b9150819050949350505050565b600081519050919050565b600061458782614571565b6145918185614508565b93506145a1818560208601613cbe565b80840191505092915050565b60006145b9828461457c565b915081905092915050565b7f4c696e6b64726f70457363726f773a20617070726f7665206661696c65642e00600082015250565b60006145fa601f83613cad565b9150614605826145c4565b602082019050919050565b60006020820190508181036000830152614629816145ed565b9050919050565b7f4c696e6b64726f70457363726f773a2046656573206e6f7420617574686f726960008201527f7a65642e00000000000000000000000000000000000000000000000000000000602082015250565b600061468c602483613cad565b915061469782614630565b604082019050919050565b600060208201905081810360008301526146bb8161467f565b9050919050565b7f4c696e6b64726f70457363726f773a2063616e2774206265206164647265737360008201527f283029206173206120746f6b656e2e0000000000000000000000000000000000602082015250565b600061471e602f83613cad565b9150614729826146c2565b604082019050919050565b6000602082019050818103600083015261474d81614711565b9050919050565b6000614760828461432c565b60148201915081905092915050565b7f4c696e6b64726f70457363726f773a20696e76616c6964207472616e7366657260008201527f2049440000000000000000000000000000000000000000000000000000000000602082015250565b60006147cb602383613cad565b91506147d68261476f565b604082019050919050565b600060208201905081810360008301526147fa816147be565b9050919050565b60006080820190506148166000830187613958565b6148236020830186613c22565b6148306040830185613611565b61483d6060830184613c31565b95945050505050565b7f46656573206e6f7420617574686f72697a65642e000000000000000000000000600082015250565b600061487c601483613cad565b915061488782614846565b602082019050919050565b600060208201905081810360008301526148ab8161486f565b9050919050565b7f4c696e6b64726f70457363726f773a207472616e73666572496420697320696e60008201527f207573652e000000000000000000000000000000000000000000000000000000602082015250565b600061490e602583613cad565b9150614919826148b2565b604082019050919050565b6000602082019050818103600083015261493d81614901565b9050919050565b7f4c696e6b64726f70457363726f773a206465706f736974696e6720776974682060008201527f696e76616c69642065787069726174696f6e2e00000000000000000000000000602082015250565b60006149a0603383613cad565b91506149ab82614944565b604082019050919050565b600060208201905081810360008301526149cf81614993565b9050919050565b7f4c696e6b64726f70457363726f773a20616d6f756e74206e6f7420636f76657260008201527f65642e0000000000000000000000000000000000000000000000000000000000602082015250565b6000614a32602383613cad565b9150614a3d826149d6565b604082019050919050565b60006020820190508181036000830152614a6181614a25565b9050919050565b7f4c696e6b64726f70457363726f773a20616d6f756e7420646f6573206e6f742060008201527f636f766572206665652e00000000000000000000000000000000000000000000602082015250565b6000614ac4602a83613cad565b9150614acf82614a68565b604082019050919050565b60006020820190508181036000830152614af381614ab7565b9050919050565b7f4e487b7100000000000000000000000000000000000000000000000000000000600052601160045260246000fd5b6000614b34826136da565b9150614b3f836136da565b925082820390506fffffffffffffffffffffffffffffffff811115614b6757614b66614afa565b5b92915050565b7f4c696e6b64726f70457363726f773a204465706f736974206e6f7420666f756e60008201527f6400000000000000000000000000000000000000000000000000000000000000602082015250565b6000614bc9602183613cad565b9150614bd482614b6d565b604082019050919050565b60006020820190508181036000830152614bf881614bbc565b9050919050565b7f4e487b7100000000000000000000000000000000000000000000000000000000600052602260045260246000fd5b60006002820490506001821680614c4657607f821691505b602082108103614c5957614c58614bff565b5b50919050565b6000614c6b828b61432c565b601482019150614c7b828a61432c565b601482019150614c8b828961432c565b601482019150614c9b828861434d565b602082019150614cab82876143b9565b601082019150614cbb8286614383565b600f82019150614ccb828561432c565b601482019150614cdb82846143b9565b6010820191508190509998505050505050505050565b6000604082019050614d066000830185613958565b614d136020830184613a8a565b9392505050565b6000606082019050614d2f6000830186613958565b614d3c6020830185613958565b614d496040830184613611565b949350505050565b7f4f776e61626c653a206e6577206f776e657220697320746865207a65726f206160008201527f6464726573730000000000000000000000000000000000000000000000000000602082015250565b6000614dad602683613cad565b9150614db882614d51565b604082019050919050565b60006020820190508181036000830152614ddc81614da0565b9050919050565b600081519050614df281613f58565b92915050565b600060208284031215614e0e57614e0d613572565b5b6000614e1c84828501614de3565b91505092915050565b7f5354460000000000000000000000000000000000000000000000000000000000600082015250565b6000614e5b600383613cad565b9150614e6682614e25565b602082019050919050565b60006020820190508181036000830152614e8a81614e4e565b9050919050565b7f4c696e6b64726f70457363726f773a204665657320666f72207472616e73666560008201527f727320696e20737461626c65636f696e732073686f756c64206265207061696460208201527f20696e2074686520737461626c65636f696e20746f6b656e2e00000000000000604082015250565b6000614f13605983613cad565b9150614f1e82614e91565b606082019050919050565b60006020820190508181036000830152614f4281614f06565b9050919050565b7f4c696e6b64726f70457363726f773a20746f6b656e2073686f756c64206e6f7460008201527f2062652061646472657373283029000000000000000000000000000000000000602082015250565b6000614fa5602e83613cad565b9150614fb082614f49565b604082019050919050565b60006020820190508181036000830152614fd481614f98565b9050919050565b7f5265656e7472616e637947756172643a207265656e7472616e742063616c6c00600082015250565b6000615011601f83613cad565b915061501c82614fdb565b602082019050919050565b6000602082019050818103600083015261504081615004565b9050919050565b7f4c696e6b64726f70457363726f773a206665657320666f72204552433230207460008201527f6f6b656e732063616e206265207061696420696e206e617469766520746f6b6560208201527f6e73206f6e6c792e000000000000000000000000000000000000000000000000604082015250565b60006150c9604883613cad565b91506150d482615047565b606082019050919050565b600060208201905081810360008301526150f8816150bc565b9050919050565b7f4c696e6b64726f70457363726f773a20666565206e6f7420636f76657265642e600082015250565b6000615135602083613cad565b9150615140826150ff565b602082019050919050565b6000602082019050818103600083015261516481615128565b9050919050565b600081905092915050565b7f19457468657265756d205369676e6564204d6573736167653a0a333200000000600082015250565b60006151ac601c8361516b565b91506151b782615176565b601c82019050919050565b6000819050919050565b6151dd6151d882613ba1565b6151c2565b82525050565b60006151ee8261519f565b91506151fa82846151cc565b60208201915081905092915050565b7f4c696e6b64726f70457363726f773a20696e76616c69642072656465656d207060008201527f6172616d73000000000000000000000000000000000000000000000000000000602082015250565b6000615265602583613cad565b915061527082615209565b604082019050919050565b6000602082019050818103600083015261529481615258565b9050919050565b7f4c696e6b64726f70457363726f773a207472616e73666572206578706972656460008201527f2e00000000000000000000000000000000000000000000000000000000000000602082015250565b60006152f7602183613cad565b91506153028261529b565b604082019050919050565b60006020820190508181036000830152615326816152ea565b9050919050565b60006060820190506153426000830186613bab565b61534f6020830185613958565b61535c6040830184613958565b949350505050565b7f1901000000000000000000000000000000000000000000000000000000000000600082015250565b600061539a60028361516b565b91506153a582615364565b600282019050919050565b60006153bb8261538d565b91506153c782856151cc565b6020820191506153d782846151cc565b6020820191508190509392505050565b7f4c696e6b64726f70457363726f773a20756e6b6e6f776e20746f6b656e20747960008201527f7065000000000000000000000000000000000000000000000000000000000000602082015250565b6000615443602283613cad565b915061544e826153e7565b604082019050919050565b6000602082019050818103600083015261547281615436565b9050919050565b7f4c696e6b64726f70457363726f773a20616464726573732073686f756c64206260008201527f65203020666f7220455448207472616e73666572730000000000000000000000602082015250565b60006154d5603583613cad565b91506154e082615479565b604082019050919050565b60006020820190508181036000830152615504816154c8565b9050919050565b7f4c696e6b64726f70457363726f773a20746f6b656e2061646472657373206e6f60008201527f742070726f766964656420746f206d616b65207472616e736665720000000000602082015250565b6000615567603b83613cad565b91506155728261550b565b604082019050919050565b600060208201905081810360008301526155968161555a565b9050919050565b60006155a882613607565b91506155b383613607565b92508282019050808211156155cb576155ca614afa565b5b92915050565b6000819050919050565b6000819050919050565b60006156006155fb6155f6846155d1565b6155db565b613607565b9050919050565b615610816155e5565b82525050565b600060e08201905061562b600083018a613958565b6156386020830189613c40565b6156456040830188613c22565b6156526060830187615607565b61565f6080830186613c31565b61566c60a0830185613958565b61567960c0830184613c31565b98975050505050505050565b7f4f776e61626c653a2063616c6c6572206973206e6f7420746865206f776e6572600082015250565b60006156bb602083613cad565b91506156c682615685565b602082019050919050565b600060208201905081810360008301526156ea816156ae565b9050919050565b7f4e487b7100000000000000000000000000000000000000000000000000000000600052602160045260246000fd5b7f45434453413a20696e76616c6964207369676e61747572650000000000000000600082015250565b6000615756601883613cad565b915061576182615720565b602082019050919050565b6000602082019050818103600083015261578581615749565b9050919050565b7f45434453413a20696e76616c6964207369676e6174757265206c656e67746800600082015250565b60006157c2601f83613cad565b91506157cd8261578c565b602082019050919050565b600060208201905081810360008301526157f1816157b5565b9050919050565b7f45434453413a20696e76616c6964207369676e6174757265202773272076616c60008201527f7565000000000000000000000000000000000000000000000000000000000000602082015250565b6000615854602283613cad565b915061585f826157f8565b604082019050919050565b6000602082019050818103600083015261588381615847565b9050919050565b7f4e487b7100000000000000000000000000000000000000000000000000000000600052604160045260246000fd5b7f5354450000000000000000000000000000000000000000000000000000000000600082015250565b60006158ef600383613cad565b91506158fa826158b9565b602082019050919050565b6000602082019050818103600083015261591e816158e2565b9050919050565b600060408201905061593a6000830185613958565b6159476020830184613611565b9392505050565b7f5354000000000000000000000000000000000000000000000000000000000000600082015250565b6000615984600283613cad565b915061598f8261594e565b602082019050919050565b600060208201905081810360008301526159b381615977565b9050919050565b60006080820190506159cf6000830187613bab565b6159dc6020830186613c22565b6159e96040830185613bab565b6159f66060830184613bab565b9594505050505056fea2646970667358221220b129cdcf9c3cce408d5858a9ad00c8fe15671ef4f7b42ab5cb83265286894a8664736f6c63430008110033",
  "linkReferences": {},
  "deployedLinkReferences": {}
}