{
  "_format": "hh-sol-artifact-1",
  "contractName": "LinkdropEscrowStablecoin",
  "sourceName": "contracts/LinkdropEscrowStablecoin.sol",
  "abi": [
    {
      "inputs": [
        {
          "internalType": "address",
          "name": "relayer_",
          "type": "address"
        },
        {
          "internalType": "uint128",
          "name": "claimFee_",
          "type": "uint128"
        },
        {
          "internalType": "uint128",
          "name": "depositFee_",
          "type": "uint128"
        },
        {
          "internalType": "contract IERC20",
          "name": "token_",
          "type": "address"
        }
      ],
      "stateMutability": "nonpayable",
      "type": "constructor"
    },
    {
      "anonymous": false,
      "inputs": [
        {
          "indexed": true,
          "internalType": "address",
          "name": "sender",
          "type": "address"
        },
        {
          "indexed": true,
          "internalType": "address",
          "name": "transferId",
          "type": "address"
        },
        {
          "indexed": false,
          "internalType": "uint128",
          "name": "amount",
          "type": "uint128"
        }
      ],
      "name": "Cancel",
      "type": "event"
    },
    {
      "anonymous": false,
      "inputs": [
        {
          "indexed": true,
          "internalType": "address",
          "name": "sender",
          "type": "address"
        },
        {
          "indexed": false,
          "internalType": "address",
          "name": "transferId",
          "type": "address"
        },
        {
          "indexed": false,
          "internalType": "uint128",
          "name": "amount",
          "type": "uint128"
        },
        {
          "indexed": false,
          "internalType": "uint128",
          "name": "fee",
          "type": "uint128"
        },
        {
          "indexed": false,
          "internalType": "uint128",
          "name": "expiration",
          "type": "uint128"
        }
      ],
      "name": "Deposit",
      "type": "event"
    },
    {
      "anonymous": false,
      "inputs": [
        {
          "indexed": true,
          "internalType": "address",
          "name": "previousOwner",
          "type": "address"
        },
        {
          "indexed": true,
          "internalType": "address",
          "name": "newOwner",
          "type": "address"
        }
      ],
      "name": "OwnershipTransferred",
      "type": "event"
    },
    {
      "anonymous": false,
      "inputs": [
        {
          "indexed": true,
          "internalType": "address",
          "name": "sender",
          "type": "address"
        },
        {
          "indexed": true,
          "internalType": "address",
          "name": "receiver",
          "type": "address"
        },
        {
          "indexed": false,
          "internalType": "address",
          "name": "transferId",
          "type": "address"
        },
        {
          "indexed": false,
          "internalType": "uint128",
          "name": "amount",
          "type": "uint128"
        }
      ],
      "name": "Redeem",
      "type": "event"
    },
    {
      "anonymous": false,
      "inputs": [
        {
          "indexed": true,
          "internalType": "address",
          "name": "sender",
          "type": "address"
        },
        {
          "indexed": true,
          "internalType": "address",
          "name": "transferId",
          "type": "address"
        },
        {
          "indexed": false,
          "internalType": "uint128",
          "name": "amount",
          "type": "uint128"
        }
      ],
      "name": "Refund",
      "type": "event"
    },
    {
      "anonymous": false,
      "inputs": [
        {
          "indexed": false,
          "internalType": "uint128",
          "name": "claimFee",
          "type": "uint128"
        },
        {
          "indexed": false,
          "internalType": "uint128",
          "name": "depositFee",
          "type": "uint128"
        }
      ],
      "name": "UpdateFees",
      "type": "event"
    },
    {
      "anonymous": false,
      "inputs": [
        {
          "indexed": false,
          "internalType": "address",
          "name": "relayer",
          "type": "address"
        },
        {
          "indexed": false,
          "internalType": "bool",
          "name": "active",
          "type": "bool"
        }
      ],
      "name": "UpdateRelayer",
      "type": "event"
    },
    {
      "anonymous": false,
      "inputs": [
        {
          "indexed": false,
          "internalType": "address",
          "name": "feeReceiver",
          "type": "address"
        },
        {
          "indexed": false,
          "internalType": "uint256",
          "name": "amount",
          "type": "uint256"
        }
      ],
      "name": "WithdrawFees",
      "type": "event"
    },
    {
      "inputs": [],
      "name": "EIP712_DOMAIN_TYPEHASH",
      "outputs": [
        {
          "internalType": "bytes32",
          "name": "",
          "type": "bytes32"
        }
      ],
      "stateMutability": "view",
      "type": "function"
    },
    {
      "inputs": [],
      "name": "_DOMAIN_SEPARATOR",
      "outputs": [
        {
          "internalType": "bytes32",
          "name": "",
          "type": "bytes32"
        }
      ],
      "stateMutability": "view",
      "type": "function"
    },
    {
      "inputs": [],
      "name": "_TRANSFER_TYPE_HASH",
      "outputs": [
        {
          "internalType": "bytes32",
          "name": "",
          "type": "bytes32"
        }
      ],
      "stateMutability": "view",
      "type": "function"
    },
    {
      "inputs": [],
      "name": "accruedFees",
      "outputs": [
        {
          "internalType": "uint256",
          "name": "",
          "type": "uint256"
        }
      ],
      "stateMutability": "view",
      "type": "function"
    },
    {
      "inputs": [
        {
          "internalType": "address",
          "name": "transferId_",
          "type": "address"
        }
      ],
      "name": "cancel",
      "outputs": [],
      "stateMutability": "nonpayable",
      "type": "function"
    },
    {
      "inputs": [],
      "name": "claimFee",
      "outputs": [
        {
          "internalType": "uint128",
          "name": "",
          "type": "uint128"
        }
      ],
      "stateMutability": "view",
      "type": "function"
    },
    {
      "inputs": [
        {
          "internalType": "address",
          "name": "transferId_",
          "type": "address"
        },
        {
          "internalType": "uint128",
          "name": "amount_",
          "type": "uint128"
        },
        {
          "internalType": "uint128",
          "name": "expiration_",
          "type": "uint128"
        }
      ],
      "name": "deposit",
      "outputs": [],
      "stateMutability": "nonpayable",
      "type": "function"
    },
    {
      "inputs": [],
      "name": "depositFee",
      "outputs": [
        {
          "internalType": "uint128",
          "name": "",
          "type": "uint128"
        }
      ],
      "stateMutability": "view",
      "type": "function"
    },
    {
      "inputs": [
        {
          "internalType": "address",
          "name": "transferId_",
          "type": "address"
        },
        {
          "internalType": "uint128",
          "name": "expiration_",
          "type": "uint128"
        },
        {
          "internalType": "bool",
          "name": "sponsored_",
          "type": "bool"
        },
        {
          "internalType": "bytes",
          "name": "receiveAuthorization_",
          "type": "bytes"
        }
      ],
      "name": "depositWithAuthorization",
      "outputs": [],
      "stateMutability": "nonpayable",
      "type": "function"
    },
    {
      "inputs": [
        {
          "internalType": "address",
          "name": "",
          "type": "address"
        },
        {
          "internalType": "address",
          "name": "",
          "type": "address"
        }
      ],
      "name": "deposits",
      "outputs": [
        {
          "internalType": "uint128",
          "name": "amount",
          "type": "uint128"
        },
        {
          "internalType": "uint128",
          "name": "expiration",
          "type": "uint128"
        }
      ],
      "stateMutability": "view",
      "type": "function"
    },
    {
      "inputs": [],
      "name": "domain",
      "outputs": [
        {
          "internalType": "string",
          "name": "name",
          "type": "string"
        },
        {
          "internalType": "string",
          "name": "version",
          "type": "string"
        },
        {
          "internalType": "uint256",
          "name": "chainId",
          "type": "uint256"
        },
        {
          "internalType": "address",
          "name": "verifyingContract",
          "type": "address"
        }
      ],
      "stateMutability": "view",
      "type": "function"
    },
    {
      "inputs": [
        {
          "internalType": "address",
          "name": "sender_",
          "type": "address"
        },
        {
          "internalType": "address",
          "name": "transferId_",
          "type": "address"
        }
      ],
      "name": "getDeposit",
      "outputs": [
        {
          "internalType": "address",
          "name": "tokenAddress",
          "type": "address"
        },
        {
          "internalType": "uint128",
          "name": "amount",
          "type": "uint128"
        },
        {
          "internalType": "uint128",
          "name": "expiration",
          "type": "uint128"
        }
      ],
      "stateMutability": "view",
      "type": "function"
    },
    {
      "inputs": [],
      "name": "getFees",
      "outputs": [
        {
          "internalType": "uint128",
          "name": "",
          "type": "uint128"
        },
        {
          "internalType": "uint128",
          "name": "",
          "type": "uint128"
        },
        {
          "internalType": "uint128",
          "name": "",
          "type": "uint128"
        }
      ],
      "stateMutability": "view",
      "type": "function"
    },
    {
      "inputs": [],
      "name": "owner",
      "outputs": [
        {
          "internalType": "address",
          "name": "",
          "type": "address"
        }
      ],
      "stateMutability": "view",
      "type": "function"
    },
    {
      "inputs": [
        {
          "internalType": "address",
          "name": "receiver_",
          "type": "address"
        },
        {
          "internalType": "bytes",
          "name": "receiverSig_",
          "type": "bytes"
        }
      ],
      "name": "recoverLinkKeyId",
      "outputs": [
        {
          "internalType": "address",
          "name": "linkKeyId",
          "type": "address"
        }
      ],
      "stateMutability": "pure",
      "type": "function"
    },
    {
      "inputs": [
        {
          "internalType": "address",
          "name": "linkKeyId_",
          "type": "address"
        },
        {
          "internalType": "address",
          "name": "transferId_",
          "type": "address"
        },
        {
          "internalType": "bytes",
          "name": "senderSig_",
          "type": "bytes"
        }
      ],
      "name": "recoverSender",
      "outputs": [
        {
          "internalType": "address",
          "name": "sender",
          "type": "address"
        }
      ],
      "stateMutability": "view",
      "type": "function"
    },
    {
      "inputs": [
        {
          "internalType": "address",
          "name": "receiver_",
          "type": "address"
        },
        {
          "internalType": "address",
          "name": "sender_",
          "type": "address"
        },
        {
          "internalType": "bytes",
          "name": "receiverSig_",
          "type": "bytes"
        },
        {
          "internalType": "bool",
          "name": "sponsored_",
          "type": "bool"
        }
      ],
      "name": "redeem",
      "outputs": [],
      "stateMutability": "nonpayable",
      "type": "function"
    },
    {
      "inputs": [
        {
          "internalType": "address",
          "name": "receiver_",
          "type": "address"
        },
        {
          "internalType": "address",
          "name": "transferId_",
          "type": "address"
        },
        {
          "internalType": "bytes",
          "name": "receiverSig_",
          "type": "bytes"
        },
        {
          "internalType": "bytes",
          "name": "senderSig_",
          "type": "bytes"
        },
        {
          "internalType": "bool",
          "name": "sponsored_",
          "type": "bool"
        }
      ],
      "name": "redeemRecovered",
      "outputs": [],
      "stateMutability": "nonpayable",
      "type": "function"
    },
    {
      "inputs": [
        {
          "internalType": "address",
          "name": "sender_",
          "type": "address"
        },
        {
          "internalType": "address",
          "name": "transferId_",
          "type": "address"
        },
        {
          "internalType": "bool",
          "name": "sponsored_",
          "type": "bool"
        }
      ],
      "name": "refund",
      "outputs": [],
      "stateMutability": "nonpayable",
      "type": "function"
    },
    {
      "inputs": [
        {
          "internalType": "address",
          "name": "",
          "type": "address"
        }
      ],
      "name": "relayers",
      "outputs": [
        {
          "internalType": "bool",
          "name": "",
          "type": "bool"
        }
      ],
      "stateMutability": "view",
      "type": "function"
    },
    {
      "inputs": [],
      "name": "renounceOwnership",
      "outputs": [],
      "stateMutability": "nonpayable",
      "type": "function"
    },
    {
      "inputs": [
        {
          "internalType": "uint128",
          "name": "claimFee_",
          "type": "uint128"
        },
        {
          "internalType": "uint128",
          "name": "depositFee_",
          "type": "uint128"
        }
      ],
      "name": "setFees",
      "outputs": [],
      "stateMutability": "nonpayable",
      "type": "function"
    },
    {
      "inputs": [
        {
          "internalType": "address",
          "name": "relayer_",
          "type": "address"
        },
        {
          "internalType": "bool",
          "name": "active_",
          "type": "bool"
        }
      ],
      "name": "setRelayer",
      "outputs": [],
      "stateMutability": "nonpayable",
      "type": "function"
    },
    {
      "inputs": [],
      "name": "token",
      "outputs": [
        {
          "internalType": "contract IERC20",
          "name": "",
          "type": "address"
        }
      ],
      "stateMutability": "view",
      "type": "function"
    },
    {
      "inputs": [
        {
          "internalType": "address",
          "name": "newOwner",
          "type": "address"
        }
      ],
      "name": "transferOwnership",
      "outputs": [],
      "stateMutability": "nonpayable",
      "type": "function"
    },
    {
      "inputs": [],
      "name": "withdrawAccruedFees",
      "outputs": [],
      "stateMutability": "nonpayable",
      "type": "function"
    }
  ],
  "bytecode": "0x60c06040523480156200001157600080fd5b5060405162004e4138038062004e4183398181016040528101906200003791906200054b565b620000576200004b6200038360201b60201c565b6200038b60201b60201c565b600046905060405180608001604052806040518060400160405280600e81526020017f4c696e6b64726f70457363726f7700000000000000000000000000000000000081525081526020016040518060400160405280600181526020017f320000000000000000000000000000000000000000000000000000000000000081525081526020018281526020013073ffffffffffffffffffffffffffffffffffffffff168152506001600082015181600001908162000116919062000837565b5060208201518160010190816200012e919062000837565b506040820151816002015560608201518160030160006101000a81548173ffffffffffffffffffffffffffffffffffffffff021916908373ffffffffffffffffffffffffffffffffffffffff1602179055509050507f8b73c3c69bb8fe3d512ecc4cf759cc79239f7b179b0ffacaa9a75d522b39400f6001600001604051620001b89190620009cd565b604051809103902060018001604051620001d39190620009cd565b604051809103902060016002015430604051602001620001f895949392919062000a23565b60405160208183030381529060405280519060200120608081815250507fda3241d4d2732e32f76e33e29a986bf90890ff6cb9b8506b1059fc1f197a34e680146200027a576040517f08c379a0000000000000000000000000000000000000000000000000000000008152600401620002719062000ae1565b60405180910390fd5b506001600860008673ffffffffffffffffffffffffffffffffffffffff1673ffffffffffffffffffffffffffffffffffffffff16815260200190815260200160002060006101000a81548160ff02191690831515021790555082600660006101000a8154816fffffffffffffffffffffffffffffffff02191690836fffffffffffffffffffffffffffffffff16021790555081600660106101000a8154816fffffffffffffffffffffffffffffffff02191690836fffffffffffffffffffffffffffffffff1602179055508073ffffffffffffffffffffffffffffffffffffffff1660a08173ffffffffffffffffffffffffffffffffffffffff16815250505050505062000b03565b600033905090565b60008060009054906101000a900473ffffffffffffffffffffffffffffffffffffffff169050816000806101000a81548173ffffffffffffffffffffffffffffffffffffffff021916908373ffffffffffffffffffffffffffffffffffffffff1602179055508173ffffffffffffffffffffffffffffffffffffffff168173ffffffffffffffffffffffffffffffffffffffff167f8be0079c531659141344cd1fd0a4f28419497f9722a3daafe3b4186f6b6457e060405160405180910390a35050565b600080fd5b600073ffffffffffffffffffffffffffffffffffffffff82169050919050565b6000620004818262000454565b9050919050565b620004938162000474565b81146200049f57600080fd5b50565b600081519050620004b38162000488565b92915050565b60006fffffffffffffffffffffffffffffffff82169050919050565b620004e081620004b9565b8114620004ec57600080fd5b50565b6000815190506200050081620004d5565b92915050565b6000620005138262000474565b9050919050565b620005258162000506565b81146200053157600080fd5b50565b60008151905062000545816200051a565b92915050565b600080600080608085870312156200056857620005676200044f565b5b60006200057887828801620004a2565b94505060206200058b87828801620004ef565b93505060406200059e87828801620004ef565b9250506060620005b18782880162000534565b91505092959194509250565b600081519050919050565b7f4e487b7100000000000000000000000000000000000000000000000000000000600052604160045260246000fd5b7f4e487b7100000000000000000000000000000000000000000000000000000000600052602260045260246000fd5b600060028204905060018216806200063f57607f821691505b602082108103620006555762000654620005f7565b5b50919050565b60008190508160005260206000209050919050565b60006020601f8301049050919050565b600082821b905092915050565b600060088302620006bf7fffffffffffffffffffffffffffffffffffffffffffffffffffffffffffffffff8262000680565b620006cb868362000680565b95508019841693508086168417925050509392505050565b6000819050919050565b6000819050919050565b600062000718620007126200070c84620006e3565b620006ed565b620006e3565b9050919050565b6000819050919050565b6200073483620006f7565b6200074c62000743826200071f565b8484546200068d565b825550505050565b600090565b6200076362000754565b6200077081848462000729565b505050565b5b8181101562000798576200078c60008262000759565b60018101905062000776565b5050565b601f821115620007e757620007b1816200065b565b620007bc8462000670565b81016020851015620007cc578190505b620007e4620007db8562000670565b83018262000775565b50505b505050565b600082821c905092915050565b60006200080c60001984600802620007ec565b1980831691505092915050565b6000620008278383620007f9565b9150826002028217905092915050565b6200084282620005bd565b67ffffffffffffffff8111156200085e576200085d620005c8565b5b6200086a825462000626565b620008778282856200079c565b600060209050601f831160018114620008af57600084156200089a578287015190505b620008a6858262000819565b86555062000916565b601f198416620008bf866200065b565b60005b82811015620008e957848901518255600182019150602085019450602081019050620008c2565b8683101562000909578489015162000905601f891682620007f9565b8355505b6001600288020188555050505b505050505050565b600081905092915050565b60008190508160005260206000209050919050565b600081546200094d8162000626565b6200095981866200091e565b945060018216600081146200097757600181146200098d57620009c4565b60ff1983168652811515820286019350620009c4565b620009988562000929565b60005b83811015620009bc578154818901526001820191506020810190506200099b565b838801955050505b50505092915050565b6000620009db82846200093e565b915081905092915050565b6000819050919050565b620009fb81620009e6565b82525050565b62000a0c81620006e3565b82525050565b62000a1d8162000474565b82525050565b600060a08201905062000a3a6000830188620009f0565b62000a496020830187620009f0565b62000a586040830186620009f0565b62000a67606083018562000a01565b62000a76608083018462000a12565b9695505050505050565b600082825260208201905092915050565b7f4549503731323a20696e76616c69642074797065206861736800000000000000600082015250565b600062000ac960198362000a80565b915062000ad68262000a91565b602082019050919050565b6000602082019050818103600083015262000afc8162000aba565b9050919050565b60805160a0516142d962000b686000396000818161081501528181610b5d01528181610c520152818161115c015281816114080152818161167f0152818161189401528181611b57015261253f015260008181611a140152611ca001526142d96000f3fe608060405234801561001057600080fd5b506004361061018e5760003560e01c806397665a26116100de578063c3fbc5ef11610097578063dc0c81b511610071578063dc0c81b514610453578063ecd8dc3a14610471578063f2fde38b1461048d578063fc0c546a146104a95761018e565b8063c3fbc5ef146103f9578063c7977be714610415578063db8d55f1146104335761018e565b806397665a261461034657806399d32fc414610362578063ada82c7d14610380578063c2fb26a61461038a578063c35082a9146103ab578063c3a6f5f5146103dd5761018e565b8063682c20581161014b5780637fd60c26116101255780637fd60c26146102bf5780638759c8de146102db5780638da5cb5b146102f75780638f601f66146103155761018e565b8063682c205814610279578063715018a61461029757806371d68372146102a15761018e565b806332760c7a146101935780633d6e85e6146101af5780633e0dd0d9146101df5780634c33fe941461020f5780635300f8411461022b57806367a527931461025b575b600080fd5b6101ad60048036038101906101a89190612950565b6104c7565b005b6101c960048036038101906101c49190612a53565b6105ba565b6040516101d69190612ac2565b60405180910390f35b6101f960048036038101906101f49190612add565b610646565b6040516102069190612ac2565b60405180910390f35b61022960048036038101906102249190612b51565b6106ae565b005b61024560048036038101906102409190612b51565b61092d565b6040516102529190612b99565b60405180910390f35b61026361094d565b6040516102709190612bc3565b60405180910390f35b61028161096f565b60405161028e9190612bf7565b60405180910390f35b61029f610975565b005b6102a9610989565b6040516102b69190612c2b565b60405180910390f35b6102d960048036038101906102d49190612c72565b6109ad565b005b6102f560048036038101906102f09190612cfa565b610d34565b005b6102ff611277565b60405161030c9190612ac2565b60405180910390f35b61032f600480360381019061032a9190612d4d565b6112a0565b60405161033d929190612d8d565b60405180910390f35b610360600480360381019061035b9190612db6565b611309565b005b61036a6113cb565b6040516103779190612bc3565b60405180910390f35b6103886113ed565b005b61039261152a565b6040516103a29493929190612f02565b60405180910390f35b6103c560048036038101906103c09190612d4d565b611678565b6040516103d493929190612f55565b60405180910390f35b6103f760048036038101906103f29190612f8c565b6117e3565b005b610413600480360381019061040e9190613014565b611892565b005b61041d611958565b60405161042a9190612c2b565b60405180910390f35b61043b61197c565b60405161044a93929190613067565b60405180910390f35b61045b611a12565b6040516104689190612c2b565b60405180910390f35b61048b6004803603810190610486919061309e565b611a36565b005b6104a760048036038101906104a29190612b51565b611ad2565b005b6104b1611b55565b6040516104be919061313d565b60405180910390f35b6104cf611b79565b81600660006101000a8154816fffffffffffffffffffffffffffffffff02191690836fffffffffffffffffffffffffffffffff16021790555080600660106101000a8154816fffffffffffffffffffffffffffffffff02191690836fffffffffffffffffffffffffffffffff1602179055507f011eba83806634de7f6e4bd39154e636355e53ba508fe5e17f4b58c22b868255600660009054906101000a90046fffffffffffffffffffffffffffffffff16600660109054906101000a90046fffffffffffffffffffffffffffffffff166040516105ae929190612d8d565b60405180910390a15050565b6000806105ec856040516020016105d191906131a0565b60405160208183030381529060405280519060200120611bf7565b905061063c8185858080601f016020809104026020016040519081016040528093929190818152602001838380828437600081840152601f19601f82011690508083019250505050505050611c27565b9150509392505050565b6000806106538686611c4e565b90506106a38185858080601f016020809104026020016040519081016040528093929190818152602001838380828437600081840152601f19601f82011690508083019250505050505050611c27565b915050949350505050565b6000600560003373ffffffffffffffffffffffffffffffffffffffff1673ffffffffffffffffffffffffffffffffffffffff16815260200190815260200160002060008373ffffffffffffffffffffffffffffffffffffffff1673ffffffffffffffffffffffffffffffffffffffff16815260200190815260200160002060000160009054906101000a90046fffffffffffffffffffffffffffffffff169050600560003373ffffffffffffffffffffffffffffffffffffffff1673ffffffffffffffffffffffffffffffffffffffff16815260200190815260200160002060008373ffffffffffffffffffffffffffffffffffffffff1673ffffffffffffffffffffffffffffffffffffffff168152602001908152602001600020600080820160006101000a8154906fffffffffffffffffffffffffffffffff02191690556000820160106101000a8154906fffffffffffffffffffffffffffffffff021916905550507f000000000000000000000000000000000000000000000000000000000000000073ffffffffffffffffffffffffffffffffffffffff1663a9059cbb33836fffffffffffffffffffffffffffffffff166040518363ffffffff1660e01b81526004016108809291906131bb565b6020604051808303816000875af115801561089f573d6000803e3d6000fd5b505050506040513d601f19601f820116820180604052508101906108c391906131f9565b508173ffffffffffffffffffffffffffffffffffffffff163373ffffffffffffffffffffffffffffffffffffffff167f9c14a150b242a32a5dfbdd4d156b4f08198c9d11bd022641e0ca6938889e5738836040516109219190612bc3565b60405180910390a35050565b60086020528060005260406000206000915054906101000a900460ff1681565b600660109054906101000a90046fffffffffffffffffffffffffffffffff1681565b60075481565b61097d611b79565b6109876000611cf0565b565b7fda3241d4d2732e32f76e33e29a986bf90890ff6cb9b8506b1059fc1f197a34e681565b600860003373ffffffffffffffffffffffffffffffffffffffff1673ffffffffffffffffffffffffffffffffffffffff16815260200190815260200160002060009054906101000a900460ff16610a39576040517f08c379a0000000000000000000000000000000000000000000000000000000008152600401610a3090613298565b60405180910390fd5b600080600080600080878760009060c092610a56939291906132c2565b810190610a639190613393565b809850819650829750839950849a50859b5050505050505050503073ffffffffffffffffffffffffffffffffffffffff168373ffffffffffffffffffffffffffffffffffffffff1614610aeb576040517f08c379a0000000000000000000000000000000000000000000000000000000008152600401610ae2906134b8565b60405180910390fd5b80848a848b604051602001610b03949392919061352f565b6040516020818303038152906040528051906020012014610b59576040517f08c379a0000000000000000000000000000000000000000000000000000000008152600401610b5090613615565b60405180910390fd5b60007f000000000000000000000000000000000000000000000000000000000000000073ffffffffffffffffffffffffffffffffffffffff1663e1560fd360e01b8888604051602001610bae939291906136c1565b604051602081830303815290604052604051610bca9190613727565b6000604051808303816000865af19150503d8060008114610c07576040519150601f19603f3d011682016040523d82523d6000602084013e610c0c565b606091505b5050905080610c50576040517f08c379a0000000000000000000000000000000000000000000000000000000008152600401610c479061378a565b60405180910390fd5b7f000000000000000000000000000000000000000000000000000000000000000073ffffffffffffffffffffffffffffffffffffffff166323b872dd8630866040518463ffffffff1660e01b8152600401610cad939291906137aa565b6020604051808303816000875af1158015610ccc573d6000803e3d6000fd5b505050506040513d601f19601f82011682018060405250810190610cf091906131f9565b50600088610d1a57600660109054906101000a90046fffffffffffffffffffffffffffffffff1690505b610d27868c86848e611db4565b5050505050505050505050565b600860003373ffffffffffffffffffffffffffffffffffffffff1673ffffffffffffffffffffffffffffffffffffffff16815260200190815260200160002060009054906101000a900460ff16610dc0576040517f08c379a0000000000000000000000000000000000000000000000000000000008152600401610db790613298565b60405180910390fd5b6000600560008573ffffffffffffffffffffffffffffffffffffffff1673ffffffffffffffffffffffffffffffffffffffff16815260200190815260200160002060008473ffffffffffffffffffffffffffffffffffffffff1673ffffffffffffffffffffffffffffffffffffffff1681526020019081526020016000206040518060400160405290816000820160009054906101000a90046fffffffffffffffffffffffffffffffff166fffffffffffffffffffffffffffffffff166fffffffffffffffffffffffffffffffff1681526020016000820160109054906101000a90046fffffffffffffffffffffffffffffffff166fffffffffffffffffffffffffffffffff166fffffffffffffffffffffffffffffffff168152505090506000816000015190506000816fffffffffffffffffffffffffffffffff1611610f3d576040517f08c379a0000000000000000000000000000000000000000000000000000000008152600401610f3490613853565b60405180910390fd5b81602001516fffffffffffffffffffffffffffffffff16421015610f96576040517f08c379a0000000000000000000000000000000000000000000000000000000008152600401610f8d906138e5565b60405180910390fd5b8261109557600660009054906101000a90046fffffffffffffffffffffffffffffffff166fffffffffffffffffffffffffffffffff16816fffffffffffffffffffffffffffffffff161161101f576040517f08c379a000000000000000000000000000000000000000000000000000000000815260040161101690613977565b60405180910390fd5b600660009054906101000a90046fffffffffffffffffffffffffffffffff168161104991906139c6565b9050600660009054906101000a90046fffffffffffffffffffffffffffffffff166fffffffffffffffffffffffffffffffff166007600082825461108d9190613a0a565b925050819055505b600560008673ffffffffffffffffffffffffffffffffffffffff1673ffffffffffffffffffffffffffffffffffffffff16815260200190815260200160002060008573ffffffffffffffffffffffffffffffffffffffff1673ffffffffffffffffffffffffffffffffffffffff168152602001908152602001600020600080820160006101000a8154906fffffffffffffffffffffffffffffffff02191690556000820160106101000a8154906fffffffffffffffffffffffffffffffff021916905550507f000000000000000000000000000000000000000000000000000000000000000073ffffffffffffffffffffffffffffffffffffffff1663a9059cbb86836fffffffffffffffffffffffffffffffff166040518363ffffffff1660e01b81526004016111c79291906131bb565b6020604051808303816000875af11580156111e6573d6000803e3d6000fd5b505050506040513d601f19601f8201168201806040525081019061120a91906131f9565b508373ffffffffffffffffffffffffffffffffffffffff168573ffffffffffffffffffffffffffffffffffffffff167fb47e9b8d45d35fc0395da5c6b68ac1e0cc45d95ebe52a008f3e4a716f27186b5836040516112689190612bc3565b60405180910390a35050505050565b60008060009054906101000a900473ffffffffffffffffffffffffffffffffffffffff16905090565b6005602052816000526040600020602052806000526040600020600091509150508060000160009054906101000a90046fffffffffffffffffffffffffffffffff16908060000160109054906101000a90046fffffffffffffffffffffffffffffffff16905082565b600860003373ffffffffffffffffffffffffffffffffffffffff1673ffffffffffffffffffffffffffffffffffffffff16815260200190815260200160002060009054906101000a900460ff16611395576040517f08c379a000000000000000000000000000000000000000000000000000000000815260040161138c90613298565b60405180910390fd5b60006113a28887876105ba565b905060006113b282898787610646565b90506113c081898b86612175565b505050505050505050565b600660009054906101000a90046fffffffffffffffffffffffffffffffff1681565b6113f5611b79565b60006007549050600060078190555060007f000000000000000000000000000000000000000000000000000000000000000073ffffffffffffffffffffffffffffffffffffffff1663a9059cbb33846040518363ffffffff1660e01b81526004016114619291906131bb565b6020604051808303816000875af1158015611480573d6000803e3d6000fd5b505050506040513d601f19601f820116820180604052508101906114a491906131f9565b905060011515811515146114ed576040517f08c379a00000000000000000000000000000000000000000000000000000000081526004016114e490613ab0565b60405180910390fd5b7f9bba815921f12cb7b1408e14b5ade745234397d39623ae5e7c82d693cb45815f338360405161151e9291906131bb565b60405180910390a15050565b600180600001805461153b90613aff565b80601f016020809104026020016040519081016040528092919081815260200182805461156790613aff565b80156115b45780601f10611589576101008083540402835291602001916115b4565b820191906000526020600020905b81548152906001019060200180831161159757829003601f168201915b5050505050908060010180546115c990613aff565b80601f01602080910402602001604051908101604052809291908181526020018280546115f590613aff565b80156116425780601f1061161757610100808354040283529160200191611642565b820191906000526020600020905b81548152906001019060200180831161162557829003601f168201915b5050505050908060020154908060030160009054906101000a900473ffffffffffffffffffffffffffffffffffffffff16905084565b60008060007f0000000000000000000000000000000000000000000000000000000000000000600560008773ffffffffffffffffffffffffffffffffffffffff1673ffffffffffffffffffffffffffffffffffffffff16815260200190815260200160002060008673ffffffffffffffffffffffffffffffffffffffff1673ffffffffffffffffffffffffffffffffffffffff16815260200190815260200160002060000160009054906101000a90046fffffffffffffffffffffffffffffffff16600560008873ffffffffffffffffffffffffffffffffffffffff1673ffffffffffffffffffffffffffffffffffffffff16815260200190815260200160002060008773ffffffffffffffffffffffffffffffffffffffff1673ffffffffffffffffffffffffffffffffffffffff16815260200190815260200160002060000160109054906101000a90046fffffffffffffffffffffffffffffffff169250925092509250925092565b600860003373ffffffffffffffffffffffffffffffffffffffff1673ffffffffffffffffffffffffffffffffffffffff16815260200190815260200160002060009054906101000a900460ff1661186f576040517f08c379a000000000000000000000000000000000000000000000000000000000815260040161186690613298565b60405180910390fd5b600061187c8685856105ba565b905061188a85828885612175565b505050505050565b7f000000000000000000000000000000000000000000000000000000000000000073ffffffffffffffffffffffffffffffffffffffff166323b872dd3330856fffffffffffffffffffffffffffffffff166040518463ffffffff1660e01b8152600401611901939291906137aa565b6020604051808303816000875af1158015611920573d6000803e3d6000fd5b505050506040513d601f19601f8201168201806040525081019061194491906131f9565b50611953338484600085611db4565b505050565b7f8b73c3c69bb8fe3d512ecc4cf759cc79239f7b179b0ffacaa9a75d522b39400f81565b6000806000600660109054906101000a90046fffffffffffffffffffffffffffffffff16600660009054906101000a90046fffffffffffffffffffffffffffffffff16600660009054906101000a90046fffffffffffffffffffffffffffffffff16600660109054906101000a90046fffffffffffffffffffffffffffffffff16611a079190613b30565b925092509250909192565b7f000000000000000000000000000000000000000000000000000000000000000081565b611a3e611b79565b80600860008473ffffffffffffffffffffffffffffffffffffffff1673ffffffffffffffffffffffffffffffffffffffff16815260200190815260200160002060006101000a81548160ff0219169083151502179055507f34e1cf41794bd5b78c6251cacf103835b835d3ad103d8471ae5f3df532ff31128282604051611ac6929190613b74565b60405180910390a15050565b611ada611b79565b600073ffffffffffffffffffffffffffffffffffffffff168173ffffffffffffffffffffffffffffffffffffffff1603611b49576040517f08c379a0000000000000000000000000000000000000000000000000000000008152600401611b4090613c0f565b60405180910390fd5b611b5281611cf0565b50565b7f000000000000000000000000000000000000000000000000000000000000000081565b611b8161265d565b73ffffffffffffffffffffffffffffffffffffffff16611b9f611277565b73ffffffffffffffffffffffffffffffffffffffff1614611bf5576040517f08c379a0000000000000000000000000000000000000000000000000000000008152600401611bec90613c7b565b60405180910390fd5b565b600081604051602001611c0a9190613d13565b604051602081830303815290604052805190602001209050919050565b6000806000611c368585612665565b91509150611c43816126b6565b819250505092915050565b6000807fda3241d4d2732e32f76e33e29a986bf90890ff6cb9b8506b1059fc1f197a34e68484604051602001611c8693929190613d39565b6040516020818303038152906040528051906020012090507f000000000000000000000000000000000000000000000000000000000000000081604051602001611cd1929190613dbc565b6040516020818303038152906040528051906020012091505092915050565b60008060009054906101000a900473ffffffffffffffffffffffffffffffffffffffff169050816000806101000a81548173ffffffffffffffffffffffffffffffffffffffff021916908373ffffffffffffffffffffffffffffffffffffffff1602179055508173ffffffffffffffffffffffffffffffffffffffff168173ffffffffffffffffffffffffffffffffffffffff167f8be0079c531659141344cd1fd0a4f28419497f9722a3daafe3b4186f6b6457e060405160405180910390a35050565b6000600560008773ffffffffffffffffffffffffffffffffffffffff1673ffffffffffffffffffffffffffffffffffffffff16815260200190815260200160002060008673ffffffffffffffffffffffffffffffffffffffff1673ffffffffffffffffffffffffffffffffffffffff16815260200190815260200160002060000160009054906101000a90046fffffffffffffffffffffffffffffffff166fffffffffffffffffffffffffffffffff1614611ea4576040517f08c379a0000000000000000000000000000000000000000000000000000000008152600401611e9b90613e65565b60405180910390fd5b600660009054906101000a90046fffffffffffffffffffffffffffffffff1682611ece9190613b30565b6fffffffffffffffffffffffffffffffff16836fffffffffffffffffffffffffffffffff1611611f33576040517f08c379a0000000000000000000000000000000000000000000000000000000008152600401611f2a90613ef7565b60405180910390fd5b42816fffffffffffffffffffffffffffffffff1611611f87576040517f08c379a0000000000000000000000000000000000000000000000000000000008152600401611f7e90613f89565b60405180910390fd5b60405180604001604052808385611f9e91906139c6565b6fffffffffffffffffffffffffffffffff168152602001826fffffffffffffffffffffffffffffffff16815250600560008773ffffffffffffffffffffffffffffffffffffffff1673ffffffffffffffffffffffffffffffffffffffff16815260200190815260200160002060008673ffffffffffffffffffffffffffffffffffffffff1673ffffffffffffffffffffffffffffffffffffffff16815260200190815260200160002060008201518160000160006101000a8154816fffffffffffffffffffffffffffffffff02191690836fffffffffffffffffffffffffffffffff16021790555060208201518160000160106101000a8154816fffffffffffffffffffffffffffffffff02191690836fffffffffffffffffffffffffffffffff1602179055509050506000826fffffffffffffffffffffffffffffffff16111561210f57816fffffffffffffffffffffffffffffffff16600760008282546121079190613a0a565b925050819055505b8473ffffffffffffffffffffffffffffffffffffffff167f449f5a808ec951065eda61c83a4d2b29171e72779f4d33530021ead390e54cf185848661215491906139c6565b85856040516121669493929190613fa9565b60405180910390a25050505050565b6000600560008673ffffffffffffffffffffffffffffffffffffffff1673ffffffffffffffffffffffffffffffffffffffff16815260200190815260200160002060008573ffffffffffffffffffffffffffffffffffffffff1673ffffffffffffffffffffffffffffffffffffffff1681526020019081526020016000206040518060400160405290816000820160009054906101000a90046fffffffffffffffffffffffffffffffff166fffffffffffffffffffffffffffffffff166fffffffffffffffffffffffffffffffff1681526020016000820160109054906101000a90046fffffffffffffffffffffffffffffffff166fffffffffffffffffffffffffffffffff166fffffffffffffffffffffffffffffffff16815250509050600081600001519050600660009054906101000a90046fffffffffffffffffffffffffffffffff166fffffffffffffffffffffffffffffffff16816fffffffffffffffffffffffffffffffff1611612321576040517f08c379a000000000000000000000000000000000000000000000000000000000815260040161231890613977565b60405180910390fd5b81602001516fffffffffffffffffffffffffffffffff164210612379576040517f08c379a000000000000000000000000000000000000000000000000000000000815260040161237090614060565b60405180910390fd5b8261247857600660009054906101000a90046fffffffffffffffffffffffffffffffff166fffffffffffffffffffffffffffffffff16816fffffffffffffffffffffffffffffffff1611612402576040517f08c379a00000000000000000000000000000000000000000000000000000000081526004016123f990613977565b60405180910390fd5b600660009054906101000a90046fffffffffffffffffffffffffffffffff168161242c91906139c6565b9050600660009054906101000a90046fffffffffffffffffffffffffffffffff166fffffffffffffffffffffffffffffffff16600760008282546124709190613a0a565b925050819055505b600560008773ffffffffffffffffffffffffffffffffffffffff1673ffffffffffffffffffffffffffffffffffffffff16815260200190815260200160002060008673ffffffffffffffffffffffffffffffffffffffff1673ffffffffffffffffffffffffffffffffffffffff168152602001908152602001600020600080820160006101000a8154906fffffffffffffffffffffffffffffffff02191690556000820160106101000a8154906fffffffffffffffffffffffffffffffff021916905550507f000000000000000000000000000000000000000000000000000000000000000073ffffffffffffffffffffffffffffffffffffffff1663a9059cbb85836fffffffffffffffffffffffffffffffff166040518363ffffffff1660e01b81526004016125aa9291906131bb565b6020604051808303816000875af11580156125c9573d6000803e3d6000fd5b505050506040513d601f19601f820116820180604052508101906125ed91906131f9565b508373ffffffffffffffffffffffffffffffffffffffff168673ffffffffffffffffffffffffffffffffffffffff167fd0e8d444f00ec5aa4324486921804d120fa58016c6917cc2f04a3b8b4a30b44c878460405161264d929190614080565b60405180910390a3505050505050565b600033905090565b60008060418351036126a65760008060006020860151925060408601519150606086015160001a905061269a8782858561281c565b945094505050506126af565b60006002915091505b9250929050565b600060048111156126ca576126c96140a9565b5b8160048111156126dd576126dc6140a9565b5b031561281957600160048111156126f7576126f66140a9565b5b81600481111561270a576127096140a9565b5b0361274a576040517f08c379a000000000000000000000000000000000000000000000000000000000815260040161274190614124565b60405180910390fd5b6002600481111561275e5761275d6140a9565b5b816004811115612771576127706140a9565b5b036127b1576040517f08c379a00000000000000000000000000000000000000000000000000000000081526004016127a890614190565b60405180910390fd5b600360048111156127c5576127c46140a9565b5b8160048111156127d8576127d76140a9565b5b03612818576040517f08c379a000000000000000000000000000000000000000000000000000000000815260040161280f90614222565b60405180910390fd5b5b50565b6000807f7fffffffffffffffffffffffffffffff5d576e7357a4501ddfe92f46681b20a08360001c11156128575760006003915091506128f5565b60006001878787876040516000815260200160405260405161287c949392919061425e565b6020604051602081039080840390855afa15801561289e573d6000803e3d6000fd5b505050602060405103519050600073ffffffffffffffffffffffffffffffffffffffff168173ffffffffffffffffffffffffffffffffffffffff16036128ec576000600192509250506128f5565b80600092509250505b94509492505050565b600080fd5b600080fd5b60006fffffffffffffffffffffffffffffffff82169050919050565b61292d81612908565b811461293857600080fd5b50565b60008135905061294a81612924565b92915050565b60008060408385031215612967576129666128fe565b5b60006129758582860161293b565b92505060206129868582860161293b565b9150509250929050565b600073ffffffffffffffffffffffffffffffffffffffff82169050919050565b60006129bb82612990565b9050919050565b6129cb816129b0565b81146129d657600080fd5b50565b6000813590506129e8816129c2565b92915050565b600080fd5b600080fd5b600080fd5b60008083601f840112612a1357612a126129ee565b5b8235905067ffffffffffffffff811115612a3057612a2f6129f3565b5b602083019150836001820283011115612a4c57612a4b6129f8565b5b9250929050565b600080600060408486031215612a6c57612a6b6128fe565b5b6000612a7a868287016129d9565b935050602084013567ffffffffffffffff811115612a9b57612a9a612903565b5b612aa7868287016129fd565b92509250509250925092565b612abc816129b0565b82525050565b6000602082019050612ad76000830184612ab3565b92915050565b60008060008060608587031215612af757612af66128fe565b5b6000612b05878288016129d9565b9450506020612b16878288016129d9565b935050604085013567ffffffffffffffff811115612b3757612b36612903565b5b612b43878288016129fd565b925092505092959194509250565b600060208284031215612b6757612b666128fe565b5b6000612b75848285016129d9565b91505092915050565b60008115159050919050565b612b9381612b7e565b82525050565b6000602082019050612bae6000830184612b8a565b92915050565b612bbd81612908565b82525050565b6000602082019050612bd86000830184612bb4565b92915050565b6000819050919050565b612bf181612bde565b82525050565b6000602082019050612c0c6000830184612be8565b92915050565b6000819050919050565b612c2581612c12565b82525050565b6000602082019050612c406000830184612c1c565b92915050565b612c4f81612b7e565b8114612c5a57600080fd5b50565b600081359050612c6c81612c46565b92915050565b600080600080600060808688031215612c8e57612c8d6128fe565b5b6000612c9c888289016129d9565b9550506020612cad8882890161293b565b9450506040612cbe88828901612c5d565b935050606086013567ffffffffffffffff811115612cdf57612cde612903565b5b612ceb888289016129fd565b92509250509295509295909350565b600080600060608486031215612d1357612d126128fe565b5b6000612d21868287016129d9565b9350506020612d32868287016129d9565b9250506040612d4386828701612c5d565b9150509250925092565b60008060408385031215612d6457612d636128fe565b5b6000612d72858286016129d9565b9250506020612d83858286016129d9565b9150509250929050565b6000604082019050612da26000830185612bb4565b612daf6020830184612bb4565b9392505050565b600080600080600080600060a0888a031215612dd557612dd46128fe565b5b6000612de38a828b016129d9565b9750506020612df48a828b016129d9565b965050604088013567ffffffffffffffff811115612e1557612e14612903565b5b612e218a828b016129fd565b9550955050606088013567ffffffffffffffff811115612e4457612e43612903565b5b612e508a828b016129fd565b93509350506080612e638a828b01612c5d565b91505092959891949750929550565b600081519050919050565b600082825260208201905092915050565b60005b83811015612eac578082015181840152602081019050612e91565b60008484015250505050565b6000601f19601f8301169050919050565b6000612ed482612e72565b612ede8185612e7d565b9350612eee818560208601612e8e565b612ef781612eb8565b840191505092915050565b60006080820190508181036000830152612f1c8187612ec9565b90508181036020830152612f308186612ec9565b9050612f3f6040830185612be8565b612f4c6060830184612ab3565b95945050505050565b6000606082019050612f6a6000830186612ab3565b612f776020830185612bb4565b612f846040830184612bb4565b949350505050565b600080600080600060808688031215612fa857612fa76128fe565b5b6000612fb6888289016129d9565b9550506020612fc7888289016129d9565b945050604086013567ffffffffffffffff811115612fe857612fe7612903565b5b612ff4888289016129fd565b9350935050606061300788828901612c5d565b9150509295509295909350565b60008060006060848603121561302d5761302c6128fe565b5b600061303b868287016129d9565b935050602061304c8682870161293b565b925050604061305d8682870161293b565b9150509250925092565b600060608201905061307c6000830186612bb4565b6130896020830185612bb4565b6130966040830184612bb4565b949350505050565b600080604083850312156130b5576130b46128fe565b5b60006130c3858286016129d9565b92505060206130d485828601612c5d565b9150509250929050565b6000819050919050565b60006131036130fe6130f984612990565b6130de565b612990565b9050919050565b6000613115826130e8565b9050919050565b60006131278261310a565b9050919050565b6131378161311c565b82525050565b6000602082019050613152600083018461312e565b92915050565b60008160601b9050919050565b600061317082613158565b9050919050565b600061318282613165565b9050919050565b61319a613195826129b0565b613177565b82525050565b60006131ac8284613189565b60148201915081905092915050565b60006040820190506131d06000830185612ab3565b6131dd6020830184612be8565b9392505050565b6000815190506131f381612c46565b92915050565b60006020828403121561320f5761320e6128fe565b5b600061321d848285016131e4565b91505092915050565b7f4c696e6b64726f70457363726f773a206d73672e73656e646572206973206e6f60008201527f742072656c617965722e00000000000000000000000000000000000000000000602082015250565b6000613282602a83612e7d565b915061328d82613226565b604082019050919050565b600060208201905081810360008301526132b181613275565b9050919050565b600080fd5b600080fd5b600080858511156132d6576132d56132b8565b5b838611156132e7576132e66132bd565b5b6001850283019150848603905094509492505050565b600061330882612990565b9050919050565b613318816132fd565b811461332357600080fd5b50565b6000813590506133358161330f565b92915050565b61334481612bde565b811461334f57600080fd5b50565b6000813590506133618161333b565b92915050565b61337081612c12565b811461337b57600080fd5b50565b60008135905061338d81613367565b92915050565b60008060008060008060c087890312156133b0576133af6128fe565b5b60006133be89828a01613326565b96505060206133cf89828a01613326565b95505060406133e089828a01613352565b94505060606133f189828a01613352565b935050608061340289828a01613352565b92505060a061341389828a0161337e565b9150509295509295509295565b7f4c696e6b64726f70457363726f773a2072656365697665417574686f72697a6160008201527f74696f6e5f206465636f6465206661696c2e20526563697069656e742069732060208201527f6e6f74207468697320636f6e74726163742e0000000000000000000000000000604082015250565b60006134a2605283612e7d565b91506134ad82613420565b606082019050919050565b600060208201905081810360008301526134d181613495565b9050919050565b6000819050919050565b6134f36134ee82612bde565b6134d8565b82525050565b60008160801b9050919050565b6000613511826134f9565b9050919050565b61352961352482612908565b613506565b82525050565b600061353b8287613189565b60148201915061354b8286613189565b60148201915061355b82856134e2565b60208201915061356b8284613518565b60108201915081905095945050505050565b7f4c696e6b64726f70457363726f773a2072656365697665417574686f72697a6160008201527f74696f6e5f206465636f6465206661696c2e20496e76616c6964206e6f6e636560208201527f2e00000000000000000000000000000000000000000000000000000000000000604082015250565b60006135ff604183612e7d565b915061360a8261357d565b606082019050919050565b6000602082019050818103600083015261362e816135f2565b9050919050565b60007fffffffff0000000000000000000000000000000000000000000000000000000082169050919050565b6000819050919050565b61367c61367782613635565b613661565b82525050565b600081905092915050565b82818337600083830152505050565b60006136a88385613682565b93506136b583858461368d565b82840190509392505050565b60006136cd828661366b565b6004820191506136de82848661369c565b9150819050949350505050565b600081519050919050565b6000613701826136eb565b61370b8185613682565b935061371b818560208601612e8e565b80840191505092915050565b600061373382846136f6565b915081905092915050565b7f4c696e6b64726f70457363726f773a20617070726f7665206661696c65642e00600082015250565b6000613774601f83612e7d565b915061377f8261373e565b602082019050919050565b600060208201905081810360008301526137a381613767565b9050919050565b60006060820190506137bf6000830186612ab3565b6137cc6020830185612ab3565b6137d96040830184612be8565b949350505050565b7f4c696e6b64726f70457363726f773a20696e76616c6964207472616e7366657260008201527f2049440000000000000000000000000000000000000000000000000000000000602082015250565b600061383d602383612e7d565b9150613848826137e1565b604082019050919050565b6000602082019050818103600083015261386c81613830565b9050919050565b7f4c696e6b64726f70457363726f773a207472616e73666572206e6f742065787060008201527f69726564207965742e0000000000000000000000000000000000000000000000602082015250565b60006138cf602983612e7d565b91506138da82613873565b604082019050919050565b600060208201905081810360008301526138fe816138c2565b9050919050565b7f4c696e6b64726f70457363726f773a20696e76616c69642072656465656d207060008201527f6172616d73000000000000000000000000000000000000000000000000000000602082015250565b6000613961602583612e7d565b915061396c82613905565b604082019050919050565b6000602082019050818103600083015261399081613954565b9050919050565b7f4e487b7100000000000000000000000000000000000000000000000000000000600052601160045260246000fd5b60006139d182612908565b91506139dc83612908565b925082820390506fffffffffffffffffffffffffffffffff811115613a0457613a03613997565b5b92915050565b6000613a1582612bde565b9150613a2083612bde565b9250828201905080821115613a3857613a37613997565b5b92915050565b7f4c696e6b64726f70457363726f773a2063616e2774207769746864726177206660008201527f6565730000000000000000000000000000000000000000000000000000000000602082015250565b6000613a9a602383612e7d565b9150613aa582613a3e565b604082019050919050565b60006020820190508181036000830152613ac981613a8d565b9050919050565b7f4e487b7100000000000000000000000000000000000000000000000000000000600052602260045260246000fd5b60006002820490506001821680613b1757607f821691505b602082108103613b2a57613b29613ad0565b5b50919050565b6000613b3b82612908565b9150613b4683612908565b925082820190506fffffffffffffffffffffffffffffffff811115613b6e57613b6d613997565b5b92915050565b6000604082019050613b896000830185612ab3565b613b966020830184612b8a565b9392505050565b7f4f776e61626c653a206e6577206f776e657220697320746865207a65726f206160008201527f6464726573730000000000000000000000000000000000000000000000000000602082015250565b6000613bf9602683612e7d565b9150613c0482613b9d565b604082019050919050565b60006020820190508181036000830152613c2881613bec565b9050919050565b7f4f776e61626c653a2063616c6c6572206973206e6f7420746865206f776e6572600082015250565b6000613c65602083612e7d565b9150613c7082613c2f565b602082019050919050565b60006020820190508181036000830152613c9481613c58565b9050919050565b600081905092915050565b7f19457468657265756d205369676e6564204d6573736167653a0a333200000000600082015250565b6000613cdc601c83613c9b565b9150613ce782613ca6565b601c82019050919050565b6000819050919050565b613d0d613d0882612c12565b613cf2565b82525050565b6000613d1e82613ccf565b9150613d2a8284613cfc565b60208201915081905092915050565b6000606082019050613d4e6000830186612c1c565b613d5b6020830185612ab3565b613d686040830184612ab3565b949350505050565b7f1901000000000000000000000000000000000000000000000000000000000000600082015250565b6000613da6600283613c9b565b9150613db182613d70565b600282019050919050565b6000613dc782613d99565b9150613dd38285613cfc565b602082019150613de38284613cfc565b6020820191508190509392505050565b7f4c696e6b64726f70457363726f773a207472616e73666572496420697320696e60008201527f207573652e000000000000000000000000000000000000000000000000000000602082015250565b6000613e4f602583612e7d565b9150613e5a82613df3565b604082019050919050565b60006020820190508181036000830152613e7e81613e42565b9050919050565b7f4c696e6b64726f70457363726f773a20616d6f756e74206973206c657373207460008201527f68616e206d696e696d616c20616d6f756e742e00000000000000000000000000602082015250565b6000613ee1603383612e7d565b9150613eec82613e85565b604082019050919050565b60006020820190508181036000830152613f1081613ed4565b9050919050565b7f4c696e6b64726f70457363726f773a206465706f736974696e6720776974682060008201527f696e76616c69642065787069726174696f6e2e00000000000000000000000000602082015250565b6000613f73603383612e7d565b9150613f7e82613f17565b604082019050919050565b60006020820190508181036000830152613fa281613f66565b9050919050565b6000608082019050613fbe6000830187612ab3565b613fcb6020830186612bb4565b613fd86040830185612bb4565b613fe56060830184612bb4565b95945050505050565b7f4c696e6b64726f70457363726f773a207472616e73666572206578706972656460008201527f2e00000000000000000000000000000000000000000000000000000000000000602082015250565b600061404a602183612e7d565b915061405582613fee565b604082019050919050565b600060208201905081810360008301526140798161403d565b9050919050565b60006040820190506140956000830185612ab3565b6140a26020830184612bb4565b9392505050565b7f4e487b7100000000000000000000000000000000000000000000000000000000600052602160045260246000fd5b7f45434453413a20696e76616c6964207369676e61747572650000000000000000600082015250565b600061410e601883612e7d565b9150614119826140d8565b602082019050919050565b6000602082019050818103600083015261413d81614101565b9050919050565b7f45434453413a20696e76616c6964207369676e6174757265206c656e67746800600082015250565b600061417a601f83612e7d565b915061418582614144565b602082019050919050565b600060208201905081810360008301526141a98161416d565b9050919050565b7f45434453413a20696e76616c6964207369676e6174757265202773272076616c60008201527f7565000000000000000000000000000000000000000000000000000000000000602082015250565b600061420c602283612e7d565b9150614217826141b0565b604082019050919050565b6000602082019050818103600083015261423b816141ff565b9050919050565b600060ff82169050919050565b61425881614242565b82525050565b60006080820190506142736000830187612c1c565b614280602083018661424f565b61428d6040830185612c1c565b61429a6060830184612c1c565b9594505050505056fea26469706673582212205bf1967461a53f7b4ecfa4eba1b2222c910e51d2b35c0d2be7d8e5f252b8ce9264736f6c63430008110033",
  "linkReferences": {},
  "deployedLinkReferences": {}
}