{
  "_format": "hh-sol-artifact-1",
  "contractName": "LinkdropEscrowNFT",
  "sourceName": "contracts/LinkdropEscrowNFT.sol",
  "abi": [
    {
      "inputs": [
        {
          "internalType": "address",
          "name": "relayer_",
          "type": "address"
        }
      ],
      "stateMutability": "nonpayable",
      "type": "constructor"
    },
    {
      "anonymous": false,
      "inputs": [
        {
          "indexed": true,
          "internalType": "address",
          "name": "sender",
          "type": "address"
        },
        {
          "indexed": true,
          "internalType": "address",
          "name": "token",
          "type": "address"
        },
        {
          "indexed": false,
          "internalType": "address",
          "name": "transferId",
          "type": "address"
        },
        {
          "indexed": false,
          "internalType": "uint8",
          "name": "tokenType",
          "type": "uint8"
        },
        {
          "indexed": false,
          "internalType": "uint256",
          "name": "tokenId",
          "type": "uint256"
        },
        {
          "indexed": false,
          "internalType": "uint128",
          "name": "amount",
          "type": "uint128"
        }
      ],
      "name": "Cancel",
      "type": "event"
    },
    {
      "anonymous": false,
      "inputs": [
        {
          "indexed": true,
          "internalType": "address",
          "name": "sender",
          "type": "address"
        },
        {
          "indexed": true,
          "internalType": "address",
          "name": "token",
          "type": "address"
        },
        {
          "indexed": false,
          "internalType": "address",
          "name": "transferId",
          "type": "address"
        },
        {
          "indexed": false,
          "internalType": "uint120",
          "name": "expiration",
          "type": "uint120"
        },
        {
          "indexed": false,
          "internalType": "uint8",
          "name": "tokenType",
          "type": "uint8"
        },
        {
          "indexed": false,
          "internalType": "uint256",
          "name": "tokenId",
          "type": "uint256"
        },
        {
          "indexed": false,
          "internalType": "uint128",
          "name": "amount",
          "type": "uint128"
        },
        {
          "indexed": false,
          "internalType": "address",
          "name": "feeToken",
          "type": "address"
        },
        {
          "indexed": false,
          "internalType": "uint128",
          "name": "fee",
          "type": "uint128"
        }
      ],
      "name": "Deposit",
      "type": "event"
    },
    {
      "anonymous": false,
      "inputs": [
        {
          "indexed": true,
          "internalType": "address",
          "name": "previousOwner",
          "type": "address"
        },
        {
          "indexed": true,
          "internalType": "address",
          "name": "newOwner",
          "type": "address"
        }
      ],
      "name": "OwnershipTransferred",
      "type": "event"
    },
    {
      "anonymous": false,
      "inputs": [
        {
          "indexed": true,
          "internalType": "address",
          "name": "sender",
          "type": "address"
        },
        {
          "indexed": true,
          "internalType": "address",
          "name": "token",
          "type": "address"
        },
        {
          "indexed": true,
          "internalType": "address",
          "name": "receiver",
          "type": "address"
        },
        {
          "indexed": false,
          "internalType": "address",
          "name": "transferId",
          "type": "address"
        },
        {
          "indexed": false,
          "internalType": "uint8",
          "name": "tokenType",
          "type": "uint8"
        },
        {
          "indexed": false,
          "internalType": "uint256",
          "name": "tokenId",
          "type": "uint256"
        },
        {
          "indexed": false,
          "internalType": "uint128",
          "name": "amount",
          "type": "uint128"
        }
      ],
      "name": "Redeem",
      "type": "event"
    },
    {
      "anonymous": false,
      "inputs": [
        {
          "indexed": true,
          "internalType": "address",
          "name": "sender",
          "type": "address"
        },
        {
          "indexed": true,
          "internalType": "address",
          "name": "token",
          "type": "address"
        },
        {
          "indexed": false,
          "internalType": "address",
          "name": "transferId",
          "type": "address"
        },
        {
          "indexed": false,
          "internalType": "uint8",
          "name": "tokenType",
          "type": "uint8"
        },
        {
          "indexed": false,
          "internalType": "uint256",
          "name": "tokenId",
          "type": "uint256"
        },
        {
          "indexed": false,
          "internalType": "uint128",
          "name": "amount",
          "type": "uint128"
        }
      ],
      "name": "Refund",
      "type": "event"
    },
    {
      "anonymous": false,
      "inputs": [
        {
          "indexed": false,
          "internalType": "uint128",
          "name": "claimFee",
          "type": "uint128"
        },
        {
          "indexed": false,
          "internalType": "uint128",
          "name": "depositFee",
          "type": "uint128"
        }
      ],
      "name": "UpdateFees",
      "type": "event"
    },
    {
      "anonymous": false,
      "inputs": [
        {
          "indexed": false,
          "internalType": "address",
          "name": "relayer",
          "type": "address"
        },
        {
          "indexed": false,
          "internalType": "bool",
          "name": "active",
          "type": "bool"
        }
      ],
      "name": "UpdateRelayer",
      "type": "event"
    },
    {
      "anonymous": false,
      "inputs": [
        {
          "indexed": false,
          "internalType": "address",
          "name": "feeReceiver",
          "type": "address"
        },
        {
          "indexed": false,
          "internalType": "address",
          "name": "token_",
          "type": "address"
        },
        {
          "indexed": false,
          "internalType": "uint256",
          "name": "amount",
          "type": "uint256"
        }
      ],
      "name": "WithdrawFees",
      "type": "event"
    },
    {
      "inputs": [],
      "name": "EIP712_DOMAIN_TYPEHASH",
      "outputs": [
        {
          "internalType": "bytes32",
          "name": "",
          "type": "bytes32"
        }
      ],
      "stateMutability": "view",
      "type": "function"
    },
    {
      "inputs": [],
      "name": "_DOMAIN_SEPARATOR",
      "outputs": [
        {
          "internalType": "bytes32",
          "name": "",
          "type": "bytes32"
        }
      ],
      "stateMutability": "view",
      "type": "function"
    },
    {
      "inputs": [],
      "name": "_TRANSFER_TYPE_HASH",
      "outputs": [
        {
          "internalType": "bytes32",
          "name": "",
          "type": "bytes32"
        }
      ],
      "stateMutability": "view",
      "type": "function"
    },
    {
      "inputs": [
        {
          "internalType": "address",
          "name": "",
          "type": "address"
        }
      ],
      "name": "accruedFees",
      "outputs": [
        {
          "internalType": "uint256",
          "name": "",
          "type": "uint256"
        }
      ],
      "stateMutability": "view",
      "type": "function"
    },
    {
      "inputs": [
        {
          "internalType": "address",
          "name": "token_",
          "type": "address"
        },
        {
          "internalType": "address",
          "name": "transferId_",
          "type": "address"
        }
      ],
      "name": "cancel",
      "outputs": [],
      "stateMutability": "nonpayable",
      "type": "function"
    },
    {
      "inputs": [
        {
          "internalType": "bytes",
          "name": "data_",
          "type": "bytes"
        }
      ],
      "name": "decodeOnERC721ReceivedData",
      "outputs": [
        {
          "internalType": "address",
          "name": "transferId",
          "type": "address"
        },
        {
          "internalType": "uint120",
          "name": "expiration",
          "type": "uint120"
        },
        {
          "internalType": "uint128",
          "name": "feeAmount",
          "type": "uint128"
        },
        {
          "internalType": "bytes",
          "name": "feeAuthorization",
          "type": "bytes"
        }
      ],
      "stateMutability": "pure",
      "type": "function"
    },
    {
      "inputs": [
        {
          "internalType": "address",
          "name": "token_",
          "type": "address"
        },
        {
          "internalType": "address",
          "name": "transferId_",
          "type": "address"
        },
        {
          "internalType": "uint256",
          "name": "tokenId_",
          "type": "uint256"
        },
        {
          "internalType": "uint128",
          "name": "amount_",
          "type": "uint128"
        },
        {
          "internalType": "uint120",
          "name": "expiration_",
          "type": "uint120"
        },
        {
          "internalType": "uint128",
          "name": "feeAmount_",
          "type": "uint128"
        },
        {
          "internalType": "bytes",
          "name": "feeAuthorization_",
          "type": "bytes"
        }
      ],
      "name": "depositERC1155",
      "outputs": [],
      "stateMutability": "payable",
      "type": "function"
    },
    {
      "inputs": [
        {
          "internalType": "address",
          "name": "token_",
          "type": "address"
        },
        {
          "internalType": "address",
          "name": "transferId_",
          "type": "address"
        },
        {
          "internalType": "uint256",
          "name": "tokenId_",
          "type": "uint256"
        },
        {
          "internalType": "uint120",
          "name": "expiration_",
          "type": "uint120"
        },
        {
          "internalType": "uint128",
          "name": "feeAmount_",
          "type": "uint128"
        },
        {
          "internalType": "bytes",
          "name": "feeAuthorization_",
          "type": "bytes"
        }
      ],
      "name": "depositERC721",
      "outputs": [],
      "stateMutability": "payable",
      "type": "function"
    },
    {
      "inputs": [
        {
          "internalType": "address",
          "name": "",
          "type": "address"
        },
        {
          "internalType": "address",
          "name": "",
          "type": "address"
        },
        {
          "internalType": "address",
          "name": "",
          "type": "address"
        }
      ],
      "name": "deposits",
      "outputs": [
        {
          "internalType": "uint256",
          "name": "tokenId",
          "type": "uint256"
        },
        {
          "internalType": "uint128",
          "name": "amount",
          "type": "uint128"
        },
        {
          "internalType": "uint120",
          "name": "expiration",
          "type": "uint120"
        },
        {
          "internalType": "uint8",
          "name": "tokenType",
          "type": "uint8"
        }
      ],
      "stateMutability": "view",
      "type": "function"
    },
    {
      "inputs": [],
      "name": "domain",
      "outputs": [
        {
          "internalType": "string",
          "name": "name",
          "type": "string"
        },
        {
          "internalType": "string",
          "name": "version",
          "type": "string"
        },
        {
          "internalType": "uint256",
          "name": "chainId",
          "type": "uint256"
        },
        {
          "internalType": "address",
          "name": "verifyingContract",
          "type": "address"
        }
      ],
      "stateMutability": "view",
      "type": "function"
    },
    {
      "inputs": [
        {
          "internalType": "address",
          "name": "token_",
          "type": "address"
        },
        {
          "internalType": "address",
          "name": "sender_",
          "type": "address"
        },
        {
          "internalType": "address",
          "name": "transferId_",
          "type": "address"
        }
      ],
      "name": "getDeposit",
      "outputs": [
        {
          "internalType": "address",
          "name": "token",
          "type": "address"
        },
        {
          "internalType": "uint8",
          "name": "tokenType",
          "type": "uint8"
        },
        {
          "internalType": "uint256",
          "name": "tokenId",
          "type": "uint256"
        },
        {
          "internalType": "uint128",
          "name": "amount",
          "type": "uint128"
        },
        {
          "internalType": "uint120",
          "name": "expiration",
          "type": "uint120"
        }
      ],
      "stateMutability": "view",
      "type": "function"
    },
    {
      "inputs": [
        {
          "internalType": "address",
          "name": "operator_",
          "type": "address"
        },
        {
          "internalType": "address",
          "name": "from_",
          "type": "address"
        },
        {
          "internalType": "uint256",
          "name": "tokenId_",
          "type": "uint256"
        },
        {
          "internalType": "uint256",
          "name": "amount_",
          "type": "uint256"
        },
        {
          "internalType": "bytes",
          "name": "data_",
          "type": "bytes"
        }
      ],
      "name": "onERC1155Received",
      "outputs": [
        {
          "internalType": "bytes4",
          "name": "",
          "type": "bytes4"
        }
      ],
      "stateMutability": "nonpayable",
      "type": "function"
    },
    {
      "inputs": [
        {
          "internalType": "address",
          "name": "operator_",
          "type": "address"
        },
        {
          "internalType": "address",
          "name": "from_",
          "type": "address"
        },
        {
          "internalType": "uint256",
          "name": "tokenId_",
          "type": "uint256"
        },
        {
          "internalType": "bytes",
          "name": "data_",
          "type": "bytes"
        }
      ],
      "name": "onERC721Received",
      "outputs": [
        {
          "internalType": "bytes4",
          "name": "",
          "type": "bytes4"
        }
      ],
      "stateMutability": "nonpayable",
      "type": "function"
    },
    {
      "inputs": [],
      "name": "owner",
      "outputs": [
        {
          "internalType": "address",
          "name": "",
          "type": "address"
        }
      ],
      "stateMutability": "view",
      "type": "function"
    },
    {
      "inputs": [
        {
          "internalType": "address",
          "name": "receiver_",
          "type": "address"
        },
        {
          "internalType": "bytes",
          "name": "receiverSig_",
          "type": "bytes"
        }
      ],
      "name": "recoverLinkKeyId",
      "outputs": [
        {
          "internalType": "address",
          "name": "linkKeyId",
          "type": "address"
        }
      ],
      "stateMutability": "pure",
      "type": "function"
    },
    {
      "inputs": [
        {
          "internalType": "address",
          "name": "linkKeyId_",
          "type": "address"
        },
        {
          "internalType": "address",
          "name": "transferId_",
          "type": "address"
        },
        {
          "internalType": "bytes",
          "name": "senderSig_",
          "type": "bytes"
        }
      ],
      "name": "recoverSender",
      "outputs": [
        {
          "internalType": "address",
          "name": "sender",
          "type": "address"
        }
      ],
      "stateMutability": "view",
      "type": "function"
    },
    {
      "inputs": [
        {
          "internalType": "address",
          "name": "receiver_",
          "type": "address"
        },
        {
          "internalType": "address",
          "name": "sender_",
          "type": "address"
        },
        {
          "internalType": "address",
          "name": "token_",
          "type": "address"
        },
        {
          "internalType": "bytes",
          "name": "receiverSig_",
          "type": "bytes"
        }
      ],
      "name": "redeem",
      "outputs": [],
      "stateMutability": "nonpayable",
      "type": "function"
    },
    {
      "inputs": [
        {
          "internalType": "address",
          "name": "receiver_",
          "type": "address"
        },
        {
          "internalType": "address",
          "name": "token_",
          "type": "address"
        },
        {
          "internalType": "address",
          "name": "transferId_",
          "type": "address"
        },
        {
          "internalType": "bytes",
          "name": "receiverSig_",
          "type": "bytes"
        },
        {
          "internalType": "bytes",
          "name": "senderSig_",
          "type": "bytes"
        }
      ],
      "name": "redeemRecovered",
      "outputs": [],
      "stateMutability": "nonpayable",
      "type": "function"
    },
    {
      "inputs": [
        {
          "internalType": "address",
          "name": "sender_",
          "type": "address"
        },
        {
          "internalType": "address",
          "name": "token_",
          "type": "address"
        },
        {
          "internalType": "address",
          "name": "transferId_",
          "type": "address"
        }
      ],
      "name": "refund",
      "outputs": [],
      "stateMutability": "nonpayable",
      "type": "function"
    },
    {
      "inputs": [
        {
          "internalType": "address",
          "name": "",
          "type": "address"
        }
      ],
      "name": "relayers",
      "outputs": [
        {
          "internalType": "bool",
          "name": "",
          "type": "bool"
        }
      ],
      "stateMutability": "view",
      "type": "function"
    },
    {
      "inputs": [],
      "name": "renounceOwnership",
      "outputs": [],
      "stateMutability": "nonpayable",
      "type": "function"
    },
    {
      "inputs": [
        {
          "internalType": "address",
          "name": "relayer_",
          "type": "address"
        },
        {
          "internalType": "bool",
          "name": "active_",
          "type": "bool"
        }
      ],
      "name": "setRelayer",
      "outputs": [],
      "stateMutability": "nonpayable",
      "type": "function"
    },
    {
      "inputs": [
        {
          "internalType": "address",
          "name": "newOwner",
          "type": "address"
        }
      ],
      "name": "transferOwnership",
      "outputs": [],
      "stateMutability": "nonpayable",
      "type": "function"
    },
    {
      "inputs": [
        {
          "internalType": "address",
          "name": "sender_",
          "type": "address"
        },
        {
          "internalType": "address",
          "name": "token_",
          "type": "address"
        },
        {
          "internalType": "address",
          "name": "transferId_",
          "type": "address"
        },
        {
          "internalType": "uint256",
          "name": "tokenId_",
          "type": "uint256"
        },
        {
          "internalType": "uint128",
          "name": "amount_",
          "type": "uint128"
        },
        {
          "internalType": "uint120",
          "name": "expiration_",
          "type": "uint120"
        },
        {
          "internalType": "address",
          "name": "feeToken_",
          "type": "address"
        },
        {
          "internalType": "uint128",
          "name": "feeAmount_",
          "type": "uint128"
        },
        {
          "internalType": "bytes",
          "name": "feeAuthorization_",
          "type": "bytes"
        }
      ],
      "name": "verifyFeeAuthorization",
      "outputs": [
        {
          "internalType": "bool",
          "name": "isValid",
          "type": "bool"
        }
      ],
      "stateMutability": "view",
      "type": "function"
    },
    {
      "inputs": [
        {
          "internalType": "address",
          "name": "token_",
          "type": "address"
        }
      ],
      "name": "withdrawAccruedFees",
      "outputs": [],
      "stateMutability": "nonpayable",
      "type": "function"
    }
  ],
  "bytecode": "0x60a06040523480156200001157600080fd5b5060405162005c9638038062005c96833981810160405281019062000037919062000419565b600046905060405180608001604052806040518060400160405280600e81526020017f4c696e6b64726f70457363726f7700000000000000000000000000000000000081525081526020016040518060400160405280600181526020017f330000000000000000000000000000000000000000000000000000000000000081525081526020018281526020013073ffffffffffffffffffffffffffffffffffffffff16815250600080820151816000019081620000f59190620006c5565b5060208201518160010190816200010d9190620006c5565b506040820151816002015560608201518160030160006101000a81548173ffffffffffffffffffffffffffffffffffffffff021916908373ffffffffffffffffffffffffffffffffffffffff1602179055509050507f8b73c3c69bb8fe3d512ecc4cf759cc79239f7b179b0ffacaa9a75d522b39400f600080016040516200019691906200085b565b60405180910390206000600101604051620001b291906200085b565b604051809103902060006002015430604051602001620001d7959493929190620008b1565b60405160208183030381529060405280519060200120608081815250507fda3241d4d2732e32f76e33e29a986bf90890ff6cb9b8506b1059fc1f197a34e6801462000259576040517f08c379a000000000000000000000000000000000000000000000000000000000815260040162000250906200096f565b60405180910390fd5b506200027a6200026e620002e160201b60201c565b620002e960201b60201c565b60016005819055506001600860008373ffffffffffffffffffffffffffffffffffffffff1673ffffffffffffffffffffffffffffffffffffffff16815260200190815260200160002060006101000a81548160ff0219169083151502179055505062000991565b600033905090565b6000600460009054906101000a900473ffffffffffffffffffffffffffffffffffffffff16905081600460006101000a81548173ffffffffffffffffffffffffffffffffffffffff021916908373ffffffffffffffffffffffffffffffffffffffff1602179055508173ffffffffffffffffffffffffffffffffffffffff168173ffffffffffffffffffffffffffffffffffffffff167f8be0079c531659141344cd1fd0a4f28419497f9722a3daafe3b4186f6b6457e060405160405180910390a35050565b600080fd5b600073ffffffffffffffffffffffffffffffffffffffff82169050919050565b6000620003e182620003b4565b9050919050565b620003f381620003d4565b8114620003ff57600080fd5b50565b6000815190506200041381620003e8565b92915050565b600060208284031215620004325762000431620003af565b5b6000620004428482850162000402565b91505092915050565b600081519050919050565b7f4e487b7100000000000000000000000000000000000000000000000000000000600052604160045260246000fd5b7f4e487b7100000000000000000000000000000000000000000000000000000000600052602260045260246000fd5b60006002820490506001821680620004cd57607f821691505b602082108103620004e357620004e262000485565b5b50919050565b60008190508160005260206000209050919050565b60006020601f8301049050919050565b600082821b905092915050565b6000600883026200054d7fffffffffffffffffffffffffffffffffffffffffffffffffffffffffffffffff826200050e565b6200055986836200050e565b95508019841693508086168417925050509392505050565b6000819050919050565b6000819050919050565b6000620005a6620005a06200059a8462000571565b6200057b565b62000571565b9050919050565b6000819050919050565b620005c28362000585565b620005da620005d182620005ad565b8484546200051b565b825550505050565b600090565b620005f1620005e2565b620005fe818484620005b7565b505050565b5b8181101562000626576200061a600082620005e7565b60018101905062000604565b5050565b601f82111562000675576200063f81620004e9565b6200064a84620004fe565b810160208510156200065a578190505b620006726200066985620004fe565b83018262000603565b50505b505050565b600082821c905092915050565b60006200069a600019846008026200067a565b1980831691505092915050565b6000620006b5838362000687565b9150826002028217905092915050565b620006d0826200044b565b67ffffffffffffffff811115620006ec57620006eb62000456565b5b620006f88254620004b4565b620007058282856200062a565b600060209050601f8311600181146200073d576000841562000728578287015190505b620007348582620006a7565b865550620007a4565b601f1984166200074d86620004e9565b60005b82811015620007775784890151825560018201915060208501945060208101905062000750565b8683101562000797578489015162000793601f89168262000687565b8355505b6001600288020188555050505b505050505050565b600081905092915050565b60008190508160005260206000209050919050565b60008154620007db81620004b4565b620007e78186620007ac565b945060018216600081146200080557600181146200081b5762000852565b60ff198316865281151582028601935062000852565b6200082685620007b7565b60005b838110156200084a5781548189015260018201915060208101905062000829565b838801955050505b50505092915050565b6000620008698284620007cc565b915081905092915050565b6000819050919050565b620008898162000874565b82525050565b6200089a8162000571565b82525050565b620008ab81620003d4565b82525050565b600060a082019050620008c860008301886200087e565b620008d760208301876200087e565b620008e660408301866200087e565b620008f560608301856200088f565b620009046080830184620008a0565b9695505050505050565b600082825260208201905092915050565b7f4549503731323a20696e76616c69642074797065206861736800000000000000600082015250565b6000620009576019836200090e565b915062000964826200091f565b602082019050919050565b600060208201905081810360008301526200098a8162000948565b9050919050565b6080516152e2620009b4600039600081816117df015261236401526152e26000f3fe6080604052600436106101665760003560e01c806386fc05ba116100d1578063d6e69a001161008a578063ee2578ab11610064578063ee2578ab14610551578063f08204ad14610591578063f23a6e61146105ba578063f2fde38b146105f757610166565b8063d6e69a00146104c0578063dc0c81b5146104fd578063ecd8dc3a1461052857610166565b806386fc05ba146103915780638da5cb5b146103d25780639b1d847b146103fd578063c2fb26a61461043e578063c7977be71461046c578063ce0ea5971461049757610166565b80635300f841116101235780635300f841146102a457806357815a68146102e1578063613ae82a1461030a578063715018a61461032657806371d683721461033d578063824c1db51461036857610166565b8063073112831461016b578063150b7a02146101a85780633d6e85e6146101e55780633e05dc4c146102225780633e0dd0d91461024b57806343f070ae14610288575b600080fd5b34801561017757600080fd5b50610192600480360381019061018d91906132fb565b610620565b60405161019f9190613341565b60405180910390f35b3480156101b457600080fd5b506101cf60048036038101906101ca91906133ed565b610638565b6040516101dc91906134b0565b60405180910390f35b3480156101f157600080fd5b5061020c600480360381019061020791906134cb565b61070e565b604051610219919061353a565b60405180910390f35b34801561022e57600080fd5b5061024960048036038101906102449190613555565b61079a565b005b34801561025757600080fd5b50610272600480360381019061026d91906135dd565b610849565b60405161027f919061353a565b60405180910390f35b6102a2600480360381019061029d91906136e0565b6108b1565b005b3480156102b057600080fd5b506102cb60048036038101906102c691906132fb565b610949565b6040516102d891906137aa565b60405180910390f35b3480156102ed57600080fd5b50610308600480360381019061030391906137c5565b610969565b005b610324600480360381019061031f9190613818565b610d95565b005b34801561033257600080fd5b5061033b610e92565b005b34801561034957600080fd5b50610352610ea6565b60405161035f91906138f3565b60405180910390f35b34801561037457600080fd5b5061038f600480360381019061038a919061390e565b610eca565b005b34801561039d57600080fd5b506103b860048036038101906103b391906137c5565b611279565b6040516103c9959493929190613988565b60405180910390f35b3480156103de57600080fd5b506103e761142b565b6040516103f4919061353a565b60405180910390f35b34801561040957600080fd5b50610424600480360381019061041f91906139db565b611455565b604051610435959493929190613a86565b60405180910390f35b34801561044a57600080fd5b506104536114b6565b6040516104639493929190613b53565b60405180910390f35b34801561047857600080fd5b50610481611604565b60405161048e91906138f3565b60405180910390f35b3480156104a357600080fd5b506104be60048036038101906104b99190613ba6565b611628565b005b3480156104cc57600080fd5b506104e760048036038101906104e29190613c62565b6116ea565b6040516104f491906137aa565b60405180910390f35b34801561050957600080fd5b506105126117dd565b60405161051f91906138f3565b60405180910390f35b34801561053457600080fd5b5061054f600480360381019061054a9190613d79565b611801565b005b34801561055d57600080fd5b50610578600480360381019061057391906137c5565b61189d565b6040516105889493929190613db9565b60405180910390f35b34801561059d57600080fd5b506105b860048036038101906105b391906132fb565b61192b565b005b3480156105c657600080fd5b506105e160048036038101906105dc9190613dfe565b611a44565b6040516105ee91906134b0565b60405180910390f35b34801561060357600080fd5b5061061e600480360381019061061991906132fb565b611b6f565b005b60076020528060005260406000206000915090505481565b60008573ffffffffffffffffffffffffffffffffffffffff163073ffffffffffffffffffffffffffffffffffffffff160361067c5763150b7a0260e01b9050610705565b600060749050808484905010156106c8576040517f08c379a00000000000000000000000000000000000000000000000000000000081526004016106bf90613ee4565b60405180910390fd5b60008060003660006106da8989611455565b945094509450945094506106f48b33878d88888888611bf2565b63150b7a0260e01b96505050505050505b95945050505050565b600080610740856040516020016107259190613f4c565b60405160208183030381529060405280519060200120611eac565b90506107908185858080601f016020809104026020016040519081016040528093929190818152602001838380828437600081840152601f19601f82011690508083019250505050505050611edc565b9150509392505050565b600860003373ffffffffffffffffffffffffffffffffffffffff1673ffffffffffffffffffffffffffffffffffffffff16815260200190815260200160002060009054906101000a900460ff16610826576040517f08c379a000000000000000000000000000000000000000000000000000000000815260040161081d90613fd9565b60405180910390fd5b600061083386848461070e565b905061084185858389611f03565b505050505050565b6000806108568686612312565b90506108a68185858080601f016020809104026020016040519081016040528093929190818152602001838380828437600081840152601f19601f82011690508083019250505050505050611edc565b915050949350505050565b6108b96123b4565b6108c93388888888888888611bf2565b8673ffffffffffffffffffffffffffffffffffffffff166342842e0e3330886040518463ffffffff1660e01b815260040161090693929190613ff9565b600060405180830381600087803b15801561092057600080fd5b505af1158015610934573d6000803e3d6000fd5b50505050610940612403565b50505050505050565b60086020528060005260406000206000915054906101000a900460ff1681565b600860003373ffffffffffffffffffffffffffffffffffffffff1673ffffffffffffffffffffffffffffffffffffffff16815260200190815260200160002060009054906101000a900460ff166109f5576040517f08c379a00000000000000000000000000000000000000000000000000000000081526004016109ec90613fd9565b60405180910390fd5b6000600660008573ffffffffffffffffffffffffffffffffffffffff1673ffffffffffffffffffffffffffffffffffffffff16815260200190815260200160002060008473ffffffffffffffffffffffffffffffffffffffff1673ffffffffffffffffffffffffffffffffffffffff16815260200190815260200160002060008373ffffffffffffffffffffffffffffffffffffffff1673ffffffffffffffffffffffffffffffffffffffff168152602001908152602001600020604051806080016040529081600082015481526020016001820160009054906101000a90046fffffffffffffffffffffffffffffffff166fffffffffffffffffffffffffffffffff166fffffffffffffffffffffffffffffffff1681526020016001820160109054906101000a90046effffffffffffffffffffffffffffff166effffffffffffffffffffffffffffff166effffffffffffffffffffffffffffff16815260200160018201601f9054906101000a900460ff1660ff1660ff168152505090506000816020015190506000826060015190506000836000015190506000836fffffffffffffffffffffffffffffffff1611610be5576040517f08c379a0000000000000000000000000000000000000000000000000000000008152600401610bdc906140a2565b60405180910390fd5b600660008873ffffffffffffffffffffffffffffffffffffffff1673ffffffffffffffffffffffffffffffffffffffff16815260200190815260200160002060008773ffffffffffffffffffffffffffffffffffffffff1673ffffffffffffffffffffffffffffffffffffffff16815260200190815260200160002060008673ffffffffffffffffffffffffffffffffffffffff1673ffffffffffffffffffffffffffffffffffffffff1681526020019081526020016000206000808201600090556001820160006101000a8154906fffffffffffffffffffffffffffffffff02191690556001820160106101000a8154906effffffffffffffffffffffffffffff021916905560018201601f6101000a81549060ff02191690555050610d2186888484876fffffffffffffffffffffffffffffffff1661240d565b8573ffffffffffffffffffffffffffffffffffffffff168773ffffffffffffffffffffffffffffffffffffffff167f5938a86ca33c66cb817f2fdc8d5cd4073bfe03e3f6c846c3c91e7d3f6beaae9f87858588604051610d8494939291906140c2565b60405180910390a350505050505050565b610d9d6123b4565b610dae3389898989898989896126bd565b8773ffffffffffffffffffffffffffffffffffffffff1663f242432a333089896fffffffffffffffffffffffffffffffff16600067ffffffffffffffff811115610dfb57610dfa614107565b5b6040519080825280601f01601f191660200182016040528015610e2d5781602001600182028036833780820191505090505b506040518663ffffffff1660e01b8152600401610e4e95949392919061417a565b600060405180830381600087803b158015610e6857600080fd5b505af1158015610e7c573d6000803e3d6000fd5b50505050610e88612403565b5050505050505050565b610e9a6129cb565b610ea46000612a49565b565b7fda3241d4d2732e32f76e33e29a986bf90890ff6cb9b8506b1059fc1f197a34e681565b610ed26123b4565b6000600660003373ffffffffffffffffffffffffffffffffffffffff1673ffffffffffffffffffffffffffffffffffffffff16815260200190815260200160002060008473ffffffffffffffffffffffffffffffffffffffff1673ffffffffffffffffffffffffffffffffffffffff16815260200190815260200160002060008373ffffffffffffffffffffffffffffffffffffffff1673ffffffffffffffffffffffffffffffffffffffff168152602001908152602001600020604051806080016040529081600082015481526020016001820160009054906101000a90046fffffffffffffffffffffffffffffffff166fffffffffffffffffffffffffffffffff166fffffffffffffffffffffffffffffffff1681526020016001820160109054906101000a90046effffffffffffffffffffffffffffff166effffffffffffffffffffffffffffff166effffffffffffffffffffffffffffff16815260200160018201601f9054906101000a900460ff1660ff1660ff168152505090506000816020015190506000826060015190506000836000015190506000836fffffffffffffffffffffffffffffffff16116110c2576040517f08c379a00000000000000000000000000000000000000000000000000000000081526004016110b990614246565b60405180910390fd5b600660003373ffffffffffffffffffffffffffffffffffffffff1673ffffffffffffffffffffffffffffffffffffffff16815260200190815260200160002060008773ffffffffffffffffffffffffffffffffffffffff1673ffffffffffffffffffffffffffffffffffffffff16815260200190815260200160002060008673ffffffffffffffffffffffffffffffffffffffff1673ffffffffffffffffffffffffffffffffffffffff1681526020019081526020016000206000808201600090556001820160006101000a8154906fffffffffffffffffffffffffffffffff02191690556001820160106101000a8154906effffffffffffffffffffffffffffff021916905560018201601f6101000a81549060ff021916905550506111fe86338484876fffffffffffffffffffffffffffffffff1661240d565b8573ffffffffffffffffffffffffffffffffffffffff163373ffffffffffffffffffffffffffffffffffffffff167fab3691e99d7a7c44b5bbf42b6113806f3fa641468fdf21dd778892ea680d04868785858860405161126194939291906140c2565b60405180910390a350505050611275612403565b5050565b600080600080600080600660008973ffffffffffffffffffffffffffffffffffffffff1673ffffffffffffffffffffffffffffffffffffffff16815260200190815260200160002060008a73ffffffffffffffffffffffffffffffffffffffff1673ffffffffffffffffffffffffffffffffffffffff16815260200190815260200160002060008873ffffffffffffffffffffffffffffffffffffffff1673ffffffffffffffffffffffffffffffffffffffff168152602001908152602001600020604051806080016040529081600082015481526020016001820160009054906101000a90046fffffffffffffffffffffffffffffffff166fffffffffffffffffffffffffffffffff166fffffffffffffffffffffffffffffffff1681526020016001820160109054906101000a90046effffffffffffffffffffffffffffff166effffffffffffffffffffffffffffff166effffffffffffffffffffffffffffff16815260200160018201601f9054906101000a900460ff1660ff1660ff168152505090508881606001518260000151836020015184604001519550955095509550955050939792965093509350565b6000600460009054906101000a900473ffffffffffffffffffffffffffffffffffffffff16905090565b6000806000366000868681019061146c91906142a4565b809550819650829750505050868660608989905061148a9190614326565b90601f8a8a905061149b9190614326565b926114a893929190614364565b915091509295509295909350565b60008060000180546114c7906143ce565b80601f01602080910402602001604051908101604052809291908181526020018280546114f3906143ce565b80156115405780601f1061151557610100808354040283529160200191611540565b820191906000526020600020905b81548152906001019060200180831161152357829003601f168201915b505050505090806001018054611555906143ce565b80601f0160208091040260200160405190810160405280929190818152602001828054611581906143ce565b80156115ce5780601f106115a3576101008083540402835291602001916115ce565b820191906000526020600020905b8154815290600101906020018083116115b157829003601f168201915b5050505050908060020154908060030160009054906101000a900473ffffffffffffffffffffffffffffffffffffffff16905084565b7f8b73c3c69bb8fe3d512ecc4cf759cc79239f7b179b0ffacaa9a75d522b39400f81565b600860003373ffffffffffffffffffffffffffffffffffffffff1673ffffffffffffffffffffffffffffffffffffffff16815260200190815260200160002060009054906101000a900460ff166116b4576040517f08c379a00000000000000000000000000000000000000000000000000000000081526004016116ab90613fd9565b60405180910390fd5b60006116c188868661070e565b905060006116d182888686610849565b90506116df8189898c611f03565b505050505050505050565b60008061172a8c8c8c8c8c8c8c8c60405160200161170f98979695949392919061448c565b60405160208183030381529060405280519060200120611eac565b9050600061177c8286868080601f016020809104026020016040519081016040528093929190818152602001838380828437600081840152601f19601f82011690508083019250505050505050611edc565b9050600860008273ffffffffffffffffffffffffffffffffffffffff1673ffffffffffffffffffffffffffffffffffffffff16815260200190815260200160002060009054906101000a900460ff16925050509a9950505050505050505050565b7f000000000000000000000000000000000000000000000000000000000000000081565b6118096129cb565b80600860008473ffffffffffffffffffffffffffffffffffffffff1673ffffffffffffffffffffffffffffffffffffffff16815260200190815260200160002060006101000a81548160ff0219169083151502179055507f34e1cf41794bd5b78c6251cacf103835b835d3ad103d8471ae5f3df532ff3112828260405161189192919061451e565b60405180910390a15050565b600660205282600052604060002060205281600052604060002060205280600052604060002060009250925050508060000154908060010160009054906101000a90046fffffffffffffffffffffffffffffffff16908060010160109054906101000a90046effffffffffffffffffffffffffffff169080600101601f9054906101000a900460ff16905084565b6119336129cb565b6000600760008373ffffffffffffffffffffffffffffffffffffffff1673ffffffffffffffffffffffffffffffffffffffff1681526020019081526020016000205490506000600760008473ffffffffffffffffffffffffffffffffffffffff1673ffffffffffffffffffffffffffffffffffffffff1681526020019081526020016000208190555060008073ffffffffffffffffffffffffffffffffffffffff168373ffffffffffffffffffffffffffffffffffffffff16146119f657600190505b611a0483338360008661240d565b7f4f1b51dd7a2fcb861aa2670f668be66835c4ee12b4bbbf037e4d0018f39819e4338484604051611a3793929190613ff9565b60405180910390a1505050565b60006fffffffffffffffffffffffffffffffff841115611a99576040517f08c379a0000000000000000000000000000000000000000000000000000000008152600401611a90906145b9565b60405180910390fd5b8673ffffffffffffffffffffffffffffffffffffffff163073ffffffffffffffffffffffffffffffffffffffff1603611adb5763f23a6e6160e01b9050611b65565b60006074905080848490501015611b27576040517f08c379a0000000000000000000000000000000000000000000000000000000008152600401611b1e90613ee4565b60405180910390fd5b6000806000366000611b398989611455565b94509450945094509450611b548c33878e8e898989896126bd565b63f23a6e6160e01b96505050505050505b9695505050505050565b611b776129cb565b600073ffffffffffffffffffffffffffffffffffffffff168173ffffffffffffffffffffffffffffffffffffffff1603611be6576040517f08c379a0000000000000000000000000000000000000000000000000000000008152600401611bdd9061464b565b60405180910390fd5b611bef81612a49565b50565b6000611c088989898960018a60008b8b8b6116ea565b905080611c4a576040517f08c379a0000000000000000000000000000000000000000000000000000000008152600401611c41906146dd565b60405180910390fd5b600073ffffffffffffffffffffffffffffffffffffffff168873ffffffffffffffffffffffffffffffffffffffff1603611cb9576040517f08c379a0000000000000000000000000000000000000000000000000000000008152600401611cb09061476f565b60405180910390fd5b6000600660008b73ffffffffffffffffffffffffffffffffffffffff1673ffffffffffffffffffffffffffffffffffffffff16815260200190815260200160002060008a73ffffffffffffffffffffffffffffffffffffffff1673ffffffffffffffffffffffffffffffffffffffff16815260200190815260200160002060008973ffffffffffffffffffffffffffffffffffffffff1673ffffffffffffffffffffffffffffffffffffffff16815260200190815260200160002060010160009054906101000a90046fffffffffffffffffffffffffffffffff166fffffffffffffffffffffffffffffffff1614611de6576040517f08c379a0000000000000000000000000000000000000000000000000000000008152600401611ddd90614801565b60405180910390fd5b42856effffffffffffffffffffffffffffff1611611e39576040517f08c379a0000000000000000000000000000000000000000000000000000000008152600401611e3090614893565b60405180910390fd5b836fffffffffffffffffffffffffffffffff163414611e8d576040517f08c379a0000000000000000000000000000000000000000000000000000000008152600401611e84906148ff565b60405180910390fd5b611ea18989898960018a600260008c612b0f565b505050505050505050565b600081604051602001611ebf9190614997565b604051602081830303815290604052805190602001209050919050565b6000806000611eeb8585612d9d565b91509150611ef881612dee565b819250505092915050565b6000600660008673ffffffffffffffffffffffffffffffffffffffff1673ffffffffffffffffffffffffffffffffffffffff16815260200190815260200160002060008573ffffffffffffffffffffffffffffffffffffffff1673ffffffffffffffffffffffffffffffffffffffff16815260200190815260200160002060008473ffffffffffffffffffffffffffffffffffffffff1673ffffffffffffffffffffffffffffffffffffffff168152602001908152602001600020604051806080016040529081600082015481526020016001820160009054906101000a90046fffffffffffffffffffffffffffffffff166fffffffffffffffffffffffffffffffff166fffffffffffffffffffffffffffffffff1681526020016001820160109054906101000a90046effffffffffffffffffffffffffffff166effffffffffffffffffffffffffffff166effffffffffffffffffffffffffffff16815260200160018201601f9054906101000a900460ff1660ff1660ff168152505090506000816020015190506000826060015190506000836000015190506000836fffffffffffffffffffffffffffffffff16116120f3576040517f08c379a00000000000000000000000000000000000000000000000000000000081526004016120ea90614a2f565b60405180910390fd5b83604001516effffffffffffffffffffffffffffff16421061214a576040517f08c379a000000000000000000000000000000000000000000000000000000000815260040161214190614ac1565b60405180910390fd5b600660008973ffffffffffffffffffffffffffffffffffffffff1673ffffffffffffffffffffffffffffffffffffffff16815260200190815260200160002060008873ffffffffffffffffffffffffffffffffffffffff1673ffffffffffffffffffffffffffffffffffffffff16815260200190815260200160002060008773ffffffffffffffffffffffffffffffffffffffff1673ffffffffffffffffffffffffffffffffffffffff1681526020019081526020016000206000808201600090556001820160006101000a8154906fffffffffffffffffffffffffffffffff02191690556001820160106101000a8154906effffffffffffffffffffffffffffff021916905560018201601f6101000a81549060ff0219169055505061228687868484876fffffffffffffffffffffffffffffffff1661240d565b8473ffffffffffffffffffffffffffffffffffffffff168773ffffffffffffffffffffffffffffffffffffffff168973ffffffffffffffffffffffffffffffffffffffff167ff81d021f277085e9e959eecea61062bd1eff62d82edad55732d811abb5e549698986868960405161230094939291906140c2565b60405180910390a45050505050505050565b6000807fda3241d4d2732e32f76e33e29a986bf90890ff6cb9b8506b1059fc1f197a34e6848460405160200161234a93929190614ae1565b6040516020818303038152906040528051906020012090507f000000000000000000000000000000000000000000000000000000000000000081604051602001612395929190614b64565b6040516020818303038152906040528051906020012091505092915050565b6002600554036123f9576040517f08c379a00000000000000000000000000000000000000000000000000000000081526004016123f090614be7565b60405180910390fd5b6002600581905550565b6001600581905550565b60048360ff1610612453576040517f08c379a000000000000000000000000000000000000000000000000000000000815260040161244a90614c79565b60405180910390fd5b60008360ff16036124dc57600073ffffffffffffffffffffffffffffffffffffffff168573ffffffffffffffffffffffffffffffffffffffff16146124cd576040517f08c379a00000000000000000000000000000000000000000000000000000000081526004016124c490614d0b565b60405180910390fd5b6124d78482612f54565b6126b6565b600073ffffffffffffffffffffffffffffffffffffffff168573ffffffffffffffffffffffffffffffffffffffff160361254b576040517f08c379a000000000000000000000000000000000000000000000000000000000815260040161254290614d9d565b60405180910390fd5b60018360ff160361256657612561858583613054565b6126b6565b60028360ff16036125e5578473ffffffffffffffffffffffffffffffffffffffff166342842e0e3086856040518463ffffffff1660e01b81526004016125ae93929190613ff9565b600060405180830381600087803b1580156125c857600080fd5b505af11580156125dc573d6000803e3d6000fd5b505050506126b6565b60038360ff16036126b5578473ffffffffffffffffffffffffffffffffffffffff1663f242432a30868585600067ffffffffffffffff81111561262b5761262a614107565b5b6040519080825280601f01601f19166020018201604052801561265d5781602001600182028036833780820191505090505b506040518663ffffffff1660e01b815260040161267e95949392919061417a565b600060405180830381600087803b15801561269857600080fd5b505af11580156126ac573d6000803e3d6000fd5b505050506126b6565b5b5050505050565b60006126d28a8a8a8a8a8a60008b8b8b6116ea565b90506000866fffffffffffffffffffffffffffffffff1603612729576040517f08c379a000000000000000000000000000000000000000000000000000000000815260040161272090614e09565b60405180910390fd5b80612769576040517f08c379a0000000000000000000000000000000000000000000000000000000008152600401612760906146dd565b60405180910390fd5b600073ffffffffffffffffffffffffffffffffffffffff168973ffffffffffffffffffffffffffffffffffffffff16036127d8576040517f08c379a00000000000000000000000000000000000000000000000000000000081526004016127cf9061476f565b60405180910390fd5b6000600660008c73ffffffffffffffffffffffffffffffffffffffff1673ffffffffffffffffffffffffffffffffffffffff16815260200190815260200160002060008b73ffffffffffffffffffffffffffffffffffffffff1673ffffffffffffffffffffffffffffffffffffffff16815260200190815260200160002060008a73ffffffffffffffffffffffffffffffffffffffff1673ffffffffffffffffffffffffffffffffffffffff16815260200190815260200160002060010160009054906101000a90046fffffffffffffffffffffffffffffffff166fffffffffffffffffffffffffffffffff1614612905576040517f08c379a00000000000000000000000000000000000000000000000000000000081526004016128fc90614801565b60405180910390fd5b42856effffffffffffffffffffffffffffff1611612958576040517f08c379a000000000000000000000000000000000000000000000000000000000815260040161294f90614893565b60405180910390fd5b836fffffffffffffffffffffffffffffffff1634146129ac576040517f08c379a00000000000000000000000000000000000000000000000000000000081526004016129a3906148ff565b60405180910390fd5b6129bf8a8a8a8a8a8a600360008c612b0f565b50505050505050505050565b6129d36131a9565b73ffffffffffffffffffffffffffffffffffffffff166129f161142b565b73ffffffffffffffffffffffffffffffffffffffff1614612a47576040517f08c379a0000000000000000000000000000000000000000000000000000000008152600401612a3e90614e75565b60405180910390fd5b565b6000600460009054906101000a900473ffffffffffffffffffffffffffffffffffffffff16905081600460006101000a81548173ffffffffffffffffffffffffffffffffffffffff021916908373ffffffffffffffffffffffffffffffffffffffff1602179055508173ffffffffffffffffffffffffffffffffffffffff168173ffffffffffffffffffffffffffffffffffffffff167f8be0079c531659141344cd1fd0a4f28419497f9722a3daafe3b4186f6b6457e060405160405180910390a35050565b6040518060800160405280878152602001866fffffffffffffffffffffffffffffffff168152602001856effffffffffffffffffffffffffffff1681526020018460ff16815250600660008b73ffffffffffffffffffffffffffffffffffffffff1673ffffffffffffffffffffffffffffffffffffffff16815260200190815260200160002060008a73ffffffffffffffffffffffffffffffffffffffff1673ffffffffffffffffffffffffffffffffffffffff16815260200190815260200160002060008973ffffffffffffffffffffffffffffffffffffffff1673ffffffffffffffffffffffffffffffffffffffff1681526020019081526020016000206000820151816000015560208201518160010160006101000a8154816fffffffffffffffffffffffffffffffff02191690836fffffffffffffffffffffffffffffffff16021790555060408201518160010160106101000a8154816effffffffffffffffffffffffffffff02191690836effffffffffffffffffffffffffffff160217905550606082015181600101601f6101000a81548160ff021916908360ff160217905550905050806fffffffffffffffffffffffffffffffff16600760008473ffffffffffffffffffffffffffffffffffffffff1673ffffffffffffffffffffffffffffffffffffffff1681526020019081526020016000206000828254612d1a9190614e95565b925050819055508773ffffffffffffffffffffffffffffffffffffffff168973ffffffffffffffffffffffffffffffffffffffff167f1d48f3ec0544fd684c5a9331f70963c5401a4fb089b9475628f52911dce6936e8987878b8b8989604051612d8a9796959493929190614ec9565b60405180910390a3505050505050505050565b6000806041835103612dde5760008060006020860151925060408601519150606086015160001a9050612dd2878285856131b1565b94509450505050612de7565b60006002915091505b9250929050565b60006004811115612e0257612e01614f38565b5b816004811115612e1557612e14614f38565b5b0315612f515760016004811115612e2f57612e2e614f38565b5b816004811115612e4257612e41614f38565b5b03612e82576040517f08c379a0000000000000000000000000000000000000000000000000000000008152600401612e7990614fb3565b60405180910390fd5b60026004811115612e9657612e95614f38565b5b816004811115612ea957612ea8614f38565b5b03612ee9576040517f08c379a0000000000000000000000000000000000000000000000000000000008152600401612ee09061501f565b60405180910390fd5b60036004811115612efd57612efc614f38565b5b816004811115612f1057612f0f614f38565b5b03612f50576040517f08c379a0000000000000000000000000000000000000000000000000000000008152600401612f47906150b1565b60405180910390fd5b5b50565b60008273ffffffffffffffffffffffffffffffffffffffff1682600067ffffffffffffffff811115612f8957612f88614107565b5b6040519080825280601f01601f191660200182016040528015612fbb5781602001600182028036833780820191505090505b50604051612fc9919061510d565b60006040518083038185875af1925050503d8060008114613006576040519150601f19603f3d011682016040523d82523d6000602084013e61300b565b606091505b505090508061304f576040517f08c379a000000000000000000000000000000000000000000000000000000000815260040161304690615170565b60405180910390fd5b505050565b6000808473ffffffffffffffffffffffffffffffffffffffff1663a9059cbb60e01b8585604051602401613089929190615190565b604051602081830303815290604052907bffffffffffffffffffffffffffffffffffffffffffffffffffffffff19166020820180517bffffffffffffffffffffffffffffffffffffffffffffffffffffffff83818316178352505050506040516130f3919061510d565b6000604051808303816000865af19150503d8060008114613130576040519150601f19603f3d011682016040523d82523d6000602084013e613135565b606091505b5091509150818015613163575060008151148061316257508080602001905181019061316191906151ce565b5b5b6131a2576040517f08c379a000000000000000000000000000000000000000000000000000000000815260040161319990615247565b60405180910390fd5b5050505050565b600033905090565b6000807f7fffffffffffffffffffffffffffffff5d576e7357a4501ddfe92f46681b20a08360001c11156131ec57600060039150915061328a565b6000600187878787604051600081526020016040526040516132119493929190615267565b6020604051602081039080840390855afa158015613233573d6000803e3d6000fd5b505050602060405103519050600073ffffffffffffffffffffffffffffffffffffffff168173ffffffffffffffffffffffffffffffffffffffff16036132815760006001925092505061328a565b80600092509250505b94509492505050565b600080fd5b600080fd5b600073ffffffffffffffffffffffffffffffffffffffff82169050919050565b60006132c88261329d565b9050919050565b6132d8816132bd565b81146132e357600080fd5b50565b6000813590506132f5816132cf565b92915050565b60006020828403121561331157613310613293565b5b600061331f848285016132e6565b91505092915050565b6000819050919050565b61333b81613328565b82525050565b60006020820190506133566000830184613332565b92915050565b61336581613328565b811461337057600080fd5b50565b6000813590506133828161335c565b92915050565b600080fd5b600080fd5b600080fd5b60008083601f8401126133ad576133ac613388565b5b8235905067ffffffffffffffff8111156133ca576133c961338d565b5b6020830191508360018202830111156133e6576133e5613392565b5b9250929050565b60008060008060006080868803121561340957613408613293565b5b6000613417888289016132e6565b9550506020613428888289016132e6565b945050604061343988828901613373565b935050606086013567ffffffffffffffff81111561345a57613459613298565b5b61346688828901613397565b92509250509295509295909350565b60007fffffffff0000000000000000000000000000000000000000000000000000000082169050919050565b6134aa81613475565b82525050565b60006020820190506134c560008301846134a1565b92915050565b6000806000604084860312156134e4576134e3613293565b5b60006134f2868287016132e6565b935050602084013567ffffffffffffffff81111561351357613512613298565b5b61351f86828701613397565b92509250509250925092565b613534816132bd565b82525050565b600060208201905061354f600083018461352b565b92915050565b60008060008060006080868803121561357157613570613293565b5b600061357f888289016132e6565b9550506020613590888289016132e6565b94505060406135a1888289016132e6565b935050606086013567ffffffffffffffff8111156135c2576135c1613298565b5b6135ce88828901613397565b92509250509295509295909350565b600080600080606085870312156135f7576135f6613293565b5b6000613605878288016132e6565b9450506020613616878288016132e6565b935050604085013567ffffffffffffffff81111561363757613636613298565b5b61364387828801613397565b925092505092959194509250565b60006effffffffffffffffffffffffffffff82169050919050565b61367581613651565b811461368057600080fd5b50565b6000813590506136928161366c565b92915050565b60006fffffffffffffffffffffffffffffffff82169050919050565b6136bd81613698565b81146136c857600080fd5b50565b6000813590506136da816136b4565b92915050565b600080600080600080600060c0888a0312156136ff576136fe613293565b5b600061370d8a828b016132e6565b975050602061371e8a828b016132e6565b965050604061372f8a828b01613373565b95505060606137408a828b01613683565b94505060806137518a828b016136cb565b93505060a088013567ffffffffffffffff81111561377257613771613298565b5b61377e8a828b01613397565b925092505092959891949750929550565b60008115159050919050565b6137a48161378f565b82525050565b60006020820190506137bf600083018461379b565b92915050565b6000806000606084860312156137de576137dd613293565b5b60006137ec868287016132e6565b93505060206137fd868287016132e6565b925050604061380e868287016132e6565b9150509250925092565b60008060008060008060008060e0898b03121561383857613837613293565b5b60006138468b828c016132e6565b98505060206138578b828c016132e6565b97505060406138688b828c01613373565b96505060606138798b828c016136cb565b955050608061388a8b828c01613683565b94505060a061389b8b828c016136cb565b93505060c089013567ffffffffffffffff8111156138bc576138bb613298565b5b6138c88b828c01613397565b92509250509295985092959890939650565b6000819050919050565b6138ed816138da565b82525050565b600060208201905061390860008301846138e4565b92915050565b6000806040838503121561392557613924613293565b5b6000613933858286016132e6565b9250506020613944858286016132e6565b9150509250929050565b600060ff82169050919050565b6139648161394e565b82525050565b61397381613698565b82525050565b61398281613651565b82525050565b600060a08201905061399d600083018861352b565b6139aa602083018761395b565b6139b76040830186613332565b6139c4606083018561396a565b6139d16080830184613979565b9695505050505050565b600080602083850312156139f2576139f1613293565b5b600083013567ffffffffffffffff811115613a1057613a0f613298565b5b613a1c85828601613397565b92509250509250929050565b600082825260208201905092915050565b82818337600083830152505050565b6000601f19601f8301169050919050565b6000613a658385613a28565b9350613a72838584613a39565b613a7b83613a48565b840190509392505050565b6000608082019050613a9b600083018861352b565b613aa86020830187613979565b613ab5604083018661396a565b8181036060830152613ac8818486613a59565b90509695505050505050565b600081519050919050565b600082825260208201905092915050565b60005b83811015613b0e578082015181840152602081019050613af3565b60008484015250505050565b6000613b2582613ad4565b613b2f8185613adf565b9350613b3f818560208601613af0565b613b4881613a48565b840191505092915050565b60006080820190508181036000830152613b6d8187613b1a565b90508181036020830152613b818186613b1a565b9050613b906040830185613332565b613b9d606083018461352b565b95945050505050565b600080600080600080600060a0888a031215613bc557613bc4613293565b5b6000613bd38a828b016132e6565b9750506020613be48a828b016132e6565b9650506040613bf58a828b016132e6565b955050606088013567ffffffffffffffff811115613c1657613c15613298565b5b613c228a828b01613397565b9450945050608088013567ffffffffffffffff811115613c4557613c44613298565b5b613c518a828b01613397565b925092505092959891949750929550565b6000806000806000806000806000806101208b8d031215613c8657613c85613293565b5b6000613c948d828e016132e6565b9a50506020613ca58d828e016132e6565b9950506040613cb68d828e016132e6565b9850506060613cc78d828e01613373565b9750506080613cd88d828e016136cb565b96505060a0613ce98d828e01613683565b95505060c0613cfa8d828e016132e6565b94505060e0613d0b8d828e016136cb565b9350506101008b013567ffffffffffffffff811115613d2d57613d2c613298565b5b613d398d828e01613397565b92509250509295989b9194979a5092959850565b613d568161378f565b8114613d6157600080fd5b50565b600081359050613d7381613d4d565b92915050565b60008060408385031215613d9057613d8f613293565b5b6000613d9e858286016132e6565b9250506020613daf85828601613d64565b9150509250929050565b6000608082019050613dce6000830187613332565b613ddb602083018661396a565b613de86040830185613979565b613df5606083018461395b565b95945050505050565b60008060008060008060a08789031215613e1b57613e1a613293565b5b6000613e2989828a016132e6565b9650506020613e3a89828a016132e6565b9550506040613e4b89828a01613373565b9450506060613e5c89828a01613373565b935050608087013567ffffffffffffffff811115613e7d57613e7c613298565b5b613e8989828a01613397565b92509250509295509295509295565b7f44617461206c656e67746820697320696e73756666696369656e740000000000600082015250565b6000613ece601b83613adf565b9150613ed982613e98565b602082019050919050565b60006020820190508181036000830152613efd81613ec1565b9050919050565b60008160601b9050919050565b6000613f1c82613f04565b9050919050565b6000613f2e82613f11565b9050919050565b613f46613f41826132bd565b613f23565b82525050565b6000613f588284613f35565b60148201915081905092915050565b7f4c696e6b64726f70457363726f773a206d73672e73656e646572206973206e6f60008201527f742072656c617965722e00000000000000000000000000000000000000000000602082015250565b6000613fc3602a83613adf565b9150613fce82613f67565b604082019050919050565b60006020820190508181036000830152613ff281613fb6565b9050919050565b600060608201905061400e600083018661352b565b61401b602083018561352b565b6140286040830184613332565b949350505050565b7f4c696e6b64726f70457363726f773a20696e76616c6964207472616e7366657260008201527f2049440000000000000000000000000000000000000000000000000000000000602082015250565b600061408c602383613adf565b915061409782614030565b604082019050919050565b600060208201905081810360008301526140bb8161407f565b9050919050565b60006080820190506140d7600083018761352b565b6140e4602083018661395b565b6140f16040830185613332565b6140fe606083018461396a565b95945050505050565b7f4e487b7100000000000000000000000000000000000000000000000000000000600052604160045260246000fd5b600081519050919050565b600061414c82614136565b6141568185613a28565b9350614166818560208601613af0565b61416f81613a48565b840191505092915050565b600060a08201905061418f600083018861352b565b61419c602083018761352b565b6141a96040830186613332565b6141b66060830185613332565b81810360808301526141c88184614141565b90509695505050505050565b7f4c696e6b64726f70457363726f773a204465706f736974206e6f7420666f756e60008201527f6400000000000000000000000000000000000000000000000000000000000000602082015250565b6000614230602183613adf565b915061423b826141d4565b604082019050919050565b6000602082019050818103600083015261425f81614223565b9050919050565b60006142718261329d565b9050919050565b61428181614266565b811461428c57600080fd5b50565b60008135905061429e81614278565b92915050565b6000806000606084860312156142bd576142bc613293565b5b60006142cb8682870161428f565b93505060206142dc86828701613683565b92505060406142ed868287016136cb565b9150509250925092565b7f4e487b7100000000000000000000000000000000000000000000000000000000600052601160045260246000fd5b600061433182613328565b915061433c83613328565b9250828203905081811115614354576143536142f7565b5b92915050565b600080fd5b600080fd5b600080858511156143785761437761435a565b5b838611156143895761438861435f565b5b6001850283019150848603905094509492505050565b7f4e487b7100000000000000000000000000000000000000000000000000000000600052602260045260246000fd5b600060028204905060018216806143e657607f821691505b6020821081036143f9576143f861439f565b5b50919050565b6000819050919050565b61441a61441582613328565b6143ff565b82525050565b60008160801b9050919050565b600061443882614420565b9050919050565b61445061444b82613698565b61442d565b82525050565b60008160881b9050919050565b600061446e82614456565b9050919050565b61448661448182613651565b614463565b82525050565b6000614498828b613f35565b6014820191506144a8828a613f35565b6014820191506144b88289613f35565b6014820191506144c88288614409565b6020820191506144d8828761443f565b6010820191506144e88286614475565b600f820191506144f88285613f35565b601482019150614508828461443f565b6010820191508190509998505050505050505050565b6000604082019050614533600083018561352b565b614540602083018461379b565b9392505050565b7f616d6f756e742065786365656473206d6178696d756d20616c6c6f776564207660008201527f616c756520666f722075696e7431323800000000000000000000000000000000602082015250565b60006145a3603083613adf565b91506145ae82614547565b604082019050919050565b600060208201905081810360008301526145d281614596565b9050919050565b7f4f776e61626c653a206e6577206f776e657220697320746865207a65726f206160008201527f6464726573730000000000000000000000000000000000000000000000000000602082015250565b6000614635602683613adf565b9150614640826145d9565b604082019050919050565b6000602082019050818103600083015261466481614628565b9050919050565b7f4c696e6b64726f70457363726f773a2046656573206e6f7420617574686f726960008201527f7a65642e00000000000000000000000000000000000000000000000000000000602082015250565b60006146c7602483613adf565b91506146d28261466b565b604082019050919050565b600060208201905081810360008301526146f6816146ba565b9050919050565b7f4c696e6b64726f70457363726f773a2063616e2774206265206164647265737360008201527f283029206173206120746f6b656e2e0000000000000000000000000000000000602082015250565b6000614759602f83613adf565b9150614764826146fd565b604082019050919050565b600060208201905081810360008301526147888161474c565b9050919050565b7f4c696e6b64726f70457363726f773a207472616e73666572496420697320696e60008201527f207573652e000000000000000000000000000000000000000000000000000000602082015250565b60006147eb602583613adf565b91506147f68261478f565b604082019050919050565b6000602082019050818103600083015261481a816147de565b9050919050565b7f4c696e6b64726f70457363726f773a206465706f736974696e6720776974682060008201527f696e76616c69642065787069726174696f6e2e00000000000000000000000000602082015250565b600061487d603383613adf565b915061488882614821565b604082019050919050565b600060208201905081810360008301526148ac81614870565b9050919050565b7f4c696e6b64726f70457363726f773a20666565206e6f7420636f76657265642e600082015250565b60006148e9602083613adf565b91506148f4826148b3565b602082019050919050565b60006020820190508181036000830152614918816148dc565b9050919050565b600081905092915050565b7f19457468657265756d205369676e6564204d6573736167653a0a333200000000600082015250565b6000614960601c8361491f565b915061496b8261492a565b601c82019050919050565b6000819050919050565b61499161498c826138da565b614976565b82525050565b60006149a282614953565b91506149ae8284614980565b60208201915081905092915050565b7f4c696e6b64726f70457363726f773a20696e76616c69642072656465656d207060008201527f6172616d73000000000000000000000000000000000000000000000000000000602082015250565b6000614a19602583613adf565b9150614a24826149bd565b604082019050919050565b60006020820190508181036000830152614a4881614a0c565b9050919050565b7f4c696e6b64726f70457363726f773a207472616e73666572206578706972656460008201527f2e00000000000000000000000000000000000000000000000000000000000000602082015250565b6000614aab602183613adf565b9150614ab682614a4f565b604082019050919050565b60006020820190508181036000830152614ada81614a9e565b9050919050565b6000606082019050614af660008301866138e4565b614b03602083018561352b565b614b10604083018461352b565b949350505050565b7f1901000000000000000000000000000000000000000000000000000000000000600082015250565b6000614b4e60028361491f565b9150614b5982614b18565b600282019050919050565b6000614b6f82614b41565b9150614b7b8285614980565b602082019150614b8b8284614980565b6020820191508190509392505050565b7f5265656e7472616e637947756172643a207265656e7472616e742063616c6c00600082015250565b6000614bd1601f83613adf565b9150614bdc82614b9b565b602082019050919050565b60006020820190508181036000830152614c0081614bc4565b9050919050565b7f4c696e6b64726f70457363726f773a20756e6b6e6f776e20746f6b656e20747960008201527f7065000000000000000000000000000000000000000000000000000000000000602082015250565b6000614c63602283613adf565b9150614c6e82614c07565b604082019050919050565b60006020820190508181036000830152614c9281614c56565b9050919050565b7f4c696e6b64726f70457363726f773a20616464726573732073686f756c64206260008201527f65203020666f7220455448207472616e73666572730000000000000000000000602082015250565b6000614cf5603583613adf565b9150614d0082614c99565b604082019050919050565b60006020820190508181036000830152614d2481614ce8565b9050919050565b7f4c696e6b64726f70457363726f773a20746f6b656e2061646472657373206e6f60008201527f742070726f766964656420746f206d616b65207472616e736665720000000000602082015250565b6000614d87603b83613adf565b9150614d9282614d2b565b604082019050919050565b60006020820190508181036000830152614db681614d7a565b9050919050565b7f416d6f756e74206973206e6f742070726f766964656400000000000000000000600082015250565b6000614df3601683613adf565b9150614dfe82614dbd565b602082019050919050565b60006020820190508181036000830152614e2281614de6565b9050919050565b7f4f776e61626c653a2063616c6c6572206973206e6f7420746865206f776e6572600082015250565b6000614e5f602083613adf565b9150614e6a82614e29565b602082019050919050565b60006020820190508181036000830152614e8e81614e52565b9050919050565b6000614ea082613328565b9150614eab83613328565b9250828201905080821115614ec357614ec26142f7565b5b92915050565b600060e082019050614ede600083018a61352b565b614eeb6020830189613979565b614ef8604083018861395b565b614f056060830187613332565b614f12608083018661396a565b614f1f60a083018561352b565b614f2c60c083018461396a565b98975050505050505050565b7f4e487b7100000000000000000000000000000000000000000000000000000000600052602160045260246000fd5b7f45434453413a20696e76616c6964207369676e61747572650000000000000000600082015250565b6000614f9d601883613adf565b9150614fa882614f67565b602082019050919050565b60006020820190508181036000830152614fcc81614f90565b9050919050565b7f45434453413a20696e76616c6964207369676e6174757265206c656e67746800600082015250565b6000615009601f83613adf565b915061501482614fd3565b602082019050919050565b6000602082019050818103600083015261503881614ffc565b9050919050565b7f45434453413a20696e76616c6964207369676e6174757265202773272076616c60008201527f7565000000000000000000000000000000000000000000000000000000000000602082015250565b600061509b602283613adf565b91506150a68261503f565b604082019050919050565b600060208201905081810360008301526150ca8161508e565b9050919050565b600081905092915050565b60006150e782614136565b6150f181856150d1565b9350615101818560208601613af0565b80840191505092915050565b600061511982846150dc565b915081905092915050565b7f5354450000000000000000000000000000000000000000000000000000000000600082015250565b600061515a600383613adf565b915061516582615124565b602082019050919050565b600060208201905081810360008301526151898161514d565b9050919050565b60006040820190506151a5600083018561352b565b6151b26020830184613332565b9392505050565b6000815190506151c881613d4d565b92915050565b6000602082840312156151e4576151e3613293565b5b60006151f2848285016151b9565b91505092915050565b7f5354000000000000000000000000000000000000000000000000000000000000600082015250565b6000615231600283613adf565b915061523c826151fb565b602082019050919050565b6000602082019050818103600083015261526081615224565b9050919050565b600060808201905061527c60008301876138e4565b615289602083018661395b565b61529660408301856138e4565b6152a360608301846138e4565b9594505050505056fea26469706673582212205902f9eb2e8f7d9e089067d5f659f17d77aeb410a8f14bd19c3995c7e63f1eb164736f6c63430008110033",
  "linkReferences": {},
  "deployedLinkReferences": {}
}