{
  "_format": "hh-sol-artifact-1",
  "contractName": "LinkdropEscrowNFT",
  "sourceName": "contracts/LinkdropEscrowNFT.sol",
  "abi": [
    {
      "inputs": [
        {
          "internalType": "address",
          "name": "relayer_",
          "type": "address"
        }
      ],
      "stateMutability": "nonpayable",
      "type": "constructor"
    },
    {
      "anonymous": false,
      "inputs": [
        {
          "indexed": true,
          "internalType": "address",
          "name": "sender",
          "type": "address"
        },
        {
          "indexed": true,
          "internalType": "address",
          "name": "token",
          "type": "address"
        },
        {
          "indexed": false,
          "internalType": "address",
          "name": "transferId",
          "type": "address"
        },
        {
          "indexed": false,
          "internalType": "uint8",
          "name": "tokenType",
          "type": "uint8"
        },
        {
          "indexed": false,
          "internalType": "uint256",
          "name": "tokenId",
          "type": "uint256"
        },
        {
          "indexed": false,
          "internalType": "uint128",
          "name": "amount",
          "type": "uint128"
        }
      ],
      "name": "Cancel",
      "type": "event"
    },
    {
      "anonymous": false,
      "inputs": [
        {
          "indexed": true,
          "internalType": "address",
          "name": "sender",
          "type": "address"
        },
        {
          "indexed": true,
          "internalType": "address",
          "name": "token",
          "type": "address"
        },
        {
          "indexed": false,
          "internalType": "address",
          "name": "transferId",
          "type": "address"
        },
        {
          "indexed": false,
          "internalType": "uint120",
          "name": "expiration",
          "type": "uint120"
        },
        {
          "indexed": false,
          "internalType": "uint8",
          "name": "tokenType",
          "type": "uint8"
        },
        {
          "indexed": false,
          "internalType": "uint256",
          "name": "tokenId",
          "type": "uint256"
        },
        {
          "indexed": false,
          "internalType": "uint128",
          "name": "amount",
          "type": "uint128"
        },
        {
          "indexed": false,
          "internalType": "address",
          "name": "feeToken",
          "type": "address"
        },
        {
          "indexed": false,
          "internalType": "uint128",
          "name": "fee",
          "type": "uint128"
        }
      ],
      "name": "Deposit",
      "type": "event"
    },
    {
      "anonymous": false,
      "inputs": [
        {
          "indexed": true,
          "internalType": "address",
          "name": "previousOwner",
          "type": "address"
        },
        {
          "indexed": true,
          "internalType": "address",
          "name": "newOwner",
          "type": "address"
        }
      ],
      "name": "OwnershipTransferred",
      "type": "event"
    },
    {
      "anonymous": false,
      "inputs": [
        {
          "indexed": true,
          "internalType": "address",
          "name": "sender",
          "type": "address"
        },
        {
          "indexed": true,
          "internalType": "address",
          "name": "token",
          "type": "address"
        },
        {
          "indexed": true,
          "internalType": "address",
          "name": "receiver",
          "type": "address"
        },
        {
          "indexed": false,
          "internalType": "address",
          "name": "transferId",
          "type": "address"
        },
        {
          "indexed": false,
          "internalType": "uint8",
          "name": "tokenType",
          "type": "uint8"
        },
        {
          "indexed": false,
          "internalType": "uint256",
          "name": "tokenId",
          "type": "uint256"
        },
        {
          "indexed": false,
          "internalType": "uint128",
          "name": "amount",
          "type": "uint128"
        }
      ],
      "name": "Redeem",
      "type": "event"
    },
    {
      "anonymous": false,
      "inputs": [
        {
          "indexed": true,
          "internalType": "address",
          "name": "sender",
          "type": "address"
        },
        {
          "indexed": true,
          "internalType": "address",
          "name": "token",
          "type": "address"
        },
        {
          "indexed": false,
          "internalType": "address",
          "name": "transferId",
          "type": "address"
        },
        {
          "indexed": false,
          "internalType": "uint8",
          "name": "tokenType",
          "type": "uint8"
        },
        {
          "indexed": false,
          "internalType": "uint256",
          "name": "tokenId",
          "type": "uint256"
        },
        {
          "indexed": false,
          "internalType": "uint128",
          "name": "amount",
          "type": "uint128"
        }
      ],
      "name": "Refund",
      "type": "event"
    },
    {
      "anonymous": false,
      "inputs": [
        {
          "indexed": true,
          "internalType": "address",
          "name": "sender",
          "type": "address"
        },
        {
          "indexed": true,
          "internalType": "address",
          "name": "transferId",
          "type": "address"
        },
        {
          "indexed": false,
          "internalType": "bytes",
          "name": "senderMessage",
          "type": "bytes"
        }
      ],
      "name": "SenderMessage",
      "type": "event"
    },
    {
      "anonymous": false,
      "inputs": [
        {
          "indexed": false,
          "internalType": "uint128",
          "name": "claimFee",
          "type": "uint128"
        },
        {
          "indexed": false,
          "internalType": "uint128",
          "name": "depositFee",
          "type": "uint128"
        }
      ],
      "name": "UpdateFees",
      "type": "event"
    },
    {
      "anonymous": false,
      "inputs": [
        {
          "indexed": false,
          "internalType": "address",
          "name": "relayer",
          "type": "address"
        },
        {
          "indexed": false,
          "internalType": "bool",
          "name": "active",
          "type": "bool"
        }
      ],
      "name": "UpdateRelayer",
      "type": "event"
    },
    {
      "anonymous": false,
      "inputs": [
        {
          "indexed": false,
          "internalType": "address",
          "name": "feeReceiver",
          "type": "address"
        },
        {
          "indexed": false,
          "internalType": "address",
          "name": "token_",
          "type": "address"
        },
        {
          "indexed": false,
          "internalType": "uint256",
          "name": "amount",
          "type": "uint256"
        }
      ],
      "name": "WithdrawFees",
      "type": "event"
    },
    {
      "inputs": [],
      "name": "EIP712_DOMAIN_TYPEHASH",
      "outputs": [
        {
          "internalType": "bytes32",
          "name": "",
          "type": "bytes32"
        }
      ],
      "stateMutability": "view",
      "type": "function"
    },
    {
      "inputs": [],
      "name": "_DOMAIN_SEPARATOR",
      "outputs": [
        {
          "internalType": "bytes32",
          "name": "",
          "type": "bytes32"
        }
      ],
      "stateMutability": "view",
      "type": "function"
    },
    {
      "inputs": [],
      "name": "_TRANSFER_TYPE_HASH",
      "outputs": [
        {
          "internalType": "bytes32",
          "name": "",
          "type": "bytes32"
        }
      ],
      "stateMutability": "view",
      "type": "function"
    },
    {
      "inputs": [
        {
          "internalType": "address",
          "name": "",
          "type": "address"
        }
      ],
      "name": "accruedFees",
      "outputs": [
        {
          "internalType": "uint256",
          "name": "",
          "type": "uint256"
        }
      ],
      "stateMutability": "view",
      "type": "function"
    },
    {
      "inputs": [
        {
          "internalType": "address",
          "name": "token_",
          "type": "address"
        },
        {
          "internalType": "address",
          "name": "transferId_",
          "type": "address"
        }
      ],
      "name": "cancel",
      "outputs": [],
      "stateMutability": "nonpayable",
      "type": "function"
    },
    {
      "inputs": [
        {
          "internalType": "bytes",
          "name": "data_",
          "type": "bytes"
        }
      ],
      "name": "decodeOnERC721ReceivedData",
      "outputs": [
        {
          "internalType": "address",
          "name": "transferId",
          "type": "address"
        },
        {
          "internalType": "uint120",
          "name": "expiration",
          "type": "uint120"
        },
        {
          "internalType": "uint128",
          "name": "feeAmount",
          "type": "uint128"
        },
        {
          "internalType": "bytes",
          "name": "feeAuthorization",
          "type": "bytes"
        }
      ],
      "stateMutability": "pure",
      "type": "function"
    },
    {
      "inputs": [
        {
          "internalType": "address",
          "name": "token_",
          "type": "address"
        },
        {
          "internalType": "address",
          "name": "transferId_",
          "type": "address"
        },
        {
          "internalType": "uint256",
          "name": "tokenId_",
          "type": "uint256"
        },
        {
          "internalType": "uint128",
          "name": "amount_",
          "type": "uint128"
        },
        {
          "internalType": "uint120",
          "name": "expiration_",
          "type": "uint120"
        },
        {
          "internalType": "uint128",
          "name": "feeAmount_",
          "type": "uint128"
        },
        {
          "internalType": "bytes",
          "name": "feeAuthorization_",
          "type": "bytes"
        },
        {
          "internalType": "bytes",
          "name": "senderMessage_",
          "type": "bytes"
        }
      ],
      "name": "depositERC1155",
      "outputs": [],
      "stateMutability": "payable",
      "type": "function"
    },
    {
      "inputs": [
        {
          "internalType": "address",
          "name": "token_",
          "type": "address"
        },
        {
          "internalType": "address",
          "name": "transferId_",
          "type": "address"
        },
        {
          "internalType": "uint256",
          "name": "tokenId_",
          "type": "uint256"
        },
        {
          "internalType": "uint120",
          "name": "expiration_",
          "type": "uint120"
        },
        {
          "internalType": "uint128",
          "name": "feeAmount_",
          "type": "uint128"
        },
        {
          "internalType": "bytes",
          "name": "feeAuthorization_",
          "type": "bytes"
        },
        {
          "internalType": "bytes",
          "name": "senderMessage_",
          "type": "bytes"
        }
      ],
      "name": "depositERC721",
      "outputs": [],
      "stateMutability": "payable",
      "type": "function"
    },
    {
      "inputs": [
        {
          "internalType": "address",
          "name": "",
          "type": "address"
        },
        {
          "internalType": "address",
          "name": "",
          "type": "address"
        },
        {
          "internalType": "address",
          "name": "",
          "type": "address"
        }
      ],
      "name": "deposits",
      "outputs": [
        {
          "internalType": "uint256",
          "name": "tokenId",
          "type": "uint256"
        },
        {
          "internalType": "uint128",
          "name": "amount",
          "type": "uint128"
        },
        {
          "internalType": "uint120",
          "name": "expiration",
          "type": "uint120"
        },
        {
          "internalType": "uint8",
          "name": "tokenType",
          "type": "uint8"
        }
      ],
      "stateMutability": "view",
      "type": "function"
    },
    {
      "inputs": [],
      "name": "domain",
      "outputs": [
        {
          "internalType": "string",
          "name": "name",
          "type": "string"
        },
        {
          "internalType": "string",
          "name": "version",
          "type": "string"
        },
        {
          "internalType": "uint256",
          "name": "chainId",
          "type": "uint256"
        },
        {
          "internalType": "address",
          "name": "verifyingContract",
          "type": "address"
        }
      ],
      "stateMutability": "view",
      "type": "function"
    },
    {
      "inputs": [
        {
          "internalType": "address",
          "name": "token_",
          "type": "address"
        },
        {
          "internalType": "address",
          "name": "sender_",
          "type": "address"
        },
        {
          "internalType": "address",
          "name": "transferId_",
          "type": "address"
        }
      ],
      "name": "getDeposit",
      "outputs": [
        {
          "internalType": "address",
          "name": "token",
          "type": "address"
        },
        {
          "internalType": "uint8",
          "name": "tokenType",
          "type": "uint8"
        },
        {
          "internalType": "uint256",
          "name": "tokenId",
          "type": "uint256"
        },
        {
          "internalType": "uint128",
          "name": "amount",
          "type": "uint128"
        },
        {
          "internalType": "uint120",
          "name": "expiration",
          "type": "uint120"
        }
      ],
      "stateMutability": "view",
      "type": "function"
    },
    {
      "inputs": [],
      "name": "name",
      "outputs": [
        {
          "internalType": "string",
          "name": "",
          "type": "string"
        }
      ],
      "stateMutability": "view",
      "type": "function"
    },
    {
      "inputs": [
        {
          "internalType": "address",
          "name": "operator_",
          "type": "address"
        },
        {
          "internalType": "address",
          "name": "from_",
          "type": "address"
        },
        {
          "internalType": "uint256",
          "name": "tokenId_",
          "type": "uint256"
        },
        {
          "internalType": "uint256",
          "name": "amount_",
          "type": "uint256"
        },
        {
          "internalType": "bytes",
          "name": "data_",
          "type": "bytes"
        }
      ],
      "name": "onERC1155Received",
      "outputs": [
        {
          "internalType": "bytes4",
          "name": "",
          "type": "bytes4"
        }
      ],
      "stateMutability": "nonpayable",
      "type": "function"
    },
    {
      "inputs": [
        {
          "internalType": "address",
          "name": "operator_",
          "type": "address"
        },
        {
          "internalType": "address",
          "name": "from_",
          "type": "address"
        },
        {
          "internalType": "uint256",
          "name": "tokenId_",
          "type": "uint256"
        },
        {
          "internalType": "bytes",
          "name": "data_",
          "type": "bytes"
        }
      ],
      "name": "onERC721Received",
      "outputs": [
        {
          "internalType": "bytes4",
          "name": "",
          "type": "bytes4"
        }
      ],
      "stateMutability": "nonpayable",
      "type": "function"
    },
    {
      "inputs": [],
      "name": "owner",
      "outputs": [
        {
          "internalType": "address",
          "name": "",
          "type": "address"
        }
      ],
      "stateMutability": "view",
      "type": "function"
    },
    {
      "inputs": [
        {
          "internalType": "address",
          "name": "receiver_",
          "type": "address"
        },
        {
          "internalType": "address",
          "name": "sender_",
          "type": "address"
        },
        {
          "internalType": "address",
          "name": "token_",
          "type": "address"
        },
        {
          "internalType": "bytes",
          "name": "receiverSig_",
          "type": "bytes"
        }
      ],
      "name": "redeem",
      "outputs": [],
      "stateMutability": "nonpayable",
      "type": "function"
    },
    {
      "inputs": [
        {
          "internalType": "address",
          "name": "receiver_",
          "type": "address"
        },
        {
          "internalType": "address",
          "name": "sender_",
          "type": "address"
        },
        {
          "internalType": "address",
          "name": "token_",
          "type": "address"
        },
        {
          "internalType": "address",
          "name": "transferId_",
          "type": "address"
        },
        {
          "internalType": "bytes",
          "name": "receiverSig_",
          "type": "bytes"
        },
        {
          "internalType": "bytes",
          "name": "senderSig_",
          "type": "bytes"
        }
      ],
      "name": "redeemRecovered",
      "outputs": [],
      "stateMutability": "nonpayable",
      "type": "function"
    },
    {
      "inputs": [
        {
          "internalType": "address",
          "name": "sender_",
          "type": "address"
        },
        {
          "internalType": "address",
          "name": "token_",
          "type": "address"
        },
        {
          "internalType": "address",
          "name": "transferId_",
          "type": "address"
        }
      ],
      "name": "refund",
      "outputs": [],
      "stateMutability": "nonpayable",
      "type": "function"
    },
    {
      "inputs": [
        {
          "internalType": "address",
          "name": "",
          "type": "address"
        }
      ],
      "name": "relayers",
      "outputs": [
        {
          "internalType": "bool",
          "name": "",
          "type": "bool"
        }
      ],
      "stateMutability": "view",
      "type": "function"
    },
    {
      "inputs": [],
      "name": "renounceOwnership",
      "outputs": [],
      "stateMutability": "nonpayable",
      "type": "function"
    },
    {
      "inputs": [
        {
          "internalType": "address",
          "name": "relayer_",
          "type": "address"
        },
        {
          "internalType": "bool",
          "name": "active_",
          "type": "bool"
        }
      ],
      "name": "setRelayer",
      "outputs": [],
      "stateMutability": "nonpayable",
      "type": "function"
    },
    {
      "inputs": [
        {
          "internalType": "address",
          "name": "newOwner",
          "type": "address"
        }
      ],
      "name": "transferOwnership",
      "outputs": [],
      "stateMutability": "nonpayable",
      "type": "function"
    },
    {
      "inputs": [
        {
          "internalType": "address",
          "name": "sender_",
          "type": "address"
        },
        {
          "internalType": "address",
          "name": "token_",
          "type": "address"
        },
        {
          "internalType": "address",
          "name": "transferId_",
          "type": "address"
        },
        {
          "internalType": "uint256",
          "name": "tokenId_",
          "type": "uint256"
        },
        {
          "internalType": "uint128",
          "name": "amount_",
          "type": "uint128"
        },
        {
          "internalType": "uint120",
          "name": "expiration_",
          "type": "uint120"
        },
        {
          "internalType": "address",
          "name": "feeToken_",
          "type": "address"
        },
        {
          "internalType": "uint128",
          "name": "feeAmount_",
          "type": "uint128"
        },
        {
          "internalType": "bytes",
          "name": "feeAuthorization_",
          "type": "bytes"
        }
      ],
      "name": "verifyFeeAuthorization",
      "outputs": [
        {
          "internalType": "bool",
          "name": "isValid",
          "type": "bool"
        }
      ],
      "stateMutability": "view",
      "type": "function"
    },
    {
      "inputs": [],
      "name": "version",
      "outputs": [
        {
          "internalType": "string",
          "name": "",
          "type": "string"
        }
      ],
      "stateMutability": "view",
      "type": "function"
    },
    {
      "inputs": [
        {
          "internalType": "address",
          "name": "token_",
          "type": "address"
        }
      ],
      "name": "withdrawAccruedFees",
      "outputs": [],
      "stateMutability": "nonpayable",
      "type": "function"
    }
  ],
  "bytecode": "0x60a06040523480156200001157600080fd5b50604051620060903803806200609083398181016040528101906200003791906200041d565b6040518060400160405280601181526020017f4c696e6b64726f70457363726f774e46540000000000000000000000000000008152506040518060400160405280600381526020017f332e320000000000000000000000000000000000000000000000000000000000815250600046905060405180608001604052808481526020018381526020018281526020013073ffffffffffffffffffffffffffffffffffffffff16815250600080820151816000019081620000f79190620006c9565b5060208201518160010190816200010f9190620006c9565b506040820151816002015560608201518160030160006101000a81548173ffffffffffffffffffffffffffffffffffffffff021916908373ffffffffffffffffffffffffffffffffffffffff1602179055509050507f8b73c3c69bb8fe3d512ecc4cf759cc79239f7b179b0ffacaa9a75d522b39400f600080016040516200019891906200085f565b60405180910390206000600101604051620001b491906200085f565b604051809103902060006002015430604051602001620001d9959493929190620008b5565b60405160208183030381529060405280519060200120608081815250507fda3241d4d2732e32f76e33e29a986bf90890ff6cb9b8506b1059fc1f197a34e680146200025b576040517f08c379a0000000000000000000000000000000000000000000000000000000008152600401620002529062000973565b60405180910390fd5b5050506200027e62000272620002e560201b60201c565b620002ed60201b60201c565b60016005819055506001600860008373ffffffffffffffffffffffffffffffffffffffff1673ffffffffffffffffffffffffffffffffffffffff16815260200190815260200160002060006101000a81548160ff0219169083151502179055505062000995565b600033905090565b6000600460009054906101000a900473ffffffffffffffffffffffffffffffffffffffff16905081600460006101000a81548173ffffffffffffffffffffffffffffffffffffffff021916908373ffffffffffffffffffffffffffffffffffffffff1602179055508173ffffffffffffffffffffffffffffffffffffffff168173ffffffffffffffffffffffffffffffffffffffff167f8be0079c531659141344cd1fd0a4f28419497f9722a3daafe3b4186f6b6457e060405160405180910390a35050565b600080fd5b600073ffffffffffffffffffffffffffffffffffffffff82169050919050565b6000620003e582620003b8565b9050919050565b620003f781620003d8565b81146200040357600080fd5b50565b6000815190506200041781620003ec565b92915050565b600060208284031215620004365762000435620003b3565b5b6000620004468482850162000406565b91505092915050565b600081519050919050565b7f4e487b7100000000000000000000000000000000000000000000000000000000600052604160045260246000fd5b7f4e487b7100000000000000000000000000000000000000000000000000000000600052602260045260246000fd5b60006002820490506001821680620004d157607f821691505b602082108103620004e757620004e662000489565b5b50919050565b60008190508160005260206000209050919050565b60006020601f8301049050919050565b600082821b905092915050565b600060088302620005517fffffffffffffffffffffffffffffffffffffffffffffffffffffffffffffffff8262000512565b6200055d868362000512565b95508019841693508086168417925050509392505050565b6000819050919050565b6000819050919050565b6000620005aa620005a46200059e8462000575565b6200057f565b62000575565b9050919050565b6000819050919050565b620005c68362000589565b620005de620005d582620005b1565b8484546200051f565b825550505050565b600090565b620005f5620005e6565b62000602818484620005bb565b505050565b5b818110156200062a576200061e600082620005eb565b60018101905062000608565b5050565b601f82111562000679576200064381620004ed565b6200064e8462000502565b810160208510156200065e578190505b620006766200066d8562000502565b83018262000607565b50505b505050565b600082821c905092915050565b60006200069e600019846008026200067e565b1980831691505092915050565b6000620006b983836200068b565b9150826002028217905092915050565b620006d4826200044f565b67ffffffffffffffff811115620006f057620006ef6200045a565b5b620006fc8254620004b8565b620007098282856200062e565b600060209050601f8311600181146200074157600084156200072c578287015190505b620007388582620006ab565b865550620007a8565b601f1984166200075186620004ed565b60005b828110156200077b5784890151825560018201915060208501945060208101905062000754565b868310156200079b578489015162000797601f8916826200068b565b8355505b6001600288020188555050505b505050505050565b600081905092915050565b60008190508160005260206000209050919050565b60008154620007df81620004b8565b620007eb8186620007b0565b945060018216600081146200080957600181146200081f5762000856565b60ff198316865281151582028601935062000856565b6200082a85620007bb565b60005b838110156200084e578154818901526001820191506020810190506200082d565b838801955050505b50505092915050565b60006200086d8284620007d0565b915081905092915050565b6000819050919050565b6200088d8162000878565b82525050565b6200089e8162000575565b82525050565b620008af81620003d8565b82525050565b600060a082019050620008cc600083018862000882565b620008db602083018762000882565b620008ea604083018662000882565b620008f9606083018562000893565b620009086080830184620008a4565b9695505050505050565b600082825260208201905092915050565b7f4549503731323a20696e76616c69642074797065206861736800000000000000600082015250565b60006200095b60198362000912565b9150620009688262000923565b602082019050919050565b600060208201905081810360008301526200098e816200094c565b9050919050565b6080516156d8620009b860003960008181611693015261328901526156d86000f3fe6080604052600436106101665760003560e01c80638da5cb5b116100d1578063dc0c81b51161008a578063ee2578ab11610064578063ee2578ab1461052d578063f08204ad1461056d578063f23a6e6114610596578063f2fde38b146105d357610166565b8063dc0c81b5146104b0578063df4c838a146104db578063ecd8dc3a1461050457610166565b80638da5cb5b146103925780639b1d847b146103bd578063c2fb26a6146103fe578063c7977be71461042c578063ce8b56ac14610457578063d6e69a001461047357610166565b806354fd4d501161012357806354fd4d501461029257806357815a68146102bd578063715018a6146102e657806371d68372146102fd578063824c1db51461032857806386fc05ba1461035157610166565b806306fdde031461016b5780630731128314610196578063150b7a02146101d357806320ed0f36146102105780633e05dc4c1461022c5780635300f84114610255575b600080fd5b34801561017757600080fd5b506101806105fc565b60405161018d9190613611565b60405180910390f35b3480156101a257600080fd5b506101bd60048036038101906101b8919061369b565b610635565b6040516101ca91906136e1565b60405180910390f35b3480156101df57600080fd5b506101fa60048036038101906101f5919061378d565b61064d565b6040516102079190613850565b60405180910390f35b61022a600480360381019061022591906138fa565b610723565b005b34801561023857600080fd5b50610253600480360381019061024e91906139dc565b6107c9565b005b34801561026157600080fd5b5061027c6004803603810190610277919061369b565b610878565b6040516102899190613a7f565b60405180910390f35b34801561029e57600080fd5b506102a7610898565b6040516102b49190613611565b60405180910390f35b3480156102c957600080fd5b506102e460048036038101906102df9190613a9a565b6108d1565b005b3480156102f257600080fd5b506102fb610cfd565b005b34801561030957600080fd5b50610312610d11565b60405161031f9190613b06565b60405180910390f35b34801561033457600080fd5b5061034f600480360381019061034a9190613b21565b610d35565b005b34801561035d57600080fd5b5061037860048036038101906103739190613a9a565b6110e4565b604051610389959493929190613baa565b60405180910390f35b34801561039e57600080fd5b506103a7611296565b6040516103b49190613bfd565b60405180910390f35b3480156103c957600080fd5b506103e460048036038101906103df9190613c18565b6112c0565b6040516103f5959493929190613cb2565b60405180910390f35b34801561040a57600080fd5b50610413611321565b6040516104239493929190613d00565b60405180910390f35b34801561043857600080fd5b5061044161146f565b60405161044e9190613b06565b60405180910390f35b610471600480360381019061046c9190613d53565b611493565b005b34801561047f57600080fd5b5061049a60048036038101906104959190613e4a565b61159e565b6040516104a79190613a7f565b60405180910390f35b3480156104bc57600080fd5b506104c5611691565b6040516104d29190613b06565b60405180910390f35b3480156104e757600080fd5b5061050260048036038101906104fd9190613f35565b6116b5565b005b34801561051057600080fd5b5061052b60048036038101906105269190614030565b6117b9565b005b34801561053957600080fd5b50610554600480360381019061054f9190613a9a565b611855565b6040516105649493929190614070565b60405180910390f35b34801561057957600080fd5b50610594600480360381019061058f919061369b565b6118e3565b005b3480156105a257600080fd5b506105bd60048036038101906105b891906140b5565b6119fc565b6040516105ca9190613850565b60405180910390f35b3480156105df57600080fd5b506105fa60048036038101906105f5919061369b565b611b27565b005b6040518060400160405280601181526020017f4c696e6b64726f70457363726f774e465400000000000000000000000000000081525081565b60076020528060005260406000206000915090505481565b60008573ffffffffffffffffffffffffffffffffffffffff163073ffffffffffffffffffffffffffffffffffffffff16036106915763150b7a0260e01b905061071a565b600060749050808484905010156106dd576040517f08c379a00000000000000000000000000000000000000000000000000000000081526004016106d49061419b565b60405180910390fd5b60008060003660006106ef89896112c0565b945094509450945094506107098b33878d88888888611baa565b63150b7a0260e01b96505050505050505b95945050505050565b61072b611e64565b61073b338a8a8a8a8a8a8a611baa565b8873ffffffffffffffffffffffffffffffffffffffff166342842e0e33308a6040518463ffffffff1660e01b8152600401610778939291906141bb565b600060405180830381600087803b15801561079257600080fd5b505af11580156107a6573d6000803e3d6000fd5b505050506107b633898484611eb3565b6107be611f2d565b505050505050505050565b600860003373ffffffffffffffffffffffffffffffffffffffff1673ffffffffffffffffffffffffffffffffffffffff16815260200190815260200160002060009054906101000a900460ff16610855576040517f08c379a000000000000000000000000000000000000000000000000000000000815260040161084c90614264565b60405180910390fd5b6000610862868484611f37565b905061087085858389611fc3565b505050505050565b60086020528060005260406000206000915054906101000a900460ff1681565b6040518060400160405280600381526020017f332e32000000000000000000000000000000000000000000000000000000000081525081565b600860003373ffffffffffffffffffffffffffffffffffffffff1673ffffffffffffffffffffffffffffffffffffffff16815260200190815260200160002060009054906101000a900460ff1661095d576040517f08c379a000000000000000000000000000000000000000000000000000000000815260040161095490614264565b60405180910390fd5b6000600660008573ffffffffffffffffffffffffffffffffffffffff1673ffffffffffffffffffffffffffffffffffffffff16815260200190815260200160002060008473ffffffffffffffffffffffffffffffffffffffff1673ffffffffffffffffffffffffffffffffffffffff16815260200190815260200160002060008373ffffffffffffffffffffffffffffffffffffffff1673ffffffffffffffffffffffffffffffffffffffff168152602001908152602001600020604051806080016040529081600082015481526020016001820160009054906101000a90046fffffffffffffffffffffffffffffffff166fffffffffffffffffffffffffffffffff166fffffffffffffffffffffffffffffffff1681526020016001820160109054906101000a90046effffffffffffffffffffffffffffff166effffffffffffffffffffffffffffff166effffffffffffffffffffffffffffff16815260200160018201601f9054906101000a900460ff1660ff1660ff168152505090506000816020015190506000826060015190506000836000015190506000836fffffffffffffffffffffffffffffffff1611610b4d576040517f08c379a0000000000000000000000000000000000000000000000000000000008152600401610b44906142f6565b60405180910390fd5b600660008873ffffffffffffffffffffffffffffffffffffffff1673ffffffffffffffffffffffffffffffffffffffff16815260200190815260200160002060008773ffffffffffffffffffffffffffffffffffffffff1673ffffffffffffffffffffffffffffffffffffffff16815260200190815260200160002060008673ffffffffffffffffffffffffffffffffffffffff1673ffffffffffffffffffffffffffffffffffffffff1681526020019081526020016000206000808201600090556001820160006101000a8154906fffffffffffffffffffffffffffffffff02191690556001820160106101000a8154906effffffffffffffffffffffffffffff021916905560018201601f6101000a81549060ff02191690555050610c8986888484876fffffffffffffffffffffffffffffffff166123d2565b8573ffffffffffffffffffffffffffffffffffffffff168773ffffffffffffffffffffffffffffffffffffffff167f5938a86ca33c66cb817f2fdc8d5cd4073bfe03e3f6c846c3c91e7d3f6beaae9f87858588604051610cec9493929190614316565b60405180910390a350505050505050565b610d05612682565b610d0f6000612700565b565b7fda3241d4d2732e32f76e33e29a986bf90890ff6cb9b8506b1059fc1f197a34e681565b610d3d611e64565b6000600660003373ffffffffffffffffffffffffffffffffffffffff1673ffffffffffffffffffffffffffffffffffffffff16815260200190815260200160002060008473ffffffffffffffffffffffffffffffffffffffff1673ffffffffffffffffffffffffffffffffffffffff16815260200190815260200160002060008373ffffffffffffffffffffffffffffffffffffffff1673ffffffffffffffffffffffffffffffffffffffff168152602001908152602001600020604051806080016040529081600082015481526020016001820160009054906101000a90046fffffffffffffffffffffffffffffffff166fffffffffffffffffffffffffffffffff166fffffffffffffffffffffffffffffffff1681526020016001820160109054906101000a90046effffffffffffffffffffffffffffff166effffffffffffffffffffffffffffff166effffffffffffffffffffffffffffff16815260200160018201601f9054906101000a900460ff1660ff1660ff168152505090506000816020015190506000826060015190506000836000015190506000836fffffffffffffffffffffffffffffffff1611610f2d576040517f08c379a0000000000000000000000000000000000000000000000000000000008152600401610f24906143cd565b60405180910390fd5b600660003373ffffffffffffffffffffffffffffffffffffffff1673ffffffffffffffffffffffffffffffffffffffff16815260200190815260200160002060008773ffffffffffffffffffffffffffffffffffffffff1673ffffffffffffffffffffffffffffffffffffffff16815260200190815260200160002060008673ffffffffffffffffffffffffffffffffffffffff1673ffffffffffffffffffffffffffffffffffffffff1681526020019081526020016000206000808201600090556001820160006101000a8154906fffffffffffffffffffffffffffffffff02191690556001820160106101000a8154906effffffffffffffffffffffffffffff021916905560018201601f6101000a81549060ff0219169055505061106986338484876fffffffffffffffffffffffffffffffff166123d2565b8573ffffffffffffffffffffffffffffffffffffffff163373ffffffffffffffffffffffffffffffffffffffff167fab3691e99d7a7c44b5bbf42b6113806f3fa641468fdf21dd778892ea680d0486878585886040516110cc9493929190614316565b60405180910390a3505050506110e0611f2d565b5050565b600080600080600080600660008973ffffffffffffffffffffffffffffffffffffffff1673ffffffffffffffffffffffffffffffffffffffff16815260200190815260200160002060008a73ffffffffffffffffffffffffffffffffffffffff1673ffffffffffffffffffffffffffffffffffffffff16815260200190815260200160002060008873ffffffffffffffffffffffffffffffffffffffff1673ffffffffffffffffffffffffffffffffffffffff168152602001908152602001600020604051806080016040529081600082015481526020016001820160009054906101000a90046fffffffffffffffffffffffffffffffff166fffffffffffffffffffffffffffffffff166fffffffffffffffffffffffffffffffff1681526020016001820160109054906101000a90046effffffffffffffffffffffffffffff166effffffffffffffffffffffffffffff166effffffffffffffffffffffffffffff16815260200160018201601f9054906101000a900460ff1660ff1660ff168152505090508881606001518260000151836020015184604001519550955095509550955050939792965093509350565b6000600460009054906101000a900473ffffffffffffffffffffffffffffffffffffffff16905090565b600080600036600086868101906112d7919061442b565b80955081965082975050505086866060898990506112f591906144ad565b90601f8a8a905061130691906144ad565b92611313939291906144eb565b915091509295509295909350565b600080600001805461133290614555565b80601f016020809104026020016040519081016040528092919081815260200182805461135e90614555565b80156113ab5780601f10611380576101008083540402835291602001916113ab565b820191906000526020600020905b81548152906001019060200180831161138e57829003601f168201915b5050505050908060010180546113c090614555565b80601f01602080910402602001604051908101604052809291908181526020018280546113ec90614555565b80156114395780601f1061140e57610100808354040283529160200191611439565b820191906000526020600020905b81548152906001019060200180831161141c57829003601f168201915b5050505050908060020154908060030160009054906101000a900473ffffffffffffffffffffffffffffffffffffffff16905084565b7f8b73c3c69bb8fe3d512ecc4cf759cc79239f7b179b0ffacaa9a75d522b39400f81565b61149b611e64565b6114ac338b8b8b8b8b8b8b8b6127c6565b8973ffffffffffffffffffffffffffffffffffffffff1663f242432a33308b8b6fffffffffffffffffffffffffffffffff16600067ffffffffffffffff8111156114f9576114f8614586565b5b6040519080825280601f01601f19166020018201604052801561152b5781602001600182028036833780820191505090505b506040518663ffffffff1660e01b815260040161154c9594939291906145f9565b600060405180830381600087803b15801561156657600080fd5b505af115801561157a573d6000803e3d6000fd5b5050505061158a338a8484611eb3565b611592611f2d565b50505050505050505050565b6000806115de8c8c8c8c8c8c8c8c6040516020016115c3989796959493929190614728565b60405160208183030381529060405280519060200120612ad4565b905060006116308286868080601f016020809104026020016040519081016040528093929190818152602001838380828437600081840152601f19601f82011690508083019250505050505050612b04565b9050600860008273ffffffffffffffffffffffffffffffffffffffff1673ffffffffffffffffffffffffffffffffffffffff16815260200190815260200160002060009054906101000a900460ff16925050509a9950505050505050505050565b7f000000000000000000000000000000000000000000000000000000000000000081565b600860003373ffffffffffffffffffffffffffffffffffffffff1673ffffffffffffffffffffffffffffffffffffffff16815260200190815260200160002060009054906101000a900460ff16611741576040517f08c379a000000000000000000000000000000000000000000000000000000000815260040161173890614264565b60405180910390fd5b600061174e898686611f37565b9050600061175f8983898787612b2b565b9050806117a1576040517f08c379a00000000000000000000000000000000000000000000000000000000081526004016117989061482c565b60405180910390fd5b6117ad8989898d611fc3565b50505050505050505050565b6117c1612682565b80600860008473ffffffffffffffffffffffffffffffffffffffff1673ffffffffffffffffffffffffffffffffffffffff16815260200190815260200160002060006101000a81548160ff0219169083151502179055507f34e1cf41794bd5b78c6251cacf103835b835d3ad103d8471ae5f3df532ff3112828260405161184992919061484c565b60405180910390a15050565b600660205282600052604060002060205281600052604060002060205280600052604060002060009250925050508060000154908060010160009054906101000a90046fffffffffffffffffffffffffffffffff16908060010160109054906101000a90046effffffffffffffffffffffffffffff169080600101601f9054906101000a900460ff16905084565b6118eb612682565b6000600760008373ffffffffffffffffffffffffffffffffffffffff1673ffffffffffffffffffffffffffffffffffffffff1681526020019081526020016000205490506000600760008473ffffffffffffffffffffffffffffffffffffffff1673ffffffffffffffffffffffffffffffffffffffff1681526020019081526020016000208190555060008073ffffffffffffffffffffffffffffffffffffffff168373ffffffffffffffffffffffffffffffffffffffff16146119ae57600190505b6119bc8333836000866123d2565b7f4f1b51dd7a2fcb861aa2670f668be66835c4ee12b4bbbf037e4d0018f39819e43384846040516119ef939291906141bb565b60405180910390a1505050565b60006fffffffffffffffffffffffffffffffff841115611a51576040517f08c379a0000000000000000000000000000000000000000000000000000000008152600401611a48906148e7565b60405180910390fd5b8673ffffffffffffffffffffffffffffffffffffffff163073ffffffffffffffffffffffffffffffffffffffff1603611a935763f23a6e6160e01b9050611b1d565b60006074905080848490501015611adf576040517f08c379a0000000000000000000000000000000000000000000000000000000008152600401611ad69061419b565b60405180910390fd5b6000806000366000611af189896112c0565b94509450945094509450611b0c8c33878e8e898989896127c6565b63f23a6e6160e01b96505050505050505b9695505050505050565b611b2f612682565b600073ffffffffffffffffffffffffffffffffffffffff168173ffffffffffffffffffffffffffffffffffffffff1603611b9e576040517f08c379a0000000000000000000000000000000000000000000000000000000008152600401611b9590614979565b60405180910390fd5b611ba781612700565b50565b6000611bc08989898960018a60008b8b8b61159e565b905080611c02576040517f08c379a0000000000000000000000000000000000000000000000000000000008152600401611bf990614a0b565b60405180910390fd5b600073ffffffffffffffffffffffffffffffffffffffff168873ffffffffffffffffffffffffffffffffffffffff1603611c71576040517f08c379a0000000000000000000000000000000000000000000000000000000008152600401611c6890614a9d565b60405180910390fd5b6000600660008b73ffffffffffffffffffffffffffffffffffffffff1673ffffffffffffffffffffffffffffffffffffffff16815260200190815260200160002060008a73ffffffffffffffffffffffffffffffffffffffff1673ffffffffffffffffffffffffffffffffffffffff16815260200190815260200160002060008973ffffffffffffffffffffffffffffffffffffffff1673ffffffffffffffffffffffffffffffffffffffff16815260200190815260200160002060010160009054906101000a90046fffffffffffffffffffffffffffffffff166fffffffffffffffffffffffffffffffff1614611d9e576040517f08c379a0000000000000000000000000000000000000000000000000000000008152600401611d9590614b2f565b60405180910390fd5b42856effffffffffffffffffffffffffffff1611611df1576040517f08c379a0000000000000000000000000000000000000000000000000000000008152600401611de890614bc1565b60405180910390fd5b836fffffffffffffffffffffffffffffffff163414611e45576040517f08c379a0000000000000000000000000000000000000000000000000000000008152600401611e3c90614c2d565b60405180910390fd5b611e598989898960018a600260008c612b95565b505050505050505050565b600260055403611ea9576040517f08c379a0000000000000000000000000000000000000000000000000000000008152600401611ea090614c99565b60405180910390fd5b6002600581905550565b6000828290501115611f27578273ffffffffffffffffffffffffffffffffffffffff168473ffffffffffffffffffffffffffffffffffffffff167fd05e6d7e20ccf354b32c5e96d31aabb54e901e6c8c66dbd7b4601f0326a07c738484604051611f1e929190614cb9565b60405180910390a35b50505050565b6001600581905550565b600080611f6985604051602001611f4e9190614cdd565b60405160208183030381529060405280519060200120612ad4565b9050611fb98185858080601f016020809104026020016040519081016040528093929190818152602001838380828437600081840152601f19601f82011690508083019250505050505050612b04565b9150509392505050565b6000600660008673ffffffffffffffffffffffffffffffffffffffff1673ffffffffffffffffffffffffffffffffffffffff16815260200190815260200160002060008573ffffffffffffffffffffffffffffffffffffffff1673ffffffffffffffffffffffffffffffffffffffff16815260200190815260200160002060008473ffffffffffffffffffffffffffffffffffffffff1673ffffffffffffffffffffffffffffffffffffffff168152602001908152602001600020604051806080016040529081600082015481526020016001820160009054906101000a90046fffffffffffffffffffffffffffffffff166fffffffffffffffffffffffffffffffff166fffffffffffffffffffffffffffffffff1681526020016001820160109054906101000a90046effffffffffffffffffffffffffffff166effffffffffffffffffffffffffffff166effffffffffffffffffffffffffffff16815260200160018201601f9054906101000a900460ff1660ff1660ff168152505090506000816020015190506000826060015190506000836000015190506000836fffffffffffffffffffffffffffffffff16116121b3576040517f08c379a00000000000000000000000000000000000000000000000000000000081526004016121aa90614d6a565b60405180910390fd5b83604001516effffffffffffffffffffffffffffff16421061220a576040517f08c379a000000000000000000000000000000000000000000000000000000000815260040161220190614dfc565b60405180910390fd5b600660008973ffffffffffffffffffffffffffffffffffffffff1673ffffffffffffffffffffffffffffffffffffffff16815260200190815260200160002060008873ffffffffffffffffffffffffffffffffffffffff1673ffffffffffffffffffffffffffffffffffffffff16815260200190815260200160002060008773ffffffffffffffffffffffffffffffffffffffff1673ffffffffffffffffffffffffffffffffffffffff1681526020019081526020016000206000808201600090556001820160006101000a8154906fffffffffffffffffffffffffffffffff02191690556001820160106101000a8154906effffffffffffffffffffffffffffff021916905560018201601f6101000a81549060ff0219169055505061234687868484876fffffffffffffffffffffffffffffffff166123d2565b8473ffffffffffffffffffffffffffffffffffffffff168773ffffffffffffffffffffffffffffffffffffffff168973ffffffffffffffffffffffffffffffffffffffff167ff81d021f277085e9e959eecea61062bd1eff62d82edad55732d811abb5e54969898686896040516123c09493929190614316565b60405180910390a45050505050505050565b60048360ff1610612418576040517f08c379a000000000000000000000000000000000000000000000000000000000815260040161240f90614e8e565b60405180910390fd5b60008360ff16036124a157600073ffffffffffffffffffffffffffffffffffffffff168573ffffffffffffffffffffffffffffffffffffffff1614612492576040517f08c379a000000000000000000000000000000000000000000000000000000000815260040161248990614f20565b60405180910390fd5b61249c8482612e23565b61267b565b600073ffffffffffffffffffffffffffffffffffffffff168573ffffffffffffffffffffffffffffffffffffffff1603612510576040517f08c379a000000000000000000000000000000000000000000000000000000000815260040161250790614fb2565b60405180910390fd5b60018360ff160361252b57612526858583612f23565b61267b565b60028360ff16036125aa578473ffffffffffffffffffffffffffffffffffffffff166342842e0e3086856040518463ffffffff1660e01b8152600401612573939291906141bb565b600060405180830381600087803b15801561258d57600080fd5b505af11580156125a1573d6000803e3d6000fd5b5050505061267b565b60038360ff160361267a578473ffffffffffffffffffffffffffffffffffffffff1663f242432a30868585600067ffffffffffffffff8111156125f0576125ef614586565b5b6040519080825280601f01601f1916602001820160405280156126225781602001600182028036833780820191505090505b506040518663ffffffff1660e01b81526004016126439594939291906145f9565b600060405180830381600087803b15801561265d57600080fd5b505af1158015612671573d6000803e3d6000fd5b5050505061267b565b5b5050505050565b61268a613078565b73ffffffffffffffffffffffffffffffffffffffff166126a8611296565b73ffffffffffffffffffffffffffffffffffffffff16146126fe576040517f08c379a00000000000000000000000000000000000000000000000000000000081526004016126f59061501e565b60405180910390fd5b565b6000600460009054906101000a900473ffffffffffffffffffffffffffffffffffffffff16905081600460006101000a81548173ffffffffffffffffffffffffffffffffffffffff021916908373ffffffffffffffffffffffffffffffffffffffff1602179055508173ffffffffffffffffffffffffffffffffffffffff168173ffffffffffffffffffffffffffffffffffffffff167f8be0079c531659141344cd1fd0a4f28419497f9722a3daafe3b4186f6b6457e060405160405180910390a35050565b60006127db8a8a8a8a8a8a60008b8b8b61159e565b90506000866fffffffffffffffffffffffffffffffff1603612832576040517f08c379a00000000000000000000000000000000000000000000000000000000081526004016128299061508a565b60405180910390fd5b80612872576040517f08c379a000000000000000000000000000000000000000000000000000000000815260040161286990614a0b565b60405180910390fd5b600073ffffffffffffffffffffffffffffffffffffffff168973ffffffffffffffffffffffffffffffffffffffff16036128e1576040517f08c379a00000000000000000000000000000000000000000000000000000000081526004016128d890614a9d565b60405180910390fd5b6000600660008c73ffffffffffffffffffffffffffffffffffffffff1673ffffffffffffffffffffffffffffffffffffffff16815260200190815260200160002060008b73ffffffffffffffffffffffffffffffffffffffff1673ffffffffffffffffffffffffffffffffffffffff16815260200190815260200160002060008a73ffffffffffffffffffffffffffffffffffffffff1673ffffffffffffffffffffffffffffffffffffffff16815260200190815260200160002060010160009054906101000a90046fffffffffffffffffffffffffffffffff166fffffffffffffffffffffffffffffffff1614612a0e576040517f08c379a0000000000000000000000000000000000000000000000000000000008152600401612a0590614b2f565b60405180910390fd5b42856effffffffffffffffffffffffffffff1611612a61576040517f08c379a0000000000000000000000000000000000000000000000000000000008152600401612a5890614bc1565b60405180910390fd5b836fffffffffffffffffffffffffffffffff163414612ab5576040517f08c379a0000000000000000000000000000000000000000000000000000000008152600401612aac90614c2d565b60405180910390fd5b612ac88a8a8a8a8a8a600360008c612b95565b50505050505050505050565b600081604051602001612ae79190615122565b604051602081830303815290604052805190602001209050919050565b6000806000612b138585613080565b91509150612b20816130d1565b819250505092915050565b600080612b388686613237565b9050612b89878286868080601f016020809104026020016040519081016040528093929190818152602001838380828437600081840152601f19601f820116905080830192505050505050506132d9565b91505095945050505050565b6040518060800160405280878152602001866fffffffffffffffffffffffffffffffff168152602001856effffffffffffffffffffffffffffff1681526020018460ff16815250600660008b73ffffffffffffffffffffffffffffffffffffffff1673ffffffffffffffffffffffffffffffffffffffff16815260200190815260200160002060008a73ffffffffffffffffffffffffffffffffffffffff1673ffffffffffffffffffffffffffffffffffffffff16815260200190815260200160002060008973ffffffffffffffffffffffffffffffffffffffff1673ffffffffffffffffffffffffffffffffffffffff1681526020019081526020016000206000820151816000015560208201518160010160006101000a8154816fffffffffffffffffffffffffffffffff02191690836fffffffffffffffffffffffffffffffff16021790555060408201518160010160106101000a8154816effffffffffffffffffffffffffffff02191690836effffffffffffffffffffffffffffff160217905550606082015181600101601f6101000a81548160ff021916908360ff160217905550905050806fffffffffffffffffffffffffffffffff16600760008473ffffffffffffffffffffffffffffffffffffffff1673ffffffffffffffffffffffffffffffffffffffff1681526020019081526020016000206000828254612da09190615148565b925050819055508773ffffffffffffffffffffffffffffffffffffffff168973ffffffffffffffffffffffffffffffffffffffff167f1d48f3ec0544fd684c5a9331f70963c5401a4fb089b9475628f52911dce6936e8987878b8b8989604051612e10979695949392919061517c565b60405180910390a3505050505050505050565b60008273ffffffffffffffffffffffffffffffffffffffff1682600067ffffffffffffffff811115612e5857612e57614586565b5b6040519080825280601f01601f191660200182016040528015612e8a5781602001600182028036833780820191505090505b50604051612e989190615227565b60006040518083038185875af1925050503d8060008114612ed5576040519150601f19603f3d011682016040523d82523d6000602084013e612eda565b606091505b5050905080612f1e576040517f08c379a0000000000000000000000000000000000000000000000000000000008152600401612f159061528a565b60405180910390fd5b505050565b6000808473ffffffffffffffffffffffffffffffffffffffff1663a9059cbb60e01b8585604051602401612f589291906152aa565b604051602081830303815290604052907bffffffffffffffffffffffffffffffffffffffffffffffffffffffff19166020820180517bffffffffffffffffffffffffffffffffffffffffffffffffffffffff8381831617835250505050604051612fc29190615227565b6000604051808303816000865af19150503d8060008114612fff576040519150601f19603f3d011682016040523d82523d6000602084013e613004565b606091505b5091509150818015613032575060008151148061303157508080602001905181019061303091906152e8565b5b5b613071576040517f08c379a000000000000000000000000000000000000000000000000000000000815260040161306890615361565b60405180910390fd5b5050505050565b600033905090565b60008060418351036130c15760008060006020860151925060408601519150606086015160001a90506130b58782858561349f565b945094505050506130ca565b60006002915091505b9250929050565b600060048111156130e5576130e4615381565b5b8160048111156130f8576130f7615381565b5b0315613234576001600481111561311257613111615381565b5b81600481111561312557613124615381565b5b03613165576040517f08c379a000000000000000000000000000000000000000000000000000000000815260040161315c906153fc565b60405180910390fd5b6002600481111561317957613178615381565b5b81600481111561318c5761318b615381565b5b036131cc576040517f08c379a00000000000000000000000000000000000000000000000000000000081526004016131c390615468565b60405180910390fd5b600360048111156131e0576131df615381565b5b8160048111156131f3576131f2615381565b5b03613233576040517f08c379a000000000000000000000000000000000000000000000000000000000815260040161322a906154fa565b60405180910390fd5b5b50565b6000807fda3241d4d2732e32f76e33e29a986bf90890ff6cb9b8506b1059fc1f197a34e6848460405160200161326f9392919061551a565b6040516020818303038152906040528051906020012090507f0000000000000000000000000000000000000000000000000000000000000000816040516020016132ba92919061559d565b6040516020818303038152906040528051906020012091505092915050565b60008060006132e88585613080565b9150915060006004811115613300576132ff615381565b5b81600481111561331357613312615381565b5b14801561334b57508573ffffffffffffffffffffffffffffffffffffffff168273ffffffffffffffffffffffffffffffffffffffff16145b1561335b57600192505050613498565b6000808773ffffffffffffffffffffffffffffffffffffffff16631626ba7e60e01b88886040516024016133909291906155d4565b604051602081830303815290604052907bffffffffffffffffffffffffffffffffffffffffffffffffffffffff19166020820180517bffffffffffffffffffffffffffffffffffffffffffffffffffffffff83818316178352505050506040516133fa9190615227565b600060405180830381855afa9150503d8060008114613435576040519150601f19603f3d011682016040523d82523d6000602084013e61343a565b606091505b509150915081801561344d575060208151145b80156134915750631626ba7e60e01b7bffffffffffffffffffffffffffffffffffffffffffffffffffffffff19168180602001905181019061348f9190615630565b145b9450505050505b9392505050565b6000807f7fffffffffffffffffffffffffffffff5d576e7357a4501ddfe92f46681b20a08360001c11156134da576000600391509150613578565b6000600187878787604051600081526020016040526040516134ff949392919061565d565b6020604051602081039080840390855afa158015613521573d6000803e3d6000fd5b505050602060405103519050600073ffffffffffffffffffffffffffffffffffffffff168173ffffffffffffffffffffffffffffffffffffffff160361356f57600060019250925050613578565b80600092509250505b94509492505050565b600081519050919050565b600082825260208201905092915050565b60005b838110156135bb5780820151818401526020810190506135a0565b60008484015250505050565b6000601f19601f8301169050919050565b60006135e382613581565b6135ed818561358c565b93506135fd81856020860161359d565b613606816135c7565b840191505092915050565b6000602082019050818103600083015261362b81846135d8565b905092915050565b600080fd5b600080fd5b600073ffffffffffffffffffffffffffffffffffffffff82169050919050565b60006136688261363d565b9050919050565b6136788161365d565b811461368357600080fd5b50565b6000813590506136958161366f565b92915050565b6000602082840312156136b1576136b0613633565b5b60006136bf84828501613686565b91505092915050565b6000819050919050565b6136db816136c8565b82525050565b60006020820190506136f660008301846136d2565b92915050565b613705816136c8565b811461371057600080fd5b50565b600081359050613722816136fc565b92915050565b600080fd5b600080fd5b600080fd5b60008083601f84011261374d5761374c613728565b5b8235905067ffffffffffffffff81111561376a5761376961372d565b5b60208301915083600182028301111561378657613785613732565b5b9250929050565b6000806000806000608086880312156137a9576137a8613633565b5b60006137b788828901613686565b95505060206137c888828901613686565b94505060406137d988828901613713565b935050606086013567ffffffffffffffff8111156137fa576137f9613638565b5b61380688828901613737565b92509250509295509295909350565b60007fffffffff0000000000000000000000000000000000000000000000000000000082169050919050565b61384a81613815565b82525050565b60006020820190506138656000830184613841565b92915050565b60006effffffffffffffffffffffffffffff82169050919050565b61388f8161386b565b811461389a57600080fd5b50565b6000813590506138ac81613886565b92915050565b60006fffffffffffffffffffffffffffffffff82169050919050565b6138d7816138b2565b81146138e257600080fd5b50565b6000813590506138f4816138ce565b92915050565b600080600080600080600080600060e08a8c03121561391c5761391b613633565b5b600061392a8c828d01613686565b995050602061393b8c828d01613686565b985050604061394c8c828d01613713565b975050606061395d8c828d0161389d565b965050608061396e8c828d016138e5565b95505060a08a013567ffffffffffffffff81111561398f5761398e613638565b5b61399b8c828d01613737565b945094505060c08a013567ffffffffffffffff8111156139be576139bd613638565b5b6139ca8c828d01613737565b92509250509295985092959850929598565b6000806000806000608086880312156139f8576139f7613633565b5b6000613a0688828901613686565b9550506020613a1788828901613686565b9450506040613a2888828901613686565b935050606086013567ffffffffffffffff811115613a4957613a48613638565b5b613a5588828901613737565b92509250509295509295909350565b60008115159050919050565b613a7981613a64565b82525050565b6000602082019050613a946000830184613a70565b92915050565b600080600060608486031215613ab357613ab2613633565b5b6000613ac186828701613686565b9350506020613ad286828701613686565b9250506040613ae386828701613686565b9150509250925092565b6000819050919050565b613b0081613aed565b82525050565b6000602082019050613b1b6000830184613af7565b92915050565b60008060408385031215613b3857613b37613633565b5b6000613b4685828601613686565b9250506020613b5785828601613686565b9150509250929050565b613b6a8161365d565b82525050565b600060ff82169050919050565b613b8681613b70565b82525050565b613b95816138b2565b82525050565b613ba48161386b565b82525050565b600060a082019050613bbf6000830188613b61565b613bcc6020830187613b7d565b613bd960408301866136d2565b613be66060830185613b8c565b613bf36080830184613b9b565b9695505050505050565b6000602082019050613c126000830184613b61565b92915050565b60008060208385031215613c2f57613c2e613633565b5b600083013567ffffffffffffffff811115613c4d57613c4c613638565b5b613c5985828601613737565b92509250509250929050565b600082825260208201905092915050565b82818337600083830152505050565b6000613c918385613c65565b9350613c9e838584613c76565b613ca7836135c7565b840190509392505050565b6000608082019050613cc76000830188613b61565b613cd46020830187613b9b565b613ce16040830186613b8c565b8181036060830152613cf4818486613c85565b90509695505050505050565b60006080820190508181036000830152613d1a81876135d8565b90508181036020830152613d2e81866135d8565b9050613d3d60408301856136d2565b613d4a6060830184613b61565b95945050505050565b6000806000806000806000806000806101008b8d031215613d7757613d76613633565b5b6000613d858d828e01613686565b9a50506020613d968d828e01613686565b9950506040613da78d828e01613713565b9850506060613db88d828e016138e5565b9750506080613dc98d828e0161389d565b96505060a0613dda8d828e016138e5565b95505060c08b013567ffffffffffffffff811115613dfb57613dfa613638565b5b613e078d828e01613737565b945094505060e08b013567ffffffffffffffff811115613e2a57613e29613638565b5b613e368d828e01613737565b92509250509295989b9194979a5092959850565b6000806000806000806000806000806101208b8d031215613e6e57613e6d613633565b5b6000613e7c8d828e01613686565b9a50506020613e8d8d828e01613686565b9950506040613e9e8d828e01613686565b9850506060613eaf8d828e01613713565b9750506080613ec08d828e016138e5565b96505060a0613ed18d828e0161389d565b95505060c0613ee28d828e01613686565b94505060e0613ef38d828e016138e5565b9350506101008b013567ffffffffffffffff811115613f1557613f14613638565b5b613f218d828e01613737565b92509250509295989b9194979a5092959850565b60008060008060008060008060c0898b031215613f5557613f54613633565b5b6000613f638b828c01613686565b9850506020613f748b828c01613686565b9750506040613f858b828c01613686565b9650506060613f968b828c01613686565b955050608089013567ffffffffffffffff811115613fb757613fb6613638565b5b613fc38b828c01613737565b945094505060a089013567ffffffffffffffff811115613fe657613fe5613638565b5b613ff28b828c01613737565b92509250509295985092959890939650565b61400d81613a64565b811461401857600080fd5b50565b60008135905061402a81614004565b92915050565b6000806040838503121561404757614046613633565b5b600061405585828601613686565b92505060206140668582860161401b565b9150509250929050565b600060808201905061408560008301876136d2565b6140926020830186613b8c565b61409f6040830185613b9b565b6140ac6060830184613b7d565b95945050505050565b60008060008060008060a087890312156140d2576140d1613633565b5b60006140e089828a01613686565b96505060206140f189828a01613686565b955050604061410289828a01613713565b945050606061411389828a01613713565b935050608087013567ffffffffffffffff81111561413457614133613638565b5b61414089828a01613737565b92509250509295509295509295565b7f44617461206c656e67746820697320696e73756666696369656e740000000000600082015250565b6000614185601b8361358c565b91506141908261414f565b602082019050919050565b600060208201905081810360008301526141b481614178565b9050919050565b60006060820190506141d06000830186613b61565b6141dd6020830185613b61565b6141ea60408301846136d2565b949350505050565b7f4c696e6b64726f70457363726f773a206d73672e73656e646572206973206e6f60008201527f742072656c617965722e00000000000000000000000000000000000000000000602082015250565b600061424e602a8361358c565b9150614259826141f2565b604082019050919050565b6000602082019050818103600083015261427d81614241565b9050919050565b7f4c696e6b64726f70457363726f773a20696e76616c6964207472616e7366657260008201527f2049440000000000000000000000000000000000000000000000000000000000602082015250565b60006142e060238361358c565b91506142eb82614284565b604082019050919050565b6000602082019050818103600083015261430f816142d3565b9050919050565b600060808201905061432b6000830187613b61565b6143386020830186613b7d565b61434560408301856136d2565b6143526060830184613b8c565b95945050505050565b7f4c696e6b64726f70457363726f773a204465706f736974206e6f7420666f756e60008201527f6400000000000000000000000000000000000000000000000000000000000000602082015250565b60006143b760218361358c565b91506143c28261435b565b604082019050919050565b600060208201905081810360008301526143e6816143aa565b9050919050565b60006143f88261363d565b9050919050565b614408816143ed565b811461441357600080fd5b50565b600081359050614425816143ff565b92915050565b60008060006060848603121561444457614443613633565b5b600061445286828701614416565b93505060206144638682870161389d565b9250506040614474868287016138e5565b9150509250925092565b7f4e487b7100000000000000000000000000000000000000000000000000000000600052601160045260246000fd5b60006144b8826136c8565b91506144c3836136c8565b92508282039050818111156144db576144da61447e565b5b92915050565b600080fd5b600080fd5b600080858511156144ff576144fe6144e1565b5b838611156145105761450f6144e6565b5b6001850283019150848603905094509492505050565b7f4e487b7100000000000000000000000000000000000000000000000000000000600052602260045260246000fd5b6000600282049050600182168061456d57607f821691505b6020821081036145805761457f614526565b5b50919050565b7f4e487b7100000000000000000000000000000000000000000000000000000000600052604160045260246000fd5b600081519050919050565b60006145cb826145b5565b6145d58185613c65565b93506145e581856020860161359d565b6145ee816135c7565b840191505092915050565b600060a08201905061460e6000830188613b61565b61461b6020830187613b61565b61462860408301866136d2565b61463560608301856136d2565b818103608083015261464781846145c0565b90509695505050505050565b60008160601b9050919050565b600061466b82614653565b9050919050565b600061467d82614660565b9050919050565b6146956146908261365d565b614672565b82525050565b6000819050919050565b6146b66146b1826136c8565b61469b565b82525050565b60008160801b9050919050565b60006146d4826146bc565b9050919050565b6146ec6146e7826138b2565b6146c9565b82525050565b60008160881b9050919050565b600061470a826146f2565b9050919050565b61472261471d8261386b565b6146ff565b82525050565b6000614734828b614684565b601482019150614744828a614684565b6014820191506147548289614684565b60148201915061476482886146a5565b60208201915061477482876146db565b6010820191506147848286614711565b600f820191506147948285614684565b6014820191506147a482846146db565b6010820191508190509998505050505050505050565b7f4c696e6b64726f70457363726f773a20696e76616c69642073656e646572207360008201527f69676e6174757265000000000000000000000000000000000000000000000000602082015250565b600061481660288361358c565b9150614821826147ba565b604082019050919050565b6000602082019050818103600083015261484581614809565b9050919050565b60006040820190506148616000830185613b61565b61486e6020830184613a70565b9392505050565b7f616d6f756e742065786365656473206d6178696d756d20616c6c6f776564207660008201527f616c756520666f722075696e7431323800000000000000000000000000000000602082015250565b60006148d160308361358c565b91506148dc82614875565b604082019050919050565b60006020820190508181036000830152614900816148c4565b9050919050565b7f4f776e61626c653a206e6577206f776e657220697320746865207a65726f206160008201527f6464726573730000000000000000000000000000000000000000000000000000602082015250565b600061496360268361358c565b915061496e82614907565b604082019050919050565b6000602082019050818103600083015261499281614956565b9050919050565b7f4c696e6b64726f70457363726f773a2046656573206e6f7420617574686f726960008201527f7a65642e00000000000000000000000000000000000000000000000000000000602082015250565b60006149f560248361358c565b9150614a0082614999565b604082019050919050565b60006020820190508181036000830152614a24816149e8565b9050919050565b7f4c696e6b64726f70457363726f773a2063616e2774206265206164647265737360008201527f283029206173206120746f6b656e2e0000000000000000000000000000000000602082015250565b6000614a87602f8361358c565b9150614a9282614a2b565b604082019050919050565b60006020820190508181036000830152614ab681614a7a565b9050919050565b7f4c696e6b64726f70457363726f773a207472616e73666572496420697320696e60008201527f207573652e000000000000000000000000000000000000000000000000000000602082015250565b6000614b1960258361358c565b9150614b2482614abd565b604082019050919050565b60006020820190508181036000830152614b4881614b0c565b9050919050565b7f4c696e6b64726f70457363726f773a206465706f736974696e6720776974682060008201527f696e76616c69642065787069726174696f6e2e00000000000000000000000000602082015250565b6000614bab60338361358c565b9150614bb682614b4f565b604082019050919050565b60006020820190508181036000830152614bda81614b9e565b9050919050565b7f4c696e6b64726f70457363726f773a20666565206e6f7420636f76657265642e600082015250565b6000614c1760208361358c565b9150614c2282614be1565b602082019050919050565b60006020820190508181036000830152614c4681614c0a565b9050919050565b7f5265656e7472616e637947756172643a207265656e7472616e742063616c6c00600082015250565b6000614c83601f8361358c565b9150614c8e82614c4d565b602082019050919050565b60006020820190508181036000830152614cb281614c76565b9050919050565b60006020820190508181036000830152614cd4818486613c85565b90509392505050565b6000614ce98284614684565b60148201915081905092915050565b7f4c696e6b64726f70457363726f773a20696e76616c69642072656465656d207060008201527f6172616d73000000000000000000000000000000000000000000000000000000602082015250565b6000614d5460258361358c565b9150614d5f82614cf8565b604082019050919050565b60006020820190508181036000830152614d8381614d47565b9050919050565b7f4c696e6b64726f70457363726f773a207472616e73666572206578706972656460008201527f2e00000000000000000000000000000000000000000000000000000000000000602082015250565b6000614de660218361358c565b9150614df182614d8a565b604082019050919050565b60006020820190508181036000830152614e1581614dd9565b9050919050565b7f4c696e6b64726f70457363726f773a20756e6b6e6f776e20746f6b656e20747960008201527f7065000000000000000000000000000000000000000000000000000000000000602082015250565b6000614e7860228361358c565b9150614e8382614e1c565b604082019050919050565b60006020820190508181036000830152614ea781614e6b565b9050919050565b7f4c696e6b64726f70457363726f773a20616464726573732073686f756c64206260008201527f65203020666f7220455448207472616e73666572730000000000000000000000602082015250565b6000614f0a60358361358c565b9150614f1582614eae565b604082019050919050565b60006020820190508181036000830152614f3981614efd565b9050919050565b7f4c696e6b64726f70457363726f773a20746f6b656e2061646472657373206e6f60008201527f742070726f766964656420746f206d616b65207472616e736665720000000000602082015250565b6000614f9c603b8361358c565b9150614fa782614f40565b604082019050919050565b60006020820190508181036000830152614fcb81614f8f565b9050919050565b7f4f776e61626c653a2063616c6c6572206973206e6f7420746865206f776e6572600082015250565b600061500860208361358c565b915061501382614fd2565b602082019050919050565b6000602082019050818103600083015261503781614ffb565b9050919050565b7f416d6f756e74206973206e6f742070726f766964656400000000000000000000600082015250565b600061507460168361358c565b915061507f8261503e565b602082019050919050565b600060208201905081810360008301526150a381615067565b9050919050565b600081905092915050565b7f19457468657265756d205369676e6564204d6573736167653a0a333200000000600082015250565b60006150eb601c836150aa565b91506150f6826150b5565b601c82019050919050565b6000819050919050565b61511c61511782613aed565b615101565b82525050565b600061512d826150de565b9150615139828461510b565b60208201915081905092915050565b6000615153826136c8565b915061515e836136c8565b92508282019050808211156151765761517561447e565b5b92915050565b600060e082019050615191600083018a613b61565b61519e6020830189613b9b565b6151ab6040830188613b7d565b6151b860608301876136d2565b6151c56080830186613b8c565b6151d260a0830185613b61565b6151df60c0830184613b8c565b98975050505050505050565b600081905092915050565b6000615201826145b5565b61520b81856151eb565b935061521b81856020860161359d565b80840191505092915050565b600061523382846151f6565b915081905092915050565b7f5354450000000000000000000000000000000000000000000000000000000000600082015250565b600061527460038361358c565b915061527f8261523e565b602082019050919050565b600060208201905081810360008301526152a381615267565b9050919050565b60006040820190506152bf6000830185613b61565b6152cc60208301846136d2565b9392505050565b6000815190506152e281614004565b92915050565b6000602082840312156152fe576152fd613633565b5b600061530c848285016152d3565b91505092915050565b7f5354000000000000000000000000000000000000000000000000000000000000600082015250565b600061534b60028361358c565b915061535682615315565b602082019050919050565b6000602082019050818103600083015261537a8161533e565b9050919050565b7f4e487b7100000000000000000000000000000000000000000000000000000000600052602160045260246000fd5b7f45434453413a20696e76616c6964207369676e61747572650000000000000000600082015250565b60006153e660188361358c565b91506153f1826153b0565b602082019050919050565b60006020820190508181036000830152615415816153d9565b9050919050565b7f45434453413a20696e76616c6964207369676e6174757265206c656e67746800600082015250565b6000615452601f8361358c565b915061545d8261541c565b602082019050919050565b6000602082019050818103600083015261548181615445565b9050919050565b7f45434453413a20696e76616c6964207369676e6174757265202773272076616c60008201527f7565000000000000000000000000000000000000000000000000000000000000602082015250565b60006154e460228361358c565b91506154ef82615488565b604082019050919050565b60006020820190508181036000830152615513816154d7565b9050919050565b600060608201905061552f6000830186613af7565b61553c6020830185613b61565b6155496040830184613b61565b949350505050565b7f1901000000000000000000000000000000000000000000000000000000000000600082015250565b60006155876002836150aa565b915061559282615551565b600282019050919050565b60006155a88261557a565b91506155b4828561510b565b6020820191506155c4828461510b565b6020820191508190509392505050565b60006040820190506155e96000830185613af7565b81810360208301526155fb81846145c0565b90509392505050565b61560d81613aed565b811461561857600080fd5b50565b60008151905061562a81615604565b92915050565b60006020828403121561564657615645613633565b5b60006156548482850161561b565b91505092915050565b60006080820190506156726000830187613af7565b61567f6020830186613b7d565b61568c6040830185613af7565b6156996060830184613af7565b9594505050505056fea2646970667358221220c16ef504a1eb743ff5e6c4c275e48d49195feefe930847e2328b40865286844464736f6c63430008110033",
  "linkReferences": {},
  "deployedLinkReferences": {}
}