{
  "_format": "hh-sol-artifact-1",
  "contractName": "LinkdropEscrow",
  "sourceName": "contracts/LinkdropEscrow.sol",
  "abi": [
    {
      "inputs": [
        {
          "internalType": "address",
          "name": "relayer_",
          "type": "address"
        }
      ],
      "stateMutability": "nonpayable",
      "type": "constructor"
    },
    {
      "anonymous": false,
      "inputs": [
        {
          "indexed": true,
          "internalType": "address",
          "name": "sender",
          "type": "address"
        },
        {
          "indexed": true,
          "internalType": "address",
          "name": "token",
          "type": "address"
        },
        {
          "indexed": false,
          "internalType": "address",
          "name": "transferId",
          "type": "address"
        },
        {
          "indexed": false,
          "internalType": "uint8",
          "name": "tokenType",
          "type": "uint8"
        },
        {
          "indexed": false,
          "internalType": "uint256",
          "name": "tokenId",
          "type": "uint256"
        },
        {
          "indexed": false,
          "internalType": "uint128",
          "name": "amount",
          "type": "uint128"
        }
      ],
      "name": "Cancel",
      "type": "event"
    },
    {
      "anonymous": false,
      "inputs": [
        {
          "indexed": true,
          "internalType": "address",
          "name": "sender",
          "type": "address"
        },
        {
          "indexed": true,
          "internalType": "address",
          "name": "token",
          "type": "address"
        },
        {
          "indexed": false,
          "internalType": "address",
          "name": "transferId",
          "type": "address"
        },
        {
          "indexed": false,
          "internalType": "uint120",
          "name": "expiration",
          "type": "uint120"
        },
        {
          "indexed": false,
          "internalType": "uint8",
          "name": "tokenType",
          "type": "uint8"
        },
        {
          "indexed": false,
          "internalType": "uint256",
          "name": "tokenId",
          "type": "uint256"
        },
        {
          "indexed": false,
          "internalType": "uint128",
          "name": "amount",
          "type": "uint128"
        },
        {
          "indexed": false,
          "internalType": "address",
          "name": "feeToken",
          "type": "address"
        },
        {
          "indexed": false,
          "internalType": "uint128",
          "name": "fee",
          "type": "uint128"
        }
      ],
      "name": "Deposit",
      "type": "event"
    },
    {
      "anonymous": false,
      "inputs": [
        {
          "indexed": true,
          "internalType": "address",
          "name": "previousOwner",
          "type": "address"
        },
        {
          "indexed": true,
          "internalType": "address",
          "name": "newOwner",
          "type": "address"
        }
      ],
      "name": "OwnershipTransferred",
      "type": "event"
    },
    {
      "anonymous": false,
      "inputs": [
        {
          "indexed": true,
          "internalType": "address",
          "name": "sender",
          "type": "address"
        },
        {
          "indexed": true,
          "internalType": "address",
          "name": "token",
          "type": "address"
        },
        {
          "indexed": true,
          "internalType": "address",
          "name": "receiver",
          "type": "address"
        },
        {
          "indexed": false,
          "internalType": "address",
          "name": "transferId",
          "type": "address"
        },
        {
          "indexed": false,
          "internalType": "uint8",
          "name": "tokenType",
          "type": "uint8"
        },
        {
          "indexed": false,
          "internalType": "uint256",
          "name": "tokenId",
          "type": "uint256"
        },
        {
          "indexed": false,
          "internalType": "uint128",
          "name": "amount",
          "type": "uint128"
        }
      ],
      "name": "Redeem",
      "type": "event"
    },
    {
      "anonymous": false,
      "inputs": [
        {
          "indexed": true,
          "internalType": "address",
          "name": "sender",
          "type": "address"
        },
        {
          "indexed": true,
          "internalType": "address",
          "name": "token",
          "type": "address"
        },
        {
          "indexed": false,
          "internalType": "address",
          "name": "transferId",
          "type": "address"
        },
        {
          "indexed": false,
          "internalType": "uint8",
          "name": "tokenType",
          "type": "uint8"
        },
        {
          "indexed": false,
          "internalType": "uint256",
          "name": "tokenId",
          "type": "uint256"
        },
        {
          "indexed": false,
          "internalType": "uint128",
          "name": "amount",
          "type": "uint128"
        }
      ],
      "name": "Refund",
      "type": "event"
    },
    {
      "anonymous": false,
      "inputs": [
        {
          "indexed": true,
          "internalType": "address",
          "name": "sender",
          "type": "address"
        },
        {
          "indexed": true,
          "internalType": "address",
          "name": "transferId",
          "type": "address"
        },
        {
          "indexed": false,
          "internalType": "bytes",
          "name": "senderMessage",
          "type": "bytes"
        }
      ],
      "name": "SenderMessage",
      "type": "event"
    },
    {
      "anonymous": false,
      "inputs": [
        {
          "indexed": false,
          "internalType": "uint128",
          "name": "claimFee",
          "type": "uint128"
        },
        {
          "indexed": false,
          "internalType": "uint128",
          "name": "depositFee",
          "type": "uint128"
        }
      ],
      "name": "UpdateFees",
      "type": "event"
    },
    {
      "anonymous": false,
      "inputs": [
        {
          "indexed": false,
          "internalType": "address",
          "name": "relayer",
          "type": "address"
        },
        {
          "indexed": false,
          "internalType": "bool",
          "name": "active",
          "type": "bool"
        }
      ],
      "name": "UpdateRelayer",
      "type": "event"
    },
    {
      "anonymous": false,
      "inputs": [
        {
          "indexed": false,
          "internalType": "address",
          "name": "feeReceiver",
          "type": "address"
        },
        {
          "indexed": false,
          "internalType": "address",
          "name": "token_",
          "type": "address"
        },
        {
          "indexed": false,
          "internalType": "uint256",
          "name": "amount",
          "type": "uint256"
        }
      ],
      "name": "WithdrawFees",
      "type": "event"
    },
    {
      "inputs": [],
      "name": "EIP712_DOMAIN_TYPEHASH",
      "outputs": [
        {
          "internalType": "bytes32",
          "name": "",
          "type": "bytes32"
        }
      ],
      "stateMutability": "view",
      "type": "function"
    },
    {
      "inputs": [],
      "name": "_DOMAIN_SEPARATOR",
      "outputs": [
        {
          "internalType": "bytes32",
          "name": "",
          "type": "bytes32"
        }
      ],
      "stateMutability": "view",
      "type": "function"
    },
    {
      "inputs": [],
      "name": "_TRANSFER_TYPE_HASH",
      "outputs": [
        {
          "internalType": "bytes32",
          "name": "",
          "type": "bytes32"
        }
      ],
      "stateMutability": "view",
      "type": "function"
    },
    {
      "inputs": [
        {
          "internalType": "address",
          "name": "",
          "type": "address"
        }
      ],
      "name": "accruedFees",
      "outputs": [
        {
          "internalType": "uint256",
          "name": "",
          "type": "uint256"
        }
      ],
      "stateMutability": "view",
      "type": "function"
    },
    {
      "inputs": [
        {
          "internalType": "address",
          "name": "token_",
          "type": "address"
        },
        {
          "internalType": "address",
          "name": "transferId_",
          "type": "address"
        }
      ],
      "name": "cancel",
      "outputs": [],
      "stateMutability": "nonpayable",
      "type": "function"
    },
    {
      "inputs": [
        {
          "internalType": "address",
          "name": "token_",
          "type": "address"
        },
        {
          "internalType": "address",
          "name": "transferId_",
          "type": "address"
        },
        {
          "internalType": "uint128",
          "name": "amount_",
          "type": "uint128"
        },
        {
          "internalType": "uint120",
          "name": "expiration_",
          "type": "uint120"
        },
        {
          "internalType": "address",
          "name": "feeToken_",
          "type": "address"
        },
        {
          "internalType": "uint128",
          "name": "feeAmount_",
          "type": "uint128"
        },
        {
          "internalType": "bytes",
          "name": "feeAuthorization_",
          "type": "bytes"
        },
        {
          "internalType": "bytes",
          "name": "senderMessage_",
          "type": "bytes"
        }
      ],
      "name": "deposit",
      "outputs": [],
      "stateMutability": "payable",
      "type": "function"
    },
    {
      "inputs": [
        {
          "internalType": "address",
          "name": "transferId_",
          "type": "address"
        },
        {
          "internalType": "uint128",
          "name": "amount_",
          "type": "uint128"
        },
        {
          "internalType": "uint120",
          "name": "expiration_",
          "type": "uint120"
        },
        {
          "internalType": "uint128",
          "name": "feeAmount_",
          "type": "uint128"
        },
        {
          "internalType": "bytes",
          "name": "feeAuthorization_",
          "type": "bytes"
        },
        {
          "internalType": "bytes",
          "name": "senderMessage_",
          "type": "bytes"
        }
      ],
      "name": "depositETH",
      "outputs": [],
      "stateMutability": "payable",
      "type": "function"
    },
    {
      "inputs": [
        {
          "internalType": "address",
          "name": "token_",
          "type": "address"
        },
        {
          "internalType": "address",
          "name": "transferId_",
          "type": "address"
        },
        {
          "internalType": "uint120",
          "name": "expiration_",
          "type": "uint120"
        },
        {
          "internalType": "bytes4",
          "name": "authSelector_",
          "type": "bytes4"
        },
        {
          "internalType": "uint128",
          "name": "fee_",
          "type": "uint128"
        },
        {
          "internalType": "bytes",
          "name": "receiveAuthorization_",
          "type": "bytes"
        },
        {
          "internalType": "bytes",
          "name": "senderMessage_",
          "type": "bytes"
        }
      ],
      "name": "depositWithAuthorization",
      "outputs": [],
      "stateMutability": "nonpayable",
      "type": "function"
    },
    {
      "inputs": [
        {
          "internalType": "address",
          "name": "",
          "type": "address"
        },
        {
          "internalType": "address",
          "name": "",
          "type": "address"
        },
        {
          "internalType": "address",
          "name": "",
          "type": "address"
        }
      ],
      "name": "deposits",
      "outputs": [
        {
          "internalType": "uint256",
          "name": "tokenId",
          "type": "uint256"
        },
        {
          "internalType": "uint128",
          "name": "amount",
          "type": "uint128"
        },
        {
          "internalType": "uint120",
          "name": "expiration",
          "type": "uint120"
        },
        {
          "internalType": "uint8",
          "name": "tokenType",
          "type": "uint8"
        }
      ],
      "stateMutability": "view",
      "type": "function"
    },
    {
      "inputs": [],
      "name": "domain",
      "outputs": [
        {
          "internalType": "string",
          "name": "name",
          "type": "string"
        },
        {
          "internalType": "string",
          "name": "version",
          "type": "string"
        },
        {
          "internalType": "uint256",
          "name": "chainId",
          "type": "uint256"
        },
        {
          "internalType": "address",
          "name": "verifyingContract",
          "type": "address"
        }
      ],
      "stateMutability": "view",
      "type": "function"
    },
    {
      "inputs": [
        {
          "internalType": "address",
          "name": "token_",
          "type": "address"
        },
        {
          "internalType": "address",
          "name": "sender_",
          "type": "address"
        },
        {
          "internalType": "address",
          "name": "transferId_",
          "type": "address"
        }
      ],
      "name": "getDeposit",
      "outputs": [
        {
          "internalType": "address",
          "name": "token",
          "type": "address"
        },
        {
          "internalType": "uint8",
          "name": "tokenType",
          "type": "uint8"
        },
        {
          "internalType": "uint256",
          "name": "tokenId",
          "type": "uint256"
        },
        {
          "internalType": "uint128",
          "name": "amount",
          "type": "uint128"
        },
        {
          "internalType": "uint120",
          "name": "expiration",
          "type": "uint120"
        }
      ],
      "stateMutability": "view",
      "type": "function"
    },
    {
      "inputs": [],
      "name": "name",
      "outputs": [
        {
          "internalType": "string",
          "name": "",
          "type": "string"
        }
      ],
      "stateMutability": "view",
      "type": "function"
    },
    {
      "inputs": [],
      "name": "owner",
      "outputs": [
        {
          "internalType": "address",
          "name": "",
          "type": "address"
        }
      ],
      "stateMutability": "view",
      "type": "function"
    },
    {
      "inputs": [
        {
          "internalType": "address",
          "name": "receiver_",
          "type": "address"
        },
        {
          "internalType": "address",
          "name": "sender_",
          "type": "address"
        },
        {
          "internalType": "address",
          "name": "token_",
          "type": "address"
        },
        {
          "internalType": "bytes",
          "name": "receiverSig_",
          "type": "bytes"
        }
      ],
      "name": "redeem",
      "outputs": [],
      "stateMutability": "nonpayable",
      "type": "function"
    },
    {
      "inputs": [
        {
          "internalType": "address",
          "name": "receiver_",
          "type": "address"
        },
        {
          "internalType": "address",
          "name": "sender_",
          "type": "address"
        },
        {
          "internalType": "address",
          "name": "token_",
          "type": "address"
        },
        {
          "internalType": "address",
          "name": "transferId_",
          "type": "address"
        },
        {
          "internalType": "bytes",
          "name": "receiverSig_",
          "type": "bytes"
        },
        {
          "internalType": "bytes",
          "name": "senderSig_",
          "type": "bytes"
        }
      ],
      "name": "redeemRecovered",
      "outputs": [],
      "stateMutability": "nonpayable",
      "type": "function"
    },
    {
      "inputs": [
        {
          "internalType": "address",
          "name": "sender_",
          "type": "address"
        },
        {
          "internalType": "address",
          "name": "token_",
          "type": "address"
        },
        {
          "internalType": "address",
          "name": "transferId_",
          "type": "address"
        }
      ],
      "name": "refund",
      "outputs": [],
      "stateMutability": "nonpayable",
      "type": "function"
    },
    {
      "inputs": [
        {
          "internalType": "address",
          "name": "",
          "type": "address"
        }
      ],
      "name": "relayers",
      "outputs": [
        {
          "internalType": "bool",
          "name": "",
          "type": "bool"
        }
      ],
      "stateMutability": "view",
      "type": "function"
    },
    {
      "inputs": [],
      "name": "renounceOwnership",
      "outputs": [],
      "stateMutability": "nonpayable",
      "type": "function"
    },
    {
      "inputs": [
        {
          "internalType": "address",
          "name": "relayer_",
          "type": "address"
        },
        {
          "internalType": "bool",
          "name": "active_",
          "type": "bool"
        }
      ],
      "name": "setRelayer",
      "outputs": [],
      "stateMutability": "nonpayable",
      "type": "function"
    },
    {
      "inputs": [
        {
          "internalType": "address",
          "name": "newOwner",
          "type": "address"
        }
      ],
      "name": "transferOwnership",
      "outputs": [],
      "stateMutability": "nonpayable",
      "type": "function"
    },
    {
      "inputs": [
        {
          "internalType": "address",
          "name": "sender_",
          "type": "address"
        },
        {
          "internalType": "address",
          "name": "token_",
          "type": "address"
        },
        {
          "internalType": "address",
          "name": "transferId_",
          "type": "address"
        },
        {
          "internalType": "uint256",
          "name": "tokenId_",
          "type": "uint256"
        },
        {
          "internalType": "uint128",
          "name": "amount_",
          "type": "uint128"
        },
        {
          "internalType": "uint120",
          "name": "expiration_",
          "type": "uint120"
        },
        {
          "internalType": "address",
          "name": "feeToken_",
          "type": "address"
        },
        {
          "internalType": "uint128",
          "name": "feeAmount_",
          "type": "uint128"
        },
        {
          "internalType": "bytes",
          "name": "feeAuthorization_",
          "type": "bytes"
        }
      ],
      "name": "verifyFeeAuthorization",
      "outputs": [
        {
          "internalType": "bool",
          "name": "isValid",
          "type": "bool"
        }
      ],
      "stateMutability": "view",
      "type": "function"
    },
    {
      "inputs": [],
      "name": "version",
      "outputs": [
        {
          "internalType": "string",
          "name": "",
          "type": "string"
        }
      ],
      "stateMutability": "view",
      "type": "function"
    },
    {
      "inputs": [
        {
          "internalType": "address",
          "name": "token_",
          "type": "address"
        }
      ],
      "name": "withdrawAccruedFees",
      "outputs": [],
      "stateMutability": "nonpayable",
      "type": "function"
    }
  ],
  "bytecode": "0x60a06040523480156200001157600080fd5b50604051620069763803806200697683398181016040528101906200003791906200041d565b6040518060400160405280600e81526020017f4c696e6b64726f70457363726f770000000000000000000000000000000000008152506040518060400160405280600381526020017f332e320000000000000000000000000000000000000000000000000000000000815250600046905060405180608001604052808481526020018381526020018281526020013073ffffffffffffffffffffffffffffffffffffffff16815250600080820151816000019081620000f79190620006c9565b5060208201518160010190816200010f9190620006c9565b506040820151816002015560608201518160030160006101000a81548173ffffffffffffffffffffffffffffffffffffffff021916908373ffffffffffffffffffffffffffffffffffffffff1602179055509050507f8b73c3c69bb8fe3d512ecc4cf759cc79239f7b179b0ffacaa9a75d522b39400f600080016040516200019891906200085f565b60405180910390206000600101604051620001b491906200085f565b604051809103902060006002015430604051602001620001d9959493929190620008b5565b60405160208183030381529060405280519060200120608081815250507fda3241d4d2732e32f76e33e29a986bf90890ff6cb9b8506b1059fc1f197a34e680146200025b576040517f08c379a0000000000000000000000000000000000000000000000000000000008152600401620002529062000973565b60405180910390fd5b5050506200027e62000272620002e560201b60201c565b620002ed60201b60201c565b60016005819055506001600860008373ffffffffffffffffffffffffffffffffffffffff1673ffffffffffffffffffffffffffffffffffffffff16815260200190815260200160002060006101000a81548160ff0219169083151502179055505062000995565b600033905090565b6000600460009054906101000a900473ffffffffffffffffffffffffffffffffffffffff16905081600460006101000a81548173ffffffffffffffffffffffffffffffffffffffff021916908373ffffffffffffffffffffffffffffffffffffffff1602179055508173ffffffffffffffffffffffffffffffffffffffff168173ffffffffffffffffffffffffffffffffffffffff167f8be0079c531659141344cd1fd0a4f28419497f9722a3daafe3b4186f6b6457e060405160405180910390a35050565b600080fd5b600073ffffffffffffffffffffffffffffffffffffffff82169050919050565b6000620003e582620003b8565b9050919050565b620003f781620003d8565b81146200040357600080fd5b50565b6000815190506200041781620003ec565b92915050565b600060208284031215620004365762000435620003b3565b5b6000620004468482850162000406565b91505092915050565b600081519050919050565b7f4e487b7100000000000000000000000000000000000000000000000000000000600052604160045260246000fd5b7f4e487b7100000000000000000000000000000000000000000000000000000000600052602260045260246000fd5b60006002820490506001821680620004d157607f821691505b602082108103620004e757620004e662000489565b5b50919050565b60008190508160005260206000209050919050565b60006020601f8301049050919050565b600082821b905092915050565b600060088302620005517fffffffffffffffffffffffffffffffffffffffffffffffffffffffffffffffff8262000512565b6200055d868362000512565b95508019841693508086168417925050509392505050565b6000819050919050565b6000819050919050565b6000620005aa620005a46200059e8462000575565b6200057f565b62000575565b9050919050565b6000819050919050565b620005c68362000589565b620005de620005d582620005b1565b8484546200051f565b825550505050565b600090565b620005f5620005e6565b62000602818484620005bb565b505050565b5b818110156200062a576200061e600082620005eb565b60018101905062000608565b5050565b601f82111562000679576200064381620004ed565b6200064e8462000502565b810160208510156200065e578190505b620006766200066d8562000502565b83018262000607565b50505b505050565b600082821c905092915050565b60006200069e600019846008026200067e565b1980831691505092915050565b6000620006b983836200068b565b9150826002028217905092915050565b620006d4826200044f565b67ffffffffffffffff811115620006f057620006ef6200045a565b5b620006fc8254620004b8565b620007098282856200062e565b600060209050601f8311600181146200074157600084156200072c578287015190505b620007388582620006ab565b865550620007a8565b601f1984166200075186620004ed565b60005b828110156200077b5784890151825560018201915060208501945060208101905062000754565b868310156200079b578489015162000797601f8916826200068b565b8355505b6001600288020188555050505b505050505050565b600081905092915050565b60008190508160005260206000209050919050565b60008154620007df81620004b8565b620007eb8186620007b0565b945060018216600081146200080957600181146200081f5762000856565b60ff198316865281151582028601935062000856565b6200082a85620007bb565b60005b838110156200084e578154818901526001820191506020810190506200082d565b838801955050505b50505092915050565b60006200086d8284620007d0565b915081905092915050565b6000819050919050565b6200088d8162000878565b82525050565b6200089e8162000575565b82525050565b620008af81620003d8565b82525050565b600060a082019050620008cc600083018862000882565b620008db602083018762000882565b620008ea604083018662000882565b620008f9606083018562000893565b620009086080830184620008a4565b9695505050505050565b600082825260208201905092915050565b7f4549503731323a20696e76616c69642074797065206861736800000000000000600082015250565b60006200095b60198362000912565b9150620009688262000923565b602082019050919050565b600060208201905081810360008301526200098e816200094c565b9050919050565b608051615fbe620009b8600039600081816118c401526136e90152615fbe6000f3fe6080604052600436106101405760003560e01c806386fc05ba116100b6578063dc0c81b51161006f578063dc0c81b514610435578063df4c838a14610460578063ecd8dc3a14610489578063ee2578ab146104b2578063f08204ad146104f2578063f2fde38b1461051b57610140565b806386fc05ba146103175780638da5cb5b1461035857806397663e1914610383578063c2fb26a61461039f578063c7977be7146103cd578063d6e69a00146103f857610140565b806354fd4d501161010857806354fd4d501461023c57806357815a681461026757806365abb5e114610290578063715018a6146102ac57806371d68372146102c3578063824c1db5146102ee57610140565b8063012d8c6a1461014557806306fdde031461016e57806307311283146101995780633e05dc4c146101d65780635300f841146101ff575b600080fd5b34801561015157600080fd5b5061016c60048036038101906101679190613b95565b610544565b005b34801561017a57600080fd5b506101836106d5565b6040516101909190613d07565b60405180910390f35b3480156101a557600080fd5b506101c060048036038101906101bb9190613d29565b61070e565b6040516101cd9190613d6f565b60405180910390f35b3480156101e257600080fd5b506101fd60048036038101906101f89190613d8a565b610726565b005b34801561020b57600080fd5b5061022660048036038101906102219190613d29565b6107d5565b6040516102339190613e2d565b60405180910390f35b34801561024857600080fd5b506102516107f5565b60405161025e9190613d07565b60405180910390f35b34801561027357600080fd5b5061028e60048036038101906102899190613e48565b61082e565b005b6102aa60048036038101906102a59190613e9b565b610c5a565b005b3480156102b857600080fd5b506102c1610dbe565b005b3480156102cf57600080fd5b506102d8610dd2565b6040516102e59190613fab565b60405180910390f35b3480156102fa57600080fd5b5061031560048036038101906103109190613fc6565b610df6565b005b34801561032357600080fd5b5061033e60048036038101906103399190613e48565b6111a5565b60405161034f95949392919061404f565b60405180910390f35b34801561036457600080fd5b5061036d611357565b60405161037a91906140a2565b60405180910390f35b61039d600480360381019061039891906140bd565b611381565b005b3480156103ab57600080fd5b506103b461165d565b6040516103c4949392919061418c565b60405180910390f35b3480156103d957600080fd5b506103e26117ab565b6040516103ef9190613fab565b60405180910390f35b34801561040457600080fd5b5061041f600480360381019061041a919061420b565b6117cf565b60405161042c9190613e2d565b60405180910390f35b34801561044157600080fd5b5061044a6118c2565b6040516104579190613fab565b60405180910390f35b34801561046c57600080fd5b50610487600480360381019061048291906142f6565b6118e6565b005b34801561049557600080fd5b506104b060048036038101906104ab91906143f1565b6119ea565b005b3480156104be57600080fd5b506104d960048036038101906104d49190613e48565b611a86565b6040516104e99493929190614431565b60405180910390f35b3480156104fe57600080fd5b5061051960048036038101906105149190613d29565b611b14565b005b34801561052757600080fd5b50610542600480360381019061053d9190613d29565b611c2d565b005b600860003373ffffffffffffffffffffffffffffffffffffffff1673ffffffffffffffffffffffffffffffffffffffff16815260200190815260200160002060009054906101000a900460ff166105d0576040517f08c379a00000000000000000000000000000000000000000000000000000000081526004016105c7906144e8565b60405180910390fd5b63e1560fd360e01b867bffffffffffffffffffffffffffffffffffffffffffffffffffffffff19161480610629575063ef55bec660e01b867bffffffffffffffffffffffffffffffffffffffffffffffffffffffff1916145b8061065957506388b7ab6360e01b867bffffffffffffffffffffffffffffffffffffffffffffffffffffffff1916145b610698576040517f08c379a000000000000000000000000000000000000000000000000000000000815260040161068f90614554565b60405180910390fd5b6000806106aa8b8b8a89898e8d611cb0565b915091506106bc828c8c848d8c611eeb565b6106c8828b86866121ac565b5050505050505050505050565b6040518060400160405280600e81526020017f4c696e6b64726f70457363726f7700000000000000000000000000000000000081525081565b60076020528060005260406000206000915090505481565b600860003373ffffffffffffffffffffffffffffffffffffffff1673ffffffffffffffffffffffffffffffffffffffff16815260200190815260200160002060009054906101000a900460ff166107b2576040517f08c379a00000000000000000000000000000000000000000000000000000000081526004016107a9906144e8565b60405180910390fd5b60006107bf868484612226565b90506107cd858583896122b2565b505050505050565b60086020528060005260406000206000915054906101000a900460ff1681565b6040518060400160405280600381526020017f332e32000000000000000000000000000000000000000000000000000000000081525081565b600860003373ffffffffffffffffffffffffffffffffffffffff1673ffffffffffffffffffffffffffffffffffffffff16815260200190815260200160002060009054906101000a900460ff166108ba576040517f08c379a00000000000000000000000000000000000000000000000000000000081526004016108b1906144e8565b60405180910390fd5b6000600660008573ffffffffffffffffffffffffffffffffffffffff1673ffffffffffffffffffffffffffffffffffffffff16815260200190815260200160002060008473ffffffffffffffffffffffffffffffffffffffff1673ffffffffffffffffffffffffffffffffffffffff16815260200190815260200160002060008373ffffffffffffffffffffffffffffffffffffffff1673ffffffffffffffffffffffffffffffffffffffff168152602001908152602001600020604051806080016040529081600082015481526020016001820160009054906101000a90046fffffffffffffffffffffffffffffffff166fffffffffffffffffffffffffffffffff166fffffffffffffffffffffffffffffffff1681526020016001820160109054906101000a90046effffffffffffffffffffffffffffff166effffffffffffffffffffffffffffff166effffffffffffffffffffffffffffff16815260200160018201601f9054906101000a900460ff1660ff1660ff168152505090506000816020015190506000826060015190506000836000015190506000836fffffffffffffffffffffffffffffffff1611610aaa576040517f08c379a0000000000000000000000000000000000000000000000000000000008152600401610aa1906145e6565b60405180910390fd5b600660008873ffffffffffffffffffffffffffffffffffffffff1673ffffffffffffffffffffffffffffffffffffffff16815260200190815260200160002060008773ffffffffffffffffffffffffffffffffffffffff1673ffffffffffffffffffffffffffffffffffffffff16815260200190815260200160002060008673ffffffffffffffffffffffffffffffffffffffff1673ffffffffffffffffffffffffffffffffffffffff1681526020019081526020016000206000808201600090556001820160006101000a8154906fffffffffffffffffffffffffffffffff02191690556001820160106101000a8154906effffffffffffffffffffffffffffff021916905560018201601f6101000a81549060ff02191690555050610be686888484876fffffffffffffffffffffffffffffffff166126c1565b8573ffffffffffffffffffffffffffffffffffffffff168773ffffffffffffffffffffffffffffffffffffffff167f5938a86ca33c66cb817f2fdc8d5cd4073bfe03e3f6c846c3c91e7d3f6beaae9f87858588604051610c499493929190614606565b60405180910390a350505050505050565b610c62612971565b6000610c77338c8c60008d8d8d8d8d8d6117cf565b905080610cb9576040517f08c379a0000000000000000000000000000000000000000000000000000000008152600401610cb0906146bd565b60405180910390fd5b600073ffffffffffffffffffffffffffffffffffffffff168b73ffffffffffffffffffffffffffffffffffffffff1603610d28576040517f08c379a0000000000000000000000000000000000000000000000000000000008152600401610d1f9061474f565b60405180910390fd5b610d468b33308c6fffffffffffffffffffffffffffffffff166129c0565b610d52338b85856121ac565b8a73ffffffffffffffffffffffffffffffffffffffff168773ffffffffffffffffffffffffffffffffffffffff1603610d9957610d93338c8c8c8c8b611eeb565b50610daa565b610da8338c8c8c8c8c8c612b18565b505b610db2612de6565b50505050505050505050565b610dc6612df0565b610dd06000612e6e565b565b7fda3241d4d2732e32f76e33e29a986bf90890ff6cb9b8506b1059fc1f197a34e681565b610dfe612971565b6000600660003373ffffffffffffffffffffffffffffffffffffffff1673ffffffffffffffffffffffffffffffffffffffff16815260200190815260200160002060008473ffffffffffffffffffffffffffffffffffffffff1673ffffffffffffffffffffffffffffffffffffffff16815260200190815260200160002060008373ffffffffffffffffffffffffffffffffffffffff1673ffffffffffffffffffffffffffffffffffffffff168152602001908152602001600020604051806080016040529081600082015481526020016001820160009054906101000a90046fffffffffffffffffffffffffffffffff166fffffffffffffffffffffffffffffffff166fffffffffffffffffffffffffffffffff1681526020016001820160109054906101000a90046effffffffffffffffffffffffffffff166effffffffffffffffffffffffffffff166effffffffffffffffffffffffffffff16815260200160018201601f9054906101000a900460ff1660ff1660ff168152505090506000816020015190506000826060015190506000836000015190506000836fffffffffffffffffffffffffffffffff1611610fee576040517f08c379a0000000000000000000000000000000000000000000000000000000008152600401610fe5906147e1565b60405180910390fd5b600660003373ffffffffffffffffffffffffffffffffffffffff1673ffffffffffffffffffffffffffffffffffffffff16815260200190815260200160002060008773ffffffffffffffffffffffffffffffffffffffff1673ffffffffffffffffffffffffffffffffffffffff16815260200190815260200160002060008673ffffffffffffffffffffffffffffffffffffffff1673ffffffffffffffffffffffffffffffffffffffff1681526020019081526020016000206000808201600090556001820160006101000a8154906fffffffffffffffffffffffffffffffff02191690556001820160106101000a8154906effffffffffffffffffffffffffffff021916905560018201601f6101000a81549060ff0219169055505061112a86338484876fffffffffffffffffffffffffffffffff166126c1565b8573ffffffffffffffffffffffffffffffffffffffff163373ffffffffffffffffffffffffffffffffffffffff167fab3691e99d7a7c44b5bbf42b6113806f3fa641468fdf21dd778892ea680d04868785858860405161118d9493929190614606565b60405180910390a3505050506111a1612de6565b5050565b600080600080600080600660008973ffffffffffffffffffffffffffffffffffffffff1673ffffffffffffffffffffffffffffffffffffffff16815260200190815260200160002060008a73ffffffffffffffffffffffffffffffffffffffff1673ffffffffffffffffffffffffffffffffffffffff16815260200190815260200160002060008873ffffffffffffffffffffffffffffffffffffffff1673ffffffffffffffffffffffffffffffffffffffff168152602001908152602001600020604051806080016040529081600082015481526020016001820160009054906101000a90046fffffffffffffffffffffffffffffffff166fffffffffffffffffffffffffffffffff166fffffffffffffffffffffffffffffffff1681526020016001820160109054906101000a90046effffffffffffffffffffffffffffff166effffffffffffffffffffffffffffff166effffffffffffffffffffffffffffff16815260200160018201601f9054906101000a900460ff1660ff1660ff168152505090508881606001518260000151836020015184604001519550955095509550955050939792965093509350565b6000600460009054906101000a900473ffffffffffffffffffffffffffffffffffffffff16905090565b611389612971565b60006113a03360008b60008c8c60008d8d8d6117cf565b9050806113e2576040517f08c379a00000000000000000000000000000000000000000000000000000000081526004016113d99061484d565b60405180910390fd5b6000600660003373ffffffffffffffffffffffffffffffffffffffff1673ffffffffffffffffffffffffffffffffffffffff16815260200190815260200160002060008073ffffffffffffffffffffffffffffffffffffffff1673ffffffffffffffffffffffffffffffffffffffff16815260200190815260200160002060008b73ffffffffffffffffffffffffffffffffffffffff1673ffffffffffffffffffffffffffffffffffffffff16815260200190815260200160002060010160009054906101000a90046fffffffffffffffffffffffffffffffff166fffffffffffffffffffffffffffffffff161461150f576040517f08c379a0000000000000000000000000000000000000000000000000000000008152600401611506906148df565b60405180910390fd5b42876effffffffffffffffffffffffffffff1611611562576040517f08c379a000000000000000000000000000000000000000000000000000000000815260040161155990614971565b60405180910390fd5b876fffffffffffffffffffffffffffffffff1634146115b6576040517f08c379a00000000000000000000000000000000000000000000000000000000081526004016115ad90614a03565b60405180910390fd5b856fffffffffffffffffffffffffffffffff16886fffffffffffffffffffffffffffffffff161161161c576040517f08c379a000000000000000000000000000000000000000000000000000000000815260040161161390614a95565b60405180910390fd5b85886116289190614ae4565b975061163e3360008b60008c8c6000808e612f34565b61164a338a85856121ac565b50611653612de6565b5050505050505050565b600080600001805461166e90614b57565b80601f016020809104026020016040519081016040528092919081815260200182805461169a90614b57565b80156116e75780601f106116bc576101008083540402835291602001916116e7565b820191906000526020600020905b8154815290600101906020018083116116ca57829003601f168201915b5050505050908060010180546116fc90614b57565b80601f016020809104026020016040519081016040528092919081815260200182805461172890614b57565b80156117755780601f1061174a57610100808354040283529160200191611775565b820191906000526020600020905b81548152906001019060200180831161175857829003601f168201915b5050505050908060020154908060030160009054906101000a900473ffffffffffffffffffffffffffffffffffffffff16905084565b7f8b73c3c69bb8fe3d512ecc4cf759cc79239f7b179b0ffacaa9a75d522b39400f81565b60008061180f8c8c8c8c8c8c8c8c6040516020016117f4989796959493929190614c5d565b604051602081830303815290604052805190602001206131c2565b905060006118618286868080601f016020809104026020016040519081016040528093929190818152602001838380828437600081840152601f19601f820116905080830192505050505050506131f2565b9050600860008273ffffffffffffffffffffffffffffffffffffffff1673ffffffffffffffffffffffffffffffffffffffff16815260200190815260200160002060009054906101000a900460ff16925050509a9950505050505050505050565b7f000000000000000000000000000000000000000000000000000000000000000081565b600860003373ffffffffffffffffffffffffffffffffffffffff1673ffffffffffffffffffffffffffffffffffffffff16815260200190815260200160002060009054906101000a900460ff16611972576040517f08c379a0000000000000000000000000000000000000000000000000000000008152600401611969906144e8565b60405180910390fd5b600061197f898686612226565b905060006119908983898787613219565b9050806119d2576040517f08c379a00000000000000000000000000000000000000000000000000000000081526004016119c990614d61565b60405180910390fd5b6119de8989898d6122b2565b50505050505050505050565b6119f2612df0565b80600860008473ffffffffffffffffffffffffffffffffffffffff1673ffffffffffffffffffffffffffffffffffffffff16815260200190815260200160002060006101000a81548160ff0219169083151502179055507f34e1cf41794bd5b78c6251cacf103835b835d3ad103d8471ae5f3df532ff31128282604051611a7a929190614d81565b60405180910390a15050565b600660205282600052604060002060205281600052604060002060205280600052604060002060009250925050508060000154908060010160009054906101000a90046fffffffffffffffffffffffffffffffff16908060010160109054906101000a90046effffffffffffffffffffffffffffff169080600101601f9054906101000a900460ff16905084565b611b1c612df0565b6000600760008373ffffffffffffffffffffffffffffffffffffffff1673ffffffffffffffffffffffffffffffffffffffff1681526020019081526020016000205490506000600760008473ffffffffffffffffffffffffffffffffffffffff1673ffffffffffffffffffffffffffffffffffffffff1681526020019081526020016000208190555060008073ffffffffffffffffffffffffffffffffffffffff168373ffffffffffffffffffffffffffffffffffffffff1614611bdf57600190505b611bed8333836000866126c1565b7f4f1b51dd7a2fcb861aa2670f668be66835c4ee12b4bbbf037e4d0018f39819e4338484604051611c2093929190614daa565b60405180910390a1505050565b611c35612df0565b600073ffffffffffffffffffffffffffffffffffffffff168173ffffffffffffffffffffffffffffffffffffffff1603611ca4576040517f08c379a0000000000000000000000000000000000000000000000000000000008152600401611c9b90614e53565b60405180910390fd5b611cad81612e6e565b50565b600080600080600080898960009060c092611ccd93929190614e7d565b810190611cda9190614f22565b809650819750829850839a50849950859b505050505050503073ffffffffffffffffffffffffffffffffffffffff168473ffffffffffffffffffffffffffffffffffffffff1614611d60576040517f08c379a0000000000000000000000000000000000000000000000000000000008152600401611d5790615021565b60405180910390fd5b80868d878b8b604051602001611d7a959493929190615041565b6040516020818303038152906040528051906020012014611dd0576040517f08c379a0000000000000000000000000000000000000000000000000000000008152600401611dc7906150ec565b60405180910390fd5b60008d73ffffffffffffffffffffffffffffffffffffffff168c8c8c604051602001611dfe9392919061516c565b604051602081830303815290604052604051611e1a91906151d2565b6000604051808303816000865af19150503d8060008114611e57576040519150601f19603f3d011682016040523d82523d6000602084013e611e5c565b606091505b5050905080611ea0576040517f08c379a0000000000000000000000000000000000000000000000000000000008152600401611e9790615235565b60405180910390fd5b63e1560fd360e01b8c7bffffffffffffffffffffffffffffffffffffffffffffffffffffffff191603611eda57611ed98e8830896129c0565b5b505050505097509795505050505050565b6000600660008873ffffffffffffffffffffffffffffffffffffffff1673ffffffffffffffffffffffffffffffffffffffff16815260200190815260200160002060008773ffffffffffffffffffffffffffffffffffffffff1673ffffffffffffffffffffffffffffffffffffffff16815260200190815260200160002060008673ffffffffffffffffffffffffffffffffffffffff1673ffffffffffffffffffffffffffffffffffffffff16815260200190815260200160002060010160009054906101000a90046fffffffffffffffffffffffffffffffff166fffffffffffffffffffffffffffffffff1614612018576040517f08c379a000000000000000000000000000000000000000000000000000000000815260040161200f906148df565b60405180910390fd5b42826effffffffffffffffffffffffffffff161161206b576040517f08c379a000000000000000000000000000000000000000000000000000000000815260040161206290614971565b60405180910390fd5b600073ffffffffffffffffffffffffffffffffffffffff168573ffffffffffffffffffffffffffffffffffffffff16036120da576040517f08c379a00000000000000000000000000000000000000000000000000000000081526004016120d1906152c7565b60405180910390fd5b806fffffffffffffffffffffffffffffffff16836fffffffffffffffffffffffffffffffff1611612140576040517f08c379a000000000000000000000000000000000000000000000000000000000815260040161213790614a95565b60405180910390fd5b60003414612183576040517f08c379a000000000000000000000000000000000000000000000000000000000815260040161217a90615359565b60405180910390fd5b808361218f9190614ae4565b92506121a48686866000878760018c89612f34565b505050505050565b6000828290501115612220578273ffffffffffffffffffffffffffffffffffffffff168473ffffffffffffffffffffffffffffffffffffffff167fd05e6d7e20ccf354b32c5e96d31aabb54e901e6c8c66dbd7b4601f0326a07c7384846040516122179291906153b7565b60405180910390a35b50505050565b6000806122588560405160200161223d91906153db565b604051602081830303815290604052805190602001206131c2565b90506122a88185858080601f016020809104026020016040519081016040528093929190818152602001838380828437600081840152601f19601f820116905080830192505050505050506131f2565b9150509392505050565b6000600660008673ffffffffffffffffffffffffffffffffffffffff1673ffffffffffffffffffffffffffffffffffffffff16815260200190815260200160002060008573ffffffffffffffffffffffffffffffffffffffff1673ffffffffffffffffffffffffffffffffffffffff16815260200190815260200160002060008473ffffffffffffffffffffffffffffffffffffffff1673ffffffffffffffffffffffffffffffffffffffff168152602001908152602001600020604051806080016040529081600082015481526020016001820160009054906101000a90046fffffffffffffffffffffffffffffffff166fffffffffffffffffffffffffffffffff166fffffffffffffffffffffffffffffffff1681526020016001820160109054906101000a90046effffffffffffffffffffffffffffff166effffffffffffffffffffffffffffff166effffffffffffffffffffffffffffff16815260200160018201601f9054906101000a900460ff1660ff1660ff168152505090506000816020015190506000826060015190506000836000015190506000836fffffffffffffffffffffffffffffffff16116124a2576040517f08c379a000000000000000000000000000000000000000000000000000000000815260040161249990615468565b60405180910390fd5b83604001516effffffffffffffffffffffffffffff1642106124f9576040517f08c379a00000000000000000000000000000000000000000000000000000000081526004016124f0906154fa565b60405180910390fd5b600660008973ffffffffffffffffffffffffffffffffffffffff1673ffffffffffffffffffffffffffffffffffffffff16815260200190815260200160002060008873ffffffffffffffffffffffffffffffffffffffff1673ffffffffffffffffffffffffffffffffffffffff16815260200190815260200160002060008773ffffffffffffffffffffffffffffffffffffffff1673ffffffffffffffffffffffffffffffffffffffff1681526020019081526020016000206000808201600090556001820160006101000a8154906fffffffffffffffffffffffffffffffff02191690556001820160106101000a8154906effffffffffffffffffffffffffffff021916905560018201601f6101000a81549060ff0219169055505061263587868484876fffffffffffffffffffffffffffffffff166126c1565b8473ffffffffffffffffffffffffffffffffffffffff168773ffffffffffffffffffffffffffffffffffffffff168973ffffffffffffffffffffffffffffffffffffffff167ff81d021f277085e9e959eecea61062bd1eff62d82edad55732d811abb5e54969898686896040516126af9493929190614606565b60405180910390a45050505050505050565b60048360ff1610612707576040517f08c379a00000000000000000000000000000000000000000000000000000000081526004016126fe9061558c565b60405180910390fd5b60008360ff160361279057600073ffffffffffffffffffffffffffffffffffffffff168573ffffffffffffffffffffffffffffffffffffffff1614612781576040517f08c379a00000000000000000000000000000000000000000000000000000000081526004016127789061561e565b60405180910390fd5b61278b8482613283565b61296a565b600073ffffffffffffffffffffffffffffffffffffffff168573ffffffffffffffffffffffffffffffffffffffff16036127ff576040517f08c379a00000000000000000000000000000000000000000000000000000000081526004016127f6906156b0565b60405180910390fd5b60018360ff160361281a57612815858583613383565b61296a565b60028360ff1603612899578473ffffffffffffffffffffffffffffffffffffffff166342842e0e3086856040518463ffffffff1660e01b815260040161286293929190614daa565b600060405180830381600087803b15801561287c57600080fd5b505af1158015612890573d6000803e3d6000fd5b5050505061296a565b60038360ff1603612969578473ffffffffffffffffffffffffffffffffffffffff1663f242432a30868585600067ffffffffffffffff8111156128df576128de6156d0565b5b6040519080825280601f01601f1916602001820160405280156129115781602001600182028036833780820191505090505b506040518663ffffffff1660e01b8152600401612932959493929190615738565b600060405180830381600087803b15801561294c57600080fd5b505af1158015612960573d6000803e3d6000fd5b5050505061296a565b5b5050505050565b6002600554036129b6576040517f08c379a00000000000000000000000000000000000000000000000000000000081526004016129ad906157de565b60405180910390fd5b6002600581905550565b6000808573ffffffffffffffffffffffffffffffffffffffff166323b872dd60e01b8686866040516024016129f793929190614daa565b604051602081830303815290604052907bffffffffffffffffffffffffffffffffffffffffffffffffffffffff19166020820180517bffffffffffffffffffffffffffffffffffffffffffffffffffffffff8381831617835250505050604051612a6191906151d2565b6000604051808303816000865af19150503d8060008114612a9e576040519150601f19603f3d011682016040523d82523d6000602084013e612aa3565b606091505b5091509150818015612ad15750600081511480612ad0575080806020019051810190612acf9190615813565b5b5b612b10576040517f08c379a0000000000000000000000000000000000000000000000000000000008152600401612b079061588c565b60405180910390fd5b505050505050565b6000600660008973ffffffffffffffffffffffffffffffffffffffff1673ffffffffffffffffffffffffffffffffffffffff16815260200190815260200160002060008873ffffffffffffffffffffffffffffffffffffffff1673ffffffffffffffffffffffffffffffffffffffff16815260200190815260200160002060008773ffffffffffffffffffffffffffffffffffffffff1673ffffffffffffffffffffffffffffffffffffffff16815260200190815260200160002060010160009054906101000a90046fffffffffffffffffffffffffffffffff166fffffffffffffffffffffffffffffffff1614612c45576040517f08c379a0000000000000000000000000000000000000000000000000000000008152600401612c3c906148df565b60405180910390fd5b42836effffffffffffffffffffffffffffff1611612c98576040517f08c379a0000000000000000000000000000000000000000000000000000000008152600401612c8f90614971565b60405180910390fd5b600073ffffffffffffffffffffffffffffffffffffffff168273ffffffffffffffffffffffffffffffffffffffff1614612d07576040517f08c379a0000000000000000000000000000000000000000000000000000000008152600401612cfe90615944565b60405180910390fd5b600073ffffffffffffffffffffffffffffffffffffffff168673ffffffffffffffffffffffffffffffffffffffff1603612d76576040517f08c379a0000000000000000000000000000000000000000000000000000000008152600401612d6d906152c7565b60405180910390fd5b806fffffffffffffffffffffffffffffffff163414612dca576040517f08c379a0000000000000000000000000000000000000000000000000000000008152600401612dc1906159b0565b60405180910390fd5b612ddd8787876000888860018989612f34565b50505050505050565b6001600581905550565b612df86134d8565b73ffffffffffffffffffffffffffffffffffffffff16612e16611357565b73ffffffffffffffffffffffffffffffffffffffff1614612e6c576040517f08c379a0000000000000000000000000000000000000000000000000000000008152600401612e6390615a1c565b60405180910390fd5b565b6000600460009054906101000a900473ffffffffffffffffffffffffffffffffffffffff16905081600460006101000a81548173ffffffffffffffffffffffffffffffffffffffff021916908373ffffffffffffffffffffffffffffffffffffffff1602179055508173ffffffffffffffffffffffffffffffffffffffff168173ffffffffffffffffffffffffffffffffffffffff167f8be0079c531659141344cd1fd0a4f28419497f9722a3daafe3b4186f6b6457e060405160405180910390a35050565b6040518060800160405280878152602001866fffffffffffffffffffffffffffffffff168152602001856effffffffffffffffffffffffffffff1681526020018460ff16815250600660008b73ffffffffffffffffffffffffffffffffffffffff1673ffffffffffffffffffffffffffffffffffffffff16815260200190815260200160002060008a73ffffffffffffffffffffffffffffffffffffffff1673ffffffffffffffffffffffffffffffffffffffff16815260200190815260200160002060008973ffffffffffffffffffffffffffffffffffffffff1673ffffffffffffffffffffffffffffffffffffffff1681526020019081526020016000206000820151816000015560208201518160010160006101000a8154816fffffffffffffffffffffffffffffffff02191690836fffffffffffffffffffffffffffffffff16021790555060408201518160010160106101000a8154816effffffffffffffffffffffffffffff02191690836effffffffffffffffffffffffffffff160217905550606082015181600101601f6101000a81548160ff021916908360ff160217905550905050806fffffffffffffffffffffffffffffffff16600760008473ffffffffffffffffffffffffffffffffffffffff1673ffffffffffffffffffffffffffffffffffffffff168152602001908152602001600020600082825461313f9190615a3c565b925050819055508773ffffffffffffffffffffffffffffffffffffffff168973ffffffffffffffffffffffffffffffffffffffff167f1d48f3ec0544fd684c5a9331f70963c5401a4fb089b9475628f52911dce6936e8987878b8b89896040516131af9796959493929190615a70565b60405180910390a3505050505050505050565b6000816040516020016131d59190615b57565b604051602081830303815290604052805190602001209050919050565b600080600061320185856134e0565b9150915061320e81613531565b819250505092915050565b6000806132268686613697565b9050613277878286868080601f016020809104026020016040519081016040528093929190818152602001838380828437600081840152601f19601f82011690508083019250505050505050613739565b91505095945050505050565b60008273ffffffffffffffffffffffffffffffffffffffff1682600067ffffffffffffffff8111156132b8576132b76156d0565b5b6040519080825280601f01601f1916602001820160405280156132ea5781602001600182028036833780820191505090505b506040516132f891906151d2565b60006040518083038185875af1925050503d8060008114613335576040519150601f19603f3d011682016040523d82523d6000602084013e61333a565b606091505b505090508061337e576040517f08c379a000000000000000000000000000000000000000000000000000000000815260040161337590615bc9565b60405180910390fd5b505050565b6000808473ffffffffffffffffffffffffffffffffffffffff1663a9059cbb60e01b85856040516024016133b8929190615be9565b604051602081830303815290604052907bffffffffffffffffffffffffffffffffffffffffffffffffffffffff19166020820180517bffffffffffffffffffffffffffffffffffffffffffffffffffffffff838183161783525050505060405161342291906151d2565b6000604051808303816000865af19150503d806000811461345f576040519150601f19603f3d011682016040523d82523d6000602084013e613464565b606091505b509150915081801561349257506000815114806134915750808060200190518101906134909190615813565b5b5b6134d1576040517f08c379a00000000000000000000000000000000000000000000000000000000081526004016134c890615c5e565b60405180910390fd5b5050505050565b600033905090565b60008060418351036135215760008060006020860151925060408601519150606086015160001a9050613515878285856138ff565b9450945050505061352a565b60006002915091505b9250929050565b6000600481111561354557613544615c7e565b5b81600481111561355857613557615c7e565b5b0315613694576001600481111561357257613571615c7e565b5b81600481111561358557613584615c7e565b5b036135c5576040517f08c379a00000000000000000000000000000000000000000000000000000000081526004016135bc90615cf9565b60405180910390fd5b600260048111156135d9576135d8615c7e565b5b8160048111156135ec576135eb615c7e565b5b0361362c576040517f08c379a000000000000000000000000000000000000000000000000000000000815260040161362390615d65565b60405180910390fd5b600360048111156136405761363f615c7e565b5b81600481111561365357613652615c7e565b5b03613693576040517f08c379a000000000000000000000000000000000000000000000000000000000815260040161368a90615df7565b60405180910390fd5b5b50565b6000807fda3241d4d2732e32f76e33e29a986bf90890ff6cb9b8506b1059fc1f197a34e684846040516020016136cf93929190615e17565b6040516020818303038152906040528051906020012090507f00000000000000000000000000000000000000000000000000000000000000008160405160200161371a929190615e9a565b6040516020818303038152906040528051906020012091505092915050565b600080600061374885856134e0565b91509150600060048111156137605761375f615c7e565b5b81600481111561377357613772615c7e565b5b1480156137ab57508573ffffffffffffffffffffffffffffffffffffffff168273ffffffffffffffffffffffffffffffffffffffff16145b156137bb576001925050506138f8565b6000808773ffffffffffffffffffffffffffffffffffffffff16631626ba7e60e01b88886040516024016137f0929190615ed1565b604051602081830303815290604052907bffffffffffffffffffffffffffffffffffffffffffffffffffffffff19166020820180517bffffffffffffffffffffffffffffffffffffffffffffffffffffffff838183161783525050505060405161385a91906151d2565b600060405180830381855afa9150503d8060008114613895576040519150601f19603f3d011682016040523d82523d6000602084013e61389a565b606091505b50915091508180156138ad575060208151145b80156138f15750631626ba7e60e01b7bffffffffffffffffffffffffffffffffffffffffffffffffffffffff1916818060200190518101906138ef9190615f16565b145b9450505050505b9392505050565b6000807f7fffffffffffffffffffffffffffffff5d576e7357a4501ddfe92f46681b20a08360001c111561393a5760006003915091506139d8565b60006001878787876040516000815260200160405260405161395f9493929190615f43565b6020604051602081039080840390855afa158015613981573d6000803e3d6000fd5b505050602060405103519050600073ffffffffffffffffffffffffffffffffffffffff168173ffffffffffffffffffffffffffffffffffffffff16036139cf576000600192509250506139d8565b80600092509250505b94509492505050565b600080fd5b600080fd5b600073ffffffffffffffffffffffffffffffffffffffff82169050919050565b6000613a16826139eb565b9050919050565b613a2681613a0b565b8114613a3157600080fd5b50565b600081359050613a4381613a1d565b92915050565b60006effffffffffffffffffffffffffffff82169050919050565b613a6d81613a49565b8114613a7857600080fd5b50565b600081359050613a8a81613a64565b92915050565b60007fffffffff0000000000000000000000000000000000000000000000000000000082169050919050565b613ac581613a90565b8114613ad057600080fd5b50565b600081359050613ae281613abc565b92915050565b60006fffffffffffffffffffffffffffffffff82169050919050565b613b0d81613ae8565b8114613b1857600080fd5b50565b600081359050613b2a81613b04565b92915050565b600080fd5b600080fd5b600080fd5b60008083601f840112613b5557613b54613b30565b5b8235905067ffffffffffffffff811115613b7257613b71613b35565b5b602083019150836001820283011115613b8e57613b8d613b3a565b5b9250929050565b600080600080600080600080600060e08a8c031215613bb757613bb66139e1565b5b6000613bc58c828d01613a34565b9950506020613bd68c828d01613a34565b9850506040613be78c828d01613a7b565b9750506060613bf88c828d01613ad3565b9650506080613c098c828d01613b1b565b95505060a08a013567ffffffffffffffff811115613c2a57613c296139e6565b5b613c368c828d01613b3f565b945094505060c08a013567ffffffffffffffff811115613c5957613c586139e6565b5b613c658c828d01613b3f565b92509250509295985092959850929598565b600081519050919050565b600082825260208201905092915050565b60005b83811015613cb1578082015181840152602081019050613c96565b60008484015250505050565b6000601f19601f8301169050919050565b6000613cd982613c77565b613ce38185613c82565b9350613cf3818560208601613c93565b613cfc81613cbd565b840191505092915050565b60006020820190508181036000830152613d218184613cce565b905092915050565b600060208284031215613d3f57613d3e6139e1565b5b6000613d4d84828501613a34565b91505092915050565b6000819050919050565b613d6981613d56565b82525050565b6000602082019050613d846000830184613d60565b92915050565b600080600080600060808688031215613da657613da56139e1565b5b6000613db488828901613a34565b9550506020613dc588828901613a34565b9450506040613dd688828901613a34565b935050606086013567ffffffffffffffff811115613df757613df66139e6565b5b613e0388828901613b3f565b92509250509295509295909350565b60008115159050919050565b613e2781613e12565b82525050565b6000602082019050613e426000830184613e1e565b92915050565b600080600060608486031215613e6157613e606139e1565b5b6000613e6f86828701613a34565b9350506020613e8086828701613a34565b9250506040613e9186828701613a34565b9150509250925092565b6000806000806000806000806000806101008b8d031215613ebf57613ebe6139e1565b5b6000613ecd8d828e01613a34565b9a50506020613ede8d828e01613a34565b9950506040613eef8d828e01613b1b565b9850506060613f008d828e01613a7b565b9750506080613f118d828e01613a34565b96505060a0613f228d828e01613b1b565b95505060c08b013567ffffffffffffffff811115613f4357613f426139e6565b5b613f4f8d828e01613b3f565b945094505060e08b013567ffffffffffffffff811115613f7257613f716139e6565b5b613f7e8d828e01613b3f565b92509250509295989b9194979a5092959850565b6000819050919050565b613fa581613f92565b82525050565b6000602082019050613fc06000830184613f9c565b92915050565b60008060408385031215613fdd57613fdc6139e1565b5b6000613feb85828601613a34565b9250506020613ffc85828601613a34565b9150509250929050565b61400f81613a0b565b82525050565b600060ff82169050919050565b61402b81614015565b82525050565b61403a81613ae8565b82525050565b61404981613a49565b82525050565b600060a0820190506140646000830188614006565b6140716020830187614022565b61407e6040830186613d60565b61408b6060830185614031565b6140986080830184614040565b9695505050505050565b60006020820190506140b76000830184614006565b92915050565b60008060008060008060008060c0898b0312156140dd576140dc6139e1565b5b60006140eb8b828c01613a34565b98505060206140fc8b828c01613b1b565b975050604061410d8b828c01613a7b565b965050606061411e8b828c01613b1b565b955050608089013567ffffffffffffffff81111561413f5761413e6139e6565b5b61414b8b828c01613b3f565b945094505060a089013567ffffffffffffffff81111561416e5761416d6139e6565b5b61417a8b828c01613b3f565b92509250509295985092959890939650565b600060808201905081810360008301526141a68187613cce565b905081810360208301526141ba8186613cce565b90506141c96040830185613d60565b6141d66060830184614006565b95945050505050565b6141e881613d56565b81146141f357600080fd5b50565b600081359050614205816141df565b92915050565b6000806000806000806000806000806101208b8d03121561422f5761422e6139e1565b5b600061423d8d828e01613a34565b9a5050602061424e8d828e01613a34565b995050604061425f8d828e01613a34565b98505060606142708d828e016141f6565b97505060806142818d828e01613b1b565b96505060a06142928d828e01613a7b565b95505060c06142a38d828e01613a34565b94505060e06142b48d828e01613b1b565b9350506101008b013567ffffffffffffffff8111156142d6576142d56139e6565b5b6142e28d828e01613b3f565b92509250509295989b9194979a5092959850565b60008060008060008060008060c0898b031215614316576143156139e1565b5b60006143248b828c01613a34565b98505060206143358b828c01613a34565b97505060406143468b828c01613a34565b96505060606143578b828c01613a34565b955050608089013567ffffffffffffffff811115614378576143776139e6565b5b6143848b828c01613b3f565b945094505060a089013567ffffffffffffffff8111156143a7576143a66139e6565b5b6143b38b828c01613b3f565b92509250509295985092959890939650565b6143ce81613e12565b81146143d957600080fd5b50565b6000813590506143eb816143c5565b92915050565b60008060408385031215614408576144076139e1565b5b600061441685828601613a34565b9250506020614427858286016143dc565b9150509250929050565b60006080820190506144466000830187613d60565b6144536020830186614031565b6144606040830185614040565b61446d6060830184614022565b95945050505050565b7f4c696e6b64726f70457363726f773a206d73672e73656e646572206973206e6f60008201527f742072656c617965722e00000000000000000000000000000000000000000000602082015250565b60006144d2602a83613c82565b91506144dd82614476565b604082019050919050565b60006020820190508181036000830152614501816144c5565b9050919050565b7f4c696e6b64726f70457363726f773a20696e76616c69642073656c6563746f72600082015250565b600061453e602083613c82565b915061454982614508565b602082019050919050565b6000602082019050818103600083015261456d81614531565b9050919050565b7f4c696e6b64726f70457363726f773a20696e76616c6964207472616e7366657260008201527f2049440000000000000000000000000000000000000000000000000000000000602082015250565b60006145d0602383613c82565b91506145db82614574565b604082019050919050565b600060208201905081810360008301526145ff816145c3565b9050919050565b600060808201905061461b6000830187614006565b6146286020830186614022565b6146356040830185613d60565b6146426060830184614031565b95945050505050565b7f4c696e6b64726f70457363726f773a2046656573206e6f7420617574686f726960008201527f7a65642e00000000000000000000000000000000000000000000000000000000602082015250565b60006146a7602483613c82565b91506146b28261464b565b604082019050919050565b600060208201905081810360008301526146d68161469a565b9050919050565b7f4c696e6b64726f70457363726f773a2063616e2774206265206164647265737360008201527f283029206173206120746f6b656e2e0000000000000000000000000000000000602082015250565b6000614739602f83613c82565b9150614744826146dd565b604082019050919050565b600060208201905081810360008301526147688161472c565b9050919050565b7f4c696e6b64726f70457363726f773a204465706f736974206e6f7420666f756e60008201527f6400000000000000000000000000000000000000000000000000000000000000602082015250565b60006147cb602183613c82565b91506147d68261476f565b604082019050919050565b600060208201905081810360008301526147fa816147be565b9050919050565b7f46656573206e6f7420617574686f72697a65642e000000000000000000000000600082015250565b6000614837601483613c82565b915061484282614801565b602082019050919050565b600060208201905081810360008301526148668161482a565b9050919050565b7f4c696e6b64726f70457363726f773a207472616e73666572496420697320696e60008201527f207573652e000000000000000000000000000000000000000000000000000000602082015250565b60006148c9602583613c82565b91506148d48261486d565b604082019050919050565b600060208201905081810360008301526148f8816148bc565b9050919050565b7f4c696e6b64726f70457363726f773a206465706f736974696e6720776974682060008201527f696e76616c69642065787069726174696f6e2e00000000000000000000000000602082015250565b600061495b603383613c82565b9150614966826148ff565b604082019050919050565b6000602082019050818103600083015261498a8161494e565b9050919050565b7f4c696e6b64726f70457363726f773a20616d6f756e74206e6f7420636f76657260008201527f65642e0000000000000000000000000000000000000000000000000000000000602082015250565b60006149ed602383613c82565b91506149f882614991565b604082019050919050565b60006020820190508181036000830152614a1c816149e0565b9050919050565b7f4c696e6b64726f70457363726f773a20616d6f756e7420646f6573206e6f742060008201527f636f766572206665652e00000000000000000000000000000000000000000000602082015250565b6000614a7f602a83613c82565b9150614a8a82614a23565b604082019050919050565b60006020820190508181036000830152614aae81614a72565b9050919050565b7f4e487b7100000000000000000000000000000000000000000000000000000000600052601160045260246000fd5b6000614aef82613ae8565b9150614afa83613ae8565b925082820390506fffffffffffffffffffffffffffffffff811115614b2257614b21614ab5565b5b92915050565b7f4e487b7100000000000000000000000000000000000000000000000000000000600052602260045260246000fd5b60006002820490506001821680614b6f57607f821691505b602082108103614b8257614b81614b28565b5b50919050565b60008160601b9050919050565b6000614ba082614b88565b9050919050565b6000614bb282614b95565b9050919050565b614bca614bc582613a0b565b614ba7565b82525050565b6000819050919050565b614beb614be682613d56565b614bd0565b82525050565b60008160801b9050919050565b6000614c0982614bf1565b9050919050565b614c21614c1c82613ae8565b614bfe565b82525050565b60008160881b9050919050565b6000614c3f82614c27565b9050919050565b614c57614c5282613a49565b614c34565b82525050565b6000614c69828b614bb9565b601482019150614c79828a614bb9565b601482019150614c898289614bb9565b601482019150614c998288614bda565b602082019150614ca98287614c10565b601082019150614cb98286614c46565b600f82019150614cc98285614bb9565b601482019150614cd98284614c10565b6010820191508190509998505050505050505050565b7f4c696e6b64726f70457363726f773a20696e76616c69642073656e646572207360008201527f69676e6174757265000000000000000000000000000000000000000000000000602082015250565b6000614d4b602883613c82565b9150614d5682614cef565b604082019050919050565b60006020820190508181036000830152614d7a81614d3e565b9050919050565b6000604082019050614d966000830185614006565b614da36020830184613e1e565b9392505050565b6000606082019050614dbf6000830186614006565b614dcc6020830185614006565b614dd96040830184613d60565b949350505050565b7f4f776e61626c653a206e6577206f776e657220697320746865207a65726f206160008201527f6464726573730000000000000000000000000000000000000000000000000000602082015250565b6000614e3d602683613c82565b9150614e4882614de1565b604082019050919050565b60006020820190508181036000830152614e6c81614e30565b9050919050565b600080fd5b600080fd5b60008085851115614e9157614e90614e73565b5b83861115614ea257614ea1614e78565b5b6001850283019150848603905094509492505050565b6000614ec3826139eb565b9050919050565b614ed381614eb8565b8114614ede57600080fd5b50565b600081359050614ef081614eca565b92915050565b614eff81613f92565b8114614f0a57600080fd5b50565b600081359050614f1c81614ef6565b92915050565b60008060008060008060c08789031215614f3f57614f3e6139e1565b5b6000614f4d89828a01614ee1565b9650506020614f5e89828a01614ee1565b9550506040614f6f89828a016141f6565b9450506060614f8089828a016141f6565b9350506080614f9189828a016141f6565b92505060a0614fa289828a01614f0d565b9150509295509295509295565b7f4c696e6b64726f70457363726f773a20496e76616c696420726563697069656e60008201527f7400000000000000000000000000000000000000000000000000000000000000602082015250565b600061500b602183613c82565b915061501682614faf565b604082019050919050565b6000602082019050818103600083015261503a81614ffe565b9050919050565b600061504d8288614bb9565b60148201915061505d8287614bb9565b60148201915061506d8286614bda565b60208201915061507d8285614c46565b600f8201915061508d8284614c10565b6010820191508190509695505050505050565b7f4c696e6b64726f70457363726f773a20496e76616c6964206e6f6e6365000000600082015250565b60006150d6601d83613c82565b91506150e1826150a0565b602082019050919050565b60006020820190508181036000830152615105816150c9565b9050919050565b6000819050919050565b61512761512282613a90565b61510c565b82525050565b600081905092915050565b82818337600083830152505050565b6000615153838561512d565b9350615160838584615138565b82840190509392505050565b60006151788286615116565b600482019150615189828486615147565b9150819050949350505050565b600081519050919050565b60006151ac82615196565b6151b6818561512d565b93506151c6818560208601613c93565b80840191505092915050565b60006151de82846151a1565b915081905092915050565b7f4c696e6b64726f70457363726f773a20617070726f7665206661696c65640000600082015250565b600061521f601e83613c82565b915061522a826151e9565b602082019050919050565b6000602082019050818103600083015261524e81615212565b9050919050565b7f4c696e6b64726f70457363726f773a20746f6b656e2073686f756c64206e6f7460008201527f2062652061646472657373283029000000000000000000000000000000000000602082015250565b60006152b1602e83613c82565b91506152bc82615255565b604082019050919050565b600060208201905081810360008301526152e0816152a4565b9050919050565b7f4c696e6b64726f70457363726f773a20666565732073686f756c64206265207060008201527f61696420696e20746f6b656e206e6f7420657468657200000000000000000000602082015250565b6000615343603683613c82565b915061534e826152e7565b604082019050919050565b6000602082019050818103600083015261537281615336565b9050919050565b600082825260208201905092915050565b60006153968385615379565b93506153a3838584615138565b6153ac83613cbd565b840190509392505050565b600060208201905081810360008301526153d281848661538a565b90509392505050565b60006153e78284614bb9565b60148201915081905092915050565b7f4c696e6b64726f70457363726f773a20696e76616c69642072656465656d207060008201527f6172616d73000000000000000000000000000000000000000000000000000000602082015250565b6000615452602583613c82565b915061545d826153f6565b604082019050919050565b6000602082019050818103600083015261548181615445565b9050919050565b7f4c696e6b64726f70457363726f773a207472616e73666572206578706972656460008201527f2e00000000000000000000000000000000000000000000000000000000000000602082015250565b60006154e4602183613c82565b91506154ef82615488565b604082019050919050565b60006020820190508181036000830152615513816154d7565b9050919050565b7f4c696e6b64726f70457363726f773a20756e6b6e6f776e20746f6b656e20747960008201527f7065000000000000000000000000000000000000000000000000000000000000602082015250565b6000615576602283613c82565b91506155818261551a565b604082019050919050565b600060208201905081810360008301526155a581615569565b9050919050565b7f4c696e6b64726f70457363726f773a20616464726573732073686f756c64206260008201527f65203020666f7220455448207472616e73666572730000000000000000000000602082015250565b6000615608603583613c82565b9150615613826155ac565b604082019050919050565b60006020820190508181036000830152615637816155fb565b9050919050565b7f4c696e6b64726f70457363726f773a20746f6b656e2061646472657373206e6f60008201527f742070726f766964656420746f206d616b65207472616e736665720000000000602082015250565b600061569a603b83613c82565b91506156a58261563e565b604082019050919050565b600060208201905081810360008301526156c98161568d565b9050919050565b7f4e487b7100000000000000000000000000000000000000000000000000000000600052604160045260246000fd5b600061570a82615196565b6157148185615379565b9350615724818560208601613c93565b61572d81613cbd565b840191505092915050565b600060a08201905061574d6000830188614006565b61575a6020830187614006565b6157676040830186613d60565b6157746060830185613d60565b818103608083015261578681846156ff565b90509695505050505050565b7f5265656e7472616e637947756172643a207265656e7472616e742063616c6c00600082015250565b60006157c8601f83613c82565b91506157d382615792565b602082019050919050565b600060208201905081810360008301526157f7816157bb565b9050919050565b60008151905061580d816143c5565b92915050565b600060208284031215615829576158286139e1565b5b6000615837848285016157fe565b91505092915050565b7f5354460000000000000000000000000000000000000000000000000000000000600082015250565b6000615876600383613c82565b915061588182615840565b602082019050919050565b600060208201905081810360008301526158a581615869565b9050919050565b7f4c696e6b64726f70457363726f773a206665657320666f72204552433230207460008201527f6f6b656e732063616e206265207061696420696e206e617469766520746f6b6560208201527f6e73206f6e6c792e000000000000000000000000000000000000000000000000604082015250565b600061592e604883613c82565b9150615939826158ac565b606082019050919050565b6000602082019050818103600083015261595d81615921565b9050919050565b7f4c696e6b64726f70457363726f773a20666565206e6f7420636f76657265642e600082015250565b600061599a602083613c82565b91506159a582615964565b602082019050919050565b600060208201905081810360008301526159c98161598d565b9050919050565b7f4f776e61626c653a2063616c6c6572206973206e6f7420746865206f776e6572600082015250565b6000615a06602083613c82565b9150615a11826159d0565b602082019050919050565b60006020820190508181036000830152615a35816159f9565b9050919050565b6000615a4782613d56565b9150615a5283613d56565b9250828201905080821115615a6a57615a69614ab5565b5b92915050565b600060e082019050615a85600083018a614006565b615a926020830189614040565b615a9f6040830188614022565b615aac6060830187613d60565b615ab96080830186614031565b615ac660a0830185614006565b615ad360c0830184614031565b98975050505050505050565b600081905092915050565b7f19457468657265756d205369676e6564204d6573736167653a0a333200000000600082015250565b6000615b20601c83615adf565b9150615b2b82615aea565b601c82019050919050565b6000819050919050565b615b51615b4c82613f92565b615b36565b82525050565b6000615b6282615b13565b9150615b6e8284615b40565b60208201915081905092915050565b7f5354450000000000000000000000000000000000000000000000000000000000600082015250565b6000615bb3600383613c82565b9150615bbe82615b7d565b602082019050919050565b60006020820190508181036000830152615be281615ba6565b9050919050565b6000604082019050615bfe6000830185614006565b615c0b6020830184613d60565b9392505050565b7f5354000000000000000000000000000000000000000000000000000000000000600082015250565b6000615c48600283613c82565b9150615c5382615c12565b602082019050919050565b60006020820190508181036000830152615c7781615c3b565b9050919050565b7f4e487b7100000000000000000000000000000000000000000000000000000000600052602160045260246000fd5b7f45434453413a20696e76616c6964207369676e61747572650000000000000000600082015250565b6000615ce3601883613c82565b9150615cee82615cad565b602082019050919050565b60006020820190508181036000830152615d1281615cd6565b9050919050565b7f45434453413a20696e76616c6964207369676e6174757265206c656e67746800600082015250565b6000615d4f601f83613c82565b9150615d5a82615d19565b602082019050919050565b60006020820190508181036000830152615d7e81615d42565b9050919050565b7f45434453413a20696e76616c6964207369676e6174757265202773272076616c60008201527f7565000000000000000000000000000000000000000000000000000000000000602082015250565b6000615de1602283613c82565b9150615dec82615d85565b604082019050919050565b60006020820190508181036000830152615e1081615dd4565b9050919050565b6000606082019050615e2c6000830186613f9c565b615e396020830185614006565b615e466040830184614006565b949350505050565b7f1901000000000000000000000000000000000000000000000000000000000000600082015250565b6000615e84600283615adf565b9150615e8f82615e4e565b600282019050919050565b6000615ea582615e77565b9150615eb18285615b40565b602082019150615ec18284615b40565b6020820191508190509392505050565b6000604082019050615ee66000830185613f9c565b8181036020830152615ef881846156ff565b90509392505050565b600081519050615f1081614ef6565b92915050565b600060208284031215615f2c57615f2b6139e1565b5b6000615f3a84828501615f01565b91505092915050565b6000608082019050615f586000830187613f9c565b615f656020830186614022565b615f726040830185613f9c565b615f7f6060830184613f9c565b9594505050505056fea2646970667358221220cc1388a0b21accee903d2f5701e15a9f63270d672318c6ec1f422804fbc8d58b64736f6c63430008110033",
  "linkReferences": {},
  "deployedLinkReferences": {}
}