{
  "_format": "hh-sol-artifact-1",
  "contractName": "LinkdropEscrowNetworkToken",
  "sourceName": "contracts/LinkdropEscrowNetworkToken.sol",
  "abi": [
    {
      "inputs": [
        {
          "internalType": "address",
          "name": "relayer_",
          "type": "address"
        },
        {
          "internalType": "uint128",
          "name": "claimFee_",
          "type": "uint128"
        }
      ],
      "stateMutability": "nonpayable",
      "type": "constructor"
    },
    {
      "anonymous": false,
      "inputs": [
        {
          "indexed": true,
          "internalType": "address",
          "name": "sender",
          "type": "address"
        },
        {
          "indexed": true,
          "internalType": "address",
          "name": "transferId",
          "type": "address"
        },
        {
          "indexed": false,
          "internalType": "uint128",
          "name": "amount",
          "type": "uint128"
        }
      ],
      "name": "Cancel",
      "type": "event"
    },
    {
      "anonymous": false,
      "inputs": [
        {
          "indexed": true,
          "internalType": "address",
          "name": "sender",
          "type": "address"
        },
        {
          "indexed": false,
          "internalType": "address",
          "name": "transferId",
          "type": "address"
        },
        {
          "indexed": false,
          "internalType": "uint128",
          "name": "amount",
          "type": "uint128"
        },
        {
          "indexed": false,
          "internalType": "uint128",
          "name": "fee",
          "type": "uint128"
        },
        {
          "indexed": false,
          "internalType": "uint128",
          "name": "expiration",
          "type": "uint128"
        }
      ],
      "name": "Deposit",
      "type": "event"
    },
    {
      "anonymous": false,
      "inputs": [
        {
          "indexed": true,
          "internalType": "address",
          "name": "previousOwner",
          "type": "address"
        },
        {
          "indexed": true,
          "internalType": "address",
          "name": "newOwner",
          "type": "address"
        }
      ],
      "name": "OwnershipTransferred",
      "type": "event"
    },
    {
      "anonymous": false,
      "inputs": [
        {
          "indexed": true,
          "internalType": "address",
          "name": "sender",
          "type": "address"
        },
        {
          "indexed": true,
          "internalType": "address",
          "name": "receiver",
          "type": "address"
        },
        {
          "indexed": false,
          "internalType": "address",
          "name": "transferId",
          "type": "address"
        },
        {
          "indexed": false,
          "internalType": "uint128",
          "name": "amount",
          "type": "uint128"
        }
      ],
      "name": "Redeem",
      "type": "event"
    },
    {
      "anonymous": false,
      "inputs": [
        {
          "indexed": true,
          "internalType": "address",
          "name": "sender",
          "type": "address"
        },
        {
          "indexed": true,
          "internalType": "address",
          "name": "transferId",
          "type": "address"
        },
        {
          "indexed": false,
          "internalType": "uint128",
          "name": "amount",
          "type": "uint128"
        }
      ],
      "name": "Refund",
      "type": "event"
    },
    {
      "anonymous": false,
      "inputs": [
        {
          "indexed": false,
          "internalType": "uint128",
          "name": "claimFee",
          "type": "uint128"
        },
        {
          "indexed": false,
          "internalType": "uint128",
          "name": "depositFee",
          "type": "uint128"
        }
      ],
      "name": "UpdateFees",
      "type": "event"
    },
    {
      "anonymous": false,
      "inputs": [
        {
          "indexed": false,
          "internalType": "address",
          "name": "relayer",
          "type": "address"
        },
        {
          "indexed": false,
          "internalType": "bool",
          "name": "active",
          "type": "bool"
        }
      ],
      "name": "UpdateRelayer",
      "type": "event"
    },
    {
      "anonymous": false,
      "inputs": [
        {
          "indexed": false,
          "internalType": "address",
          "name": "feeReceiver",
          "type": "address"
        },
        {
          "indexed": false,
          "internalType": "uint256",
          "name": "amount",
          "type": "uint256"
        }
      ],
      "name": "WithdrawFees",
      "type": "event"
    },
    {
      "inputs": [],
      "name": "EIP712_DOMAIN_TYPEHASH",
      "outputs": [
        {
          "internalType": "bytes32",
          "name": "",
          "type": "bytes32"
        }
      ],
      "stateMutability": "view",
      "type": "function"
    },
    {
      "inputs": [],
      "name": "_DOMAIN_SEPARATOR",
      "outputs": [
        {
          "internalType": "bytes32",
          "name": "",
          "type": "bytes32"
        }
      ],
      "stateMutability": "view",
      "type": "function"
    },
    {
      "inputs": [],
      "name": "_TRANSFER_TYPE_HASH",
      "outputs": [
        {
          "internalType": "bytes32",
          "name": "",
          "type": "bytes32"
        }
      ],
      "stateMutability": "view",
      "type": "function"
    },
    {
      "inputs": [],
      "name": "accruedFees",
      "outputs": [
        {
          "internalType": "uint256",
          "name": "",
          "type": "uint256"
        }
      ],
      "stateMutability": "view",
      "type": "function"
    },
    {
      "inputs": [
        {
          "internalType": "address",
          "name": "transferId_",
          "type": "address"
        }
      ],
      "name": "cancel",
      "outputs": [],
      "stateMutability": "nonpayable",
      "type": "function"
    },
    {
      "inputs": [],
      "name": "claimFee",
      "outputs": [
        {
          "internalType": "uint128",
          "name": "",
          "type": "uint128"
        }
      ],
      "stateMutability": "view",
      "type": "function"
    },
    {
      "inputs": [
        {
          "internalType": "address",
          "name": "transferId_",
          "type": "address"
        },
        {
          "internalType": "uint128",
          "name": "expiration_",
          "type": "uint128"
        }
      ],
      "name": "deposit",
      "outputs": [],
      "stateMutability": "payable",
      "type": "function"
    },
    {
      "inputs": [],
      "name": "depositFee",
      "outputs": [
        {
          "internalType": "uint128",
          "name": "",
          "type": "uint128"
        }
      ],
      "stateMutability": "view",
      "type": "function"
    },
    {
      "inputs": [
        {
          "internalType": "address",
          "name": "",
          "type": "address"
        },
        {
          "internalType": "address",
          "name": "",
          "type": "address"
        }
      ],
      "name": "deposits",
      "outputs": [
        {
          "internalType": "uint128",
          "name": "amount",
          "type": "uint128"
        },
        {
          "internalType": "uint128",
          "name": "expiration",
          "type": "uint128"
        }
      ],
      "stateMutability": "view",
      "type": "function"
    },
    {
      "inputs": [],
      "name": "domain",
      "outputs": [
        {
          "internalType": "string",
          "name": "name",
          "type": "string"
        },
        {
          "internalType": "string",
          "name": "version",
          "type": "string"
        },
        {
          "internalType": "uint256",
          "name": "chainId",
          "type": "uint256"
        },
        {
          "internalType": "address",
          "name": "verifyingContract",
          "type": "address"
        }
      ],
      "stateMutability": "view",
      "type": "function"
    },
    {
      "inputs": [
        {
          "internalType": "address",
          "name": "sender_",
          "type": "address"
        },
        {
          "internalType": "address",
          "name": "transferId_",
          "type": "address"
        }
      ],
      "name": "getDeposit",
      "outputs": [
        {
          "internalType": "address",
          "name": "tokenAddress",
          "type": "address"
        },
        {
          "internalType": "uint128",
          "name": "amount",
          "type": "uint128"
        },
        {
          "internalType": "uint128",
          "name": "expiration",
          "type": "uint128"
        }
      ],
      "stateMutability": "view",
      "type": "function"
    },
    {
      "inputs": [],
      "name": "getFees",
      "outputs": [
        {
          "internalType": "uint128",
          "name": "",
          "type": "uint128"
        },
        {
          "internalType": "uint128",
          "name": "",
          "type": "uint128"
        },
        {
          "internalType": "uint128",
          "name": "",
          "type": "uint128"
        }
      ],
      "stateMutability": "view",
      "type": "function"
    },
    {
      "inputs": [],
      "name": "owner",
      "outputs": [
        {
          "internalType": "address",
          "name": "",
          "type": "address"
        }
      ],
      "stateMutability": "view",
      "type": "function"
    },
    {
      "inputs": [
        {
          "internalType": "address",
          "name": "receiver_",
          "type": "address"
        },
        {
          "internalType": "bytes",
          "name": "receiverSig_",
          "type": "bytes"
        }
      ],
      "name": "recoverLinkKeyId",
      "outputs": [
        {
          "internalType": "address",
          "name": "linkKeyId",
          "type": "address"
        }
      ],
      "stateMutability": "pure",
      "type": "function"
    },
    {
      "inputs": [
        {
          "internalType": "address",
          "name": "linkKeyId_",
          "type": "address"
        },
        {
          "internalType": "address",
          "name": "transferId_",
          "type": "address"
        },
        {
          "internalType": "bytes",
          "name": "senderSig_",
          "type": "bytes"
        }
      ],
      "name": "recoverSender",
      "outputs": [
        {
          "internalType": "address",
          "name": "sender",
          "type": "address"
        }
      ],
      "stateMutability": "view",
      "type": "function"
    },
    {
      "inputs": [
        {
          "internalType": "address",
          "name": "receiver_",
          "type": "address"
        },
        {
          "internalType": "address",
          "name": "sender_",
          "type": "address"
        },
        {
          "internalType": "bytes",
          "name": "receiverSig_",
          "type": "bytes"
        },
        {
          "internalType": "bool",
          "name": "sponsored_",
          "type": "bool"
        }
      ],
      "name": "redeem",
      "outputs": [],
      "stateMutability": "nonpayable",
      "type": "function"
    },
    {
      "inputs": [
        {
          "internalType": "address",
          "name": "receiver_",
          "type": "address"
        },
        {
          "internalType": "address",
          "name": "transferId_",
          "type": "address"
        },
        {
          "internalType": "bytes",
          "name": "receiverSig_",
          "type": "bytes"
        },
        {
          "internalType": "bytes",
          "name": "senderSig_",
          "type": "bytes"
        },
        {
          "internalType": "bool",
          "name": "sponsored_",
          "type": "bool"
        }
      ],
      "name": "redeemRecovered",
      "outputs": [],
      "stateMutability": "nonpayable",
      "type": "function"
    },
    {
      "inputs": [
        {
          "internalType": "address",
          "name": "sender_",
          "type": "address"
        },
        {
          "internalType": "address",
          "name": "transferId_",
          "type": "address"
        },
        {
          "internalType": "bool",
          "name": "sponsored_",
          "type": "bool"
        }
      ],
      "name": "refund",
      "outputs": [],
      "stateMutability": "nonpayable",
      "type": "function"
    },
    {
      "inputs": [
        {
          "internalType": "address",
          "name": "",
          "type": "address"
        }
      ],
      "name": "relayers",
      "outputs": [
        {
          "internalType": "bool",
          "name": "",
          "type": "bool"
        }
      ],
      "stateMutability": "view",
      "type": "function"
    },
    {
      "inputs": [],
      "name": "renounceOwnership",
      "outputs": [],
      "stateMutability": "nonpayable",
      "type": "function"
    },
    {
      "inputs": [
        {
          "internalType": "uint128",
          "name": "claimFee_",
          "type": "uint128"
        }
      ],
      "name": "setFees",
      "outputs": [],
      "stateMutability": "nonpayable",
      "type": "function"
    },
    {
      "inputs": [
        {
          "internalType": "address",
          "name": "relayer_",
          "type": "address"
        },
        {
          "internalType": "bool",
          "name": "active_",
          "type": "bool"
        }
      ],
      "name": "setRelayer",
      "outputs": [],
      "stateMutability": "nonpayable",
      "type": "function"
    },
    {
      "inputs": [],
      "name": "token",
      "outputs": [
        {
          "internalType": "address",
          "name": "",
          "type": "address"
        }
      ],
      "stateMutability": "view",
      "type": "function"
    },
    {
      "inputs": [
        {
          "internalType": "address",
          "name": "newOwner",
          "type": "address"
        }
      ],
      "name": "transferOwnership",
      "outputs": [],
      "stateMutability": "nonpayable",
      "type": "function"
    },
    {
      "inputs": [],
      "name": "withdrawAccruedFees",
      "outputs": [],
      "stateMutability": "nonpayable",
      "type": "function"
    }
  ],
  "bytecode": "0x60a06040523480156200001157600080fd5b5060405162003fbd38038062003fbd833981810160405281019062000037919062000497565b620000576200004b6200031460201b60201c565b6200031c60201b60201c565b600046905060405180608001604052806040518060400160405280600e81526020017f4c696e6b64726f70457363726f7700000000000000000000000000000000000081525081526020016040518060400160405280600181526020017f320000000000000000000000000000000000000000000000000000000000000081525081526020018281526020013073ffffffffffffffffffffffffffffffffffffffff168152506001600082015181600001908162000116919062000758565b5060208201518160010190816200012e919062000758565b506040820151816002015560608201518160030160006101000a81548173ffffffffffffffffffffffffffffffffffffffff021916908373ffffffffffffffffffffffffffffffffffffffff1602179055509050507f8b73c3c69bb8fe3d512ecc4cf759cc79239f7b179b0ffacaa9a75d522b39400f6001600001604051620001b89190620008ee565b604051809103902060018001604051620001d39190620008ee565b604051809103902060016002015430604051602001620001f895949392919062000944565b60405160208183030381529060405280519060200120608081815250507fda3241d4d2732e32f76e33e29a986bf90890ff6cb9b8506b1059fc1f197a34e680146200027a576040517f08c379a0000000000000000000000000000000000000000000000000000000008152600401620002719062000a02565b60405180910390fd5b506001600860008473ffffffffffffffffffffffffffffffffffffffff1673ffffffffffffffffffffffffffffffffffffffff16815260200190815260200160002060006101000a81548160ff02191690831515021790555080600660006101000a8154816fffffffffffffffffffffffffffffffff02191690836fffffffffffffffffffffffffffffffff160217905550505062000a24565b600033905090565b60008060009054906101000a900473ffffffffffffffffffffffffffffffffffffffff169050816000806101000a81548173ffffffffffffffffffffffffffffffffffffffff021916908373ffffffffffffffffffffffffffffffffffffffff1602179055508173ffffffffffffffffffffffffffffffffffffffff168173ffffffffffffffffffffffffffffffffffffffff167f8be0079c531659141344cd1fd0a4f28419497f9722a3daafe3b4186f6b6457e060405160405180910390a35050565b600080fd5b600073ffffffffffffffffffffffffffffffffffffffff82169050919050565b60006200041282620003e5565b9050919050565b620004248162000405565b81146200043057600080fd5b50565b600081519050620004448162000419565b92915050565b60006fffffffffffffffffffffffffffffffff82169050919050565b62000471816200044a565b81146200047d57600080fd5b50565b600081519050620004918162000466565b92915050565b60008060408385031215620004b157620004b0620003e0565b5b6000620004c18582860162000433565b9250506020620004d48582860162000480565b9150509250929050565b600081519050919050565b7f4e487b7100000000000000000000000000000000000000000000000000000000600052604160045260246000fd5b7f4e487b7100000000000000000000000000000000000000000000000000000000600052602260045260246000fd5b600060028204905060018216806200056057607f821691505b60208210810362000576576200057562000518565b5b50919050565b60008190508160005260206000209050919050565b60006020601f8301049050919050565b600082821b905092915050565b600060088302620005e07fffffffffffffffffffffffffffffffffffffffffffffffffffffffffffffffff82620005a1565b620005ec8683620005a1565b95508019841693508086168417925050509392505050565b6000819050919050565b6000819050919050565b600062000639620006336200062d8462000604565b6200060e565b62000604565b9050919050565b6000819050919050565b620006558362000618565b6200066d620006648262000640565b848454620005ae565b825550505050565b600090565b6200068462000675565b620006918184846200064a565b505050565b5b81811015620006b957620006ad6000826200067a565b60018101905062000697565b5050565b601f8211156200070857620006d2816200057c565b620006dd8462000591565b81016020851015620006ed578190505b62000705620006fc8562000591565b83018262000696565b50505b505050565b600082821c905092915050565b60006200072d600019846008026200070d565b1980831691505092915050565b60006200074883836200071a565b9150826002028217905092915050565b6200076382620004de565b67ffffffffffffffff8111156200077f576200077e620004e9565b5b6200078b825462000547565b62000798828285620006bd565b600060209050601f831160018114620007d05760008415620007bb578287015190505b620007c785826200073a565b86555062000837565b601f198416620007e0866200057c565b60005b828110156200080a57848901518255600182019150602085019450602081019050620007e3565b868310156200082a578489015162000826601f8916826200071a565b8355505b6001600288020188555050505b505050505050565b600081905092915050565b60008190508160005260206000209050919050565b600081546200086e8162000547565b6200087a81866200083f565b94506001821660008114620008985760018114620008ae57620008e5565b60ff1983168652811515820286019350620008e5565b620008b9856200084a565b60005b83811015620008dd57815481890152600182019150602081019050620008bc565b838801955050505b50505092915050565b6000620008fc82846200085f565b915081905092915050565b6000819050919050565b6200091c8162000907565b82525050565b6200092d8162000604565b82525050565b6200093e8162000405565b82525050565b600060a0820190506200095b600083018862000911565b6200096a602083018762000911565b62000979604083018662000911565b62000988606083018562000922565b62000997608083018462000933565b9695505050505050565b600082825260208201905092915050565b7f4549503731323a20696e76616c69642074797065206861736800000000000000600082015250565b6000620009ea601983620009a1565b9150620009f782620009b2565b602082019050919050565b6000602082019050818103600083015262000a1d81620009db565b9050919050565b60805161357662000a47600039600081816114ba01526116a901526135766000f3fe6080604052600436106101665760003560e01c806399d32fc4116100d1578063c7977be71161008a578063dc0c81b511610064578063dc0c81b514610513578063ecd8dc3a1461053e578063f2fde38b14610567578063fc0c546a1461059057610166565b8063c7977be714610492578063cbe95afb146104bd578063db8d55f1146104e657610166565b806399d32fc41461039e578063ada82c7d146103c9578063b3fb6564146103e0578063c2fb26a6146103fc578063c35082a91461042a578063c3a6f5f51461046957610166565b8063715018a611610123578063715018a6146102a157806371d68372146102b85780638759c8de146102e35780638da5cb5b1461030c5780638f601f661461033757806397665a261461037557610166565b80633d6e85e61461016b5780633e0dd0d9146101a85780634c33fe94146101e55780635300f8411461020e57806367a527931461024b578063682c205814610276575b600080fd5b34801561017757600080fd5b50610192600480360381019061018d9190612363565b6105bb565b60405161019f91906123d2565b60405180910390f35b3480156101b457600080fd5b506101cf60048036038101906101ca91906123ed565b610647565b6040516101dc91906123d2565b60405180910390f35b3480156101f157600080fd5b5061020c60048036038101906102079190612461565b6106af565b005b34801561021a57600080fd5b5061023560048036038101906102309190612461565b6108d6565b60405161024291906124a9565b60405180910390f35b34801561025757600080fd5b506102606108f6565b60405161026d91906124ef565b60405180910390f35b34801561028257600080fd5b5061028b610918565b6040516102989190612523565b60405180910390f35b3480156102ad57600080fd5b506102b661091e565b005b3480156102c457600080fd5b506102cd610932565b6040516102da9190612557565b60405180910390f35b3480156102ef57600080fd5b5061030a6004803603810190610305919061259e565b610956565b005b34801561031857600080fd5b50610321610e41565b60405161032e91906123d2565b60405180910390f35b34801561034357600080fd5b5061035e600480360381019061035991906125f1565b610e6a565b60405161036c929190612631565b60405180910390f35b34801561038157600080fd5b5061039c6004803603810190610397919061265a565b610ed3565b005b3480156103aa57600080fd5b506103b3610f95565b6040516103c091906124ef565b60405180910390f35b3480156103d557600080fd5b506103de610fb7565b005b6103fa60048036038101906103f59190612742565b611051565b005b34801561040857600080fd5b50610411611061565b6040516104219493929190612812565b60405180910390f35b34801561043657600080fd5b50610451600480360381019061044c91906125f1565b6111af565b60405161046093929190612865565b60405180910390f35b34801561047557600080fd5b50610490600480360381019061048b919061289c565b6112fa565b005b34801561049e57600080fd5b506104a76113a9565b6040516104b49190612557565b60405180910390f35b3480156104c957600080fd5b506104e460048036038101906104df9190612924565b6113cd565b005b3480156104f257600080fd5b506104fb611469565b60405161050a93929190612951565b60405180910390f35b34801561051f57600080fd5b506105286114b8565b6040516105359190612557565b60405180910390f35b34801561054a57600080fd5b5061056560048036038101906105609190612988565b6114dc565b005b34801561057357600080fd5b5061058e60048036038101906105899190612461565b611578565b005b34801561059c57600080fd5b506105a56115fb565b6040516105b291906123d2565b60405180910390f35b6000806105ed856040516020016105d29190612a10565b60405160208183030381529060405280519060200120611600565b905061063d8185858080601f016020809104026020016040519081016040528093929190818152602001838380828437600081840152601f19601f82011690508083019250505050505050611630565b9150509392505050565b6000806106548686611657565b90506106a48185858080601f016020809104026020016040519081016040528093929190818152602001838380828437600081840152601f19601f82011690508083019250505050505050611630565b915050949350505050565b6000600560003373ffffffffffffffffffffffffffffffffffffffff1673ffffffffffffffffffffffffffffffffffffffff16815260200190815260200160002060008373ffffffffffffffffffffffffffffffffffffffff1673ffffffffffffffffffffffffffffffffffffffff16815260200190815260200160002060000160009054906101000a90046fffffffffffffffffffffffffffffffff169050600560003373ffffffffffffffffffffffffffffffffffffffff1673ffffffffffffffffffffffffffffffffffffffff16815260200190815260200160002060008373ffffffffffffffffffffffffffffffffffffffff1673ffffffffffffffffffffffffffffffffffffffff168152602001908152602001600020600080820160006101000a8154906fffffffffffffffffffffffffffffffff02191690556000820160106101000a8154906fffffffffffffffffffffffffffffffff021916905550503373ffffffffffffffffffffffffffffffffffffffff166108fc826fffffffffffffffffffffffffffffffff169081150290604051600060405180830381858888f1935050505015801561086c573d6000803e3d6000fd5b508173ffffffffffffffffffffffffffffffffffffffff163373ffffffffffffffffffffffffffffffffffffffff167f9c14a150b242a32a5dfbdd4d156b4f08198c9d11bd022641e0ca6938889e5738836040516108ca91906124ef565b60405180910390a35050565b60086020528060005260406000206000915054906101000a900460ff1681565b600660109054906101000a90046fffffffffffffffffffffffffffffffff1681565b60075481565b6109266116f9565b6109306000611777565b565b7fda3241d4d2732e32f76e33e29a986bf90890ff6cb9b8506b1059fc1f197a34e681565b600860003373ffffffffffffffffffffffffffffffffffffffff1673ffffffffffffffffffffffffffffffffffffffff16815260200190815260200160002060009054906101000a900460ff166109e2576040517f08c379a00000000000000000000000000000000000000000000000000000000081526004016109d990612a9d565b60405180910390fd5b6000600560008573ffffffffffffffffffffffffffffffffffffffff1673ffffffffffffffffffffffffffffffffffffffff16815260200190815260200160002060008473ffffffffffffffffffffffffffffffffffffffff1673ffffffffffffffffffffffffffffffffffffffff1681526020019081526020016000206040518060400160405290816000820160009054906101000a90046fffffffffffffffffffffffffffffffff166fffffffffffffffffffffffffffffffff166fffffffffffffffffffffffffffffffff1681526020016000820160109054906101000a90046fffffffffffffffffffffffffffffffff166fffffffffffffffffffffffffffffffff166fffffffffffffffffffffffffffffffff168152505090506000816000015190506000816fffffffffffffffffffffffffffffffff1611610b5f576040517f08c379a0000000000000000000000000000000000000000000000000000000008152600401610b5690612b2f565b60405180910390fd5b81602001516fffffffffffffffffffffffffffffffff16421015610bb8576040517f08c379a0000000000000000000000000000000000000000000000000000000008152600401610baf90612bc1565b60405180910390fd5b82610cb757600660009054906101000a90046fffffffffffffffffffffffffffffffff166fffffffffffffffffffffffffffffffff16816fffffffffffffffffffffffffffffffff1611610c41576040517f08c379a0000000000000000000000000000000000000000000000000000000008152600401610c3890612c53565b60405180910390fd5b600660009054906101000a90046fffffffffffffffffffffffffffffffff1681610c6b9190612ca2565b9050600660009054906101000a90046fffffffffffffffffffffffffffffffff166fffffffffffffffffffffffffffffffff1660076000828254610caf9190612ce6565b925050819055505b600560008673ffffffffffffffffffffffffffffffffffffffff1673ffffffffffffffffffffffffffffffffffffffff16815260200190815260200160002060008573ffffffffffffffffffffffffffffffffffffffff1673ffffffffffffffffffffffffffffffffffffffff168152602001908152602001600020600080820160006101000a8154906fffffffffffffffffffffffffffffffff02191690556000820160106101000a8154906fffffffffffffffffffffffffffffffff021916905550508473ffffffffffffffffffffffffffffffffffffffff166108fc826fffffffffffffffffffffffffffffffff169081150290604051600060405180830381858888f19350505050158015610dd4573d6000803e3d6000fd5b508373ffffffffffffffffffffffffffffffffffffffff168573ffffffffffffffffffffffffffffffffffffffff167fb47e9b8d45d35fc0395da5c6b68ac1e0cc45d95ebe52a008f3e4a716f27186b583604051610e3291906124ef565b60405180910390a35050505050565b60008060009054906101000a900473ffffffffffffffffffffffffffffffffffffffff16905090565b6005602052816000526040600020602052806000526040600020600091509150508060000160009054906101000a90046fffffffffffffffffffffffffffffffff16908060000160109054906101000a90046fffffffffffffffffffffffffffffffff16905082565b600860003373ffffffffffffffffffffffffffffffffffffffff1673ffffffffffffffffffffffffffffffffffffffff16815260200190815260200160002060009054906101000a900460ff16610f5f576040517f08c379a0000000000000000000000000000000000000000000000000000000008152600401610f5690612a9d565b60405180910390fd5b6000610f6c8887876105bb565b90506000610f7c82898787610647565b9050610f8a81898b8661183b565b505050505050505050565b600660009054906101000a90046fffffffffffffffffffffffffffffffff1681565b610fbf6116f9565b6000600754905060006007819055503373ffffffffffffffffffffffffffffffffffffffff166108fc829081150290604051600060405180830381858888f19350505050158015611014573d6000803e3d6000fd5b507f9bba815921f12cb7b1408e14b5ade745234397d39623ae5e7c82d693cb45815f3382604051611046929190612d1a565b60405180910390a150565b61105d33833484611c9c565b5050565b600180600001805461107290612d72565b80601f016020809104026020016040519081016040528092919081815260200182805461109e90612d72565b80156110eb5780601f106110c0576101008083540402835291602001916110eb565b820191906000526020600020905b8154815290600101906020018083116110ce57829003601f168201915b50505050509080600101805461110090612d72565b80601f016020809104026020016040519081016040528092919081815260200182805461112c90612d72565b80156111795780601f1061114e57610100808354040283529160200191611179565b820191906000526020600020905b81548152906001019060200180831161115c57829003601f168201915b5050505050908060020154908060030160009054906101000a900473ffffffffffffffffffffffffffffffffffffffff16905084565b600080600080600560008773ffffffffffffffffffffffffffffffffffffffff1673ffffffffffffffffffffffffffffffffffffffff16815260200190815260200160002060008673ffffffffffffffffffffffffffffffffffffffff1673ffffffffffffffffffffffffffffffffffffffff16815260200190815260200160002060000160009054906101000a90046fffffffffffffffffffffffffffffffff16600560008873ffffffffffffffffffffffffffffffffffffffff1673ffffffffffffffffffffffffffffffffffffffff16815260200190815260200160002060008773ffffffffffffffffffffffffffffffffffffffff1673ffffffffffffffffffffffffffffffffffffffff16815260200190815260200160002060000160109054906101000a90046fffffffffffffffffffffffffffffffff169250925092509250925092565b600860003373ffffffffffffffffffffffffffffffffffffffff1673ffffffffffffffffffffffffffffffffffffffff16815260200190815260200160002060009054906101000a900460ff16611386576040517f08c379a000000000000000000000000000000000000000000000000000000000815260040161137d90612a9d565b60405180910390fd5b60006113938685856105bb565b90506113a18582888561183b565b505050505050565b7f8b73c3c69bb8fe3d512ecc4cf759cc79239f7b179b0ffacaa9a75d522b39400f81565b6113d56116f9565b80600660006101000a8154816fffffffffffffffffffffffffffffffff02191690836fffffffffffffffffffffffffffffffff1602179055507f011eba83806634de7f6e4bd39154e636355e53ba508fe5e17f4b58c22b868255600660009054906101000a90046fffffffffffffffffffffffffffffffff16600060405161145e929190612de8565b60405180910390a150565b600080600080600660009054906101000a90046fffffffffffffffffffffffffffffffff16600660009054906101000a90046fffffffffffffffffffffffffffffffff16925092509250909192565b7f000000000000000000000000000000000000000000000000000000000000000081565b6114e46116f9565b80600860008473ffffffffffffffffffffffffffffffffffffffff1673ffffffffffffffffffffffffffffffffffffffff16815260200190815260200160002060006101000a81548160ff0219169083151502179055507f34e1cf41794bd5b78c6251cacf103835b835d3ad103d8471ae5f3df532ff3112828260405161156c929190612e11565b60405180910390a15050565b6115806116f9565b600073ffffffffffffffffffffffffffffffffffffffff168173ffffffffffffffffffffffffffffffffffffffff16036115ef576040517f08c379a00000000000000000000000000000000000000000000000000000000081526004016115e690612eac565b60405180910390fd5b6115f881611777565b50565b600081565b6000816040516020016116139190612f44565b604051602081830303815290604052805190602001209050919050565b600080600061163f8585611ff5565b9150915061164c81612046565b819250505092915050565b6000807fda3241d4d2732e32f76e33e29a986bf90890ff6cb9b8506b1059fc1f197a34e6848460405160200161168f93929190612f6a565b6040516020818303038152906040528051906020012090507f0000000000000000000000000000000000000000000000000000000000000000816040516020016116da929190612fed565b6040516020818303038152906040528051906020012091505092915050565b6117016121ac565b73ffffffffffffffffffffffffffffffffffffffff1661171f610e41565b73ffffffffffffffffffffffffffffffffffffffff1614611775576040517f08c379a000000000000000000000000000000000000000000000000000000000815260040161176c90613070565b60405180910390fd5b565b60008060009054906101000a900473ffffffffffffffffffffffffffffffffffffffff169050816000806101000a81548173ffffffffffffffffffffffffffffffffffffffff021916908373ffffffffffffffffffffffffffffffffffffffff1602179055508173ffffffffffffffffffffffffffffffffffffffff168173ffffffffffffffffffffffffffffffffffffffff167f8be0079c531659141344cd1fd0a4f28419497f9722a3daafe3b4186f6b6457e060405160405180910390a35050565b6000600560008673ffffffffffffffffffffffffffffffffffffffff1673ffffffffffffffffffffffffffffffffffffffff16815260200190815260200160002060008573ffffffffffffffffffffffffffffffffffffffff1673ffffffffffffffffffffffffffffffffffffffff1681526020019081526020016000206040518060400160405290816000820160009054906101000a90046fffffffffffffffffffffffffffffffff166fffffffffffffffffffffffffffffffff166fffffffffffffffffffffffffffffffff1681526020016000820160109054906101000a90046fffffffffffffffffffffffffffffffff166fffffffffffffffffffffffffffffffff166fffffffffffffffffffffffffffffffff168152505090506000816000015190506000816fffffffffffffffffffffffffffffffff16116119b8576040517f08c379a00000000000000000000000000000000000000000000000000000000081526004016119af90612c53565b60405180910390fd5b81602001516fffffffffffffffffffffffffffffffff164210611a10576040517f08c379a0000000000000000000000000000000000000000000000000000000008152600401611a0790613102565b60405180910390fd5b82611b0f57600660009054906101000a90046fffffffffffffffffffffffffffffffff166fffffffffffffffffffffffffffffffff16816fffffffffffffffffffffffffffffffff1611611a99576040517f08c379a0000000000000000000000000000000000000000000000000000000008152600401611a9090612c53565b60405180910390fd5b600660009054906101000a90046fffffffffffffffffffffffffffffffff1681611ac39190612ca2565b9050600660009054906101000a90046fffffffffffffffffffffffffffffffff166fffffffffffffffffffffffffffffffff1660076000828254611b079190612ce6565b925050819055505b600560008773ffffffffffffffffffffffffffffffffffffffff1673ffffffffffffffffffffffffffffffffffffffff16815260200190815260200160002060008673ffffffffffffffffffffffffffffffffffffffff1673ffffffffffffffffffffffffffffffffffffffff168152602001908152602001600020600080820160006101000a8154906fffffffffffffffffffffffffffffffff02191690556000820160106101000a8154906fffffffffffffffffffffffffffffffff021916905550508373ffffffffffffffffffffffffffffffffffffffff166108fc826fffffffffffffffffffffffffffffffff169081150290604051600060405180830381858888f19350505050158015611c2c573d6000803e3d6000fd5b508373ffffffffffffffffffffffffffffffffffffffff168673ffffffffffffffffffffffffffffffffffffffff167fd0e8d444f00ec5aa4324486921804d120fa58016c6917cc2f04a3b8b4a30b44c8784604051611c8c929190613122565b60405180910390a3505050505050565b6000600560008673ffffffffffffffffffffffffffffffffffffffff1673ffffffffffffffffffffffffffffffffffffffff16815260200190815260200160002060008573ffffffffffffffffffffffffffffffffffffffff1673ffffffffffffffffffffffffffffffffffffffff16815260200190815260200160002060000160009054906101000a90046fffffffffffffffffffffffffffffffff166fffffffffffffffffffffffffffffffff1614611d8c576040517f08c379a0000000000000000000000000000000000000000000000000000000008152600401611d83906131bd565b60405180910390fd5b600660009054906101000a90046fffffffffffffffffffffffffffffffff166fffffffffffffffffffffffffffffffff16826fffffffffffffffffffffffffffffffff1611611e10576040517f08c379a0000000000000000000000000000000000000000000000000000000008152600401611e079061324f565b60405180910390fd5b42816fffffffffffffffffffffffffffffffff1611611e64576040517f08c379a0000000000000000000000000000000000000000000000000000000008152600401611e5b906132e1565b60405180910390fd5b6040518060400160405280836fffffffffffffffffffffffffffffffff168152602001826fffffffffffffffffffffffffffffffff16815250600560008673ffffffffffffffffffffffffffffffffffffffff1673ffffffffffffffffffffffffffffffffffffffff16815260200190815260200160002060008573ffffffffffffffffffffffffffffffffffffffff1673ffffffffffffffffffffffffffffffffffffffff16815260200190815260200160002060008201518160000160006101000a8154816fffffffffffffffffffffffffffffffff02191690836fffffffffffffffffffffffffffffffff16021790555060208201518160000160106101000a8154816fffffffffffffffffffffffffffffffff02191690836fffffffffffffffffffffffffffffffff1602179055509050508373ffffffffffffffffffffffffffffffffffffffff167f449f5a808ec951065eda61c83a4d2b29171e72779f4d33530021ead390e54cf18484600085604051611fe79493929190613301565b60405180910390a250505050565b60008060418351036120365760008060006020860151925060408601519150606086015160001a905061202a878285856121b4565b9450945050505061203f565b60006002915091505b9250929050565b6000600481111561205a57612059613346565b5b81600481111561206d5761206c613346565b5b03156121a9576001600481111561208757612086613346565b5b81600481111561209a57612099613346565b5b036120da576040517f08c379a00000000000000000000000000000000000000000000000000000000081526004016120d1906133c1565b60405180910390fd5b600260048111156120ee576120ed613346565b5b81600481111561210157612100613346565b5b03612141576040517f08c379a00000000000000000000000000000000000000000000000000000000081526004016121389061342d565b60405180910390fd5b6003600481111561215557612154613346565b5b81600481111561216857612167613346565b5b036121a8576040517f08c379a000000000000000000000000000000000000000000000000000000000815260040161219f906134bf565b60405180910390fd5b5b50565b600033905090565b6000807f7fffffffffffffffffffffffffffffff5d576e7357a4501ddfe92f46681b20a08360001c11156121ef57600060039150915061228d565b60006001878787876040516000815260200160405260405161221494939291906134fb565b6020604051602081039080840390855afa158015612236573d6000803e3d6000fd5b505050602060405103519050600073ffffffffffffffffffffffffffffffffffffffff168173ffffffffffffffffffffffffffffffffffffffff16036122845760006001925092505061228d565b80600092509250505b94509492505050565b600080fd5b600080fd5b600073ffffffffffffffffffffffffffffffffffffffff82169050919050565b60006122cb826122a0565b9050919050565b6122db816122c0565b81146122e657600080fd5b50565b6000813590506122f8816122d2565b92915050565b600080fd5b600080fd5b600080fd5b60008083601f840112612323576123226122fe565b5b8235905067ffffffffffffffff8111156123405761233f612303565b5b60208301915083600182028301111561235c5761235b612308565b5b9250929050565b60008060006040848603121561237c5761237b612296565b5b600061238a868287016122e9565b935050602084013567ffffffffffffffff8111156123ab576123aa61229b565b5b6123b78682870161230d565b92509250509250925092565b6123cc816122c0565b82525050565b60006020820190506123e760008301846123c3565b92915050565b6000806000806060858703121561240757612406612296565b5b6000612415878288016122e9565b9450506020612426878288016122e9565b935050604085013567ffffffffffffffff8111156124475761244661229b565b5b6124538782880161230d565b925092505092959194509250565b60006020828403121561247757612476612296565b5b6000612485848285016122e9565b91505092915050565b60008115159050919050565b6124a38161248e565b82525050565b60006020820190506124be600083018461249a565b92915050565b60006fffffffffffffffffffffffffffffffff82169050919050565b6124e9816124c4565b82525050565b600060208201905061250460008301846124e0565b92915050565b6000819050919050565b61251d8161250a565b82525050565b60006020820190506125386000830184612514565b92915050565b6000819050919050565b6125518161253e565b82525050565b600060208201905061256c6000830184612548565b92915050565b61257b8161248e565b811461258657600080fd5b50565b60008135905061259881612572565b92915050565b6000806000606084860312156125b7576125b6612296565b5b60006125c5868287016122e9565b93505060206125d6868287016122e9565b92505060406125e786828701612589565b9150509250925092565b6000806040838503121561260857612607612296565b5b6000612616858286016122e9565b9250506020612627858286016122e9565b9150509250929050565b600060408201905061264660008301856124e0565b61265360208301846124e0565b9392505050565b600080600080600080600060a0888a03121561267957612678612296565b5b60006126878a828b016122e9565b97505060206126988a828b016122e9565b965050604088013567ffffffffffffffff8111156126b9576126b861229b565b5b6126c58a828b0161230d565b9550955050606088013567ffffffffffffffff8111156126e8576126e761229b565b5b6126f48a828b0161230d565b935093505060806127078a828b01612589565b91505092959891949750929550565b61271f816124c4565b811461272a57600080fd5b50565b60008135905061273c81612716565b92915050565b6000806040838503121561275957612758612296565b5b6000612767858286016122e9565b92505060206127788582860161272d565b9150509250929050565b600081519050919050565b600082825260208201905092915050565b60005b838110156127bc5780820151818401526020810190506127a1565b60008484015250505050565b6000601f19601f8301169050919050565b60006127e482612782565b6127ee818561278d565b93506127fe81856020860161279e565b612807816127c8565b840191505092915050565b6000608082019050818103600083015261282c81876127d9565b9050818103602083015261284081866127d9565b905061284f6040830185612514565b61285c60608301846123c3565b95945050505050565b600060608201905061287a60008301866123c3565b61288760208301856124e0565b61289460408301846124e0565b949350505050565b6000806000806000608086880312156128b8576128b7612296565b5b60006128c6888289016122e9565b95505060206128d7888289016122e9565b945050604086013567ffffffffffffffff8111156128f8576128f761229b565b5b6129048882890161230d565b9350935050606061291788828901612589565b9150509295509295909350565b60006020828403121561293a57612939612296565b5b60006129488482850161272d565b91505092915050565b600060608201905061296660008301866124e0565b61297360208301856124e0565b61298060408301846124e0565b949350505050565b6000806040838503121561299f5761299e612296565b5b60006129ad858286016122e9565b92505060206129be85828601612589565b9150509250929050565b60008160601b9050919050565b60006129e0826129c8565b9050919050565b60006129f2826129d5565b9050919050565b612a0a612a05826122c0565b6129e7565b82525050565b6000612a1c82846129f9565b60148201915081905092915050565b7f4c696e6b64726f70457363726f773a206d73672e73656e646572206973206e6f60008201527f742072656c617965722e00000000000000000000000000000000000000000000602082015250565b6000612a87602a8361278d565b9150612a9282612a2b565b604082019050919050565b60006020820190508181036000830152612ab681612a7a565b9050919050565b7f4c696e6b64726f70457363726f773a20696e76616c6964207472616e7366657260008201527f2049440000000000000000000000000000000000000000000000000000000000602082015250565b6000612b1960238361278d565b9150612b2482612abd565b604082019050919050565b60006020820190508181036000830152612b4881612b0c565b9050919050565b7f4c696e6b64726f70457363726f773a207472616e73666572206e6f742065787060008201527f69726564207965742e0000000000000000000000000000000000000000000000602082015250565b6000612bab60298361278d565b9150612bb682612b4f565b604082019050919050565b60006020820190508181036000830152612bda81612b9e565b9050919050565b7f4c696e6b64726f70457363726f773a20696e76616c69642072656465656d207060008201527f6172616d73000000000000000000000000000000000000000000000000000000602082015250565b6000612c3d60258361278d565b9150612c4882612be1565b604082019050919050565b60006020820190508181036000830152612c6c81612c30565b9050919050565b7f4e487b7100000000000000000000000000000000000000000000000000000000600052601160045260246000fd5b6000612cad826124c4565b9150612cb8836124c4565b925082820390506fffffffffffffffffffffffffffffffff811115612ce057612cdf612c73565b5b92915050565b6000612cf18261250a565b9150612cfc8361250a565b9250828201905080821115612d1457612d13612c73565b5b92915050565b6000604082019050612d2f60008301856123c3565b612d3c6020830184612514565b9392505050565b7f4e487b7100000000000000000000000000000000000000000000000000000000600052602260045260246000fd5b60006002820490506001821680612d8a57607f821691505b602082108103612d9d57612d9c612d43565b5b50919050565b6000819050919050565b6000819050919050565b6000612dd2612dcd612dc884612da3565b612dad565b6124c4565b9050919050565b612de281612db7565b82525050565b6000604082019050612dfd60008301856124e0565b612e0a6020830184612dd9565b9392505050565b6000604082019050612e2660008301856123c3565b612e33602083018461249a565b9392505050565b7f4f776e61626c653a206e6577206f776e657220697320746865207a65726f206160008201527f6464726573730000000000000000000000000000000000000000000000000000602082015250565b6000612e9660268361278d565b9150612ea182612e3a565b604082019050919050565b60006020820190508181036000830152612ec581612e89565b9050919050565b600081905092915050565b7f19457468657265756d205369676e6564204d6573736167653a0a333200000000600082015250565b6000612f0d601c83612ecc565b9150612f1882612ed7565b601c82019050919050565b6000819050919050565b612f3e612f398261253e565b612f23565b82525050565b6000612f4f82612f00565b9150612f5b8284612f2d565b60208201915081905092915050565b6000606082019050612f7f6000830186612548565b612f8c60208301856123c3565b612f9960408301846123c3565b949350505050565b7f1901000000000000000000000000000000000000000000000000000000000000600082015250565b6000612fd7600283612ecc565b9150612fe282612fa1565b600282019050919050565b6000612ff882612fca565b91506130048285612f2d565b6020820191506130148284612f2d565b6020820191508190509392505050565b7f4f776e61626c653a2063616c6c6572206973206e6f7420746865206f776e6572600082015250565b600061305a60208361278d565b915061306582613024565b602082019050919050565b600060208201905081810360008301526130898161304d565b9050919050565b7f4c696e6b64726f70457363726f773a207472616e73666572206578706972656460008201527f2e00000000000000000000000000000000000000000000000000000000000000602082015250565b60006130ec60218361278d565b91506130f782613090565b604082019050919050565b6000602082019050818103600083015261311b816130df565b9050919050565b600060408201905061313760008301856123c3565b61314460208301846124e0565b9392505050565b7f4c696e6b64726f70457363726f773a207472616e73666572496420697320696e60008201527f207573652e000000000000000000000000000000000000000000000000000000602082015250565b60006131a760258361278d565b91506131b28261314b565b604082019050919050565b600060208201905081810360008301526131d68161319a565b9050919050565b7f4c696e6b64726f70457363726f773a20616d6f756e74206973206c657373207460008201527f68616e20746f74616c20666565732e0000000000000000000000000000000000602082015250565b6000613239602f8361278d565b9150613244826131dd565b604082019050919050565b600060208201905081810360008301526132688161322c565b9050919050565b7f4c696e6b64726f70457363726f773a206465706f736974696e6720776974682060008201527f696e76616c69642065787069726174696f6e2e00000000000000000000000000602082015250565b60006132cb60338361278d565b91506132d68261326f565b604082019050919050565b600060208201905081810360008301526132fa816132be565b9050919050565b600060808201905061331660008301876123c3565b61332360208301866124e0565b6133306040830185612dd9565b61333d60608301846124e0565b95945050505050565b7f4e487b7100000000000000000000000000000000000000000000000000000000600052602160045260246000fd5b7f45434453413a20696e76616c6964207369676e61747572650000000000000000600082015250565b60006133ab60188361278d565b91506133b682613375565b602082019050919050565b600060208201905081810360008301526133da8161339e565b9050919050565b7f45434453413a20696e76616c6964207369676e6174757265206c656e67746800600082015250565b6000613417601f8361278d565b9150613422826133e1565b602082019050919050565b600060208201905081810360008301526134468161340a565b9050919050565b7f45434453413a20696e76616c6964207369676e6174757265202773272076616c60008201527f7565000000000000000000000000000000000000000000000000000000000000602082015250565b60006134a960228361278d565b91506134b48261344d565b604082019050919050565b600060208201905081810360008301526134d88161349c565b9050919050565b600060ff82169050919050565b6134f5816134df565b82525050565b60006080820190506135106000830187612548565b61351d60208301866134ec565b61352a6040830185612548565b6135376060830184612548565b9594505050505056fea2646970667358221220b402d79d323eebcb332f054ba17240601e47daaf99715b3633f656a9cc520f6964736f6c63430008110033",
  "linkReferences": {},
  "deployedLinkReferences": {}
}